{"contracts/PlatformVerificationRegistry.sol":{"PlatformVerificationRegistry":{"abi":[{"inputs":[],"stateMutability":"nonpayable","type":"constructor"},{"inputs":[],"name":"AccessControlBadConfirmation","type":"error"},{"inputs":[{"internalType":"address","name":"account","type":"address"},{"internalType":"bytes32","name":"neededRole","type":"bytes32"}],"name":"AccessControlUnauthorizedAccount","type":"error"},{"inputs":[],"name":"ReentrancyGuardReentrantCall","type":"error"},{"anonymous":false,"inputs":[{"indexed":true,"internalType":"bytes32","name":"platformId","type":"bytes32"}],"name":"PlatformDeactivated","type":"event"},{"anonymous":false,"inputs":[{"indexed":true,"internalType":"bytes32","name":"platformId","type":"bytes32"},{"indexed":false,"internalType":"string","name":"name","type":"string"},{"indexed":false,"internalType":"string","name":"domain","type":"string"}],"name":"PlatformRegistered","type":"event"},{"anonymous":false,"inputs":[{"indexed":true,"internalType":"bytes32","name":"platformId","type":"bytes32"}],"name":"PlatformUpdated","type":"event"},{"anonymous":false,"inputs":[{"indexed":true,"internalType":"bytes32","name":"role","type":"bytes32"},{"indexed":true,"internalType":"bytes32","name":"previousAdminRole","type":"bytes32"},{"indexed":true,"internalType":"bytes32","name":"newAdminRole","type":"bytes32"}],"name":"RoleAdminChanged","type":"event"},{"anonymous":false,"inputs":[{"indexed":true,"internalType":"bytes32","name":"role","type":"bytes32"},{"indexed":true,"internalType":"address","name":"account","type":"address"},{"indexed":true,"internalType":"address","name":"sender","type":"address"}],"name":"RoleGranted","type":"event"},{"anonymous":false,"inputs":[{"indexed":true,"internalType":"bytes32","name":"role","type":"bytes32"},{"indexed":true,"internalType":"address","name":"account","type":"address"},{"indexed":true,"internalType":"address","name":"sender","type":"address"}],"name":"RoleRevoked","type":"event"},{"anonymous":false,"inputs":[{"indexed":true,"internalType":"bytes32","name":"identityDID","type":"bytes32"},{"indexed":true,"internalType":"bytes32","name":"platformId","type":"bytes32"},{"indexed":false,"internalType":"uint8","name":"newScore","type":"uint8"}],"name":"TrustScoreUpdated","type":"event"},{"anonymous":false,"inputs":[{"indexed":true,"internalType":"bytes32","name":"identityDID","type":"bytes32"},{"indexed":true,"internalType":"bytes32","name":"platformId","type":"bytes32"},{"indexed":false,"internalType":"string","name":"platformUserId","type":"string"}],"name":"VerificationCreated","type":"event"},{"anonymous":false,"inputs":[{"indexed":true,"internalType":"bytes32","name":"identityDID","type":"bytes32"},{"indexed":true,"internalType":"bytes32","name":"platformId","type":"bytes32"}],"name":"VerificationExpired","type":"event"},{"anonymous":false,"inputs":[{"indexed":true,"internalType":"bytes32","name":"identityDID","type":"bytes32"},{"indexed":true,"internalType":"bytes32","name":"platformId","type":"bytes32"}],"name":"VerificationRevoked","type":"event"},{"inputs":[],"name":"DEFAULT_ADMIN_ROLE","outputs":[{"internalType":"bytes32","name":"","type":"bytes32"}],"stateMutability":"view","type":"function"},{"inputs":[],"name":"PLATFORM_ADMIN_ROLE","outputs":[{"internalType":"bytes32","name":"","type":"bytes32"}],"stateMutability":"view","type":"function"},{"inputs":[{"internalType":"bytes32[]","name":"_identityDIDs","type":"bytes32[]"},{"internalType":"bytes32","name":"_platformId","type":"bytes32"}],"name":"batchVerificationCheck","outputs":[{"internalType":"bool[]","name":"","type":"bool[]"}],"stateMutability":"view","type":"function"},{"inputs":[{"internalType":"bytes32","name":"_identityDID","type":"bytes32"},{"internalType":"bytes32","name":"_platformId","type":"bytes32"},{"internalType":"string","name":"_platformUserId","type":"string"},{"internalType":"uint256","name":"_expirationDays","type":"uint256"},{"internalType":"bytes32","name":"_attestationHash","type":"bytes32"}],"name":"createVerification","outputs":[],"stateMutability":"nonpayable","type":"function"},{"inputs":[{"internalType":"bytes32","name":"_platformId","type":"bytes32"}],"name":"deactivatePlatform","outputs":[],"stateMutability":"nonpayable","type":"function"},{"inputs":[{"internalType":"string","name":"","type":"string"}],"name":"domainToPlatform","outputs":[{"internalType":"bytes32","name":"","type":"bytes32"}],"stateMutability":"view","type":"function"},{"inputs":[{"internalType":"bytes32","name":"_platformId","type":"bytes32"},{"internalType":"string","name":"_platformUserId","type":"string"}],"name":"getIdentityByPlatformUser","outputs":[{"internalType":"bytes32","name":"","type":"bytes32"}],"stateMutability":"view","type":"function"},{"inputs":[{"internalType":"bytes32","name":"_platformId","type":"bytes32"}],"name":"getPlatform","outputs":[{"internalType":"string","name":"name","type":"string"},{"internalType":"string","name":"domain","type":"string"},{"internalType":"address","name":"adminAddress","type":"address"},{"internalType":"bool","name":"isActive","type":"bool"},{"internalType":"uint256","name":"registeredAt","type":"uint256"},{"internalType":"uint256","name":"totalVerifications","type":"uint256"},{"internalType":"enum PlatformVerificationRegistry.PlatformType","name":"platformType","type":"uint8"}],"stateMutability":"view","type":"function"},{"inputs":[{"internalType":"bytes32","name":"_platformId","type":"bytes32"}],"name":"getPlatformVerifiedIdentities","outputs":[{"internalType":"bytes32[]","name":"","type":"bytes32[]"}],"stateMutability":"view","type":"function"},{"inputs":[{"internalType":"bytes32","name":"role","type":"bytes32"}],"name":"getRoleAdmin","outputs":[{"internalType":"bytes32","name":"","type":"bytes32"}],"stateMutability":"view","type":"function"},{"inputs":[{"internalType":"bytes32","name":"_identityDID","type":"bytes32"},{"internalType":"bytes32","name":"_platformId","type":"bytes32"}],"name":"getVerification","outputs":[{"internalType":"string","name":"platformUserId","type":"string"},{"internalType":"uint256","name":"verifiedAt","type":"uint256"},{"internalType":"uint256","name":"expiresAt","type":"uint256"},{"internalType":"bool","name":"isActive","type":"bool"},{"internalType":"uint8","name":"trustScore","type":"uint8"},{"internalType":"bytes32","name":"attestationHash","type":"bytes32"}],"stateMutability":"view","type":"function"},{"inputs":[{"internalType":"bytes32","name":"role","type":"bytes32"},{"internalType":"address","name":"account","type":"address"}],"name":"grantRole","outputs":[],"stateMutability":"nonpayable","type":"function"},{"inputs":[{"internalType":"bytes32","name":"role","type":"bytes32"},{"internalType":"address","name":"account","type":"address"}],"name":"hasRole","outputs":[{"internalType":"bool","name":"","type":"bool"}],"stateMutability":"view","type":"function"},{"inputs":[{"internalType":"bytes32","name":"_identityDID","type":"bytes32"},{"internalType":"bytes32","name":"_platformId","type":"bytes32"}],"name":"isVerificationValid","outputs":[{"internalType":"bool","name":"","type":"bool"}],"stateMutability":"view","type":"function"},{"inputs":[{"internalType":"bytes32","name":"","type":"bytes32"},{"internalType":"string","name":"","type":"string"}],"name":"platformUserToIdentity","outputs":[{"internalType":"bytes32","name":"","type":"bytes32"}],"stateMutability":"view","type":"function"},{"inputs":[{"internalType":"bytes32","name":"","type":"bytes32"},{"internalType":"uint256","name":"","type":"uint256"}],"name":"platformVerifiedIdentities","outputs":[{"internalType":"bytes32","name":"","type":"bytes32"}],"stateMutability":"view","type":"function"},{"inputs":[{"internalType":"bytes32","name":"","type":"bytes32"}],"name":"platforms","outputs":[{"internalType":"string","name":"name","type":"string"},{"internalType":"string","name":"domain","type":"string"},{"internalType":"address","name":"adminAddress","type":"address"},{"internalType":"bool","name":"isActive","type":"bool"},{"internalType":"uint256","name":"registeredAt","type":"uint256"},{"internalType":"uint256","name":"totalVerifications","type":"uint256"},{"internalType":"enum PlatformVerificationRegistry.PlatformType","name":"platformType","type":"uint8"}],"stateMutability":"view","type":"function"},{"inputs":[{"internalType":"string","name":"_name","type":"string"},{"internalType":"string","name":"_domain","type":"string"},{"internalType":"enum PlatformVerificationRegistry.PlatformType","name":"_platformType","type":"uint8"}],"name":"registerPlatform","outputs":[{"internalType":"bytes32","name":"","type":"bytes32"}],"stateMutability":"nonpayable","type":"function"},{"inputs":[{"internalType":"bytes32","name":"role","type":"bytes32"},{"internalType":"address","name":"callerConfirmation","type":"address"}],"name":"renounceRole","outputs":[],"stateMutability":"nonpayable","type":"function"},{"inputs":[{"internalType":"bytes32","name":"role","type":"bytes32"},{"internalType":"address","name":"account","type":"address"}],"name":"revokeRole","outputs":[],"stateMutability":"nonpayable","type":"function"},{"inputs":[{"internalType":"bytes32","name":"_identityDID","type":"bytes32"},{"internalType":"bytes32","name":"_platformId","type":"bytes32"}],"name":"revokeVerification","outputs":[],"stateMutability":"nonpayable","type":"function"},{"inputs":[{"internalType":"bytes4","name":"interfaceId","type":"bytes4"}],"name":"supportsInterface","outputs":[{"internalType":"bool","name":"","type":"bool"}],"stateMutability":"view","type":"function"},{"inputs":[],"name":"totalPlatformVerifications","outputs":[{"internalType":"uint256","name":"","type":"uint256"}],"stateMutability":"view","type":"function"},{"inputs":[],"name":"totalPlatforms","outputs":[{"internalType":"uint256","name":"","type":"uint256"}],"stateMutability":"view","type":"function"},{"inputs":[{"internalType":"bytes32","name":"_identityDID","type":"bytes32"},{"internalType":"bytes32","name":"_platformId","type":"bytes32"},{"internalType":"uint8","name":"_newScore","type":"uint8"}],"name":"updateTrustScore","outputs":[],"stateMutability":"nonpayable","type":"function"},{"inputs":[{"internalType":"bytes32","name":"","type":"bytes32"},{"internalType":"bytes32","name":"","type":"bytes32"}],"name":"verifications","outputs":[{"internalType":"bytes32","name":"identityDID","type":"bytes32"},{"internalType":"bytes32","name":"platformId","type":"bytes32"},{"internalType":"string","name":"platformUserId","type":"string"},{"internalType":"uint256","name":"verifiedAt","type":"uint256"},{"internalType":"uint256","name":"expiresAt","type":"uint256"},{"internalType":"bool","name":"isActive","type":"bool"},{"internalType":"uint8","name":"trustScore","type":"uint8"},{"internalType":"bytes32","name":"attestationHash","type":"bytes32"}],"stateMutability":"view","type":"function"}],"evm":{"bytecode":{"linkReferences":{},"object":"60806040523480156200001157600080fd5b50600180819055506200002e6000801b336200006860201b60201c565b50620000617f5246556c0ab216b5b325ad7c539bfbd1a07c768773cdf810fecd3c3375c27407336200006860201b60201c565b50620001dd565b60006200007c83836200016b60201b60201c565b6200016057600160008085815260200190815260200160002060000160008473ffffffffffffffffffffffffffffffffffffffff1673ffffffffffffffffffffffffffffffffffffffff16815260200190815260200160002060006101000a81548160ff021916908315150217905550620000fc620001d560201b60201c565b73ffffffffffffffffffffffffffffffffffffffff168273ffffffffffffffffffffffffffffffffffffffff16847f2f8788117e7eff1d82e926ec794901d17c78024a50270940304540a733656f0d60405160405180910390a46001905062000165565b600090505b92915050565b600080600084815260200190815260200160002060000160008373ffffffffffffffffffffffffffffffffffffffff1673ffffffffffffffffffffffffffffffffffffffff16815260200190815260200160002060009054906101000a900460ff16905092915050565b600033905090565b6137d180620001ed6000396000f3fe608060405234801561001057600080fd5b506004361061018e5760003560e01c8063685d34ff116100de578063aedaf0e111610097578063bdd6fba311610071578063bdd6fba314610506578063c103770a14610536578063d547741f1461056b578063e15e285d146105875761018e565b8063aedaf0e11461049a578063b6500f3a146104ca578063b8fcef8b146104e85761018e565b8063685d34ff146103b25780636ed598b1146103d0578063810152f9146103ec57806391d148541461041c5780639c5195ce1461044c578063a217fddf1461047c5761018e565b80632f2ff15d1161014b57806336568abe1161012557806336568abe146102fa57806336d182041461031657806349ce99aa1461034c578063569cd4cb1461037c5761018e565b80632f2ff15d14610292578063347db40a146102ae57806335a56408146102ca5761018e565b806301ffc9a714610193578063031692f7146101c35780631e26a644146101df578063248a9ca31461021657806324f1553c146102465780632db951e014610276575b600080fd5b6101ad60048036038101906101a89190612295565b6105b7565b6040516101ba91906122dd565b60405180910390f35b6101dd60048036038101906101d8919061232e565b610631565b005b6101f960048036038101906101f4919061235b565b610765565b60405161020d98979695949392919061246f565b60405180910390f35b610230600480360381019061022b919061232e565b61085c565b60405161023d91906124f4565b60405180910390f35b610260600480360381019061025b9190612669565b61087b565b60405161026d91906124f4565b60405180910390f35b610290600480360381019061028b9190612720565b610b8e565b005b6102ac60048036038101906102a79190612815565b610fe5565b005b6102c860048036038101906102c3919061235b565b611007565b005b6102e460048036038101906102df919061235b565b6111c2565b6040516102f191906122dd565b60405180910390f35b610314600480360381019061030f9190612815565b611338565b005b610330600480360381019061032b919061232e565b6113b3565b60405161034397969594939291906128db565b60405180910390f35b61036660048036038101906103619190612958565b61153f565b60405161037391906124f4565b60405180910390f35b6103966004803603810190610391919061232e565b61156d565b6040516103a997969594939291906128db565b60405180910390f35b6103ba6117ba565b6040516103c791906124f4565b60405180910390f35b6103ea60048036038101906103e591906129cd565b6117de565b005b61040660048036038101906104019190612a20565b6119ec565b60405161041391906124f4565b60405180910390f35b61043660048036038101906104319190612815565b611a27565b60405161044391906122dd565b60405180910390f35b6104666004803603810190610461919061232e565b611a91565b6040516104739190612b3a565b60405180910390f35b610484611afc565b60405161049191906124f4565b60405180910390f35b6104b460048036038101906104af9190612a20565b611b03565b6040516104c191906124f4565b60405180910390f35b6104d2611b3d565b6040516104df9190612b5c565b60405180910390f35b6104f0611b43565b6040516104fd9190612b5c565b60405180910390f35b610520600480360381019061051b9190612c3f565b611b49565b60405161052d9190612d59565b60405180910390f35b610550600480360381019061054b919061235b565b611d5f565b60405161056296959493929190612d7b565b60405180910390f35b61058560048036038101906105809190612815565b611ecd565b005b6105a1600480360381019061059c9190612de3565b611eef565b6040516105ae91906124f4565b60405180910390f35b60007f7965db0b000000000000000000000000000000000000000000000000000000007bffffffffffffffffffffffffffffffffffffffffffffffffffffffff1916827bffffffffffffffffffffffffffffffffffffffffffffffffffffffff1916148061062a575061062982611f20565b5b9050919050565b3373ffffffffffffffffffffffffffffffffffffffff166002600083815260200190815260200160002060020160009054906101000a900473ffffffffffffffffffffffffffffffffffffffff1673ffffffffffffffffffffffffffffffffffffffff1614806106c757506106c67f5246556c0ab216b5b325ad7c539bfbd1a07c768773cdf810fecd3c3375c2740733611a27565b5b610706576040517f08c379a00000000000000000000000000000000000000000000000000000000081526004016106fd90612e6f565b60405180910390fd5b60006002600083815260200190815260200160002060020160146101000a81548160ff021916908315150217905550807f522bc54a0fd2fea5bb35eb6b6739c8a7cf9742d87175c557fde738a20535e37760405160405180910390a250565b6004602052816000526040600020602052806000526040600020600091509150508060000154908060010154908060020180546107a190612ebe565b80601f01602080910402602001604051908101604052809291908181526020018280546107cd90612ebe565b801561081a5780601f106107ef5761010080835404028352916020019161081a565b820191906000526020600020905b8154815290600101906020018083116107fd57829003601f168201915b5050505050908060030154908060040154908060050160009054906101000a900460ff16908060050160019054906101000a900460ff16908060060154905088565b6000806000838152602001908152602001600020600101549050919050565b60007f5246556c0ab216b5b325ad7c539bfbd1a07c768773cdf810fecd3c3375c274076108a781611f8a565b60008551116108eb576040517f08c379a00000000000000000000000000000000000000000000000000000000081526004016108e290612f3b565b60405180910390fd5b600084511161092f576040517f08c379a000000000000000000000000000000000000000000000000000000000815260040161092690612fa7565b60405180910390fd5b6000801b6003856040516109439190613003565b90815260200160405180910390205414610992576040517f08c379a000000000000000000000000000000000000000000000000000000000815260040161098990613066565b60405180910390fd5b60008585426040516020016109a9939291906130a7565b6040516020818303038152906040528051906020012090506040518060e001604052808781526020018681526020013373ffffffffffffffffffffffffffffffffffffffff16815260200160011515815260200142815260200160008152602001856005811115610a1d57610a1c612864565b5b815250600260008381526020019081526020016000206000820151816000019081610a489190613288565b506020820151816001019081610a5e9190613288565b5060408201518160020160006101000a81548173ffffffffffffffffffffffffffffffffffffffff021916908373ffffffffffffffffffffffffffffffffffffffff16021790555060608201518160020160146101000a81548160ff0219169083151502179055506080820151816003015560a0820151816004015560c08201518160050160006101000a81548160ff02191690836005811115610b0557610b04612864565b5b021790555090505080600386604051610b1e9190613003565b90815260200160405180910390208190555060076000815480929190610b4390613389565b9190505550807fdf54865156ffce3a68f059178f9be22f7404adbc964700f21f0738e780ed1f5f8787604051610b7a9291906133d1565b60405180910390a280925050509392505050565b610b96611f9e565b6002600085815260200190815260200160002060020160149054906101000a900460ff16610bf9576040517f08c379a0000000000000000000000000000000000000000000000000000000008152600401610bf090613454565b60405180910390fd5b3373ffffffffffffffffffffffffffffffffffffffff166002600086815260200190815260200160002060020160009054906101000a900473ffffffffffffffffffffffffffffffffffffffff1673ffffffffffffffffffffffffffffffffffffffff161480610c8f5750610c8e7f5246556c0ab216b5b325ad7c539bfbd1a07c768773cdf810fecd3c3375c2740733611a27565b5b610cce576040517f08c379a0000000000000000000000000000000000000000000000000000000008152600401610cc590612e6f565b60405180910390fd5b6000835111610d12576040517f08c379a0000000000000000000000000000000000000000000000000000000008152600401610d09906134c0565b60405180910390fd5b6000801b8503610d57576040517f08c379a0000000000000000000000000000000000000000000000000000000008152600401610d4e9061352c565b60405180910390fd5b60046000868152602001908152602001600020600085815260200190815260200160002060050160009054906101000a900460ff1615610dcc576040517f08c379a0000000000000000000000000000000000000000000000000000000008152600401610dc390613598565b60405180910390fd5b6000808311610ddc576000610df7565b6201518083610deb91906135b8565b42610df691906135fa565b5b9050604051806101000160405280878152602001868152602001858152602001428152602001828152602001600115158152602001603260ff1681526020018381525060046000888152602001908152602001600020600087815260200190815260200160002060008201518160000155602082015181600101556040820151816002019081610e879190613288565b50606082015181600301556080820151816004015560a08201518160050160006101000a81548160ff02191690831515021790555060c08201518160050160016101000a81548160ff021916908360ff16021790555060e0820151816006015590505060056000868152602001908152602001600020869080600181540180825580915050600190039060005260206000200160009091909190915055856006600087815260200190815260200160002085604051610f469190613003565b908152602001604051809103902081905550600260008681526020019081526020016000206004016000815480929190610f7f90613389565b919050555060086000815480929190610f9790613389565b919050555084867ff0d2e29484d6824bf38cf41b7c1f019d959b96aeb2332beb51a01da3ec4bdbcc86604051610fcd919061362e565b60405180910390a350610fde611fe4565b5050505050565b610fee8261085c565b610ff781611f8a565b6110018383611fed565b50505050565b3373ffffffffffffffffffffffffffffffffffffffff166002600083815260200190815260200160002060020160009054906101000a900473ffffffffffffffffffffffffffffffffffffffff1673ffffffffffffffffffffffffffffffffffffffff16148061109d575061109c7f5246556c0ab216b5b325ad7c539bfbd1a07c768773cdf810fecd3c3375c2740733611a27565b5b6110dc576040517f08c379a00000000000000000000000000000000000000000000000000000000081526004016110d390612e6f565b60405180910390fd5b60046000838152602001908152602001600020600082815260200190815260200160002060050160009054906101000a900460ff16611150576040517f08c379a00000000000000000000000000000000000000000000000000000000081526004016111479061369c565b60405180910390fd5b600060046000848152602001908152602001600020600083815260200190815260200160002060050160006101000a81548160ff02191690831515021790555080827f15bf8741a06406fc7d301dfe8b50df03bd47b33e0cd494549d8ab9f9294a531160405160405180910390a35050565b60008060046000858152602001908152602001600020600084815260200190815260200160002060405180610100016040529081600082015481526020016001820154815260200160028201805461121990612ebe565b80601f016020809104026020016040519081016040528092919081815260200182805461124590612ebe565b80156112925780601f1061126757610100808354040283529160200191611292565b820191906000526020600020905b81548152906001019060200180831161127557829003601f168201915b5050505050815260200160038201548152602001600482015481526020016005820160009054906101000a900460ff161515151581526020016005820160019054906101000a900460ff1660ff1660ff16815260200160068201548152505090508060a00151611306576000915050611332565b6000816080015111801561131d5750806080015142115b1561132c576000915050611332565b60019150505b92915050565b6113406120de565b73ffffffffffffffffffffffffffffffffffffffff168173ffffffffffffffffffffffffffffffffffffffff16146113a4576040517f6697b23200000000000000000000000000000000000000000000000000000000815260040160405180910390fd5b6113ae82826120e6565b505050565b60026020528060005260406000206000915090508060000180546113d690612ebe565b80601f016020809104026020016040519081016040528092919081815260200182805461140290612ebe565b801561144f5780601f106114245761010080835404028352916020019161144f565b820191906000526020600020905b81548152906001019060200180831161143257829003601f168201915b50505050509080600101805461146490612ebe565b80601f016020809104026020016040519081016040528092919081815260200182805461149090612ebe565b80156114dd5780601f106114b2576101008083540402835291602001916114dd565b820191906000526020600020905b8154815290600101906020018083116114c057829003601f168201915b5050505050908060020160009054906101000a900473ffffffffffffffffffffffffffffffffffffffff16908060020160149054906101000a900460ff16908060030154908060040154908060050160009054906101000a900460ff16905087565b6003818051602081018201805184825260208301602085012081835280955050505050506000915090505481565b606080600080600080600080600260008a81526020019081526020016000206040518060e00160405290816000820180546115a790612ebe565b80601f01602080910402602001604051908101604052809291908181526020018280546115d390612ebe565b80156116205780601f106115f557610100808354040283529160200191611620565b820191906000526020600020905b81548152906001019060200180831161160357829003601f168201915b5050505050815260200160018201805461163990612ebe565b80601f016020809104026020016040519081016040528092919081815260200182805461166590612ebe565b80156116b25780601f10611687576101008083540402835291602001916116b2565b820191906000526020600020905b81548152906001019060200180831161169557829003601f168201915b505050505081526020016002820160009054906101000a900473ffffffffffffffffffffffffffffffffffffffff1673ffffffffffffffffffffffffffffffffffffffff1673ffffffffffffffffffffffffffffffffffffffff1681526020016002820160149054906101000a900460ff1615151515815260200160038201548152602001600482015481526020016005820160009054906101000a900460ff16600581111561176557611764612864565b5b600581111561177757611776612864565b5b815250509050806000015181602001518260400151836060015184608001518560a001518660c00151975097509750975097509750975050919395979092949650565b7f5246556c0ab216b5b325ad7c539bfbd1a07c768773cdf810fecd3c3375c2740781565b3373ffffffffffffffffffffffffffffffffffffffff166002600084815260200190815260200160002060020160009054906101000a900473ffffffffffffffffffffffffffffffffffffffff1673ffffffffffffffffffffffffffffffffffffffff16148061187457506118737f5246556c0ab216b5b325ad7c539bfbd1a07c768773cdf810fecd3c3375c2740733611a27565b5b6118b3576040517f08c379a00000000000000000000000000000000000000000000000000000000081526004016118aa90612e6f565b60405180910390fd5b60648160ff1611156118fa576040517f08c379a00000000000000000000000000000000000000000000000000000000081526004016118f190613708565b60405180910390fd5b60046000848152602001908152602001600020600083815260200190815260200160002060050160009054906101000a900460ff1661196e576040517f08c379a00000000000000000000000000000000000000000000000000000000081526004016119659061369c565b60405180910390fd5b8060046000858152602001908152602001600020600084815260200190815260200160002060050160016101000a81548160ff021916908360ff16021790555081837f4e0b167ebc696f4a7840b3658a5ad865b14ccedf67e9b96ac3c56960fd814e07836040516119df9190613728565b60405180910390a3505050565b600660205281600052604060002081805160208101820180518482526020830160208501208183528095505050505050600091509150505481565b600080600084815260200190815260200160002060000160008373ffffffffffffffffffffffffffffffffffffffff1673ffffffffffffffffffffffffffffffffffffffff16815260200190815260200160002060009054906101000a900460ff16905092915050565b606060056000838152602001908152602001600020805480602002602001604051908101604052809291908181526020018280548015611af057602002820191906000526020600020905b815481526020019060010190808311611adc575b50505050509050919050565b6000801b81565b60006006600084815260200190815260200160002082604051611b269190613003565b908152602001604051809103902054905092915050565b60085481565b60075481565b60606000835167ffffffffffffffff811115611b6857611b67612519565b5b604051908082528060200260200182016040528015611b965781602001602082028036833780820191505090505b50905060005b8451811015611d5457600060046000878481518110611bbe57611bbd613743565b5b602002602001015181526020019081526020016000206000868152602001908152602001600020604051806101000160405290816000820154815260200160018201548152602001600282018054611c1590612ebe565b80601f0160208091040260200160405190810160405280929190818152602001828054611c4190612ebe565b8015611c8e5780601f10611c6357610100808354040283529160200191611c8e565b820191906000526020600020905b815481529060010190602001808311611c7157829003601f168201915b5050505050815260200160038201548152602001600482015481526020016005820160009054906101000a900460ff161515151581526020016005820160019054906101000a900460ff1660ff1660ff168152602001600682015481525050905060008160a00151905060008260800151118015611d0f5750816080015142115b15611d1957600090505b80848481518110611d2d57611d2c613743565b5b60200260200101901515908115158152505050508080611d4c90613389565b915050611b9c565b508091505092915050565b6060600080600080600080600460008a81526020019081526020016000206000898152602001908152602001600020604051806101000160405290816000820154815260200160018201548152602001600282018054611dbe90612ebe565b80601f0160208091040260200160405190810160405280929190818152602001828054611dea90612ebe565b8015611e375780601f10611e0c57610100808354040283529160200191611e37565b820191906000526020600020905b815481529060010190602001808311611e1a57829003601f168201915b5050505050815260200160038201548152602001600482015481526020016005820160009054906101000a900460ff161515151581526020016005820160019054906101000a900460ff1660ff1660ff16815260200160068201548152505090508060400151816060015182608001518360a001518460c001518560e00151965096509650965096509650509295509295509295565b611ed68261085c565b611edf81611f8a565b611ee983836120e6565b50505050565b60056020528160005260406000208181548110611f0b57600080fd5b90600052602060002001600091509150505481565b60007f01ffc9a7000000000000000000000000000000000000000000000000000000007bffffffffffffffffffffffffffffffffffffffffffffffffffffffff1916827bffffffffffffffffffffffffffffffffffffffffffffffffffffffff1916149050919050565b611f9b81611f966120de565b6121d8565b50565b600260015403611fda576040517f3ee5aeb500000000000000000000000000000000000000000000000000000000815260040160405180910390fd5b6002600181905550565b60018081905550565b6000611ff98383611a27565b6120d357600160008085815260200190815260200160002060000160008473ffffffffffffffffffffffffffffffffffffffff1673ffffffffffffffffffffffffffffffffffffffff16815260200190815260200160002060006101000a81548160ff0219169083151502179055506120706120de565b73ffffffffffffffffffffffffffffffffffffffff168273ffffffffffffffffffffffffffffffffffffffff16847f2f8788117e7eff1d82e926ec794901d17c78024a50270940304540a733656f0d60405160405180910390a4600190506120d8565b600090505b92915050565b600033905090565b60006120f28383611a27565b156121cd57600080600085815260200190815260200160002060000160008473ffffffffffffffffffffffffffffffffffffffff1673ffffffffffffffffffffffffffffffffffffffff16815260200190815260200160002060006101000a81548160ff02191690831515021790555061216a6120de565b73ffffffffffffffffffffffffffffffffffffffff168273ffffffffffffffffffffffffffffffffffffffff16847ff6391f5c32d9c69d2a47ea670b442974b53935d1edc7fd64eb21e047a839171b60405160405180910390a4600190506121d2565b600090505b92915050565b6121e28282611a27565b6122255780826040517fe2517d3f00000000000000000000000000000000000000000000000000000000815260040161221c929190613772565b60405180910390fd5b5050565b6000604051905090565b600080fd5b600080fd5b60007fffffffff0000000000000000000000000000000000000000000000000000000082169050919050565b6122728161223d565b811461227d57600080fd5b50565b60008135905061228f81612269565b92915050565b6000602082840312156122ab576122aa612233565b5b60006122b984828501612280565b91505092915050565b60008115159050919050565b6122d7816122c2565b82525050565b60006020820190506122f260008301846122ce565b92915050565b6000819050919050565b61230b816122f8565b811461231657600080fd5b50565b60008135905061232881612302565b92915050565b60006020828403121561234457612343612233565b5b600061235284828501612319565b91505092915050565b6000806040838503121561237257612371612233565b5b600061238085828601612319565b925050602061239185828601612319565b9150509250929050565b6123a4816122f8565b82525050565b600081519050919050565b600082825260208201905092915050565b60005b838110156123e45780820151818401526020810190506123c9565b60008484015250505050565b6000601f19601f8301169050919050565b600061240c826123aa565b61241681856123b5565b93506124268185602086016123c6565b61242f816123f0565b840191505092915050565b6000819050919050565b61244d8161243a565b82525050565b600060ff82169050919050565b61246981612453565b82525050565b600061010082019050612485600083018b61239b565b612492602083018a61239b565b81810360408301526124a48189612401565b90506124b36060830188612444565b6124c06080830187612444565b6124cd60a08301866122ce565b6124da60c0830185612460565b6124e760e083018461239b565b9998505050505050505050565b6000602082019050612509600083018461239b565b92915050565b600080fd5b600080fd5b7f4e487b7100000000000000000000000000000000000000000000000000000000600052604160045260246000fd5b612551826123f0565b810181811067ffffffffffffffff821117156125705761256f612519565b5b80604052505050565b6000612583612229565b905061258f8282612548565b919050565b600067ffffffffffffffff8211156125af576125ae612519565b5b6125b8826123f0565b9050602081019050919050565b82818337600083830152505050565b60006125e76125e284612594565b612579565b90508281526020810184848401111561260357612602612514565b5b61260e8482856125c5565b509392505050565b600082601f83011261262b5761262a61250f565b5b813561263b8482602086016125d4565b91505092915050565b6006811061265157600080fd5b50565b60008135905061266381612644565b92915050565b60008060006060848603121561268257612681612233565b5b600084013567ffffffffffffffff8111156126a05761269f612238565b5b6126ac86828701612616565b935050602084013567ffffffffffffffff8111156126cd576126cc612238565b5b6126d986828701612616565b92505060406126ea86828701612654565b9150509250925092565b6126fd8161243a565b811461270857600080fd5b50565b60008135905061271a816126f4565b92915050565b600080600080600060a0868803121561273c5761273b612233565b5b600061274a88828901612319565b955050602061275b88828901612319565b945050604086013567ffffffffffffffff81111561277c5761277b612238565b5b61278888828901612616565b93505060606127998882890161270b565b92505060806127aa88828901612319565b9150509295509295909350565b600073ffffffffffffffffffffffffffffffffffffffff82169050919050565b60006127e2826127b7565b9050919050565b6127f2816127d7565b81146127fd57600080fd5b50565b60008135905061280f816127e9565b92915050565b6000806040838503121561282c5761282b612233565b5b600061283a85828601612319565b925050602061284b85828601612800565b9150509250929050565b61285e816127d7565b82525050565b7f4e487b7100000000000000000000000000000000000000000000000000000000600052602160045260246000fd5b600681106128a4576128a3612864565b5b50565b60008190506128b582612893565b919050565b60006128c5826128a7565b9050919050565b6128d5816128ba565b82525050565b600060e08201905081810360008301526128f5818a612401565b905081810360208301526129098189612401565b90506129186040830188612855565b61292560608301876122ce565b6129326080830186612444565b61293f60a0830185612444565b61294c60c08301846128cc565b98975050505050505050565b60006020828403121561296e5761296d612233565b5b600082013567ffffffffffffffff81111561298c5761298b612238565b5b61299884828501612616565b91505092915050565b6129aa81612453565b81146129b557600080fd5b50565b6000813590506129c7816129a1565b92915050565b6000806000606084860312156129e6576129e5612233565b5b60006129f486828701612319565b9350506020612a0586828701612319565b9250506040612a16868287016129b8565b9150509250925092565b60008060408385031215612a3757612a36612233565b5b6000612a4585828601612319565b925050602083013567ffffffffffffffff811115612a6657612a65612238565b5b612a7285828601612616565b9150509250929050565b600081519050919050565b600082825260208201905092915050565b6000819050602082019050919050565b612ab1816122f8565b82525050565b6000612ac38383612aa8565b60208301905092915050565b6000602082019050919050565b6000612ae782612a7c565b612af18185612a87565b9350612afc83612a98565b8060005b83811015612b2d578151612b148882612ab7565b9750612b1f83612acf565b925050600181019050612b00565b5085935050505092915050565b60006020820190508181036000830152612b548184612adc565b905092915050565b6000602082019050612b716000830184612444565b92915050565b600067ffffffffffffffff821115612b9257612b91612519565b5b602082029050602081019050919050565b600080fd5b6000612bbb612bb684612b77565b612579565b90508083825260208201905060208402830185811115612bde57612bdd612ba3565b5b835b81811015612c075780612bf38882612319565b845260208401935050602081019050612be0565b5050509392505050565b600082601f830112612c2657612c2561250f565b5b8135612c36848260208601612ba8565b91505092915050565b60008060408385031215612c5657612c55612233565b5b600083013567ffffffffffffffff811115612c7457612c73612238565b5b612c8085828601612c11565b9250506020612c9185828601612319565b9150509250929050565b600081519050919050565b600082825260208201905092915050565b6000819050602082019050919050565b612cd0816122c2565b82525050565b6000612ce28383612cc7565b60208301905092915050565b6000602082019050919050565b6000612d0682612c9b565b612d108185612ca6565b9350612d1b83612cb7565b8060005b83811015612d4c578151612d338882612cd6565b9750612d3e83612cee565b925050600181019050612d1f565b5085935050505092915050565b60006020820190508181036000830152612d738184612cfb565b905092915050565b600060c0820190508181036000830152612d958189612401565b9050612da46020830188612444565b612db16040830187612444565b612dbe60608301866122ce565b612dcb6080830185612460565b612dd860a083018461239b565b979650505050505050565b60008060408385031215612dfa57612df9612233565b5b6000612e0885828601612319565b9250506020612e198582860161270b565b9150509250929050565b7f4e6f7420617574686f72697a6564000000000000000000000000000000000000600082015250565b6000612e59600e836123b5565b9150612e6482612e23565b602082019050919050565b60006020820190508181036000830152612e8881612e4c565b9050919050565b7f4e487b7100000000000000000000000000000000000000000000000000000000600052602260045260246000fd5b60006002820490506001821680612ed657607f821691505b602082108103612ee957612ee8612e8f565b5b50919050565b7f4e616d652063616e6e6f7420626520656d707479000000000000000000000000600082015250565b6000612f256014836123b5565b9150612f3082612eef565b602082019050919050565b60006020820190508181036000830152612f5481612f18565b9050919050565b7f446f6d61696e2063616e6e6f7420626520656d70747900000000000000000000600082015250565b6000612f916016836123b5565b9150612f9c82612f5b565b602082019050919050565b60006020820190508181036000830152612fc081612f84565b9050919050565b600081905092915050565b6000612fdd826123aa565b612fe78185612fc7565b9350612ff78185602086016123c6565b80840191505092915050565b600061300f8284612fd2565b915081905092915050565b7f446f6d61696e20616c7265616479207265676973746572656400000000000000600082015250565b60006130506019836123b5565b915061305b8261301a565b602082019050919050565b6000602082019050818103600083015261307f81613043565b9050919050565b6000819050919050565b6130a161309c8261243a565b613086565b82525050565b60006130b38286612fd2565b91506130bf8285612fd2565b91506130cb8284613090565b602082019150819050949350505050565b60008190508160005260206000209050919050565b60006020601f8301049050919050565b600082821b905092915050565b60006008830261313e7fffffffffffffffffffffffffffffffffffffffffffffffffffffffffffffffff82613101565b6131488683613101565b95508019841693508086168417925050509392505050565b6000819050919050565b600061318561318061317b8461243a565b613160565b61243a565b9050919050565b6000819050919050565b61319f8361316a565b6131b36131ab8261318c565b84845461310e565b825550505050565b600090565b6131c86131bb565b6131d3818484613196565b505050565b5b818110156131f7576131ec6000826131c0565b6001810190506131d9565b5050565b601f82111561323c5761320d816130dc565b613216846130f1565b81016020851015613225578190505b613239613231856130f1565b8301826131d8565b50505b505050565b600082821c905092915050565b600061325f60001984600802613241565b1980831691505092915050565b6000613278838361324e565b9150826002028217905092915050565b613291826123aa565b67ffffffffffffffff8111156132aa576132a9612519565b5b6132b48254612ebe565b6132bf8282856131fb565b600060209050601f8311600181146132f257600084156132e0578287015190505b6132ea858261326c565b865550613352565b601f198416613300866130dc565b60005b8281101561332857848901518255600182019150602085019450602081019050613303565b868310156133455784890151613341601f89168261324e565b8355505b6001600288020188555050505b505050505050565b7f4e487b7100000000000000000000000000000000000000000000000000000000600052601160045260246000fd5b60006133948261243a565b91507fffffffffffffffffffffffffffffffffffffffffffffffffffffffffffffffff82036133c6576133c561335a565b5b600182019050919050565b600060408201905081810360008301526133eb8185612401565b905081810360208301526133ff8184612401565b90509392505050565b7f506c6174666f726d206e6f742061637469766500000000000000000000000000600082015250565b600061343e6013836123b5565b915061344982613408565b602082019050919050565b6000602082019050818103600083015261346d81613431565b9050919050565b7f506c6174666f726d207573657220494420726571756972656400000000000000600082015250565b60006134aa6019836123b5565b91506134b582613474565b602082019050919050565b600060208201905081810360008301526134d98161349d565b9050919050565b7f496e76616c6964206964656e7469747920444944000000000000000000000000600082015250565b60006135166014836123b5565b9150613521826134e0565b602082019050919050565b6000602082019050818103600083015261354581613509565b9050919050565b7f566572696669636174696f6e20616c7265616479206578697374730000000000600082015250565b6000613582601b836123b5565b915061358d8261354c565b602082019050919050565b600060208201905081810360008301526135b181613575565b9050919050565b60006135c38261243a565b91506135ce8361243a565b92508282026135dc8161243a565b915082820484148315176135f3576135f261335a565b5b5092915050565b60006136058261243a565b91506136108361243a565b92508282019050808211156136285761362761335a565b5b92915050565b600060208201905081810360008301526136488184612401565b905092915050565b7f566572696669636174696f6e206e6f7420616374697665000000000000000000600082015250565b60006136866017836123b5565b915061369182613650565b602082019050919050565b600060208201905081810360008301526136b581613679565b9050919050565b7f53636f7265206d75737420626520302d31303000000000000000000000000000600082015250565b60006136f26013836123b5565b91506136fd826136bc565b602082019050919050565b60006020820190508181036000830152613721816136e5565b9050919050565b600060208201905061373d6000830184612460565b92915050565b7f4e487b7100000000000000000000000000000000000000000000000000000000600052603260045260246000fd5b60006040820190506137876000830185612855565b613794602083018461239b565b939250505056fea2646970667358221220d4d2487fa62a5d0b9dbee3c70fc0b5cb3674cb0c71abf2ba66a5d4977c49bdaf64736f6c63430008140033","opcodes":"PUSH1 0x80 PUSH1 0x40 MSTORE CALLVALUE DUP1 ISZERO PUSH3 0x11 JUMPI PUSH1 0x0 DUP1 REVERT JUMPDEST POP PUSH1 0x1 DUP1 DUP2 SWAP1 SSTORE POP PUSH3 0x2E PUSH1 0x0 DUP1 SHL CALLER PUSH3 0x68 PUSH1 0x20 SHL PUSH1 0x20 SHR JUMP JUMPDEST POP PUSH3 0x61 PUSH32 0x5246556C0AB216B5B325AD7C539BFBD1A07C768773CDF810FECD3C3375C27407 CALLER PUSH3 0x68 PUSH1 0x20 SHL PUSH1 0x20 SHR JUMP JUMPDEST POP PUSH3 0x1DD JUMP JUMPDEST PUSH1 0x0 PUSH3 0x7C DUP4 DUP4 PUSH3 0x16B PUSH1 0x20 SHL PUSH1 0x20 SHR JUMP JUMPDEST PUSH3 0x160 JUMPI PUSH1 0x1 PUSH1 0x0 DUP1 DUP6 DUP2 MSTORE PUSH1 0x20 ADD SWAP1 DUP2 MSTORE PUSH1 0x20 ADD PUSH1 0x0 KECCAK256 PUSH1 0x0 ADD PUSH1 0x0 DUP5 PUSH20 0xFFFFFFFFFFFFFFFFFFFFFFFFFFFFFFFFFFFFFFFF AND PUSH20 0xFFFFFFFFFFFFFFFFFFFFFFFFFFFFFFFFFFFFFFFF AND DUP2 MSTORE PUSH1 0x20 ADD SWAP1 DUP2 MSTORE PUSH1 0x20 ADD PUSH1 0x0 KECCAK256 PUSH1 0x0 PUSH2 0x100 EXP DUP2 SLOAD DUP2 PUSH1 0xFF MUL NOT AND SWAP1 DUP4 ISZERO ISZERO MUL OR SWAP1 SSTORE POP PUSH3 0xFC PUSH3 0x1D5 PUSH1 0x20 SHL PUSH1 0x20 SHR JUMP JUMPDEST PUSH20 0xFFFFFFFFFFFFFFFFFFFFFFFFFFFFFFFFFFFFFFFF AND DUP3 PUSH20 0xFFFFFFFFFFFFFFFFFFFFFFFFFFFFFFFFFFFFFFFF AND DUP5 PUSH32 0x2F8788117E7EFF1D82E926EC794901D17C78024A50270940304540A733656F0D PUSH1 0x40 MLOAD PUSH1 0x40 MLOAD DUP1 SWAP2 SUB SWAP1 LOG4 PUSH1 0x1 SWAP1 POP PUSH3 0x165 JUMP JUMPDEST PUSH1 0x0 SWAP1 POP JUMPDEST SWAP3 SWAP2 POP POP JUMP JUMPDEST PUSH1 0x0 DUP1 PUSH1 0x0 DUP5 DUP2 MSTORE PUSH1 0x20 ADD SWAP1 DUP2 MSTORE PUSH1 0x20 ADD PUSH1 0x0 KECCAK256 PUSH1 0x0 ADD PUSH1 0x0 DUP4 PUSH20 0xFFFFFFFFFFFFFFFFFFFFFFFFFFFFFFFFFFFFFFFF AND PUSH20 0xFFFFFFFFFFFFFFFFFFFFFFFFFFFFFFFFFFFFFFFF AND DUP2 MSTORE PUSH1 0x20 ADD SWAP1 DUP2 MSTORE PUSH1 0x20 ADD PUSH1 0x0 KECCAK256 PUSH1 0x0 SWAP1 SLOAD SWAP1 PUSH2 0x100 EXP SWAP1 DIV PUSH1 0xFF AND SWAP1 POP SWAP3 SWAP2 POP POP JUMP JUMPDEST PUSH1 0x0 CALLER SWAP1 POP SWAP1 JUMP JUMPDEST PUSH2 0x37D1 DUP1 PUSH3 0x1ED PUSH1 0x0 CODECOPY PUSH1 0x0 RETURN INVALID PUSH1 0x80 PUSH1 0x40 MSTORE CALLVALUE DUP1 ISZERO PUSH2 0x10 JUMPI PUSH1 0x0 DUP1 REVERT JUMPDEST POP PUSH1 0x4 CALLDATASIZE LT PUSH2 0x18E JUMPI PUSH1 0x0 CALLDATALOAD PUSH1 0xE0 SHR DUP1 PUSH4 0x685D34FF GT PUSH2 0xDE JUMPI DUP1 PUSH4 0xAEDAF0E1 GT PUSH2 0x97 JUMPI DUP1 PUSH4 0xBDD6FBA3 GT PUSH2 0x71 JUMPI DUP1 PUSH4 0xBDD6FBA3 EQ PUSH2 0x506 JUMPI DUP1 PUSH4 0xC103770A EQ PUSH2 0x536 JUMPI DUP1 PUSH4 0xD547741F EQ PUSH2 0x56B JUMPI DUP1 PUSH4 0xE15E285D EQ PUSH2 0x587 JUMPI PUSH2 0x18E JUMP JUMPDEST DUP1 PUSH4 0xAEDAF0E1 EQ PUSH2 0x49A JUMPI DUP1 PUSH4 0xB6500F3A EQ PUSH2 0x4CA JUMPI DUP1 PUSH4 0xB8FCEF8B EQ PUSH2 0x4E8 JUMPI PUSH2 0x18E JUMP JUMPDEST DUP1 PUSH4 0x685D34FF EQ PUSH2 0x3B2 JUMPI DUP1 PUSH4 0x6ED598B1 EQ PUSH2 0x3D0 JUMPI DUP1 PUSH4 0x810152F9 EQ PUSH2 0x3EC JUMPI DUP1 PUSH4 0x91D14854 EQ PUSH2 0x41C JUMPI DUP1 PUSH4 0x9C5195CE EQ PUSH2 0x44C JUMPI DUP1 PUSH4 0xA217FDDF EQ PUSH2 0x47C JUMPI PUSH2 0x18E JUMP JUMPDEST DUP1 PUSH4 0x2F2FF15D GT PUSH2 0x14B JUMPI DUP1 PUSH4 0x36568ABE GT PUSH2 0x125 JUMPI DUP1 PUSH4 0x36568ABE EQ PUSH2 0x2FA JUMPI DUP1 PUSH4 0x36D18204 EQ PUSH2 0x316 JUMPI DUP1 PUSH4 0x49CE99AA EQ PUSH2 0x34C JUMPI DUP1 PUSH4 0x569CD4CB EQ PUSH2 0x37C JUMPI PUSH2 0x18E JUMP JUMPDEST DUP1 PUSH4 0x2F2FF15D EQ PUSH2 0x292 JUMPI DUP1 PUSH4 0x347DB40A EQ PUSH2 0x2AE JUMPI DUP1 PUSH4 0x35A56408 EQ PUSH2 0x2CA JUMPI PUSH2 0x18E JUMP JUMPDEST DUP1 PUSH4 0x1FFC9A7 EQ PUSH2 0x193 JUMPI DUP1 PUSH4 0x31692F7 EQ PUSH2 0x1C3 JUMPI DUP1 PUSH4 0x1E26A644 EQ PUSH2 0x1DF JUMPI DUP1 PUSH4 0x248A9CA3 EQ PUSH2 0x216 JUMPI DUP1 PUSH4 0x24F1553C EQ PUSH2 0x246 JUMPI DUP1 PUSH4 0x2DB951E0 EQ PUSH2 0x276 JUMPI JUMPDEST PUSH1 0x0 DUP1 REVERT JUMPDEST PUSH2 0x1AD PUSH1 0x4 DUP1 CALLDATASIZE SUB DUP2 ADD SWAP1 PUSH2 0x1A8 SWAP2 SWAP1 PUSH2 0x2295 JUMP JUMPDEST PUSH2 0x5B7 JUMP JUMPDEST PUSH1 0x40 MLOAD PUSH2 0x1BA SWAP2 SWAP1 PUSH2 0x22DD JUMP JUMPDEST PUSH1 0x40 MLOAD DUP1 SWAP2 SUB SWAP1 RETURN JUMPDEST PUSH2 0x1DD PUSH1 0x4 DUP1 CALLDATASIZE SUB DUP2 ADD SWAP1 PUSH2 0x1D8 SWAP2 SWAP1 PUSH2 0x232E JUMP JUMPDEST PUSH2 0x631 JUMP JUMPDEST STOP JUMPDEST PUSH2 0x1F9 PUSH1 0x4 DUP1 CALLDATASIZE SUB DUP2 ADD SWAP1 PUSH2 0x1F4 SWAP2 SWAP1 PUSH2 0x235B JUMP JUMPDEST PUSH2 0x765 JUMP JUMPDEST PUSH1 0x40 MLOAD PUSH2 0x20D SWAP9 SWAP8 SWAP7 SWAP6 SWAP5 SWAP4 SWAP3 SWAP2 SWAP1 PUSH2 0x246F JUMP JUMPDEST PUSH1 0x40 MLOAD DUP1 SWAP2 SUB SWAP1 RETURN JUMPDEST PUSH2 0x230 PUSH1 0x4 DUP1 CALLDATASIZE SUB DUP2 ADD SWAP1 PUSH2 0x22B SWAP2 SWAP1 PUSH2 0x232E JUMP JUMPDEST PUSH2 0x85C JUMP JUMPDEST PUSH1 0x40 MLOAD PUSH2 0x23D SWAP2 SWAP1 PUSH2 0x24F4 JUMP JUMPDEST PUSH1 0x40 MLOAD DUP1 SWAP2 SUB SWAP1 RETURN JUMPDEST PUSH2 0x260 PUSH1 0x4 DUP1 CALLDATASIZE SUB DUP2 ADD SWAP1 PUSH2 0x25B SWAP2 SWAP1 PUSH2 0x2669 JUMP JUMPDEST PUSH2 0x87B JUMP JUMPDEST PUSH1 0x40 MLOAD PUSH2 0x26D SWAP2 SWAP1 PUSH2 0x24F4 JUMP JUMPDEST PUSH1 0x40 MLOAD DUP1 SWAP2 SUB SWAP1 RETURN JUMPDEST PUSH2 0x290 PUSH1 0x4 DUP1 CALLDATASIZE SUB DUP2 ADD SWAP1 PUSH2 0x28B SWAP2 SWAP1 PUSH2 0x2720 JUMP JUMPDEST PUSH2 0xB8E JUMP JUMPDEST STOP JUMPDEST PUSH2 0x2AC PUSH1 0x4 DUP1 CALLDATASIZE SUB DUP2 ADD SWAP1 PUSH2 0x2A7 SWAP2 SWAP1 PUSH2 0x2815 JUMP JUMPDEST PUSH2 0xFE5 JUMP JUMPDEST STOP JUMPDEST PUSH2 0x2C8 PUSH1 0x4 DUP1 CALLDATASIZE SUB DUP2 ADD SWAP1 PUSH2 0x2C3 SWAP2 SWAP1 PUSH2 0x235B JUMP JUMPDEST PUSH2 0x1007 JUMP JUMPDEST STOP JUMPDEST PUSH2 0x2E4 PUSH1 0x4 DUP1 CALLDATASIZE SUB DUP2 ADD SWAP1 PUSH2 0x2DF SWAP2 SWAP1 PUSH2 0x235B JUMP JUMPDEST PUSH2 0x11C2 JUMP JUMPDEST PUSH1 0x40 MLOAD PUSH2 0x2F1 SWAP2 SWAP1 PUSH2 0x22DD JUMP JUMPDEST PUSH1 0x40 MLOAD DUP1 SWAP2 SUB SWAP1 RETURN JUMPDEST PUSH2 0x314 PUSH1 0x4 DUP1 CALLDATASIZE SUB DUP2 ADD SWAP1 PUSH2 0x30F SWAP2 SWAP1 PUSH2 0x2815 JUMP JUMPDEST PUSH2 0x1338 JUMP JUMPDEST STOP JUMPDEST PUSH2 0x330 PUSH1 0x4 DUP1 CALLDATASIZE SUB DUP2 ADD SWAP1 PUSH2 0x32B SWAP2 SWAP1 PUSH2 0x232E JUMP JUMPDEST PUSH2 0x13B3 JUMP JUMPDEST PUSH1 0x40 MLOAD PUSH2 0x343 SWAP8 SWAP7 SWAP6 SWAP5 SWAP4 SWAP3 SWAP2 SWAP1 PUSH2 0x28DB JUMP JUMPDEST PUSH1 0x40 MLOAD DUP1 SWAP2 SUB SWAP1 RETURN JUMPDEST PUSH2 0x366 PUSH1 0x4 DUP1 CALLDATASIZE SUB DUP2 ADD SWAP1 PUSH2 0x361 SWAP2 SWAP1 PUSH2 0x2958 JUMP JUMPDEST PUSH2 0x153F JUMP JUMPDEST PUSH1 0x40 MLOAD PUSH2 0x373 SWAP2 SWAP1 PUSH2 0x24F4 JUMP JUMPDEST PUSH1 0x40 MLOAD DUP1 SWAP2 SUB SWAP1 RETURN JUMPDEST PUSH2 0x396 PUSH1 0x4 DUP1 CALLDATASIZE SUB DUP2 ADD SWAP1 PUSH2 0x391 SWAP2 SWAP1 PUSH2 0x232E JUMP JUMPDEST PUSH2 0x156D JUMP JUMPDEST PUSH1 0x40 MLOAD PUSH2 0x3A9 SWAP8 SWAP7 SWAP6 SWAP5 SWAP4 SWAP3 SWAP2 SWAP1 PUSH2 0x28DB JUMP JUMPDEST PUSH1 0x40 MLOAD DUP1 SWAP2 SUB SWAP1 RETURN JUMPDEST PUSH2 0x3BA PUSH2 0x17BA JUMP JUMPDEST PUSH1 0x40 MLOAD PUSH2 0x3C7 SWAP2 SWAP1 PUSH2 0x24F4 JUMP JUMPDEST PUSH1 0x40 MLOAD DUP1 SWAP2 SUB SWAP1 RETURN JUMPDEST PUSH2 0x3EA PUSH1 0x4 DUP1 CALLDATASIZE SUB DUP2 ADD SWAP1 PUSH2 0x3E5 SWAP2 SWAP1 PUSH2 0x29CD JUMP JUMPDEST PUSH2 0x17DE JUMP JUMPDEST STOP JUMPDEST PUSH2 0x406 PUSH1 0x4 DUP1 CALLDATASIZE SUB DUP2 ADD SWAP1 PUSH2 0x401 SWAP2 SWAP1 PUSH2 0x2A20 JUMP JUMPDEST PUSH2 0x19EC JUMP JUMPDEST PUSH1 0x40 MLOAD PUSH2 0x413 SWAP2 SWAP1 PUSH2 0x24F4 JUMP JUMPDEST PUSH1 0x40 MLOAD DUP1 SWAP2 SUB SWAP1 RETURN JUMPDEST PUSH2 0x436 PUSH1 0x4 DUP1 CALLDATASIZE SUB DUP2 ADD SWAP1 PUSH2 0x431 SWAP2 SWAP1 PUSH2 0x2815 JUMP JUMPDEST PUSH2 0x1A27 JUMP JUMPDEST PUSH1 0x40 MLOAD PUSH2 0x443 SWAP2 SWAP1 PUSH2 0x22DD JUMP JUMPDEST PUSH1 0x40 MLOAD DUP1 SWAP2 SUB SWAP1 RETURN JUMPDEST PUSH2 0x466 PUSH1 0x4 DUP1 CALLDATASIZE SUB DUP2 ADD SWAP1 PUSH2 0x461 SWAP2 SWAP1 PUSH2 0x232E JUMP JUMPDEST PUSH2 0x1A91 JUMP JUMPDEST PUSH1 0x40 MLOAD PUSH2 0x473 SWAP2 SWAP1 PUSH2 0x2B3A JUMP JUMPDEST PUSH1 0x40 MLOAD DUP1 SWAP2 SUB SWAP1 RETURN JUMPDEST PUSH2 0x484 PUSH2 0x1AFC JUMP JUMPDEST PUSH1 0x40 MLOAD PUSH2 0x491 SWAP2 SWAP1 PUSH2 0x24F4 JUMP JUMPDEST PUSH1 0x40 MLOAD DUP1 SWAP2 SUB SWAP1 RETURN JUMPDEST PUSH2 0x4B4 PUSH1 0x4 DUP1 CALLDATASIZE SUB DUP2 ADD SWAP1 PUSH2 0x4AF SWAP2 SWAP1 PUSH2 0x2A20 JUMP JUMPDEST PUSH2 0x1B03 JUMP JUMPDEST PUSH1 0x40 MLOAD PUSH2 0x4C1 SWAP2 SWAP1 PUSH2 0x24F4 JUMP JUMPDEST PUSH1 0x40 MLOAD DUP1 SWAP2 SUB SWAP1 RETURN JUMPDEST PUSH2 0x4D2 PUSH2 0x1B3D JUMP JUMPDEST PUSH1 0x40 MLOAD PUSH2 0x4DF SWAP2 SWAP1 PUSH2 0x2B5C JUMP JUMPDEST PUSH1 0x40 MLOAD DUP1 SWAP2 SUB SWAP1 RETURN JUMPDEST PUSH2 0x4F0 PUSH2 0x1B43 JUMP JUMPDEST PUSH1 0x40 MLOAD PUSH2 0x4FD SWAP2 SWAP1 PUSH2 0x2B5C JUMP JUMPDEST PUSH1 0x40 MLOAD DUP1 SWAP2 SUB SWAP1 RETURN JUMPDEST PUSH2 0x520 PUSH1 0x4 DUP1 CALLDATASIZE SUB DUP2 ADD SWAP1 PUSH2 0x51B SWAP2 SWAP1 PUSH2 0x2C3F JUMP JUMPDEST PUSH2 0x1B49 JUMP JUMPDEST PUSH1 0x40 MLOAD PUSH2 0x52D SWAP2 SWAP1 PUSH2 0x2D59 JUMP JUMPDEST PUSH1 0x40 MLOAD DUP1 SWAP2 SUB SWAP1 RETURN JUMPDEST PUSH2 0x550 PUSH1 0x4 DUP1 CALLDATASIZE SUB DUP2 ADD SWAP1 PUSH2 0x54B SWAP2 SWAP1 PUSH2 0x235B JUMP JUMPDEST PUSH2 0x1D5F JUMP JUMPDEST PUSH1 0x40 MLOAD PUSH2 0x562 SWAP7 SWAP6 SWAP5 SWAP4 SWAP3 SWAP2 SWAP1 PUSH2 0x2D7B JUMP JUMPDEST PUSH1 0x40 MLOAD DUP1 SWAP2 SUB SWAP1 RETURN JUMPDEST PUSH2 0x585 PUSH1 0x4 DUP1 CALLDATASIZE SUB DUP2 ADD SWAP1 PUSH2 0x580 SWAP2 SWAP1 PUSH2 0x2815 JUMP JUMPDEST PUSH2 0x1ECD JUMP JUMPDEST STOP JUMPDEST PUSH2 0x5A1 PUSH1 0x4 DUP1 CALLDATASIZE SUB DUP2 ADD SWAP1 PUSH2 0x59C SWAP2 SWAP1 PUSH2 0x2DE3 JUMP JUMPDEST PUSH2 0x1EEF JUMP JUMPDEST PUSH1 0x40 MLOAD PUSH2 0x5AE SWAP2 SWAP1 PUSH2 0x24F4 JUMP JUMPDEST PUSH1 0x40 MLOAD DUP1 SWAP2 SUB SWAP1 RETURN JUMPDEST PUSH1 0x0 PUSH32 0x7965DB0B00000000000000000000000000000000000000000000000000000000 PUSH28 0xFFFFFFFFFFFFFFFFFFFFFFFFFFFFFFFFFFFFFFFFFFFFFFFFFFFFFFFF NOT AND DUP3 PUSH28 0xFFFFFFFFFFFFFFFFFFFFFFFFFFFFFFFFFFFFFFFFFFFFFFFFFFFFFFFF NOT AND EQ DUP1 PUSH2 0x62A JUMPI POP PUSH2 0x629 DUP3 PUSH2 0x1F20 JUMP JUMPDEST JUMPDEST SWAP1 POP SWAP2 SWAP1 POP JUMP JUMPDEST CALLER PUSH20 0xFFFFFFFFFFFFFFFFFFFFFFFFFFFFFFFFFFFFFFFF AND PUSH1 0x2 PUSH1 0x0 DUP4 DUP2 MSTORE PUSH1 0x20 ADD SWAP1 DUP2 MSTORE PUSH1 0x20 ADD PUSH1 0x0 KECCAK256 PUSH1 0x2 ADD PUSH1 0x0 SWAP1 SLOAD SWAP1 PUSH2 0x100 EXP SWAP1 DIV PUSH20 0xFFFFFFFFFFFFFFFFFFFFFFFFFFFFFFFFFFFFFFFF AND PUSH20 0xFFFFFFFFFFFFFFFFFFFFFFFFFFFFFFFFFFFFFFFF AND EQ DUP1 PUSH2 0x6C7 JUMPI POP PUSH2 0x6C6 PUSH32 0x5246556C0AB216B5B325AD7C539BFBD1A07C768773CDF810FECD3C3375C27407 CALLER PUSH2 0x1A27 JUMP JUMPDEST JUMPDEST PUSH2 0x706 JUMPI PUSH1 0x40 MLOAD PUSH32 0x8C379A000000000000000000000000000000000000000000000000000000000 DUP2 MSTORE PUSH1 0x4 ADD PUSH2 0x6FD SWAP1 PUSH2 0x2E6F JUMP JUMPDEST PUSH1 0x40 MLOAD DUP1 SWAP2 SUB SWAP1 REVERT JUMPDEST PUSH1 0x0 PUSH1 0x2 PUSH1 0x0 DUP4 DUP2 MSTORE PUSH1 0x20 ADD SWAP1 DUP2 MSTORE PUSH1 0x20 ADD PUSH1 0x0 KECCAK256 PUSH1 0x2 ADD PUSH1 0x14 PUSH2 0x100 EXP DUP2 SLOAD DUP2 PUSH1 0xFF MUL NOT AND SWAP1 DUP4 ISZERO ISZERO MUL OR SWAP1 SSTORE POP DUP1 PUSH32 0x522BC54A0FD2FEA5BB35EB6B6739C8A7CF9742D87175C557FDE738A20535E377 PUSH1 0x40 MLOAD PUSH1 0x40 MLOAD DUP1 SWAP2 SUB SWAP1 LOG2 POP JUMP JUMPDEST PUSH1 0x4 PUSH1 0x20 MSTORE DUP2 PUSH1 0x0 MSTORE PUSH1 0x40 PUSH1 0x0 KECCAK256 PUSH1 0x20 MSTORE DUP1 PUSH1 0x0 MSTORE PUSH1 0x40 PUSH1 0x0 KECCAK256 PUSH1 0x0 SWAP2 POP SWAP2 POP POP DUP1 PUSH1 0x0 ADD SLOAD SWAP1 DUP1 PUSH1 0x1 ADD SLOAD SWAP1 DUP1 PUSH1 0x2 ADD DUP1 SLOAD PUSH2 0x7A1 SWAP1 PUSH2 0x2EBE JUMP JUMPDEST DUP1 PUSH1 0x1F ADD PUSH1 0x20 DUP1 SWAP2 DIV MUL PUSH1 0x20 ADD PUSH1 0x40 MLOAD SWAP1 DUP2 ADD PUSH1 0x40 MSTORE DUP1 SWAP3 SWAP2 SWAP1 DUP2 DUP2 MSTORE PUSH1 0x20 ADD DUP3 DUP1 SLOAD PUSH2 0x7CD SWAP1 PUSH2 0x2EBE JUMP JUMPDEST DUP1 ISZERO PUSH2 0x81A JUMPI DUP1 PUSH1 0x1F LT PUSH2 0x7EF JUMPI PUSH2 0x100 DUP1 DUP4 SLOAD DIV MUL DUP4 MSTORE SWAP2 PUSH1 0x20 ADD SWAP2 PUSH2 0x81A JUMP JUMPDEST DUP3 ADD SWAP2 SWAP1 PUSH1 0x0 MSTORE PUSH1 0x20 PUSH1 0x0 KECCAK256 SWAP1 JUMPDEST DUP2 SLOAD DUP2 MSTORE SWAP1 PUSH1 0x1 ADD SWAP1 PUSH1 0x20 ADD DUP1 DUP4 GT PUSH2 0x7FD JUMPI DUP3 SWAP1 SUB PUSH1 0x1F AND DUP3 ADD SWAP2 JUMPDEST POP POP POP POP POP SWAP1 DUP1 PUSH1 0x3 ADD SLOAD SWAP1 DUP1 PUSH1 0x4 ADD SLOAD SWAP1 DUP1 PUSH1 0x5 ADD PUSH1 0x0 SWAP1 SLOAD SWAP1 PUSH2 0x100 EXP SWAP1 DIV PUSH1 0xFF AND SWAP1 DUP1 PUSH1 0x5 ADD PUSH1 0x1 SWAP1 SLOAD SWAP1 PUSH2 0x100 EXP SWAP1 DIV PUSH1 0xFF AND SWAP1 DUP1 PUSH1 0x6 ADD SLOAD SWAP1 POP DUP9 JUMP JUMPDEST PUSH1 0x0 DUP1 PUSH1 0x0 DUP4 DUP2 MSTORE PUSH1 0x20 ADD SWAP1 DUP2 MSTORE PUSH1 0x20 ADD PUSH1 0x0 KECCAK256 PUSH1 0x1 ADD SLOAD SWAP1 POP SWAP2 SWAP1 POP JUMP JUMPDEST PUSH1 0x0 PUSH32 0x5246556C0AB216B5B325AD7C539BFBD1A07C768773CDF810FECD3C3375C27407 PUSH2 0x8A7 DUP2 PUSH2 0x1F8A JUMP JUMPDEST PUSH1 0x0 DUP6 MLOAD GT PUSH2 0x8EB JUMPI PUSH1 0x40 MLOAD PUSH32 0x8C379A000000000000000000000000000000000000000000000000000000000 DUP2 MSTORE PUSH1 0x4 ADD PUSH2 0x8E2 SWAP1 PUSH2 0x2F3B JUMP JUMPDEST PUSH1 0x40 MLOAD DUP1 SWAP2 SUB SWAP1 REVERT JUMPDEST PUSH1 0x0 DUP5 MLOAD GT PUSH2 0x92F JUMPI PUSH1 0x40 MLOAD PUSH32 0x8C379A000000000000000000000000000000000000000000000000000000000 DUP2 MSTORE PUSH1 0x4 ADD PUSH2 0x926 SWAP1 PUSH2 0x2FA7 JUMP JUMPDEST PUSH1 0x40 MLOAD DUP1 SWAP2 SUB SWAP1 REVERT JUMPDEST PUSH1 0x0 DUP1 SHL PUSH1 0x3 DUP6 PUSH1 0x40 MLOAD PUSH2 0x943 SWAP2 SWAP1 PUSH2 0x3003 JUMP JUMPDEST SWAP1 DUP2 MSTORE PUSH1 0x20 ADD PUSH1 0x40 MLOAD DUP1 SWAP2 SUB SWAP1 KECCAK256 SLOAD EQ PUSH2 0x992 JUMPI PUSH1 0x40 MLOAD PUSH32 0x8C379A000000000000000000000000000000000000000000000000000000000 DUP2 MSTORE PUSH1 0x4 ADD PUSH2 0x989 SWAP1 PUSH2 0x3066 JUMP JUMPDEST PUSH1 0x40 MLOAD DUP1 SWAP2 SUB SWAP1 REVERT JUMPDEST PUSH1 0x0 DUP6 DUP6 TIMESTAMP PUSH1 0x40 MLOAD PUSH1 0x20 ADD PUSH2 0x9A9 SWAP4 SWAP3 SWAP2 SWAP1 PUSH2 0x30A7 JUMP JUMPDEST PUSH1 0x40 MLOAD PUSH1 0x20 DUP2 DUP4 SUB SUB DUP2 MSTORE SWAP1 PUSH1 0x40 MSTORE DUP1 MLOAD SWAP1 PUSH1 0x20 ADD KECCAK256 SWAP1 POP PUSH1 0x40 MLOAD DUP1 PUSH1 0xE0 ADD PUSH1 0x40 MSTORE DUP1 DUP8 DUP2 MSTORE PUSH1 0x20 ADD DUP7 DUP2 MSTORE PUSH1 0x20 ADD CALLER PUSH20 0xFFFFFFFFFFFFFFFFFFFFFFFFFFFFFFFFFFFFFFFF AND DUP2 MSTORE PUSH1 0x20 ADD PUSH1 0x1 ISZERO ISZERO DUP2 MSTORE PUSH1 0x20 ADD TIMESTAMP DUP2 MSTORE PUSH1 0x20 ADD PUSH1 0x0 DUP2 MSTORE PUSH1 0x20 ADD DUP6 PUSH1 0x5 DUP2 GT ISZERO PUSH2 0xA1D JUMPI PUSH2 0xA1C PUSH2 0x2864 JUMP JUMPDEST JUMPDEST DUP2 MSTORE POP PUSH1 0x2 PUSH1 0x0 DUP4 DUP2 MSTORE PUSH1 0x20 ADD SWAP1 DUP2 MSTORE PUSH1 0x20 ADD PUSH1 0x0 KECCAK256 PUSH1 0x0 DUP3 ADD MLOAD DUP2 PUSH1 0x0 ADD SWAP1 DUP2 PUSH2 0xA48 SWAP2 SWAP1 PUSH2 0x3288 JUMP JUMPDEST POP PUSH1 0x20 DUP3 ADD MLOAD DUP2 PUSH1 0x1 ADD SWAP1 DUP2 PUSH2 0xA5E SWAP2 SWAP1 PUSH2 0x3288 JUMP JUMPDEST POP PUSH1 0x40 DUP3 ADD MLOAD DUP2 PUSH1 0x2 ADD PUSH1 0x0 PUSH2 0x100 EXP DUP2 SLOAD DUP2 PUSH20 0xFFFFFFFFFFFFFFFFFFFFFFFFFFFFFFFFFFFFFFFF MUL NOT AND SWAP1 DUP4 PUSH20 0xFFFFFFFFFFFFFFFFFFFFFFFFFFFFFFFFFFFFFFFF AND MUL OR SWAP1 SSTORE POP PUSH1 0x60 DUP3 ADD MLOAD DUP2 PUSH1 0x2 ADD PUSH1 0x14 PUSH2 0x100 EXP DUP2 SLOAD DUP2 PUSH1 0xFF MUL NOT AND SWAP1 DUP4 ISZERO ISZERO MUL OR SWAP1 SSTORE POP PUSH1 0x80 DUP3 ADD MLOAD DUP2 PUSH1 0x3 ADD SSTORE PUSH1 0xA0 DUP3 ADD MLOAD DUP2 PUSH1 0x4 ADD SSTORE PUSH1 0xC0 DUP3 ADD MLOAD DUP2 PUSH1 0x5 ADD PUSH1 0x0 PUSH2 0x100 EXP DUP2 SLOAD DUP2 PUSH1 0xFF MUL NOT AND SWAP1 DUP4 PUSH1 0x5 DUP2 GT ISZERO PUSH2 0xB05 JUMPI PUSH2 0xB04 PUSH2 0x2864 JUMP JUMPDEST JUMPDEST MUL OR SWAP1 SSTORE POP SWAP1 POP POP DUP1 PUSH1 0x3 DUP7 PUSH1 0x40 MLOAD PUSH2 0xB1E SWAP2 SWAP1 PUSH2 0x3003 JUMP JUMPDEST SWAP1 DUP2 MSTORE PUSH1 0x20 ADD PUSH1 0x40 MLOAD DUP1 SWAP2 SUB SWAP1 KECCAK256 DUP2 SWAP1 SSTORE POP PUSH1 0x7 PUSH1 0x0 DUP2 SLOAD DUP1 SWAP3 SWAP2 SWAP1 PUSH2 0xB43 SWAP1 PUSH2 0x3389 JUMP JUMPDEST SWAP2 SWAP1 POP SSTORE POP DUP1 PUSH32 0xDF54865156FFCE3A68F059178F9BE22F7404ADBC964700F21F0738E780ED1F5F DUP8 DUP8 PUSH1 0x40 MLOAD PUSH2 0xB7A SWAP3 SWAP2 SWAP1 PUSH2 0x33D1 JUMP JUMPDEST PUSH1 0x40 MLOAD DUP1 SWAP2 SUB SWAP1 LOG2 DUP1 SWAP3 POP POP POP SWAP4 SWAP3 POP POP POP JUMP JUMPDEST PUSH2 0xB96 PUSH2 0x1F9E JUMP JUMPDEST PUSH1 0x2 PUSH1 0x0 DUP6 DUP2 MSTORE PUSH1 0x20 ADD SWAP1 DUP2 MSTORE PUSH1 0x20 ADD PUSH1 0x0 KECCAK256 PUSH1 0x2 ADD PUSH1 0x14 SWAP1 SLOAD SWAP1 PUSH2 0x100 EXP SWAP1 DIV PUSH1 0xFF AND PUSH2 0xBF9 JUMPI PUSH1 0x40 MLOAD PUSH32 0x8C379A000000000000000000000000000000000000000000000000000000000 DUP2 MSTORE PUSH1 0x4 ADD PUSH2 0xBF0 SWAP1 PUSH2 0x3454 JUMP JUMPDEST PUSH1 0x40 MLOAD DUP1 SWAP2 SUB SWAP1 REVERT JUMPDEST CALLER PUSH20 0xFFFFFFFFFFFFFFFFFFFFFFFFFFFFFFFFFFFFFFFF AND PUSH1 0x2 PUSH1 0x0 DUP7 DUP2 MSTORE PUSH1 0x20 ADD SWAP1 DUP2 MSTORE PUSH1 0x20 ADD PUSH1 0x0 KECCAK256 PUSH1 0x2 ADD PUSH1 0x0 SWAP1 SLOAD SWAP1 PUSH2 0x100 EXP SWAP1 DIV PUSH20 0xFFFFFFFFFFFFFFFFFFFFFFFFFFFFFFFFFFFFFFFF AND PUSH20 0xFFFFFFFFFFFFFFFFFFFFFFFFFFFFFFFFFFFFFFFF AND EQ DUP1 PUSH2 0xC8F JUMPI POP PUSH2 0xC8E PUSH32 0x5246556C0AB216B5B325AD7C539BFBD1A07C768773CDF810FECD3C3375C27407 CALLER PUSH2 0x1A27 JUMP JUMPDEST JUMPDEST PUSH2 0xCCE JUMPI PUSH1 0x40 MLOAD PUSH32 0x8C379A000000000000000000000000000000000000000000000000000000000 DUP2 MSTORE PUSH1 0x4 ADD PUSH2 0xCC5 SWAP1 PUSH2 0x2E6F JUMP JUMPDEST PUSH1 0x40 MLOAD DUP1 SWAP2 SUB SWAP1 REVERT JUMPDEST PUSH1 0x0 DUP4 MLOAD GT PUSH2 0xD12 JUMPI PUSH1 0x40 MLOAD PUSH32 0x8C379A000000000000000000000000000000000000000000000000000000000 DUP2 MSTORE PUSH1 0x4 ADD PUSH2 0xD09 SWAP1 PUSH2 0x34C0 JUMP JUMPDEST PUSH1 0x40 MLOAD DUP1 SWAP2 SUB SWAP1 REVERT JUMPDEST PUSH1 0x0 DUP1 SHL DUP6 SUB PUSH2 0xD57 JUMPI PUSH1 0x40 MLOAD PUSH32 0x8C379A000000000000000000000000000000000000000000000000000000000 DUP2 MSTORE PUSH1 0x4 ADD PUSH2 0xD4E SWAP1 PUSH2 0x352C JUMP JUMPDEST PUSH1 0x40 MLOAD DUP1 SWAP2 SUB SWAP1 REVERT JUMPDEST PUSH1 0x4 PUSH1 0x0 DUP7 DUP2 MSTORE PUSH1 0x20 ADD SWAP1 DUP2 MSTORE PUSH1 0x20 ADD PUSH1 0x0 KECCAK256 PUSH1 0x0 DUP6 DUP2 MSTORE PUSH1 0x20 ADD SWAP1 DUP2 MSTORE PUSH1 0x20 ADD PUSH1 0x0 KECCAK256 PUSH1 0x5 ADD PUSH1 0x0 SWAP1 SLOAD SWAP1 PUSH2 0x100 EXP SWAP1 DIV PUSH1 0xFF AND ISZERO PUSH2 0xDCC JUMPI PUSH1 0x40 MLOAD PUSH32 0x8C379A000000000000000000000000000000000000000000000000000000000 DUP2 MSTORE PUSH1 0x4 ADD PUSH2 0xDC3 SWAP1 PUSH2 0x3598 JUMP JUMPDEST PUSH1 0x40 MLOAD DUP1 SWAP2 SUB SWAP1 REVERT JUMPDEST PUSH1 0x0 DUP1 DUP4 GT PUSH2 0xDDC JUMPI PUSH1 0x0 PUSH2 0xDF7 JUMP JUMPDEST PUSH3 0x15180 DUP4 PUSH2 0xDEB SWAP2 SWAP1 PUSH2 0x35B8 JUMP JUMPDEST TIMESTAMP PUSH2 0xDF6 SWAP2 SWAP1 PUSH2 0x35FA JUMP JUMPDEST JUMPDEST SWAP1 POP PUSH1 0x40 MLOAD DUP1 PUSH2 0x100 ADD PUSH1 0x40 MSTORE DUP1 DUP8 DUP2 MSTORE PUSH1 0x20 ADD DUP7 DUP2 MSTORE PUSH1 0x20 ADD DUP6 DUP2 MSTORE PUSH1 0x20 ADD TIMESTAMP DUP2 MSTORE PUSH1 0x20 ADD DUP3 DUP2 MSTORE PUSH1 0x20 ADD PUSH1 0x1 ISZERO ISZERO DUP2 MSTORE PUSH1 0x20 ADD PUSH1 0x32 PUSH1 0xFF AND DUP2 MSTORE PUSH1 0x20 ADD DUP4 DUP2 MSTORE POP PUSH1 0x4 PUSH1 0x0 DUP9 DUP2 MSTORE PUSH1 0x20 ADD SWAP1 DUP2 MSTORE PUSH1 0x20 ADD PUSH1 0x0 KECCAK256 PUSH1 0x0 DUP8 DUP2 MSTORE PUSH1 0x20 ADD SWAP1 DUP2 MSTORE PUSH1 0x20 ADD PUSH1 0x0 KECCAK256 PUSH1 0x0 DUP3 ADD MLOAD DUP2 PUSH1 0x0 ADD SSTORE PUSH1 0x20 DUP3 ADD MLOAD DUP2 PUSH1 0x1 ADD SSTORE PUSH1 0x40 DUP3 ADD MLOAD DUP2 PUSH1 0x2 ADD SWAP1 DUP2 PUSH2 0xE87 SWAP2 SWAP1 PUSH2 0x3288 JUMP JUMPDEST POP PUSH1 0x60 DUP3 ADD MLOAD DUP2 PUSH1 0x3 ADD SSTORE PUSH1 0x80 DUP3 ADD MLOAD DUP2 PUSH1 0x4 ADD SSTORE PUSH1 0xA0 DUP3 ADD MLOAD DUP2 PUSH1 0x5 ADD PUSH1 0x0 PUSH2 0x100 EXP DUP2 SLOAD DUP2 PUSH1 0xFF MUL NOT AND SWAP1 DUP4 ISZERO ISZERO MUL OR SWAP1 SSTORE POP PUSH1 0xC0 DUP3 ADD MLOAD DUP2 PUSH1 0x5 ADD PUSH1 0x1 PUSH2 0x100 EXP DUP2 SLOAD DUP2 PUSH1 0xFF MUL NOT AND SWAP1 DUP4 PUSH1 0xFF AND MUL OR SWAP1 SSTORE POP PUSH1 0xE0 DUP3 ADD MLOAD DUP2 PUSH1 0x6 ADD SSTORE SWAP1 POP POP PUSH1 0x5 PUSH1 0x0 DUP7 DUP2 MSTORE PUSH1 0x20 ADD SWAP1 DUP2 MSTORE PUSH1 0x20 ADD PUSH1 0x0 KECCAK256 DUP7 SWAP1 DUP1 PUSH1 0x1 DUP2 SLOAD ADD DUP1 DUP3 SSTORE DUP1 SWAP2 POP POP PUSH1 0x1 SWAP1 SUB SWAP1 PUSH1 0x0 MSTORE PUSH1 0x20 PUSH1 0x0 KECCAK256 ADD PUSH1 0x0 SWAP1 SWAP2 SWAP1 SWAP2 SWAP1 SWAP2 POP SSTORE DUP6 PUSH1 0x6 PUSH1 0x0 DUP8 DUP2 MSTORE PUSH1 0x20 ADD SWAP1 DUP2 MSTORE PUSH1 0x20 ADD PUSH1 0x0 KECCAK256 DUP6 PUSH1 0x40 MLOAD PUSH2 0xF46 SWAP2 SWAP1 PUSH2 0x3003 JUMP JUMPDEST SWAP1 DUP2 MSTORE PUSH1 0x20 ADD PUSH1 0x40 MLOAD DUP1 SWAP2 SUB SWAP1 KECCAK256 DUP2 SWAP1 SSTORE POP PUSH1 0x2 PUSH1 0x0 DUP7 DUP2 MSTORE PUSH1 0x20 ADD SWAP1 DUP2 MSTORE PUSH1 0x20 ADD PUSH1 0x0 KECCAK256 PUSH1 0x4 ADD PUSH1 0x0 DUP2 SLOAD DUP1 SWAP3 SWAP2 SWAP1 PUSH2 0xF7F SWAP1 PUSH2 0x3389 JUMP JUMPDEST SWAP2 SWAP1 POP SSTORE POP PUSH1 0x8 PUSH1 0x0 DUP2 SLOAD DUP1 SWAP3 SWAP2 SWAP1 PUSH2 0xF97 SWAP1 PUSH2 0x3389 JUMP JUMPDEST SWAP2 SWAP1 POP SSTORE POP DUP5 DUP7 PUSH32 0xF0D2E29484D6824BF38CF41B7C1F019D959B96AEB2332BEB51A01DA3EC4BDBCC DUP7 PUSH1 0x40 MLOAD PUSH2 0xFCD SWAP2 SWAP1 PUSH2 0x362E JUMP JUMPDEST PUSH1 0x40 MLOAD DUP1 SWAP2 SUB SWAP1 LOG3 POP PUSH2 0xFDE PUSH2 0x1FE4 JUMP JUMPDEST POP POP POP POP POP JUMP JUMPDEST PUSH2 0xFEE DUP3 PUSH2 0x85C JUMP JUMPDEST PUSH2 0xFF7 DUP2 PUSH2 0x1F8A JUMP JUMPDEST PUSH2 0x1001 DUP4 DUP4 PUSH2 0x1FED JUMP JUMPDEST POP POP POP POP JUMP JUMPDEST CALLER PUSH20 0xFFFFFFFFFFFFFFFFFFFFFFFFFFFFFFFFFFFFFFFF AND PUSH1 0x2 PUSH1 0x0 DUP4 DUP2 MSTORE PUSH1 0x20 ADD SWAP1 DUP2 MSTORE PUSH1 0x20 ADD PUSH1 0x0 KECCAK256 PUSH1 0x2 ADD PUSH1 0x0 SWAP1 SLOAD SWAP1 PUSH2 0x100 EXP SWAP1 DIV PUSH20 0xFFFFFFFFFFFFFFFFFFFFFFFFFFFFFFFFFFFFFFFF AND PUSH20 0xFFFFFFFFFFFFFFFFFFFFFFFFFFFFFFFFFFFFFFFF AND EQ DUP1 PUSH2 0x109D JUMPI POP PUSH2 0x109C PUSH32 0x5246556C0AB216B5B325AD7C539BFBD1A07C768773CDF810FECD3C3375C27407 CALLER PUSH2 0x1A27 JUMP JUMPDEST JUMPDEST PUSH2 0x10DC JUMPI PUSH1 0x40 MLOAD PUSH32 0x8C379A000000000000000000000000000000000000000000000000000000000 DUP2 MSTORE PUSH1 0x4 ADD PUSH2 0x10D3 SWAP1 PUSH2 0x2E6F JUMP JUMPDEST PUSH1 0x40 MLOAD DUP1 SWAP2 SUB SWAP1 REVERT JUMPDEST PUSH1 0x4 PUSH1 0x0 DUP4 DUP2 MSTORE PUSH1 0x20 ADD SWAP1 DUP2 MSTORE PUSH1 0x20 ADD PUSH1 0x0 KECCAK256 PUSH1 0x0 DUP3 DUP2 MSTORE PUSH1 0x20 ADD SWAP1 DUP2 MSTORE PUSH1 0x20 ADD PUSH1 0x0 KECCAK256 PUSH1 0x5 ADD PUSH1 0x0 SWAP1 SLOAD SWAP1 PUSH2 0x100 EXP SWAP1 DIV PUSH1 0xFF AND PUSH2 0x1150 JUMPI PUSH1 0x40 MLOAD PUSH32 0x8C379A000000000000000000000000000000000000000000000000000000000 DUP2 MSTORE PUSH1 0x4 ADD PUSH2 0x1147 SWAP1 PUSH2 0x369C JUMP JUMPDEST PUSH1 0x40 MLOAD DUP1 SWAP2 SUB SWAP1 REVERT JUMPDEST PUSH1 0x0 PUSH1 0x4 PUSH1 0x0 DUP5 DUP2 MSTORE PUSH1 0x20 ADD SWAP1 DUP2 MSTORE PUSH1 0x20 ADD PUSH1 0x0 KECCAK256 PUSH1 0x0 DUP4 DUP2 MSTORE PUSH1 0x20 ADD SWAP1 DUP2 MSTORE PUSH1 0x20 ADD PUSH1 0x0 KECCAK256 PUSH1 0x5 ADD PUSH1 0x0 PUSH2 0x100 EXP DUP2 SLOAD DUP2 PUSH1 0xFF MUL NOT AND SWAP1 DUP4 ISZERO ISZERO MUL OR SWAP1 SSTORE POP DUP1 DUP3 PUSH32 0x15BF8741A06406FC7D301DFE8B50DF03BD47B33E0CD494549D8AB9F9294A5311 PUSH1 0x40 MLOAD PUSH1 0x40 MLOAD DUP1 SWAP2 SUB SWAP1 LOG3 POP POP JUMP JUMPDEST PUSH1 0x0 DUP1 PUSH1 0x4 PUSH1 0x0 DUP6 DUP2 MSTORE PUSH1 0x20 ADD SWAP1 DUP2 MSTORE PUSH1 0x20 ADD PUSH1 0x0 KECCAK256 PUSH1 0x0 DUP5 DUP2 MSTORE PUSH1 0x20 ADD SWAP1 DUP2 MSTORE PUSH1 0x20 ADD PUSH1 0x0 KECCAK256 PUSH1 0x40 MLOAD DUP1 PUSH2 0x100 ADD PUSH1 0x40 MSTORE SWAP1 DUP2 PUSH1 0x0 DUP3 ADD SLOAD DUP2 MSTORE PUSH1 0x20 ADD PUSH1 0x1 DUP3 ADD SLOAD DUP2 MSTORE PUSH1 0x20 ADD PUSH1 0x2 DUP3 ADD DUP1 SLOAD PUSH2 0x1219 SWAP1 PUSH2 0x2EBE JUMP JUMPDEST DUP1 PUSH1 0x1F ADD PUSH1 0x20 DUP1 SWAP2 DIV MUL PUSH1 0x20 ADD PUSH1 0x40 MLOAD SWAP1 DUP2 ADD PUSH1 0x40 MSTORE DUP1 SWAP3 SWAP2 SWAP1 DUP2 DUP2 MSTORE PUSH1 0x20 ADD DUP3 DUP1 SLOAD PUSH2 0x1245 SWAP1 PUSH2 0x2EBE JUMP JUMPDEST DUP1 ISZERO PUSH2 0x1292 JUMPI DUP1 PUSH1 0x1F LT PUSH2 0x1267 JUMPI PUSH2 0x100 DUP1 DUP4 SLOAD DIV MUL DUP4 MSTORE SWAP2 PUSH1 0x20 ADD SWAP2 PUSH2 0x1292 JUMP JUMPDEST DUP3 ADD SWAP2 SWAP1 PUSH1 0x0 MSTORE PUSH1 0x20 PUSH1 0x0 KECCAK256 SWAP1 JUMPDEST DUP2 SLOAD DUP2 MSTORE SWAP1 PUSH1 0x1 ADD SWAP1 PUSH1 0x20 ADD DUP1 DUP4 GT PUSH2 0x1275 JUMPI DUP3 SWAP1 SUB PUSH1 0x1F AND DUP3 ADD SWAP2 JUMPDEST POP POP POP POP POP DUP2 MSTORE PUSH1 0x20 ADD PUSH1 0x3 DUP3 ADD SLOAD DUP2 MSTORE PUSH1 0x20 ADD PUSH1 0x4 DUP3 ADD SLOAD DUP2 MSTORE PUSH1 0x20 ADD PUSH1 0x5 DUP3 ADD PUSH1 0x0 SWAP1 SLOAD SWAP1 PUSH2 0x100 EXP SWAP1 DIV PUSH1 0xFF AND ISZERO ISZERO ISZERO ISZERO DUP2 MSTORE PUSH1 0x20 ADD PUSH1 0x5 DUP3 ADD PUSH1 0x1 SWAP1 SLOAD SWAP1 PUSH2 0x100 EXP SWAP1 DIV PUSH1 0xFF AND PUSH1 0xFF AND PUSH1 0xFF AND DUP2 MSTORE PUSH1 0x20 ADD PUSH1 0x6 DUP3 ADD SLOAD DUP2 MSTORE POP POP SWAP1 POP DUP1 PUSH1 0xA0 ADD MLOAD PUSH2 0x1306 JUMPI PUSH1 0x0 SWAP2 POP POP PUSH2 0x1332 JUMP JUMPDEST PUSH1 0x0 DUP2 PUSH1 0x80 ADD MLOAD GT DUP1 ISZERO PUSH2 0x131D JUMPI POP DUP1 PUSH1 0x80 ADD MLOAD TIMESTAMP GT JUMPDEST ISZERO PUSH2 0x132C JUMPI PUSH1 0x0 SWAP2 POP POP PUSH2 0x1332 JUMP JUMPDEST PUSH1 0x1 SWAP2 POP POP JUMPDEST SWAP3 SWAP2 POP POP JUMP JUMPDEST PUSH2 0x1340 PUSH2 0x20DE JUMP JUMPDEST PUSH20 0xFFFFFFFFFFFFFFFFFFFFFFFFFFFFFFFFFFFFFFFF AND DUP2 PUSH20 0xFFFFFFFFFFFFFFFFFFFFFFFFFFFFFFFFFFFFFFFF AND EQ PUSH2 0x13A4 JUMPI PUSH1 0x40 MLOAD PUSH32 0x6697B23200000000000000000000000000000000000000000000000000000000 DUP2 MSTORE PUSH1 0x4 ADD PUSH1 0x40 MLOAD DUP1 SWAP2 SUB SWAP1 REVERT JUMPDEST PUSH2 0x13AE DUP3 DUP3 PUSH2 0x20E6 JUMP JUMPDEST POP POP POP JUMP JUMPDEST PUSH1 0x2 PUSH1 0x20 MSTORE DUP1 PUSH1 0x0 MSTORE PUSH1 0x40 PUSH1 0x0 KECCAK256 PUSH1 0x0 SWAP2 POP SWAP1 POP DUP1 PUSH1 0x0 ADD DUP1 SLOAD PUSH2 0x13D6 SWAP1 PUSH2 0x2EBE JUMP JUMPDEST DUP1 PUSH1 0x1F ADD PUSH1 0x20 DUP1 SWAP2 DIV MUL PUSH1 0x20 ADD PUSH1 0x40 MLOAD SWAP1 DUP2 ADD PUSH1 0x40 MSTORE DUP1 SWAP3 SWAP2 SWAP1 DUP2 DUP2 MSTORE PUSH1 0x20 ADD DUP3 DUP1 SLOAD PUSH2 0x1402 SWAP1 PUSH2 0x2EBE JUMP JUMPDEST DUP1 ISZERO PUSH2 0x144F JUMPI DUP1 PUSH1 0x1F LT PUSH2 0x1424 JUMPI PUSH2 0x100 DUP1 DUP4 SLOAD DIV MUL DUP4 MSTORE SWAP2 PUSH1 0x20 ADD SWAP2 PUSH2 0x144F JUMP JUMPDEST DUP3 ADD SWAP2 SWAP1 PUSH1 0x0 MSTORE PUSH1 0x20 PUSH1 0x0 KECCAK256 SWAP1 JUMPDEST DUP2 SLOAD DUP2 MSTORE SWAP1 PUSH1 0x1 ADD SWAP1 PUSH1 0x20 ADD DUP1 DUP4 GT PUSH2 0x1432 JUMPI DUP3 SWAP1 SUB PUSH1 0x1F AND DUP3 ADD SWAP2 JUMPDEST POP POP POP POP POP SWAP1 DUP1 PUSH1 0x1 ADD DUP1 SLOAD PUSH2 0x1464 SWAP1 PUSH2 0x2EBE JUMP JUMPDEST DUP1 PUSH1 0x1F ADD PUSH1 0x20 DUP1 SWAP2 DIV MUL PUSH1 0x20 ADD PUSH1 0x40 MLOAD SWAP1 DUP2 ADD PUSH1 0x40 MSTORE DUP1 SWAP3 SWAP2 SWAP1 DUP2 DUP2 MSTORE PUSH1 0x20 ADD DUP3 DUP1 SLOAD PUSH2 0x1490 SWAP1 PUSH2 0x2EBE JUMP JUMPDEST DUP1 ISZERO PUSH2 0x14DD JUMPI DUP1 PUSH1 0x1F LT PUSH2 0x14B2 JUMPI PUSH2 0x100 DUP1 DUP4 SLOAD DIV MUL DUP4 MSTORE SWAP2 PUSH1 0x20 ADD SWAP2 PUSH2 0x14DD JUMP JUMPDEST DUP3 ADD SWAP2 SWAP1 PUSH1 0x0 MSTORE PUSH1 0x20 PUSH1 0x0 KECCAK256 SWAP1 JUMPDEST DUP2 SLOAD DUP2 MSTORE SWAP1 PUSH1 0x1 ADD SWAP1 PUSH1 0x20 ADD DUP1 DUP4 GT PUSH2 0x14C0 JUMPI DUP3 SWAP1 SUB PUSH1 0x1F AND DUP3 ADD SWAP2 JUMPDEST POP POP POP POP POP SWAP1 DUP1 PUSH1 0x2 ADD PUSH1 0x0 SWAP1 SLOAD SWAP1 PUSH2 0x100 EXP SWAP1 DIV PUSH20 0xFFFFFFFFFFFFFFFFFFFFFFFFFFFFFFFFFFFFFFFF AND SWAP1 DUP1 PUSH1 0x2 ADD PUSH1 0x14 SWAP1 SLOAD SWAP1 PUSH2 0x100 EXP SWAP1 DIV PUSH1 0xFF AND SWAP1 DUP1 PUSH1 0x3 ADD SLOAD SWAP1 DUP1 PUSH1 0x4 ADD SLOAD SWAP1 DUP1 PUSH1 0x5 ADD PUSH1 0x0 SWAP1 SLOAD SWAP1 PUSH2 0x100 EXP SWAP1 DIV PUSH1 0xFF AND SWAP1 POP DUP8 JUMP JUMPDEST PUSH1 0x3 DUP2 DUP1 MLOAD PUSH1 0x20 DUP2 ADD DUP3 ADD DUP1 MLOAD DUP5 DUP3 MSTORE PUSH1 0x20 DUP4 ADD PUSH1 0x20 DUP6 ADD KECCAK256 DUP2 DUP4 MSTORE DUP1 SWAP6 POP POP POP POP POP POP PUSH1 0x0 SWAP2 POP SWAP1 POP SLOAD DUP2 JUMP JUMPDEST PUSH1 0x60 DUP1 PUSH1 0x0 DUP1 PUSH1 0x0 DUP1 PUSH1 0x0 DUP1 PUSH1 0x2 PUSH1 0x0 DUP11 DUP2 MSTORE PUSH1 0x20 ADD SWAP1 DUP2 MSTORE PUSH1 0x20 ADD PUSH1 0x0 KECCAK256 PUSH1 0x40 MLOAD DUP1 PUSH1 0xE0 ADD PUSH1 0x40 MSTORE SWAP1 DUP2 PUSH1 0x0 DUP3 ADD DUP1 SLOAD PUSH2 0x15A7 SWAP1 PUSH2 0x2EBE JUMP JUMPDEST DUP1 PUSH1 0x1F ADD PUSH1 0x20 DUP1 SWAP2 DIV MUL PUSH1 0x20 ADD PUSH1 0x40 MLOAD SWAP1 DUP2 ADD PUSH1 0x40 MSTORE DUP1 SWAP3 SWAP2 SWAP1 DUP2 DUP2 MSTORE PUSH1 0x20 ADD DUP3 DUP1 SLOAD PUSH2 0x15D3 SWAP1 PUSH2 0x2EBE JUMP JUMPDEST DUP1 ISZERO PUSH2 0x1620 JUMPI DUP1 PUSH1 0x1F LT PUSH2 0x15F5 JUMPI PUSH2 0x100 DUP1 DUP4 SLOAD DIV MUL DUP4 MSTORE SWAP2 PUSH1 0x20 ADD SWAP2 PUSH2 0x1620 JUMP JUMPDEST DUP3 ADD SWAP2 SWAP1 PUSH1 0x0 MSTORE PUSH1 0x20 PUSH1 0x0 KECCAK256 SWAP1 JUMPDEST DUP2 SLOAD DUP2 MSTORE SWAP1 PUSH1 0x1 ADD SWAP1 PUSH1 0x20 ADD DUP1 DUP4 GT PUSH2 0x1603 JUMPI DUP3 SWAP1 SUB PUSH1 0x1F AND DUP3 ADD SWAP2 JUMPDEST POP POP POP POP POP DUP2 MSTORE PUSH1 0x20 ADD PUSH1 0x1 DUP3 ADD DUP1 SLOAD PUSH2 0x1639 SWAP1 PUSH2 0x2EBE JUMP JUMPDEST DUP1 PUSH1 0x1F ADD PUSH1 0x20 DUP1 SWAP2 DIV MUL PUSH1 0x20 ADD PUSH1 0x40 MLOAD SWAP1 DUP2 ADD PUSH1 0x40 MSTORE DUP1 SWAP3 SWAP2 SWAP1 DUP2 DUP2 MSTORE PUSH1 0x20 ADD DUP3 DUP1 SLOAD PUSH2 0x1665 SWAP1 PUSH2 0x2EBE JUMP JUMPDEST DUP1 ISZERO PUSH2 0x16B2 JUMPI DUP1 PUSH1 0x1F LT PUSH2 0x1687 JUMPI PUSH2 0x100 DUP1 DUP4 SLOAD DIV MUL DUP4 MSTORE SWAP2 PUSH1 0x20 ADD SWAP2 PUSH2 0x16B2 JUMP JUMPDEST DUP3 ADD SWAP2 SWAP1 PUSH1 0x0 MSTORE PUSH1 0x20 PUSH1 0x0 KECCAK256 SWAP1 JUMPDEST DUP2 SLOAD DUP2 MSTORE SWAP1 PUSH1 0x1 ADD SWAP1 PUSH1 0x20 ADD DUP1 DUP4 GT PUSH2 0x1695 JUMPI DUP3 SWAP1 SUB PUSH1 0x1F AND DUP3 ADD SWAP2 JUMPDEST POP POP POP POP POP DUP2 MSTORE PUSH1 0x20 ADD PUSH1 0x2 DUP3 ADD PUSH1 0x0 SWAP1 SLOAD SWAP1 PUSH2 0x100 EXP SWAP1 DIV PUSH20 0xFFFFFFFFFFFFFFFFFFFFFFFFFFFFFFFFFFFFFFFF AND PUSH20 0xFFFFFFFFFFFFFFFFFFFFFFFFFFFFFFFFFFFFFFFF AND PUSH20 0xFFFFFFFFFFFFFFFFFFFFFFFFFFFFFFFFFFFFFFFF AND DUP2 MSTORE PUSH1 0x20 ADD PUSH1 0x2 DUP3 ADD PUSH1 0x14 SWAP1 SLOAD SWAP1 PUSH2 0x100 EXP SWAP1 DIV PUSH1 0xFF AND ISZERO ISZERO ISZERO ISZERO DUP2 MSTORE PUSH1 0x20 ADD PUSH1 0x3 DUP3 ADD SLOAD DUP2 MSTORE PUSH1 0x20 ADD PUSH1 0x4 DUP3 ADD SLOAD DUP2 MSTORE PUSH1 0x20 ADD PUSH1 0x5 DUP3 ADD PUSH1 0x0 SWAP1 SLOAD SWAP1 PUSH2 0x100 EXP SWAP1 DIV PUSH1 0xFF AND PUSH1 0x5 DUP2 GT ISZERO PUSH2 0x1765 JUMPI PUSH2 0x1764 PUSH2 0x2864 JUMP JUMPDEST JUMPDEST PUSH1 0x5 DUP2 GT ISZERO PUSH2 0x1777 JUMPI PUSH2 0x1776 PUSH2 0x2864 JUMP JUMPDEST JUMPDEST DUP2 MSTORE POP POP SWAP1 POP DUP1 PUSH1 0x0 ADD MLOAD DUP2 PUSH1 0x20 ADD MLOAD DUP3 PUSH1 0x40 ADD MLOAD DUP4 PUSH1 0x60 ADD MLOAD DUP5 PUSH1 0x80 ADD MLOAD DUP6 PUSH1 0xA0 ADD MLOAD DUP7 PUSH1 0xC0 ADD MLOAD SWAP8 POP SWAP8 POP SWAP8 POP SWAP8 POP SWAP8 POP SWAP8 POP SWAP8 POP POP SWAP2 SWAP4 SWAP6 SWAP8 SWAP1 SWAP3 SWAP5 SWAP7 POP JUMP JUMPDEST PUSH32 0x5246556C0AB216B5B325AD7C539BFBD1A07C768773CDF810FECD3C3375C27407 DUP2 JUMP JUMPDEST CALLER PUSH20 0xFFFFFFFFFFFFFFFFFFFFFFFFFFFFFFFFFFFFFFFF AND PUSH1 0x2 PUSH1 0x0 DUP5 DUP2 MSTORE PUSH1 0x20 ADD SWAP1 DUP2 MSTORE PUSH1 0x20 ADD PUSH1 0x0 KECCAK256 PUSH1 0x2 ADD PUSH1 0x0 SWAP1 SLOAD SWAP1 PUSH2 0x100 EXP SWAP1 DIV PUSH20 0xFFFFFFFFFFFFFFFFFFFFFFFFFFFFFFFFFFFFFFFF AND PUSH20 0xFFFFFFFFFFFFFFFFFFFFFFFFFFFFFFFFFFFFFFFF AND EQ DUP1 PUSH2 0x1874 JUMPI POP PUSH2 0x1873 PUSH32 0x5246556C0AB216B5B325AD7C539BFBD1A07C768773CDF810FECD3C3375C27407 CALLER PUSH2 0x1A27 JUMP JUMPDEST JUMPDEST PUSH2 0x18B3 JUMPI PUSH1 0x40 MLOAD PUSH32 0x8C379A000000000000000000000000000000000000000000000000000000000 DUP2 MSTORE PUSH1 0x4 ADD PUSH2 0x18AA SWAP1 PUSH2 0x2E6F JUMP JUMPDEST PUSH1 0x40 MLOAD DUP1 SWAP2 SUB SWAP1 REVERT JUMPDEST PUSH1 0x64 DUP2 PUSH1 0xFF AND GT ISZERO PUSH2 0x18FA JUMPI PUSH1 0x40 MLOAD PUSH32 0x8C379A000000000000000000000000000000000000000000000000000000000 DUP2 MSTORE PUSH1 0x4 ADD PUSH2 0x18F1 SWAP1 PUSH2 0x3708 JUMP JUMPDEST PUSH1 0x40 MLOAD DUP1 SWAP2 SUB SWAP1 REVERT JUMPDEST PUSH1 0x4 PUSH1 0x0 DUP5 DUP2 MSTORE PUSH1 0x20 ADD SWAP1 DUP2 MSTORE PUSH1 0x20 ADD PUSH1 0x0 KECCAK256 PUSH1 0x0 DUP4 DUP2 MSTORE PUSH1 0x20 ADD SWAP1 DUP2 MSTORE PUSH1 0x20 ADD PUSH1 0x0 KECCAK256 PUSH1 0x5 ADD PUSH1 0x0 SWAP1 SLOAD SWAP1 PUSH2 0x100 EXP SWAP1 DIV PUSH1 0xFF AND PUSH2 0x196E JUMPI PUSH1 0x40 MLOAD PUSH32 0x8C379A000000000000000000000000000000000000000000000000000000000 DUP2 MSTORE PUSH1 0x4 ADD PUSH2 0x1965 SWAP1 PUSH2 0x369C JUMP JUMPDEST PUSH1 0x40 MLOAD DUP1 SWAP2 SUB SWAP1 REVERT JUMPDEST DUP1 PUSH1 0x4 PUSH1 0x0 DUP6 DUP2 MSTORE PUSH1 0x20 ADD SWAP1 DUP2 MSTORE PUSH1 0x20 ADD PUSH1 0x0 KECCAK256 PUSH1 0x0 DUP5 DUP2 MSTORE PUSH1 0x20 ADD SWAP1 DUP2 MSTORE PUSH1 0x20 ADD PUSH1 0x0 KECCAK256 PUSH1 0x5 ADD PUSH1 0x1 PUSH2 0x100 EXP DUP2 SLOAD DUP2 PUSH1 0xFF MUL NOT AND SWAP1 DUP4 PUSH1 0xFF AND MUL OR SWAP1 SSTORE POP DUP2 DUP4 PUSH32 0x4E0B167EBC696F4A7840B3658A5AD865B14CCEDF67E9B96AC3C56960FD814E07 DUP4 PUSH1 0x40 MLOAD PUSH2 0x19DF SWAP2 SWAP1 PUSH2 0x3728 JUMP JUMPDEST PUSH1 0x40 MLOAD DUP1 SWAP2 SUB SWAP1 LOG3 POP POP POP JUMP JUMPDEST PUSH1 0x6 PUSH1 0x20 MSTORE DUP2 PUSH1 0x0 MSTORE PUSH1 0x40 PUSH1 0x0 KECCAK256 DUP2 DUP1 MLOAD PUSH1 0x20 DUP2 ADD DUP3 ADD DUP1 MLOAD DUP5 DUP3 MSTORE PUSH1 0x20 DUP4 ADD PUSH1 0x20 DUP6 ADD KECCAK256 DUP2 DUP4 MSTORE DUP1 SWAP6 POP POP POP POP POP POP PUSH1 0x0 SWAP2 POP SWAP2 POP POP SLOAD DUP2 JUMP JUMPDEST PUSH1 0x0 DUP1 PUSH1 0x0 DUP5 DUP2 MSTORE PUSH1 0x20 ADD SWAP1 DUP2 MSTORE PUSH1 0x20 ADD PUSH1 0x0 KECCAK256 PUSH1 0x0 ADD PUSH1 0x0 DUP4 PUSH20 0xFFFFFFFFFFFFFFFFFFFFFFFFFFFFFFFFFFFFFFFF AND PUSH20 0xFFFFFFFFFFFFFFFFFFFFFFFFFFFFFFFFFFFFFFFF AND DUP2 MSTORE PUSH1 0x20 ADD SWAP1 DUP2 MSTORE PUSH1 0x20 ADD PUSH1 0x0 KECCAK256 PUSH1 0x0 SWAP1 SLOAD SWAP1 PUSH2 0x100 EXP SWAP1 DIV PUSH1 0xFF AND SWAP1 POP SWAP3 SWAP2 POP POP JUMP JUMPDEST PUSH1 0x60 PUSH1 0x5 PUSH1 0x0 DUP4 DUP2 MSTORE PUSH1 0x20 ADD SWAP1 DUP2 MSTORE PUSH1 0x20 ADD PUSH1 0x0 KECCAK256 DUP1 SLOAD DUP1 PUSH1 0x20 MUL PUSH1 0x20 ADD PUSH1 0x40 MLOAD SWAP1 DUP2 ADD PUSH1 0x40 MSTORE DUP1 SWAP3 SWAP2 SWAP1 DUP2 DUP2 MSTORE PUSH1 0x20 ADD DUP3 DUP1 SLOAD DUP1 ISZERO PUSH2 0x1AF0 JUMPI PUSH1 0x20 MUL DUP3 ADD SWAP2 SWAP1 PUSH1 0x0 MSTORE PUSH1 0x20 PUSH1 0x0 KECCAK256 SWAP1 JUMPDEST DUP2 SLOAD DUP2 MSTORE PUSH1 0x20 ADD SWAP1 PUSH1 0x1 ADD SWAP1 DUP1 DUP4 GT PUSH2 0x1ADC JUMPI JUMPDEST POP POP POP POP POP SWAP1 POP SWAP2 SWAP1 POP JUMP JUMPDEST PUSH1 0x0 DUP1 SHL DUP2 JUMP JUMPDEST PUSH1 0x0 PUSH1 0x6 PUSH1 0x0 DUP5 DUP2 MSTORE PUSH1 0x20 ADD SWAP1 DUP2 MSTORE PUSH1 0x20 ADD PUSH1 0x0 KECCAK256 DUP3 PUSH1 0x40 MLOAD PUSH2 0x1B26 SWAP2 SWAP1 PUSH2 0x3003 JUMP JUMPDEST SWAP1 DUP2 MSTORE PUSH1 0x20 ADD PUSH1 0x40 MLOAD DUP1 SWAP2 SUB SWAP1 KECCAK256 SLOAD SWAP1 POP SWAP3 SWAP2 POP POP JUMP JUMPDEST PUSH1 0x8 SLOAD DUP2 JUMP JUMPDEST PUSH1 0x7 SLOAD DUP2 JUMP JUMPDEST PUSH1 0x60 PUSH1 0x0 DUP4 MLOAD PUSH8 0xFFFFFFFFFFFFFFFF DUP2 GT ISZERO PUSH2 0x1B68 JUMPI PUSH2 0x1B67 PUSH2 0x2519 JUMP JUMPDEST JUMPDEST PUSH1 0x40 MLOAD SWAP1 DUP1 DUP3 MSTORE DUP1 PUSH1 0x20 MUL PUSH1 0x20 ADD DUP3 ADD PUSH1 0x40 MSTORE DUP1 ISZERO PUSH2 0x1B96 JUMPI DUP2 PUSH1 0x20 ADD PUSH1 0x20 DUP3 MUL DUP1 CALLDATASIZE DUP4 CALLDATACOPY DUP1 DUP3 ADD SWAP2 POP POP SWAP1 POP JUMPDEST POP SWAP1 POP PUSH1 0x0 JUMPDEST DUP5 MLOAD DUP2 LT ISZERO PUSH2 0x1D54 JUMPI PUSH1 0x0 PUSH1 0x4 PUSH1 0x0 DUP8 DUP5 DUP2 MLOAD DUP2 LT PUSH2 0x1BBE JUMPI PUSH2 0x1BBD PUSH2 0x3743 JUMP JUMPDEST JUMPDEST PUSH1 0x20 MUL PUSH1 0x20 ADD ADD MLOAD DUP2 MSTORE PUSH1 0x20 ADD SWAP1 DUP2 MSTORE PUSH1 0x20 ADD PUSH1 0x0 KECCAK256 PUSH1 0x0 DUP7 DUP2 MSTORE PUSH1 0x20 ADD SWAP1 DUP2 MSTORE PUSH1 0x20 ADD PUSH1 0x0 KECCAK256 PUSH1 0x40 MLOAD DUP1 PUSH2 0x100 ADD PUSH1 0x40 MSTORE SWAP1 DUP2 PUSH1 0x0 DUP3 ADD SLOAD DUP2 MSTORE PUSH1 0x20 ADD PUSH1 0x1 DUP3 ADD SLOAD DUP2 MSTORE PUSH1 0x20 ADD PUSH1 0x2 DUP3 ADD DUP1 SLOAD PUSH2 0x1C15 SWAP1 PUSH2 0x2EBE JUMP JUMPDEST DUP1 PUSH1 0x1F ADD PUSH1 0x20 DUP1 SWAP2 DIV MUL PUSH1 0x20 ADD PUSH1 0x40 MLOAD SWAP1 DUP2 ADD PUSH1 0x40 MSTORE DUP1 SWAP3 SWAP2 SWAP1 DUP2 DUP2 MSTORE PUSH1 0x20 ADD DUP3 DUP1 SLOAD PUSH2 0x1C41 SWAP1 PUSH2 0x2EBE JUMP JUMPDEST DUP1 ISZERO PUSH2 0x1C8E JUMPI DUP1 PUSH1 0x1F LT PUSH2 0x1C63 JUMPI PUSH2 0x100 DUP1 DUP4 SLOAD DIV MUL DUP4 MSTORE SWAP2 PUSH1 0x20 ADD SWAP2 PUSH2 0x1C8E JUMP JUMPDEST DUP3 ADD SWAP2 SWAP1 PUSH1 0x0 MSTORE PUSH1 0x20 PUSH1 0x0 KECCAK256 SWAP1 JUMPDEST DUP2 SLOAD DUP2 MSTORE SWAP1 PUSH1 0x1 ADD SWAP1 PUSH1 0x20 ADD DUP1 DUP4 GT PUSH2 0x1C71 JUMPI DUP3 SWAP1 SUB PUSH1 0x1F AND DUP3 ADD SWAP2 JUMPDEST POP POP POP POP POP DUP2 MSTORE PUSH1 0x20 ADD PUSH1 0x3 DUP3 ADD SLOAD DUP2 MSTORE PUSH1 0x20 ADD PUSH1 0x4 DUP3 ADD SLOAD DUP2 MSTORE PUSH1 0x20 ADD PUSH1 0x5 DUP3 ADD PUSH1 0x0 SWAP1 SLOAD SWAP1 PUSH2 0x100 EXP SWAP1 DIV PUSH1 0xFF AND ISZERO ISZERO ISZERO ISZERO DUP2 MSTORE PUSH1 0x20 ADD PUSH1 0x5 DUP3 ADD PUSH1 0x1 SWAP1 SLOAD SWAP1 PUSH2 0x100 EXP SWAP1 DIV PUSH1 0xFF AND PUSH1 0xFF AND PUSH1 0xFF AND DUP2 MSTORE PUSH1 0x20 ADD PUSH1 0x6 DUP3 ADD SLOAD DUP2 MSTORE POP POP SWAP1 POP PUSH1 0x0 DUP2 PUSH1 0xA0 ADD MLOAD SWAP1 POP PUSH1 0x0 DUP3 PUSH1 0x80 ADD MLOAD GT DUP1 ISZERO PUSH2 0x1D0F JUMPI POP DUP2 PUSH1 0x80 ADD MLOAD TIMESTAMP GT JUMPDEST ISZERO PUSH2 0x1D19 JUMPI PUSH1 0x0 SWAP1 POP JUMPDEST DUP1 DUP5 DUP5 DUP2 MLOAD DUP2 LT PUSH2 0x1D2D JUMPI PUSH2 0x1D2C PUSH2 0x3743 JUMP JUMPDEST JUMPDEST PUSH1 0x20 MUL PUSH1 0x20 ADD ADD SWAP1 ISZERO ISZERO SWAP1 DUP2 ISZERO ISZERO DUP2 MSTORE POP POP POP POP DUP1 DUP1 PUSH2 0x1D4C SWAP1 PUSH2 0x3389 JUMP JUMPDEST SWAP2 POP POP PUSH2 0x1B9C JUMP JUMPDEST POP DUP1 SWAP2 POP POP SWAP3 SWAP2 POP POP JUMP JUMPDEST PUSH1 0x60 PUSH1 0x0 DUP1 PUSH1 0x0 DUP1 PUSH1 0x0 DUP1 PUSH1 0x4 PUSH1 0x0 DUP11 DUP2 MSTORE PUSH1 0x20 ADD SWAP1 DUP2 MSTORE PUSH1 0x20 ADD PUSH1 0x0 KECCAK256 PUSH1 0x0 DUP10 DUP2 MSTORE PUSH1 0x20 ADD SWAP1 DUP2 MSTORE PUSH1 0x20 ADD PUSH1 0x0 KECCAK256 PUSH1 0x40 MLOAD DUP1 PUSH2 0x100 ADD PUSH1 0x40 MSTORE SWAP1 DUP2 PUSH1 0x0 DUP3 ADD SLOAD DUP2 MSTORE PUSH1 0x20 ADD PUSH1 0x1 DUP3 ADD SLOAD DUP2 MSTORE PUSH1 0x20 ADD PUSH1 0x2 DUP3 ADD DUP1 SLOAD PUSH2 0x1DBE SWAP1 PUSH2 0x2EBE JUMP JUMPDEST DUP1 PUSH1 0x1F ADD PUSH1 0x20 DUP1 SWAP2 DIV MUL PUSH1 0x20 ADD PUSH1 0x40 MLOAD SWAP1 DUP2 ADD PUSH1 0x40 MSTORE DUP1 SWAP3 SWAP2 SWAP1 DUP2 DUP2 MSTORE PUSH1 0x20 ADD DUP3 DUP1 SLOAD PUSH2 0x1DEA SWAP1 PUSH2 0x2EBE JUMP JUMPDEST DUP1 ISZERO PUSH2 0x1E37 JUMPI DUP1 PUSH1 0x1F LT PUSH2 0x1E0C JUMPI PUSH2 0x100 DUP1 DUP4 SLOAD DIV MUL DUP4 MSTORE SWAP2 PUSH1 0x20 ADD SWAP2 PUSH2 0x1E37 JUMP JUMPDEST DUP3 ADD SWAP2 SWAP1 PUSH1 0x0 MSTORE PUSH1 0x20 PUSH1 0x0 KECCAK256 SWAP1 JUMPDEST DUP2 SLOAD DUP2 MSTORE SWAP1 PUSH1 0x1 ADD SWAP1 PUSH1 0x20 ADD DUP1 DUP4 GT PUSH2 0x1E1A JUMPI DUP3 SWAP1 SUB PUSH1 0x1F AND DUP3 ADD SWAP2 JUMPDEST POP POP POP POP POP DUP2 MSTORE PUSH1 0x20 ADD PUSH1 0x3 DUP3 ADD SLOAD DUP2 MSTORE PUSH1 0x20 ADD PUSH1 0x4 DUP3 ADD SLOAD DUP2 MSTORE PUSH1 0x20 ADD PUSH1 0x5 DUP3 ADD PUSH1 0x0 SWAP1 SLOAD SWAP1 PUSH2 0x100 EXP SWAP1 DIV PUSH1 0xFF AND ISZERO ISZERO ISZERO ISZERO DUP2 MSTORE PUSH1 0x20 ADD PUSH1 0x5 DUP3 ADD PUSH1 0x1 SWAP1 SLOAD SWAP1 PUSH2 0x100 EXP SWAP1 DIV PUSH1 0xFF AND PUSH1 0xFF AND PUSH1 0xFF AND DUP2 MSTORE PUSH1 0x20 ADD PUSH1 0x6 DUP3 ADD SLOAD DUP2 MSTORE POP POP SWAP1 POP DUP1 PUSH1 0x40 ADD MLOAD DUP2 PUSH1 0x60 ADD MLOAD DUP3 PUSH1 0x80 ADD MLOAD DUP4 PUSH1 0xA0 ADD MLOAD DUP5 PUSH1 0xC0 ADD MLOAD DUP6 PUSH1 0xE0 ADD MLOAD SWAP7 POP SWAP7 POP SWAP7 POP SWAP7 POP SWAP7 POP SWAP7 POP POP SWAP3 SWAP6 POP SWAP3 SWAP6 POP SWAP3 SWAP6 JUMP JUMPDEST PUSH2 0x1ED6 DUP3 PUSH2 0x85C JUMP JUMPDEST PUSH2 0x1EDF DUP2 PUSH2 0x1F8A JUMP JUMPDEST PUSH2 0x1EE9 DUP4 DUP4 PUSH2 0x20E6 JUMP JUMPDEST POP POP POP POP JUMP JUMPDEST PUSH1 0x5 PUSH1 0x20 MSTORE DUP2 PUSH1 0x0 MSTORE PUSH1 0x40 PUSH1 0x0 KECCAK256 DUP2 DUP2 SLOAD DUP2 LT PUSH2 0x1F0B JUMPI PUSH1 0x0 DUP1 REVERT JUMPDEST SWAP1 PUSH1 0x0 MSTORE PUSH1 0x20 PUSH1 0x0 KECCAK256 ADD PUSH1 0x0 SWAP2 POP SWAP2 POP POP SLOAD DUP2 JUMP JUMPDEST PUSH1 0x0 PUSH32 0x1FFC9A700000000000000000000000000000000000000000000000000000000 PUSH28 0xFFFFFFFFFFFFFFFFFFFFFFFFFFFFFFFFFFFFFFFFFFFFFFFFFFFFFFFF NOT AND DUP3 PUSH28 0xFFFFFFFFFFFFFFFFFFFFFFFFFFFFFFFFFFFFFFFFFFFFFFFFFFFFFFFF NOT AND EQ SWAP1 POP SWAP2 SWAP1 POP JUMP JUMPDEST PUSH2 0x1F9B DUP2 PUSH2 0x1F96 PUSH2 0x20DE JUMP JUMPDEST PUSH2 0x21D8 JUMP JUMPDEST POP JUMP JUMPDEST PUSH1 0x2 PUSH1 0x1 SLOAD SUB PUSH2 0x1FDA JUMPI PUSH1 0x40 MLOAD PUSH32 0x3EE5AEB500000000000000000000000000000000000000000000000000000000 DUP2 MSTORE PUSH1 0x4 ADD PUSH1 0x40 MLOAD DUP1 SWAP2 SUB SWAP1 REVERT JUMPDEST PUSH1 0x2 PUSH1 0x1 DUP2 SWAP1 SSTORE POP JUMP JUMPDEST PUSH1 0x1 DUP1 DUP2 SWAP1 SSTORE POP JUMP JUMPDEST PUSH1 0x0 PUSH2 0x1FF9 DUP4 DUP4 PUSH2 0x1A27 JUMP JUMPDEST PUSH2 0x20D3 JUMPI PUSH1 0x1 PUSH1 0x0 DUP1 DUP6 DUP2 MSTORE PUSH1 0x20 ADD SWAP1 DUP2 MSTORE PUSH1 0x20 ADD PUSH1 0x0 KECCAK256 PUSH1 0x0 ADD PUSH1 0x0 DUP5 PUSH20 0xFFFFFFFFFFFFFFFFFFFFFFFFFFFFFFFFFFFFFFFF AND PUSH20 0xFFFFFFFFFFFFFFFFFFFFFFFFFFFFFFFFFFFFFFFF AND DUP2 MSTORE PUSH1 0x20 ADD SWAP1 DUP2 MSTORE PUSH1 0x20 ADD PUSH1 0x0 KECCAK256 PUSH1 0x0 PUSH2 0x100 EXP DUP2 SLOAD DUP2 PUSH1 0xFF MUL NOT AND SWAP1 DUP4 ISZERO ISZERO MUL OR SWAP1 SSTORE POP PUSH2 0x2070 PUSH2 0x20DE JUMP JUMPDEST PUSH20 0xFFFFFFFFFFFFFFFFFFFFFFFFFFFFFFFFFFFFFFFF AND DUP3 PUSH20 0xFFFFFFFFFFFFFFFFFFFFFFFFFFFFFFFFFFFFFFFF AND DUP5 PUSH32 0x2F8788117E7EFF1D82E926EC794901D17C78024A50270940304540A733656F0D PUSH1 0x40 MLOAD PUSH1 0x40 MLOAD DUP1 SWAP2 SUB SWAP1 LOG4 PUSH1 0x1 SWAP1 POP PUSH2 0x20D8 JUMP JUMPDEST PUSH1 0x0 SWAP1 POP JUMPDEST SWAP3 SWAP2 POP POP JUMP JUMPDEST PUSH1 0x0 CALLER SWAP1 POP SWAP1 JUMP JUMPDEST PUSH1 0x0 PUSH2 0x20F2 DUP4 DUP4 PUSH2 0x1A27 JUMP JUMPDEST ISZERO PUSH2 0x21CD JUMPI PUSH1 0x0 DUP1 PUSH1 0x0 DUP6 DUP2 MSTORE PUSH1 0x20 ADD SWAP1 DUP2 MSTORE PUSH1 0x20 ADD PUSH1 0x0 KECCAK256 PUSH1 0x0 ADD PUSH1 0x0 DUP5 PUSH20 0xFFFFFFFFFFFFFFFFFFFFFFFFFFFFFFFFFFFFFFFF AND PUSH20 0xFFFFFFFFFFFFFFFFFFFFFFFFFFFFFFFFFFFFFFFF AND DUP2 MSTORE PUSH1 0x20 ADD SWAP1 DUP2 MSTORE PUSH1 0x20 ADD PUSH1 0x0 KECCAK256 PUSH1 0x0 PUSH2 0x100 EXP DUP2 SLOAD DUP2 PUSH1 0xFF MUL NOT AND SWAP1 DUP4 ISZERO ISZERO MUL OR SWAP1 SSTORE POP PUSH2 0x216A PUSH2 0x20DE JUMP JUMPDEST PUSH20 0xFFFFFFFFFFFFFFFFFFFFFFFFFFFFFFFFFFFFFFFF AND DUP3 PUSH20 0xFFFFFFFFFFFFFFFFFFFFFFFFFFFFFFFFFFFFFFFF AND DUP5 PUSH32 0xF6391F5C32D9C69D2A47EA670B442974B53935D1EDC7FD64EB21E047A839171B PUSH1 0x40 MLOAD PUSH1 0x40 MLOAD DUP1 SWAP2 SUB SWAP1 LOG4 PUSH1 0x1 SWAP1 POP PUSH2 0x21D2 JUMP JUMPDEST PUSH1 0x0 SWAP1 POP JUMPDEST SWAP3 SWAP2 POP POP JUMP JUMPDEST PUSH2 0x21E2 DUP3 DUP3 PUSH2 0x1A27 JUMP JUMPDEST PUSH2 0x2225 JUMPI DUP1 DUP3 PUSH1 0x40 MLOAD PUSH32 0xE2517D3F00000000000000000000000000000000000000000000000000000000 DUP2 MSTORE PUSH1 0x4 ADD PUSH2 0x221C SWAP3 SWAP2 SWAP1 PUSH2 0x3772 JUMP JUMPDEST PUSH1 0x40 MLOAD DUP1 SWAP2 SUB SWAP1 REVERT JUMPDEST POP POP JUMP JUMPDEST PUSH1 0x0 PUSH1 0x40 MLOAD SWAP1 POP SWAP1 JUMP JUMPDEST PUSH1 0x0 DUP1 REVERT JUMPDEST PUSH1 0x0 DUP1 REVERT JUMPDEST PUSH1 0x0 PUSH32 0xFFFFFFFF00000000000000000000000000000000000000000000000000000000 DUP3 AND SWAP1 POP SWAP2 SWAP1 POP JUMP JUMPDEST PUSH2 0x2272 DUP2 PUSH2 0x223D JUMP JUMPDEST DUP2 EQ PUSH2 0x227D JUMPI PUSH1 0x0 DUP1 REVERT JUMPDEST POP JUMP JUMPDEST PUSH1 0x0 DUP2 CALLDATALOAD SWAP1 POP PUSH2 0x228F DUP2 PUSH2 0x2269 JUMP JUMPDEST SWAP3 SWAP2 POP POP JUMP JUMPDEST PUSH1 0x0 PUSH1 0x20 DUP3 DUP5 SUB SLT ISZERO PUSH2 0x22AB JUMPI PUSH2 0x22AA PUSH2 0x2233 JUMP JUMPDEST JUMPDEST PUSH1 0x0 PUSH2 0x22B9 DUP5 DUP3 DUP6 ADD PUSH2 0x2280 JUMP JUMPDEST SWAP2 POP POP SWAP3 SWAP2 POP POP JUMP JUMPDEST PUSH1 0x0 DUP2 ISZERO ISZERO SWAP1 POP SWAP2 SWAP1 POP JUMP JUMPDEST PUSH2 0x22D7 DUP2 PUSH2 0x22C2 JUMP JUMPDEST DUP3 MSTORE POP POP JUMP JUMPDEST PUSH1 0x0 PUSH1 0x20 DUP3 ADD SWAP1 POP PUSH2 0x22F2 PUSH1 0x0 DUP4 ADD DUP5 PUSH2 0x22CE JUMP JUMPDEST SWAP3 SWAP2 POP POP JUMP JUMPDEST PUSH1 0x0 DUP2 SWAP1 POP SWAP2 SWAP1 POP JUMP JUMPDEST PUSH2 0x230B DUP2 PUSH2 0x22F8 JUMP JUMPDEST DUP2 EQ PUSH2 0x2316 JUMPI PUSH1 0x0 DUP1 REVERT JUMPDEST POP JUMP JUMPDEST PUSH1 0x0 DUP2 CALLDATALOAD SWAP1 POP PUSH2 0x2328 DUP2 PUSH2 0x2302 JUMP JUMPDEST SWAP3 SWAP2 POP POP JUMP JUMPDEST PUSH1 0x0 PUSH1 0x20 DUP3 DUP5 SUB SLT ISZERO PUSH2 0x2344 JUMPI PUSH2 0x2343 PUSH2 0x2233 JUMP JUMPDEST JUMPDEST PUSH1 0x0 PUSH2 0x2352 DUP5 DUP3 DUP6 ADD PUSH2 0x2319 JUMP JUMPDEST SWAP2 POP POP SWAP3 SWAP2 POP POP JUMP JUMPDEST PUSH1 0x0 DUP1 PUSH1 0x40 DUP4 DUP6 SUB SLT ISZERO PUSH2 0x2372 JUMPI PUSH2 0x2371 PUSH2 0x2233 JUMP JUMPDEST JUMPDEST PUSH1 0x0 PUSH2 0x2380 DUP6 DUP3 DUP7 ADD PUSH2 0x2319 JUMP JUMPDEST SWAP3 POP POP PUSH1 0x20 PUSH2 0x2391 DUP6 DUP3 DUP7 ADD PUSH2 0x2319 JUMP JUMPDEST SWAP2 POP POP SWAP3 POP SWAP3 SWAP1 POP JUMP JUMPDEST PUSH2 0x23A4 DUP2 PUSH2 0x22F8 JUMP JUMPDEST DUP3 MSTORE POP POP JUMP JUMPDEST PUSH1 0x0 DUP2 MLOAD SWAP1 POP SWAP2 SWAP1 POP JUMP JUMPDEST PUSH1 0x0 DUP3 DUP3 MSTORE PUSH1 0x20 DUP3 ADD SWAP1 POP SWAP3 SWAP2 POP POP JUMP JUMPDEST PUSH1 0x0 JUMPDEST DUP4 DUP2 LT ISZERO PUSH2 0x23E4 JUMPI DUP1 DUP3 ADD MLOAD DUP2 DUP5 ADD MSTORE PUSH1 0x20 DUP2 ADD SWAP1 POP PUSH2 0x23C9 JUMP JUMPDEST PUSH1 0x0 DUP5 DUP5 ADD MSTORE POP POP POP POP JUMP JUMPDEST PUSH1 0x0 PUSH1 0x1F NOT PUSH1 0x1F DUP4 ADD AND SWAP1 POP SWAP2 SWAP1 POP JUMP JUMPDEST PUSH1 0x0 PUSH2 0x240C DUP3 PUSH2 0x23AA JUMP JUMPDEST PUSH2 0x2416 DUP2 DUP6 PUSH2 0x23B5 JUMP JUMPDEST SWAP4 POP PUSH2 0x2426 DUP2 DUP6 PUSH1 0x20 DUP7 ADD PUSH2 0x23C6 JUMP JUMPDEST PUSH2 0x242F DUP2 PUSH2 0x23F0 JUMP JUMPDEST DUP5 ADD SWAP2 POP POP SWAP3 SWAP2 POP POP JUMP JUMPDEST PUSH1 0x0 DUP2 SWAP1 POP SWAP2 SWAP1 POP JUMP JUMPDEST PUSH2 0x244D DUP2 PUSH2 0x243A JUMP JUMPDEST DUP3 MSTORE POP POP JUMP JUMPDEST PUSH1 0x0 PUSH1 0xFF DUP3 AND SWAP1 POP SWAP2 SWAP1 POP JUMP JUMPDEST PUSH2 0x2469 DUP2 PUSH2 0x2453 JUMP JUMPDEST DUP3 MSTORE POP POP JUMP JUMPDEST PUSH1 0x0 PUSH2 0x100 DUP3 ADD SWAP1 POP PUSH2 0x2485 PUSH1 0x0 DUP4 ADD DUP12 PUSH2 0x239B JUMP JUMPDEST PUSH2 0x2492 PUSH1 0x20 DUP4 ADD DUP11 PUSH2 0x239B JUMP JUMPDEST DUP2 DUP2 SUB PUSH1 0x40 DUP4 ADD MSTORE PUSH2 0x24A4 DUP2 DUP10 PUSH2 0x2401 JUMP JUMPDEST SWAP1 POP PUSH2 0x24B3 PUSH1 0x60 DUP4 ADD DUP9 PUSH2 0x2444 JUMP JUMPDEST PUSH2 0x24C0 PUSH1 0x80 DUP4 ADD DUP8 PUSH2 0x2444 JUMP JUMPDEST PUSH2 0x24CD PUSH1 0xA0 DUP4 ADD DUP7 PUSH2 0x22CE JUMP JUMPDEST PUSH2 0x24DA PUSH1 0xC0 DUP4 ADD DUP6 PUSH2 0x2460 JUMP JUMPDEST PUSH2 0x24E7 PUSH1 0xE0 DUP4 ADD DUP5 PUSH2 0x239B JUMP JUMPDEST SWAP10 SWAP9 POP POP POP POP POP POP POP POP POP JUMP JUMPDEST PUSH1 0x0 PUSH1 0x20 DUP3 ADD SWAP1 POP PUSH2 0x2509 PUSH1 0x0 DUP4 ADD DUP5 PUSH2 0x239B JUMP JUMPDEST SWAP3 SWAP2 POP POP JUMP JUMPDEST PUSH1 0x0 DUP1 REVERT JUMPDEST PUSH1 0x0 DUP1 REVERT JUMPDEST PUSH32 0x4E487B7100000000000000000000000000000000000000000000000000000000 PUSH1 0x0 MSTORE PUSH1 0x41 PUSH1 0x4 MSTORE PUSH1 0x24 PUSH1 0x0 REVERT JUMPDEST PUSH2 0x2551 DUP3 PUSH2 0x23F0 JUMP JUMPDEST DUP2 ADD DUP2 DUP2 LT PUSH8 0xFFFFFFFFFFFFFFFF DUP3 GT OR ISZERO PUSH2 0x2570 JUMPI PUSH2 0x256F PUSH2 0x2519 JUMP JUMPDEST JUMPDEST DUP1 PUSH1 0x40 MSTORE POP POP POP JUMP JUMPDEST PUSH1 0x0 PUSH2 0x2583 PUSH2 0x2229 JUMP JUMPDEST SWAP1 POP PUSH2 0x258F DUP3 DUP3 PUSH2 0x2548 JUMP JUMPDEST SWAP2 SWAP1 POP JUMP JUMPDEST PUSH1 0x0 PUSH8 0xFFFFFFFFFFFFFFFF DUP3 GT ISZERO PUSH2 0x25AF JUMPI PUSH2 0x25AE PUSH2 0x2519 JUMP JUMPDEST JUMPDEST PUSH2 0x25B8 DUP3 PUSH2 0x23F0 JUMP JUMPDEST SWAP1 POP PUSH1 0x20 DUP2 ADD SWAP1 POP SWAP2 SWAP1 POP JUMP JUMPDEST DUP3 DUP2 DUP4 CALLDATACOPY PUSH1 0x0 DUP4 DUP4 ADD MSTORE POP POP POP JUMP JUMPDEST PUSH1 0x0 PUSH2 0x25E7 PUSH2 0x25E2 DUP5 PUSH2 0x2594 JUMP JUMPDEST PUSH2 0x2579 JUMP JUMPDEST SWAP1 POP DUP3 DUP2 MSTORE PUSH1 0x20 DUP2 ADD DUP5 DUP5 DUP5 ADD GT ISZERO PUSH2 0x2603 JUMPI PUSH2 0x2602 PUSH2 0x2514 JUMP JUMPDEST JUMPDEST PUSH2 0x260E DUP5 DUP3 DUP6 PUSH2 0x25C5 JUMP JUMPDEST POP SWAP4 SWAP3 POP POP POP JUMP JUMPDEST PUSH1 0x0 DUP3 PUSH1 0x1F DUP4 ADD SLT PUSH2 0x262B JUMPI PUSH2 0x262A PUSH2 0x250F JUMP JUMPDEST JUMPDEST DUP2 CALLDATALOAD PUSH2 0x263B DUP5 DUP3 PUSH1 0x20 DUP7 ADD PUSH2 0x25D4 JUMP JUMPDEST SWAP2 POP POP SWAP3 SWAP2 POP POP JUMP JUMPDEST PUSH1 0x6 DUP2 LT PUSH2 0x2651 JUMPI PUSH1 0x0 DUP1 REVERT JUMPDEST POP JUMP JUMPDEST PUSH1 0x0 DUP2 CALLDATALOAD SWAP1 POP PUSH2 0x2663 DUP2 PUSH2 0x2644 JUMP JUMPDEST SWAP3 SWAP2 POP POP JUMP JUMPDEST PUSH1 0x0 DUP1 PUSH1 0x0 PUSH1 0x60 DUP5 DUP7 SUB SLT ISZERO PUSH2 0x2682 JUMPI PUSH2 0x2681 PUSH2 0x2233 JUMP JUMPDEST JUMPDEST PUSH1 0x0 DUP5 ADD CALLDATALOAD PUSH8 0xFFFFFFFFFFFFFFFF DUP2 GT ISZERO PUSH2 0x26A0 JUMPI PUSH2 0x269F PUSH2 0x2238 JUMP JUMPDEST JUMPDEST PUSH2 0x26AC DUP7 DUP3 DUP8 ADD PUSH2 0x2616 JUMP JUMPDEST SWAP4 POP POP PUSH1 0x20 DUP5 ADD CALLDATALOAD PUSH8 0xFFFFFFFFFFFFFFFF DUP2 GT ISZERO PUSH2 0x26CD JUMPI PUSH2 0x26CC PUSH2 0x2238 JUMP JUMPDEST JUMPDEST PUSH2 0x26D9 DUP7 DUP3 DUP8 ADD PUSH2 0x2616 JUMP JUMPDEST SWAP3 POP POP PUSH1 0x40 PUSH2 0x26EA DUP7 DUP3 DUP8 ADD PUSH2 0x2654 JUMP JUMPDEST SWAP2 POP POP SWAP3 POP SWAP3 POP SWAP3 JUMP JUMPDEST PUSH2 0x26FD DUP2 PUSH2 0x243A JUMP JUMPDEST DUP2 EQ PUSH2 0x2708 JUMPI PUSH1 0x0 DUP1 REVERT JUMPDEST POP JUMP JUMPDEST PUSH1 0x0 DUP2 CALLDATALOAD SWAP1 POP PUSH2 0x271A DUP2 PUSH2 0x26F4 JUMP JUMPDEST SWAP3 SWAP2 POP POP JUMP JUMPDEST PUSH1 0x0 DUP1 PUSH1 0x0 DUP1 PUSH1 0x0 PUSH1 0xA0 DUP7 DUP9 SUB SLT ISZERO PUSH2 0x273C JUMPI PUSH2 0x273B PUSH2 0x2233 JUMP JUMPDEST JUMPDEST PUSH1 0x0 PUSH2 0x274A DUP9 DUP3 DUP10 ADD PUSH2 0x2319 JUMP JUMPDEST SWAP6 POP POP PUSH1 0x20 PUSH2 0x275B DUP9 DUP3 DUP10 ADD PUSH2 0x2319 JUMP JUMPDEST SWAP5 POP POP PUSH1 0x40 DUP7 ADD CALLDATALOAD PUSH8 0xFFFFFFFFFFFFFFFF DUP2 GT ISZERO PUSH2 0x277C JUMPI PUSH2 0x277B PUSH2 0x2238 JUMP JUMPDEST JUMPDEST PUSH2 0x2788 DUP9 DUP3 DUP10 ADD PUSH2 0x2616 JUMP JUMPDEST SWAP4 POP POP PUSH1 0x60 PUSH2 0x2799 DUP9 DUP3 DUP10 ADD PUSH2 0x270B JUMP JUMPDEST SWAP3 POP POP PUSH1 0x80 PUSH2 0x27AA DUP9 DUP3 DUP10 ADD PUSH2 0x2319 JUMP JUMPDEST SWAP2 POP POP SWAP3 SWAP6 POP SWAP3 SWAP6 SWAP1 SWAP4 POP JUMP JUMPDEST PUSH1 0x0 PUSH20 0xFFFFFFFFFFFFFFFFFFFFFFFFFFFFFFFFFFFFFFFF DUP3 AND SWAP1 POP SWAP2 SWAP1 POP JUMP JUMPDEST PUSH1 0x0 PUSH2 0x27E2 DUP3 PUSH2 0x27B7 JUMP JUMPDEST SWAP1 POP SWAP2 SWAP1 POP JUMP JUMPDEST PUSH2 0x27F2 DUP2 PUSH2 0x27D7 JUMP JUMPDEST DUP2 EQ PUSH2 0x27FD JUMPI PUSH1 0x0 DUP1 REVERT JUMPDEST POP JUMP JUMPDEST PUSH1 0x0 DUP2 CALLDATALOAD SWAP1 POP PUSH2 0x280F DUP2 PUSH2 0x27E9 JUMP JUMPDEST SWAP3 SWAP2 POP POP JUMP JUMPDEST PUSH1 0x0 DUP1 PUSH1 0x40 DUP4 DUP6 SUB SLT ISZERO PUSH2 0x282C JUMPI PUSH2 0x282B PUSH2 0x2233 JUMP JUMPDEST JUMPDEST PUSH1 0x0 PUSH2 0x283A DUP6 DUP3 DUP7 ADD PUSH2 0x2319 JUMP JUMPDEST SWAP3 POP POP PUSH1 0x20 PUSH2 0x284B DUP6 DUP3 DUP7 ADD PUSH2 0x2800 JUMP JUMPDEST SWAP2 POP POP SWAP3 POP SWAP3 SWAP1 POP JUMP JUMPDEST PUSH2 0x285E DUP2 PUSH2 0x27D7 JUMP JUMPDEST DUP3 MSTORE POP POP JUMP JUMPDEST PUSH32 0x4E487B7100000000000000000000000000000000000000000000000000000000 PUSH1 0x0 MSTORE PUSH1 0x21 PUSH1 0x4 MSTORE PUSH1 0x24 PUSH1 0x0 REVERT JUMPDEST PUSH1 0x6 DUP2 LT PUSH2 0x28A4 JUMPI PUSH2 0x28A3 PUSH2 0x2864 JUMP JUMPDEST JUMPDEST POP JUMP JUMPDEST PUSH1 0x0 DUP2 SWAP1 POP PUSH2 0x28B5 DUP3 PUSH2 0x2893 JUMP JUMPDEST SWAP2 SWAP1 POP JUMP JUMPDEST PUSH1 0x0 PUSH2 0x28C5 DUP3 PUSH2 0x28A7 JUMP JUMPDEST SWAP1 POP SWAP2 SWAP1 POP JUMP JUMPDEST PUSH2 0x28D5 DUP2 PUSH2 0x28BA JUMP JUMPDEST DUP3 MSTORE POP POP JUMP JUMPDEST PUSH1 0x0 PUSH1 0xE0 DUP3 ADD SWAP1 POP DUP2 DUP2 SUB PUSH1 0x0 DUP4 ADD MSTORE PUSH2 0x28F5 DUP2 DUP11 PUSH2 0x2401 JUMP JUMPDEST SWAP1 POP DUP2 DUP2 SUB PUSH1 0x20 DUP4 ADD MSTORE PUSH2 0x2909 DUP2 DUP10 PUSH2 0x2401 JUMP JUMPDEST SWAP1 POP PUSH2 0x2918 PUSH1 0x40 DUP4 ADD DUP9 PUSH2 0x2855 JUMP JUMPDEST PUSH2 0x2925 PUSH1 0x60 DUP4 ADD DUP8 PUSH2 0x22CE JUMP JUMPDEST PUSH2 0x2932 PUSH1 0x80 DUP4 ADD DUP7 PUSH2 0x2444 JUMP JUMPDEST PUSH2 0x293F PUSH1 0xA0 DUP4 ADD DUP6 PUSH2 0x2444 JUMP JUMPDEST PUSH2 0x294C PUSH1 0xC0 DUP4 ADD DUP5 PUSH2 0x28CC JUMP JUMPDEST SWAP9 SWAP8 POP POP POP POP POP POP POP POP JUMP JUMPDEST PUSH1 0x0 PUSH1 0x20 DUP3 DUP5 SUB SLT ISZERO PUSH2 0x296E JUMPI PUSH2 0x296D PUSH2 0x2233 JUMP JUMPDEST JUMPDEST PUSH1 0x0 DUP3 ADD CALLDATALOAD PUSH8 0xFFFFFFFFFFFFFFFF DUP2 GT ISZERO PUSH2 0x298C JUMPI PUSH2 0x298B PUSH2 0x2238 JUMP JUMPDEST JUMPDEST PUSH2 0x2998 DUP5 DUP3 DUP6 ADD PUSH2 0x2616 JUMP JUMPDEST SWAP2 POP POP SWAP3 SWAP2 POP POP JUMP JUMPDEST PUSH2 0x29AA DUP2 PUSH2 0x2453 JUMP JUMPDEST DUP2 EQ PUSH2 0x29B5 JUMPI PUSH1 0x0 DUP1 REVERT JUMPDEST POP JUMP JUMPDEST PUSH1 0x0 DUP2 CALLDATALOAD SWAP1 POP PUSH2 0x29C7 DUP2 PUSH2 0x29A1 JUMP JUMPDEST SWAP3 SWAP2 POP POP JUMP JUMPDEST PUSH1 0x0 DUP1 PUSH1 0x0 PUSH1 0x60 DUP5 DUP7 SUB SLT ISZERO PUSH2 0x29E6 JUMPI PUSH2 0x29E5 PUSH2 0x2233 JUMP JUMPDEST JUMPDEST PUSH1 0x0 PUSH2 0x29F4 DUP7 DUP3 DUP8 ADD PUSH2 0x2319 JUMP JUMPDEST SWAP4 POP POP PUSH1 0x20 PUSH2 0x2A05 DUP7 DUP3 DUP8 ADD PUSH2 0x2319 JUMP JUMPDEST SWAP3 POP POP PUSH1 0x40 PUSH2 0x2A16 DUP7 DUP3 DUP8 ADD PUSH2 0x29B8 JUMP JUMPDEST SWAP2 POP POP SWAP3 POP SWAP3 POP SWAP3 JUMP JUMPDEST PUSH1 0x0 DUP1 PUSH1 0x40 DUP4 DUP6 SUB SLT ISZERO PUSH2 0x2A37 JUMPI PUSH2 0x2A36 PUSH2 0x2233 JUMP JUMPDEST JUMPDEST PUSH1 0x0 PUSH2 0x2A45 DUP6 DUP3 DUP7 ADD PUSH2 0x2319 JUMP JUMPDEST SWAP3 POP POP PUSH1 0x20 DUP4 ADD CALLDATALOAD PUSH8 0xFFFFFFFFFFFFFFFF DUP2 GT ISZERO PUSH2 0x2A66 JUMPI PUSH2 0x2A65 PUSH2 0x2238 JUMP JUMPDEST JUMPDEST PUSH2 0x2A72 DUP6 DUP3 DUP7 ADD PUSH2 0x2616 JUMP JUMPDEST SWAP2 POP POP SWAP3 POP SWAP3 SWAP1 POP JUMP JUMPDEST PUSH1 0x0 DUP2 MLOAD SWAP1 POP SWAP2 SWAP1 POP JUMP JUMPDEST PUSH1 0x0 DUP3 DUP3 MSTORE PUSH1 0x20 DUP3 ADD SWAP1 POP SWAP3 SWAP2 POP POP JUMP JUMPDEST PUSH1 0x0 DUP2 SWAP1 POP PUSH1 0x20 DUP3 ADD SWAP1 POP SWAP2 SWAP1 POP JUMP JUMPDEST PUSH2 0x2AB1 DUP2 PUSH2 0x22F8 JUMP JUMPDEST DUP3 MSTORE POP POP JUMP JUMPDEST PUSH1 0x0 PUSH2 0x2AC3 DUP4 DUP4 PUSH2 0x2AA8 JUMP JUMPDEST PUSH1 0x20 DUP4 ADD SWAP1 POP SWAP3 SWAP2 POP POP JUMP JUMPDEST PUSH1 0x0 PUSH1 0x20 DUP3 ADD SWAP1 POP SWAP2 SWAP1 POP JUMP JUMPDEST PUSH1 0x0 PUSH2 0x2AE7 DUP3 PUSH2 0x2A7C JUMP JUMPDEST PUSH2 0x2AF1 DUP2 DUP6 PUSH2 0x2A87 JUMP JUMPDEST SWAP4 POP PUSH2 0x2AFC DUP4 PUSH2 0x2A98 JUMP JUMPDEST DUP1 PUSH1 0x0 JUMPDEST DUP4 DUP2 LT ISZERO PUSH2 0x2B2D JUMPI DUP2 MLOAD PUSH2 0x2B14 DUP9 DUP3 PUSH2 0x2AB7 JUMP JUMPDEST SWAP8 POP PUSH2 0x2B1F DUP4 PUSH2 0x2ACF JUMP JUMPDEST SWAP3 POP POP PUSH1 0x1 DUP2 ADD SWAP1 POP PUSH2 0x2B00 JUMP JUMPDEST POP DUP6 SWAP4 POP POP POP POP SWAP3 SWAP2 POP POP JUMP JUMPDEST PUSH1 0x0 PUSH1 0x20 DUP3 ADD SWAP1 POP DUP2 DUP2 SUB PUSH1 0x0 DUP4 ADD MSTORE PUSH2 0x2B54 DUP2 DUP5 PUSH2 0x2ADC JUMP JUMPDEST SWAP1 POP SWAP3 SWAP2 POP POP JUMP JUMPDEST PUSH1 0x0 PUSH1 0x20 DUP3 ADD SWAP1 POP PUSH2 0x2B71 PUSH1 0x0 DUP4 ADD DUP5 PUSH2 0x2444 JUMP JUMPDEST SWAP3 SWAP2 POP POP JUMP JUMPDEST PUSH1 0x0 PUSH8 0xFFFFFFFFFFFFFFFF DUP3 GT ISZERO PUSH2 0x2B92 JUMPI PUSH2 0x2B91 PUSH2 0x2519 JUMP JUMPDEST JUMPDEST PUSH1 0x20 DUP3 MUL SWAP1 POP PUSH1 0x20 DUP2 ADD SWAP1 POP SWAP2 SWAP1 POP JUMP JUMPDEST PUSH1 0x0 DUP1 REVERT JUMPDEST PUSH1 0x0 PUSH2 0x2BBB PUSH2 0x2BB6 DUP5 PUSH2 0x2B77 JUMP JUMPDEST PUSH2 0x2579 JUMP JUMPDEST SWAP1 POP DUP1 DUP4 DUP3 MSTORE PUSH1 0x20 DUP3 ADD SWAP1 POP PUSH1 0x20 DUP5 MUL DUP4 ADD DUP6 DUP2 GT ISZERO PUSH2 0x2BDE JUMPI PUSH2 0x2BDD PUSH2 0x2BA3 JUMP JUMPDEST JUMPDEST DUP4 JUMPDEST DUP2 DUP2 LT ISZERO PUSH2 0x2C07 JUMPI DUP1 PUSH2 0x2BF3 DUP9 DUP3 PUSH2 0x2319 JUMP JUMPDEST DUP5 MSTORE PUSH1 0x20 DUP5 ADD SWAP4 POP POP PUSH1 0x20 DUP2 ADD SWAP1 POP PUSH2 0x2BE0 JUMP JUMPDEST POP POP POP SWAP4 SWAP3 POP POP POP JUMP JUMPDEST PUSH1 0x0 DUP3 PUSH1 0x1F DUP4 ADD SLT PUSH2 0x2C26 JUMPI PUSH2 0x2C25 PUSH2 0x250F JUMP JUMPDEST JUMPDEST DUP2 CALLDATALOAD PUSH2 0x2C36 DUP5 DUP3 PUSH1 0x20 DUP7 ADD PUSH2 0x2BA8 JUMP JUMPDEST SWAP2 POP POP SWAP3 SWAP2 POP POP JUMP JUMPDEST PUSH1 0x0 DUP1 PUSH1 0x40 DUP4 DUP6 SUB SLT ISZERO PUSH2 0x2C56 JUMPI PUSH2 0x2C55 PUSH2 0x2233 JUMP JUMPDEST JUMPDEST PUSH1 0x0 DUP4 ADD CALLDATALOAD PUSH8 0xFFFFFFFFFFFFFFFF DUP2 GT ISZERO PUSH2 0x2C74 JUMPI PUSH2 0x2C73 PUSH2 0x2238 JUMP JUMPDEST JUMPDEST PUSH2 0x2C80 DUP6 DUP3 DUP7 ADD PUSH2 0x2C11 JUMP JUMPDEST SWAP3 POP POP PUSH1 0x20 PUSH2 0x2C91 DUP6 DUP3 DUP7 ADD PUSH2 0x2319 JUMP JUMPDEST SWAP2 POP POP SWAP3 POP SWAP3 SWAP1 POP JUMP JUMPDEST PUSH1 0x0 DUP2 MLOAD SWAP1 POP SWAP2 SWAP1 POP JUMP JUMPDEST PUSH1 0x0 DUP3 DUP3 MSTORE PUSH1 0x20 DUP3 ADD SWAP1 POP SWAP3 SWAP2 POP POP JUMP JUMPDEST PUSH1 0x0 DUP2 SWAP1 POP PUSH1 0x20 DUP3 ADD SWAP1 POP SWAP2 SWAP1 POP JUMP JUMPDEST PUSH2 0x2CD0 DUP2 PUSH2 0x22C2 JUMP JUMPDEST DUP3 MSTORE POP POP JUMP JUMPDEST PUSH1 0x0 PUSH2 0x2CE2 DUP4 DUP4 PUSH2 0x2CC7 JUMP JUMPDEST PUSH1 0x20 DUP4 ADD SWAP1 POP SWAP3 SWAP2 POP POP JUMP JUMPDEST PUSH1 0x0 PUSH1 0x20 DUP3 ADD SWAP1 POP SWAP2 SWAP1 POP JUMP JUMPDEST PUSH1 0x0 PUSH2 0x2D06 DUP3 PUSH2 0x2C9B JUMP JUMPDEST PUSH2 0x2D10 DUP2 DUP6 PUSH2 0x2CA6 JUMP JUMPDEST SWAP4 POP PUSH2 0x2D1B DUP4 PUSH2 0x2CB7 JUMP JUMPDEST DUP1 PUSH1 0x0 JUMPDEST DUP4 DUP2 LT ISZERO PUSH2 0x2D4C JUMPI DUP2 MLOAD PUSH2 0x2D33 DUP9 DUP3 PUSH2 0x2CD6 JUMP JUMPDEST SWAP8 POP PUSH2 0x2D3E DUP4 PUSH2 0x2CEE JUMP JUMPDEST SWAP3 POP POP PUSH1 0x1 DUP2 ADD SWAP1 POP PUSH2 0x2D1F JUMP JUMPDEST POP DUP6 SWAP4 POP POP POP POP SWAP3 SWAP2 POP POP JUMP JUMPDEST PUSH1 0x0 PUSH1 0x20 DUP3 ADD SWAP1 POP DUP2 DUP2 SUB PUSH1 0x0 DUP4 ADD MSTORE PUSH2 0x2D73 DUP2 DUP5 PUSH2 0x2CFB JUMP JUMPDEST SWAP1 POP SWAP3 SWAP2 POP POP JUMP JUMPDEST PUSH1 0x0 PUSH1 0xC0 DUP3 ADD SWAP1 POP DUP2 DUP2 SUB PUSH1 0x0 DUP4 ADD MSTORE PUSH2 0x2D95 DUP2 DUP10 PUSH2 0x2401 JUMP JUMPDEST SWAP1 POP PUSH2 0x2DA4 PUSH1 0x20 DUP4 ADD DUP9 PUSH2 0x2444 JUMP JUMPDEST PUSH2 0x2DB1 PUSH1 0x40 DUP4 ADD DUP8 PUSH2 0x2444 JUMP JUMPDEST PUSH2 0x2DBE PUSH1 0x60 DUP4 ADD DUP7 PUSH2 0x22CE JUMP JUMPDEST PUSH2 0x2DCB PUSH1 0x80 DUP4 ADD DUP6 PUSH2 0x2460 JUMP JUMPDEST PUSH2 0x2DD8 PUSH1 0xA0 DUP4 ADD DUP5 PUSH2 0x239B JUMP JUMPDEST SWAP8 SWAP7 POP POP POP POP POP POP POP JUMP JUMPDEST PUSH1 0x0 DUP1 PUSH1 0x40 DUP4 DUP6 SUB SLT ISZERO PUSH2 0x2DFA JUMPI PUSH2 0x2DF9 PUSH2 0x2233 JUMP JUMPDEST JUMPDEST PUSH1 0x0 PUSH2 0x2E08 DUP6 DUP3 DUP7 ADD PUSH2 0x2319 JUMP JUMPDEST SWAP3 POP POP PUSH1 0x20 PUSH2 0x2E19 DUP6 DUP3 DUP7 ADD PUSH2 0x270B JUMP JUMPDEST SWAP2 POP POP SWAP3 POP SWAP3 SWAP1 POP JUMP JUMPDEST PUSH32 0x4E6F7420617574686F72697A6564000000000000000000000000000000000000 PUSH1 0x0 DUP3 ADD MSTORE POP JUMP JUMPDEST PUSH1 0x0 PUSH2 0x2E59 PUSH1 0xE DUP4 PUSH2 0x23B5 JUMP JUMPDEST SWAP2 POP PUSH2 0x2E64 DUP3 PUSH2 0x2E23 JUMP JUMPDEST PUSH1 0x20 DUP3 ADD SWAP1 POP SWAP2 SWAP1 POP JUMP JUMPDEST PUSH1 0x0 PUSH1 0x20 DUP3 ADD SWAP1 POP DUP2 DUP2 SUB PUSH1 0x0 DUP4 ADD MSTORE PUSH2 0x2E88 DUP2 PUSH2 0x2E4C JUMP JUMPDEST SWAP1 POP SWAP2 SWAP1 POP JUMP JUMPDEST PUSH32 0x4E487B7100000000000000000000000000000000000000000000000000000000 PUSH1 0x0 MSTORE PUSH1 0x22 PUSH1 0x4 MSTORE PUSH1 0x24 PUSH1 0x0 REVERT JUMPDEST PUSH1 0x0 PUSH1 0x2 DUP3 DIV SWAP1 POP PUSH1 0x1 DUP3 AND DUP1 PUSH2 0x2ED6 JUMPI PUSH1 0x7F DUP3 AND SWAP2 POP JUMPDEST PUSH1 0x20 DUP3 LT DUP2 SUB PUSH2 0x2EE9 JUMPI PUSH2 0x2EE8 PUSH2 0x2E8F JUMP JUMPDEST JUMPDEST POP SWAP2 SWAP1 POP JUMP JUMPDEST PUSH32 0x4E616D652063616E6E6F7420626520656D707479000000000000000000000000 PUSH1 0x0 DUP3 ADD MSTORE POP JUMP JUMPDEST PUSH1 0x0 PUSH2 0x2F25 PUSH1 0x14 DUP4 PUSH2 0x23B5 JUMP JUMPDEST SWAP2 POP PUSH2 0x2F30 DUP3 PUSH2 0x2EEF JUMP JUMPDEST PUSH1 0x20 DUP3 ADD SWAP1 POP SWAP2 SWAP1 POP JUMP JUMPDEST PUSH1 0x0 PUSH1 0x20 DUP3 ADD SWAP1 POP DUP2 DUP2 SUB PUSH1 0x0 DUP4 ADD MSTORE PUSH2 0x2F54 DUP2 PUSH2 0x2F18 JUMP JUMPDEST SWAP1 POP SWAP2 SWAP1 POP JUMP JUMPDEST PUSH32 0x446F6D61696E2063616E6E6F7420626520656D70747900000000000000000000 PUSH1 0x0 DUP3 ADD MSTORE POP JUMP JUMPDEST PUSH1 0x0 PUSH2 0x2F91 PUSH1 0x16 DUP4 PUSH2 0x23B5 JUMP JUMPDEST SWAP2 POP PUSH2 0x2F9C DUP3 PUSH2 0x2F5B JUMP JUMPDEST PUSH1 0x20 DUP3 ADD SWAP1 POP SWAP2 SWAP1 POP JUMP JUMPDEST PUSH1 0x0 PUSH1 0x20 DUP3 ADD SWAP1 POP DUP2 DUP2 SUB PUSH1 0x0 DUP4 ADD MSTORE PUSH2 0x2FC0 DUP2 PUSH2 0x2F84 JUMP JUMPDEST SWAP1 POP SWAP2 SWAP1 POP JUMP JUMPDEST PUSH1 0x0 DUP2 SWAP1 POP SWAP3 SWAP2 POP POP JUMP JUMPDEST PUSH1 0x0 PUSH2 0x2FDD DUP3 PUSH2 0x23AA JUMP JUMPDEST PUSH2 0x2FE7 DUP2 DUP6 PUSH2 0x2FC7 JUMP JUMPDEST SWAP4 POP PUSH2 0x2FF7 DUP2 DUP6 PUSH1 0x20 DUP7 ADD PUSH2 0x23C6 JUMP JUMPDEST DUP1 DUP5 ADD SWAP2 POP POP SWAP3 SWAP2 POP POP JUMP JUMPDEST PUSH1 0x0 PUSH2 0x300F DUP3 DUP5 PUSH2 0x2FD2 JUMP JUMPDEST SWAP2 POP DUP2 SWAP1 POP SWAP3 SWAP2 POP POP JUMP JUMPDEST PUSH32 0x446F6D61696E20616C7265616479207265676973746572656400000000000000 PUSH1 0x0 DUP3 ADD MSTORE POP JUMP JUMPDEST PUSH1 0x0 PUSH2 0x3050 PUSH1 0x19 DUP4 PUSH2 0x23B5 JUMP JUMPDEST SWAP2 POP PUSH2 0x305B DUP3 PUSH2 0x301A JUMP JUMPDEST PUSH1 0x20 DUP3 ADD SWAP1 POP SWAP2 SWAP1 POP JUMP JUMPDEST PUSH1 0x0 PUSH1 0x20 DUP3 ADD SWAP1 POP DUP2 DUP2 SUB PUSH1 0x0 DUP4 ADD MSTORE PUSH2 0x307F DUP2 PUSH2 0x3043 JUMP JUMPDEST SWAP1 POP SWAP2 SWAP1 POP JUMP JUMPDEST PUSH1 0x0 DUP2 SWAP1 POP SWAP2 SWAP1 POP JUMP JUMPDEST PUSH2 0x30A1 PUSH2 0x309C DUP3 PUSH2 0x243A JUMP JUMPDEST PUSH2 0x3086 JUMP JUMPDEST DUP3 MSTORE POP POP JUMP JUMPDEST PUSH1 0x0 PUSH2 0x30B3 DUP3 DUP7 PUSH2 0x2FD2 JUMP JUMPDEST SWAP2 POP PUSH2 0x30BF DUP3 DUP6 PUSH2 0x2FD2 JUMP JUMPDEST SWAP2 POP PUSH2 0x30CB DUP3 DUP5 PUSH2 0x3090 JUMP JUMPDEST PUSH1 0x20 DUP3 ADD SWAP2 POP DUP2 SWAP1 POP SWAP5 SWAP4 POP POP POP POP JUMP JUMPDEST PUSH1 0x0 DUP2 SWAP1 POP DUP2 PUSH1 0x0 MSTORE PUSH1 0x20 PUSH1 0x0 KECCAK256 SWAP1 POP SWAP2 SWAP1 POP JUMP JUMPDEST PUSH1 0x0 PUSH1 0x20 PUSH1 0x1F DUP4 ADD DIV SWAP1 POP SWAP2 SWAP1 POP JUMP JUMPDEST PUSH1 0x0 DUP3 DUP3 SHL SWAP1 POP SWAP3 SWAP2 POP POP JUMP JUMPDEST PUSH1 0x0 PUSH1 0x8 DUP4 MUL PUSH2 0x313E PUSH32 0xFFFFFFFFFFFFFFFFFFFFFFFFFFFFFFFFFFFFFFFFFFFFFFFFFFFFFFFFFFFFFFFF DUP3 PUSH2 0x3101 JUMP JUMPDEST PUSH2 0x3148 DUP7 DUP4 PUSH2 0x3101 JUMP JUMPDEST SWAP6 POP DUP1 NOT DUP5 AND SWAP4 POP DUP1 DUP7 AND DUP5 OR SWAP3 POP POP POP SWAP4 SWAP3 POP POP POP JUMP JUMPDEST PUSH1 0x0 DUP2 SWAP1 POP SWAP2 SWAP1 POP JUMP JUMPDEST PUSH1 0x0 PUSH2 0x3185 PUSH2 0x3180 PUSH2 0x317B DUP5 PUSH2 0x243A JUMP JUMPDEST PUSH2 0x3160 JUMP JUMPDEST PUSH2 0x243A JUMP JUMPDEST SWAP1 POP SWAP2 SWAP1 POP JUMP JUMPDEST PUSH1 0x0 DUP2 SWAP1 POP SWAP2 SWAP1 POP JUMP JUMPDEST PUSH2 0x319F DUP4 PUSH2 0x316A JUMP JUMPDEST PUSH2 0x31B3 PUSH2 0x31AB DUP3 PUSH2 0x318C JUMP JUMPDEST DUP5 DUP5 SLOAD PUSH2 0x310E JUMP JUMPDEST DUP3 SSTORE POP POP POP POP JUMP JUMPDEST PUSH1 0x0 SWAP1 JUMP JUMPDEST PUSH2 0x31C8 PUSH2 0x31BB JUMP JUMPDEST PUSH2 0x31D3 DUP2 DUP5 DUP5 PUSH2 0x3196 JUMP JUMPDEST POP POP POP JUMP JUMPDEST JUMPDEST DUP2 DUP2 LT ISZERO PUSH2 0x31F7 JUMPI PUSH2 0x31EC PUSH1 0x0 DUP3 PUSH2 0x31C0 JUMP JUMPDEST PUSH1 0x1 DUP2 ADD SWAP1 POP PUSH2 0x31D9 JUMP JUMPDEST POP POP JUMP JUMPDEST PUSH1 0x1F DUP3 GT ISZERO PUSH2 0x323C JUMPI PUSH2 0x320D DUP2 PUSH2 0x30DC JUMP JUMPDEST PUSH2 0x3216 DUP5 PUSH2 0x30F1 JUMP JUMPDEST DUP2 ADD PUSH1 0x20 DUP6 LT ISZERO PUSH2 0x3225 JUMPI DUP2 SWAP1 POP JUMPDEST PUSH2 0x3239 PUSH2 0x3231 DUP6 PUSH2 0x30F1 JUMP JUMPDEST DUP4 ADD DUP3 PUSH2 0x31D8 JUMP JUMPDEST POP POP JUMPDEST POP POP POP JUMP JUMPDEST PUSH1 0x0 DUP3 DUP3 SHR SWAP1 POP SWAP3 SWAP2 POP POP JUMP JUMPDEST PUSH1 0x0 PUSH2 0x325F PUSH1 0x0 NOT DUP5 PUSH1 0x8 MUL PUSH2 0x3241 JUMP JUMPDEST NOT DUP1 DUP4 AND SWAP2 POP POP SWAP3 SWAP2 POP POP JUMP JUMPDEST PUSH1 0x0 PUSH2 0x3278 DUP4 DUP4 PUSH2 0x324E JUMP JUMPDEST SWAP2 POP DUP3 PUSH1 0x2 MUL DUP3 OR SWAP1 POP SWAP3 SWAP2 POP POP JUMP JUMPDEST PUSH2 0x3291 DUP3 PUSH2 0x23AA JUMP JUMPDEST PUSH8 0xFFFFFFFFFFFFFFFF DUP2 GT ISZERO PUSH2 0x32AA JUMPI PUSH2 0x32A9 PUSH2 0x2519 JUMP JUMPDEST JUMPDEST PUSH2 0x32B4 DUP3 SLOAD PUSH2 0x2EBE JUMP JUMPDEST PUSH2 0x32BF DUP3 DUP3 DUP6 PUSH2 0x31FB JUMP JUMPDEST PUSH1 0x0 PUSH1 0x20 SWAP1 POP PUSH1 0x1F DUP4 GT PUSH1 0x1 DUP2 EQ PUSH2 0x32F2 JUMPI PUSH1 0x0 DUP5 ISZERO PUSH2 0x32E0 JUMPI DUP3 DUP8 ADD MLOAD SWAP1 POP JUMPDEST PUSH2 0x32EA DUP6 DUP3 PUSH2 0x326C JUMP JUMPDEST DUP7 SSTORE POP PUSH2 0x3352 JUMP JUMPDEST PUSH1 0x1F NOT DUP5 AND PUSH2 0x3300 DUP7 PUSH2 0x30DC JUMP JUMPDEST PUSH1 0x0 JUMPDEST DUP3 DUP2 LT ISZERO PUSH2 0x3328 JUMPI DUP5 DUP10 ADD MLOAD DUP3 SSTORE PUSH1 0x1 DUP3 ADD SWAP2 POP PUSH1 0x20 DUP6 ADD SWAP5 POP PUSH1 0x20 DUP2 ADD SWAP1 POP PUSH2 0x3303 JUMP JUMPDEST DUP7 DUP4 LT ISZERO PUSH2 0x3345 JUMPI DUP5 DUP10 ADD MLOAD PUSH2 0x3341 PUSH1 0x1F DUP10 AND DUP3 PUSH2 0x324E JUMP JUMPDEST DUP4 SSTORE POP JUMPDEST PUSH1 0x1 PUSH1 0x2 DUP9 MUL ADD DUP9 SSTORE POP POP POP JUMPDEST POP POP POP POP POP POP JUMP JUMPDEST PUSH32 0x4E487B7100000000000000000000000000000000000000000000000000000000 PUSH1 0x0 MSTORE PUSH1 0x11 PUSH1 0x4 MSTORE PUSH1 0x24 PUSH1 0x0 REVERT JUMPDEST PUSH1 0x0 PUSH2 0x3394 DUP3 PUSH2 0x243A JUMP JUMPDEST SWAP2 POP PUSH32 0xFFFFFFFFFFFFFFFFFFFFFFFFFFFFFFFFFFFFFFFFFFFFFFFFFFFFFFFFFFFFFFFF DUP3 SUB PUSH2 0x33C6 JUMPI PUSH2 0x33C5 PUSH2 0x335A JUMP JUMPDEST JUMPDEST PUSH1 0x1 DUP3 ADD SWAP1 POP SWAP2 SWAP1 POP JUMP JUMPDEST PUSH1 0x0 PUSH1 0x40 DUP3 ADD SWAP1 POP DUP2 DUP2 SUB PUSH1 0x0 DUP4 ADD MSTORE PUSH2 0x33EB DUP2 DUP6 PUSH2 0x2401 JUMP JUMPDEST SWAP1 POP DUP2 DUP2 SUB PUSH1 0x20 DUP4 ADD MSTORE PUSH2 0x33FF DUP2 DUP5 PUSH2 0x2401 JUMP JUMPDEST SWAP1 POP SWAP4 SWAP3 POP POP POP JUMP JUMPDEST PUSH32 0x506C6174666F726D206E6F742061637469766500000000000000000000000000 PUSH1 0x0 DUP3 ADD MSTORE POP JUMP JUMPDEST PUSH1 0x0 PUSH2 0x343E PUSH1 0x13 DUP4 PUSH2 0x23B5 JUMP JUMPDEST SWAP2 POP PUSH2 0x3449 DUP3 PUSH2 0x3408 JUMP JUMPDEST PUSH1 0x20 DUP3 ADD SWAP1 POP SWAP2 SWAP1 POP JUMP JUMPDEST PUSH1 0x0 PUSH1 0x20 DUP3 ADD SWAP1 POP DUP2 DUP2 SUB PUSH1 0x0 DUP4 ADD MSTORE PUSH2 0x346D DUP2 PUSH2 0x3431 JUMP JUMPDEST SWAP1 POP SWAP2 SWAP1 POP JUMP JUMPDEST PUSH32 0x506C6174666F726D207573657220494420726571756972656400000000000000 PUSH1 0x0 DUP3 ADD MSTORE POP JUMP JUMPDEST PUSH1 0x0 PUSH2 0x34AA PUSH1 0x19 DUP4 PUSH2 0x23B5 JUMP JUMPDEST SWAP2 POP PUSH2 0x34B5 DUP3 PUSH2 0x3474 JUMP JUMPDEST PUSH1 0x20 DUP3 ADD SWAP1 POP SWAP2 SWAP1 POP JUMP JUMPDEST PUSH1 0x0 PUSH1 0x20 DUP3 ADD SWAP1 POP DUP2 DUP2 SUB PUSH1 0x0 DUP4 ADD MSTORE PUSH2 0x34D9 DUP2 PUSH2 0x349D JUMP JUMPDEST SWAP1 POP SWAP2 SWAP1 POP JUMP JUMPDEST PUSH32 0x496E76616C6964206964656E7469747920444944000000000000000000000000 PUSH1 0x0 DUP3 ADD MSTORE POP JUMP JUMPDEST PUSH1 0x0 PUSH2 0x3516 PUSH1 0x14 DUP4 PUSH2 0x23B5 JUMP JUMPDEST SWAP2 POP PUSH2 0x3521 DUP3 PUSH2 0x34E0 JUMP JUMPDEST PUSH1 0x20 DUP3 ADD SWAP1 POP SWAP2 SWAP1 POP JUMP JUMPDEST PUSH1 0x0 PUSH1 0x20 DUP3 ADD SWAP1 POP DUP2 DUP2 SUB PUSH1 0x0 DUP4 ADD MSTORE PUSH2 0x3545 DUP2 PUSH2 0x3509 JUMP JUMPDEST SWAP1 POP SWAP2 SWAP1 POP JUMP JUMPDEST PUSH32 0x566572696669636174696F6E20616C7265616479206578697374730000000000 PUSH1 0x0 DUP3 ADD MSTORE POP JUMP JUMPDEST PUSH1 0x0 PUSH2 0x3582 PUSH1 0x1B DUP4 PUSH2 0x23B5 JUMP JUMPDEST SWAP2 POP PUSH2 0x358D DUP3 PUSH2 0x354C JUMP JUMPDEST PUSH1 0x20 DUP3 ADD SWAP1 POP SWAP2 SWAP1 POP JUMP JUMPDEST PUSH1 0x0 PUSH1 0x20 DUP3 ADD SWAP1 POP DUP2 DUP2 SUB PUSH1 0x0 DUP4 ADD MSTORE PUSH2 0x35B1 DUP2 PUSH2 0x3575 JUMP JUMPDEST SWAP1 POP SWAP2 SWAP1 POP JUMP JUMPDEST PUSH1 0x0 PUSH2 0x35C3 DUP3 PUSH2 0x243A JUMP JUMPDEST SWAP2 POP PUSH2 0x35CE DUP4 PUSH2 0x243A JUMP JUMPDEST SWAP3 POP DUP3 DUP3 MUL PUSH2 0x35DC DUP2 PUSH2 0x243A JUMP JUMPDEST SWAP2 POP DUP3 DUP3 DIV DUP5 EQ DUP4 ISZERO OR PUSH2 0x35F3 JUMPI PUSH2 0x35F2 PUSH2 0x335A JUMP JUMPDEST JUMPDEST POP SWAP3 SWAP2 POP POP JUMP JUMPDEST PUSH1 0x0 PUSH2 0x3605 DUP3 PUSH2 0x243A JUMP JUMPDEST SWAP2 POP PUSH2 0x3610 DUP4 PUSH2 0x243A JUMP JUMPDEST SWAP3 POP DUP3 DUP3 ADD SWAP1 POP DUP1 DUP3 GT ISZERO PUSH2 0x3628 JUMPI PUSH2 0x3627 PUSH2 0x335A JUMP JUMPDEST JUMPDEST SWAP3 SWAP2 POP POP JUMP JUMPDEST PUSH1 0x0 PUSH1 0x20 DUP3 ADD SWAP1 POP DUP2 DUP2 SUB PUSH1 0x0 DUP4 ADD MSTORE PUSH2 0x3648 DUP2 DUP5 PUSH2 0x2401 JUMP JUMPDEST SWAP1 POP SWAP3 SWAP2 POP POP JUMP JUMPDEST PUSH32 0x566572696669636174696F6E206E6F7420616374697665000000000000000000 PUSH1 0x0 DUP3 ADD MSTORE POP JUMP JUMPDEST PUSH1 0x0 PUSH2 0x3686 PUSH1 0x17 DUP4 PUSH2 0x23B5 JUMP JUMPDEST SWAP2 POP PUSH2 0x3691 DUP3 PUSH2 0x3650 JUMP JUMPDEST PUSH1 0x20 DUP3 ADD SWAP1 POP SWAP2 SWAP1 POP JUMP JUMPDEST PUSH1 0x0 PUSH1 0x20 DUP3 ADD SWAP1 POP DUP2 DUP2 SUB PUSH1 0x0 DUP4 ADD MSTORE PUSH2 0x36B5 DUP2 PUSH2 0x3679 JUMP JUMPDEST SWAP1 POP SWAP2 SWAP1 POP JUMP JUMPDEST PUSH32 0x53636F7265206D75737420626520302D31303000000000000000000000000000 PUSH1 0x0 DUP3 ADD MSTORE POP JUMP JUMPDEST PUSH1 0x0 PUSH2 0x36F2 PUSH1 0x13 DUP4 PUSH2 0x23B5 JUMP JUMPDEST SWAP2 POP PUSH2 0x36FD DUP3 PUSH2 0x36BC JUMP JUMPDEST PUSH1 0x20 DUP3 ADD SWAP1 POP SWAP2 SWAP1 POP JUMP JUMPDEST PUSH1 0x0 PUSH1 0x20 DUP3 ADD SWAP1 POP DUP2 DUP2 SUB PUSH1 0x0 DUP4 ADD MSTORE PUSH2 0x3721 DUP2 PUSH2 0x36E5 JUMP JUMPDEST SWAP1 POP SWAP2 SWAP1 POP JUMP JUMPDEST PUSH1 0x0 PUSH1 0x20 DUP3 ADD SWAP1 POP PUSH2 0x373D PUSH1 0x0 DUP4 ADD DUP5 PUSH2 0x2460 JUMP JUMPDEST SWAP3 SWAP2 POP POP JUMP JUMPDEST PUSH32 0x4E487B7100000000000000000000000000000000000000000000000000000000 PUSH1 0x0 MSTORE PUSH1 0x32 PUSH1 0x4 MSTORE PUSH1 0x24 PUSH1 0x0 REVERT JUMPDEST PUSH1 0x0 PUSH1 0x40 DUP3 ADD SWAP1 POP PUSH2 0x3787 PUSH1 0x0 DUP4 ADD DUP6 PUSH2 0x2855 JUMP JUMPDEST PUSH2 0x3794 PUSH1 0x20 DUP4 ADD DUP5 PUSH2 0x239B JUMP JUMPDEST SWAP4 SWAP3 POP POP POP JUMP INVALID LOG2 PUSH5 0x6970667358 0x22 SLT KECCAK256 0xD4 0xD2 BASEFEE PUSH32 0xA62A5D0B9DBEE3C70FC0B5CB3674CB0C71ABF2BA66A5D4977C49BDAF64736F6C PUSH4 0x43000814 STOP CALLER "},"methodIdentifiers":{"DEFAULT_ADMIN_ROLE()":"a217fddf","PLATFORM_ADMIN_ROLE()":"685d34ff","batchVerificationCheck(bytes32[],bytes32)":"bdd6fba3","createVerification(bytes32,bytes32,string,uint256,bytes32)":"2db951e0","deactivatePlatform(bytes32)":"031692f7","domainToPlatform(string)":"49ce99aa","getIdentityByPlatformUser(bytes32,string)":"aedaf0e1","getPlatform(bytes32)":"569cd4cb","getPlatformVerifiedIdentities(bytes32)":"9c5195ce","getRoleAdmin(bytes32)":"248a9ca3","getVerification(bytes32,bytes32)":"c103770a","grantRole(bytes32,address)":"2f2ff15d","hasRole(bytes32,address)":"91d14854","isVerificationValid(bytes32,bytes32)":"35a56408","platformUserToIdentity(bytes32,string)":"810152f9","platformVerifiedIdentities(bytes32,uint256)":"e15e285d","platforms(bytes32)":"36d18204","registerPlatform(string,string,uint8)":"24f1553c","renounceRole(bytes32,address)":"36568abe","revokeRole(bytes32,address)":"d547741f","revokeVerification(bytes32,bytes32)":"347db40a","supportsInterface(bytes4)":"01ffc9a7","totalPlatformVerifications()":"b6500f3a","totalPlatforms()":"b8fcef8b","updateTrustScore(bytes32,bytes32,uint8)":"6ed598b1","verifications(bytes32,bytes32)":"1e26a644"}}}}}