{"contracts/GlobalIdentityRegistry.sol":{"GlobalIdentityRegistry":{"abi":[{"inputs":[],"stateMutability":"nonpayable","type":"constructor"},{"inputs":[],"name":"AccessControlBadConfirmation","type":"error"},{"inputs":[{"internalType":"address","name":"account","type":"address"},{"internalType":"bytes32","name":"neededRole","type":"bytes32"}],"name":"AccessControlUnauthorizedAccount","type":"error"},{"inputs":[],"name":"EnforcedPause","type":"error"},{"inputs":[],"name":"ExpectedPause","type":"error"},{"inputs":[],"name":"ReentrancyGuardReentrantCall","type":"error"},{"anonymous":false,"inputs":[{"indexed":true,"internalType":"bytes32","name":"did","type":"bytes32"},{"indexed":true,"internalType":"address","name":"guardian","type":"address"}],"name":"GuardianAdded","type":"event"},{"anonymous":false,"inputs":[{"indexed":true,"internalType":"bytes32","name":"did","type":"bytes32"},{"indexed":true,"internalType":"address","name":"guardian","type":"address"}],"name":"GuardianRemoved","type":"event"},{"anonymous":false,"inputs":[{"indexed":true,"internalType":"bytes32","name":"did","type":"bytes32"},{"indexed":true,"internalType":"address","name":"owner","type":"address"},{"indexed":false,"internalType":"uint256","name":"timestamp","type":"uint256"}],"name":"IdentityCreated","type":"event"},{"anonymous":false,"inputs":[{"indexed":true,"internalType":"bytes32","name":"did","type":"bytes32"},{"indexed":false,"internalType":"address","name":"oldOwner","type":"address"},{"indexed":false,"internalType":"address","name":"newOwner","type":"address"}],"name":"IdentityRecovered","type":"event"},{"anonymous":false,"inputs":[{"indexed":true,"internalType":"bytes32","name":"did","type":"bytes32"},{"indexed":false,"internalType":"uint256","name":"timestamp","type":"uint256"}],"name":"IdentityRevoked","type":"event"},{"anonymous":false,"inputs":[{"indexed":true,"internalType":"bytes32","name":"did","type":"bytes32"},{"indexed":false,"internalType":"uint256","name":"timestamp","type":"uint256"}],"name":"IdentityUpdated","type":"event"},{"anonymous":false,"inputs":[{"indexed":false,"internalType":"address","name":"account","type":"address"}],"name":"Paused","type":"event"},{"anonymous":false,"inputs":[{"indexed":true,"internalType":"bytes32","name":"did","type":"bytes32"},{"indexed":true,"internalType":"address","name":"newOwner","type":"address"}],"name":"RecoveryInitiated","type":"event"},{"anonymous":false,"inputs":[{"indexed":true,"internalType":"bytes32","name":"role","type":"bytes32"},{"indexed":true,"internalType":"bytes32","name":"previousAdminRole","type":"bytes32"},{"indexed":true,"internalType":"bytes32","name":"newAdminRole","type":"bytes32"}],"name":"RoleAdminChanged","type":"event"},{"anonymous":false,"inputs":[{"indexed":true,"internalType":"bytes32","name":"role","type":"bytes32"},{"indexed":true,"internalType":"address","name":"account","type":"address"},{"indexed":true,"internalType":"address","name":"sender","type":"address"}],"name":"RoleGranted","type":"event"},{"anonymous":false,"inputs":[{"indexed":true,"internalType":"bytes32","name":"role","type":"bytes32"},{"indexed":true,"internalType":"address","name":"account","type":"address"},{"indexed":true,"internalType":"address","name":"sender","type":"address"}],"name":"RoleRevoked","type":"event"},{"anonymous":false,"inputs":[{"indexed":false,"internalType":"address","name":"account","type":"address"}],"name":"Unpaused","type":"event"},{"anonymous":false,"inputs":[{"indexed":true,"internalType":"bytes32","name":"did","type":"bytes32"},{"indexed":true,"internalType":"address","name":"verifier","type":"address"},{"indexed":false,"internalType":"uint8","name":"verificationType","type":"uint8"}],"name":"VerificationAdded","type":"event"},{"anonymous":false,"inputs":[{"indexed":true,"internalType":"bytes32","name":"did","type":"bytes32"},{"indexed":false,"internalType":"uint256","name":"verificationIndex","type":"uint256"}],"name":"VerificationRevoked","type":"event"},{"inputs":[],"name":"ADMIN_ROLE","outputs":[{"internalType":"bytes32","name":"","type":"bytes32"}],"stateMutability":"view","type":"function"},{"inputs":[],"name":"DEFAULT_ADMIN_ROLE","outputs":[{"internalType":"bytes32","name":"","type":"bytes32"}],"stateMutability":"view","type":"function"},{"inputs":[],"name":"ISSUER_ROLE","outputs":[{"internalType":"bytes32","name":"","type":"bytes32"}],"stateMutability":"view","type":"function"},{"inputs":[],"name":"VERIFIER_ROLE","outputs":[{"internalType":"bytes32","name":"","type":"bytes32"}],"stateMutability":"view","type":"function"},{"inputs":[{"internalType":"bytes32","name":"_did","type":"bytes32"},{"internalType":"address","name":"_guardian","type":"address"}],"name":"addGuardian","outputs":[],"stateMutability":"nonpayable","type":"function"},{"inputs":[{"internalType":"bytes32","name":"_did","type":"bytes32"},{"internalType":"uint8","name":"_verificationType","type":"uint8"},{"internalType":"bytes32","name":"_proofHash","type":"bytes32"}],"name":"addVerification","outputs":[],"stateMutability":"nonpayable","type":"function"},{"inputs":[{"internalType":"address","name":"","type":"address"}],"name":"addressToIdentity","outputs":[{"internalType":"bytes32","name":"","type":"bytes32"}],"stateMutability":"view","type":"function"},{"inputs":[{"internalType":"bytes32","name":"_did","type":"bytes32"}],"name":"approveRecovery","outputs":[],"stateMutability":"nonpayable","type":"function"},{"inputs":[{"internalType":"bytes32","name":"_identityHash","type":"bytes32"},{"internalType":"string","name":"_ipfsHash","type":"string"}],"name":"createIdentity","outputs":[{"internalType":"bytes32","name":"","type":"bytes32"}],"stateMutability":"nonpayable","type":"function"},{"inputs":[{"internalType":"bytes32","name":"_did","type":"bytes32"}],"name":"getGuardians","outputs":[{"internalType":"address[]","name":"","type":"address[]"}],"stateMutability":"view","type":"function"},{"inputs":[{"internalType":"bytes32","name":"_did","type":"bytes32"}],"name":"getIdentity","outputs":[{"internalType":"address","name":"owner","type":"address"},{"internalType":"uint256","name":"createdAt","type":"uint256"},{"internalType":"uint256","name":"lastUpdated","type":"uint256"},{"internalType":"bool","name":"isActive","type":"bool"},{"internalType":"bool","name":"isRevoked","type":"bool"},{"internalType":"string","name":"ipfsHash","type":"string"},{"internalType":"uint256","name":"verificationLevel","type":"uint256"}],"stateMutability":"view","type":"function"},{"inputs":[{"internalType":"bytes32","name":"role","type":"bytes32"}],"name":"getRoleAdmin","outputs":[{"internalType":"bytes32","name":"","type":"bytes32"}],"stateMutability":"view","type":"function"},{"inputs":[{"internalType":"bytes32","name":"_did","type":"bytes32"},{"internalType":"uint256","name":"_index","type":"uint256"}],"name":"getVerification","outputs":[{"internalType":"address","name":"verifier","type":"address"},{"internalType":"uint256","name":"timestamp","type":"uint256"},{"internalType":"uint8","name":"verificationType","type":"uint8"},{"internalType":"bytes32","name":"proofHash","type":"bytes32"},{"internalType":"bool","name":"isValid","type":"bool"}],"stateMutability":"view","type":"function"},{"inputs":[{"internalType":"bytes32","name":"_did","type":"bytes32"}],"name":"getVerificationCount","outputs":[{"internalType":"uint256","name":"","type":"uint256"}],"stateMutability":"view","type":"function"},{"inputs":[{"internalType":"bytes32","name":"role","type":"bytes32"},{"internalType":"address","name":"account","type":"address"}],"name":"grantRole","outputs":[],"stateMutability":"nonpayable","type":"function"},{"inputs":[{"internalType":"bytes32","name":"","type":"bytes32"},{"internalType":"uint256","name":"","type":"uint256"}],"name":"guardians","outputs":[{"internalType":"address","name":"","type":"address"}],"stateMutability":"view","type":"function"},{"inputs":[{"internalType":"bytes32","name":"role","type":"bytes32"},{"internalType":"address","name":"account","type":"address"}],"name":"hasRole","outputs":[{"internalType":"bool","name":"","type":"bool"}],"stateMutability":"view","type":"function"},{"inputs":[{"internalType":"bytes32","name":"","type":"bytes32"}],"name":"identities","outputs":[{"internalType":"bytes32","name":"identityHash","type":"bytes32"},{"internalType":"address","name":"owner","type":"address"},{"internalType":"uint256","name":"createdAt","type":"uint256"},{"internalType":"uint256","name":"lastUpdated","type":"uint256"},{"internalType":"bool","name":"isActive","type":"bool"},{"internalType":"bool","name":"isRevoked","type":"bool"},{"internalType":"string","name":"ipfsHash","type":"string"},{"internalType":"uint256","name":"verificationLevel","type":"uint256"}],"stateMutability":"view","type":"function"},{"inputs":[{"internalType":"bytes32","name":"","type":"bytes32"}],"name":"identityHashExists","outputs":[{"internalType":"bool","name":"","type":"bool"}],"stateMutability":"view","type":"function"},{"inputs":[{"internalType":"bytes32","name":"_did","type":"bytes32"},{"internalType":"address","name":"_newOwner","type":"address"}],"name":"initiateRecovery","outputs":[],"stateMutability":"nonpayable","type":"function"},{"inputs":[],"name":"pause","outputs":[],"stateMutability":"nonpayable","type":"function"},{"inputs":[],"name":"paused","outputs":[{"internalType":"bool","name":"","type":"bool"}],"stateMutability":"view","type":"function"},{"inputs":[{"internalType":"bytes32","name":"","type":"bytes32"}],"name":"pendingRecoveryAddress","outputs":[{"internalType":"address","name":"","type":"address"}],"stateMutability":"view","type":"function"},{"inputs":[{"internalType":"bytes32","name":"","type":"bytes32"}],"name":"recoveryApprovalCount","outputs":[{"internalType":"uint256","name":"","type":"uint256"}],"stateMutability":"view","type":"function"},{"inputs":[{"internalType":"bytes32","name":"","type":"bytes32"},{"internalType":"address","name":"","type":"address"}],"name":"recoveryApprovals","outputs":[{"internalType":"bool","name":"","type":"bool"}],"stateMutability":"view","type":"function"},{"inputs":[{"internalType":"bytes32","name":"role","type":"bytes32"},{"internalType":"address","name":"callerConfirmation","type":"address"}],"name":"renounceRole","outputs":[],"stateMutability":"nonpayable","type":"function"},{"inputs":[{"internalType":"bytes32","name":"_did","type":"bytes32"}],"name":"revokeIdentity","outputs":[],"stateMutability":"nonpayable","type":"function"},{"inputs":[{"internalType":"bytes32","name":"role","type":"bytes32"},{"internalType":"address","name":"account","type":"address"}],"name":"revokeRole","outputs":[],"stateMutability":"nonpayable","type":"function"},{"inputs":[{"internalType":"bytes32","name":"_did","type":"bytes32"},{"internalType":"uint256","name":"_verificationIndex","type":"uint256"}],"name":"revokeVerification","outputs":[],"stateMutability":"nonpayable","type":"function"},{"inputs":[{"internalType":"bytes4","name":"interfaceId","type":"bytes4"}],"name":"supportsInterface","outputs":[{"internalType":"bool","name":"","type":"bool"}],"stateMutability":"view","type":"function"},{"inputs":[],"name":"totalIdentities","outputs":[{"internalType":"uint256","name":"","type":"uint256"}],"stateMutability":"view","type":"function"},{"inputs":[],"name":"totalVerifications","outputs":[{"internalType":"uint256","name":"","type":"uint256"}],"stateMutability":"view","type":"function"},{"inputs":[],"name":"unpause","outputs":[],"stateMutability":"nonpayable","type":"function"},{"inputs":[{"internalType":"bytes32","name":"_did","type":"bytes32"},{"internalType":"string","name":"_newIpfsHash","type":"string"}],"name":"updateIdentity","outputs":[],"stateMutability":"nonpayable","type":"function"},{"inputs":[{"internalType":"bytes32","name":"","type":"bytes32"},{"internalType":"uint256","name":"","type":"uint256"}],"name":"verifications","outputs":[{"internalType":"address","name":"verifier","type":"address"},{"internalType":"uint256","name":"timestamp","type":"uint256"},{"internalType":"uint8","name":"verificationType","type":"uint8"},{"internalType":"bytes32","name":"proofHash","type":"bytes32"},{"internalType":"bool","name":"isValid","type":"bool"}],"stateMutability":"view","type":"function"},{"inputs":[{"internalType":"bytes32","name":"_did","type":"bytes32"},{"internalType":"address","name":"_owner","type":"address"}],"name":"verifyOwnership","outputs":[{"internalType":"bool","name":"","type":"bool"}],"stateMutability":"view","type":"function"}],"evm":{"bytecode":{"linkReferences":{},"object":"60806040523480156200001157600080fd5b50600180819055506200002e6000801b336200006860201b60201c565b50620000617fa49807205ce4d355092ef5a8a18f56e8913cf4a201fbe287825b095693c21775336200006860201b60201c565b50620001dd565b60006200007c83836200016b60201b60201c565b6200016057600160008085815260200190815260200160002060000160008473ffffffffffffffffffffffffffffffffffffffff1673ffffffffffffffffffffffffffffffffffffffff16815260200190815260200160002060006101000a81548160ff021916908315150217905550620000fc620001d560201b60201c565b73ffffffffffffffffffffffffffffffffffffffff168273ffffffffffffffffffffffffffffffffffffffff16847f2f8788117e7eff1d82e926ec794901d17c78024a50270940304540a733656f0d60405160405180910390a46001905062000165565b600090505b92915050565b600080600084815260200190815260200160002060000160008373ffffffffffffffffffffffffffffffffffffffff1673ffffffffffffffffffffffffffffffffffffffff16815260200190815260200160002060009054906101000a900460ff16905092915050565b600033905090565b61412080620001ed6000396000f3fe608060405234801561001057600080fd5b506004361061021c5760003560e01c806382aefa2411610125578063aaa55271116100ad578063d547741f1161007c578063d547741f146106c0578063e7705db6146106dc578063eb4e9b09146106fa578063f5c5987b1461072a578063fed888ba146107485761021c565b8063aaa5527114610622578063ac90c1401461063e578063c90a0c0d1461065c578063d1e94e571461068c5761021c565b806391d14854116100f457806391d148541461053e5780639551dd701461056e578063a217fddf1461059e578063a4a3a4a3146105bc578063a7867212146105ec5761021c565b806382aefa24146104ca5780638456cb59146104e857806385431596146104f25780638e52fa7e1461050e5761021c565b80633f4ba83a116101a85780635c975abb116101775780635c975abb1461040b57806368147e361461042957806375b238fc14610445578063790ca2dd1461046357806381638e9b146104935761021c565b80633f4ba83a14610385578063484cc1d51461038f5780634d41f49b146103ab5780635585863a146103db5761021c565b8063213a5c25116101ef578063213a5c25146102d1578063248a9ca3146103015780632f2ff15d1461033157806336568abe1461034d578063369ee8f4146103695761021c565b806301ffc9a7146102215780630a03ca5b146102515780630a09185e146102855780630fa39676146102b5575b600080fd5b61023b60048036038101906102369190612d03565b610764565b6040516102489190612d4b565b60405180910390f35b61026b60048036038101906102669190612dd2565b6107de565b60405161027c959493929190612e8d565b60405180910390f35b61029f600480360381019061029a9190612f0c565b610950565b6040516102ac9190612d4b565b60405180910390f35b6102cf60048036038101906102ca9190612dd2565b61097f565b005b6102eb60048036038101906102e69190612f4c565b610b51565b6040516102f89190612f79565b60405180910390f35b61031b60048036038101906103169190612f4c565b610b69565b6040516103289190612f94565b60405180910390f35b61034b60048036038101906103469190612f0c565b610b88565b005b61036760048036038101906103629190612f0c565b610baa565b005b610383600480360381019061037e9190612fdb565b610c25565b005b61038d610f3f565b005b6103a960048036038101906103a49190612f4c565b610f74565b005b6103c560048036038101906103c09190612f0c565b6111ea565b6040516103d29190612d4b565b60405180910390f35b6103f560048036038101906103f09190612f4c565b6112b2565b6040516104029190612f79565b60405180910390f35b6104136112d2565b6040516104209190612d4b565b60405180910390f35b610443600480360381019061043e9190612f0c565b6112e9565b005b61044d61155f565b60405161045a9190612f94565b60405180910390f35b61047d60048036038101906104789190612dd2565b611583565b60405161048a919061302e565b60405180910390f35b6104ad60048036038101906104a89190612f4c565b6115d1565b6040516104c19897969594939291906130d9565b60405180910390f35b6104d26116db565b6040516104df9190612f94565b60405180910390f35b6104f06116ff565b005b61050c60048036038101906105079190612f0c565b611734565b005b61052860048036038101906105239190612f4c565b611971565b604051610535919061302e565b60405180910390f35b61055860048036038101906105539190612f0c565b6119a4565b6040516105659190612d4b565b60405180910390f35b61058860048036038101906105839190613293565b611a0e565b6040516105959190612f94565b60405180910390f35b6105a6611d4f565b6040516105b39190612f94565b60405180910390f35b6105d660048036038101906105d19190612f4c565b611d56565b6040516105e391906133ad565b60405180910390f35b61060660048036038101906106019190612f4c565b611df7565b60405161061997969594939291906133cf565b60405180910390f35b61063c60048036038101906106379190613293565b611fa8565b005b610646612196565b6040516106539190612f79565b60405180910390f35b61067660048036038101906106719190612f4c565b61219c565b6040516106839190612d4b565b60405180910390f35b6106a660048036038101906106a19190612dd2565b6121bc565b6040516106b7959493929190612e8d565b60405180910390f35b6106da60048036038101906106d59190612f0c565b612249565b005b6106e461226b565b6040516106f19190612f94565b60405180910390f35b610714600480360381019061070f9190613445565b61228f565b6040516107219190612f94565b60405180910390f35b6107326122a7565b60405161073f9190612f79565b60405180910390f35b610762600480360381019061075d9190612f4c565b6122ad565b005b60007f7965db0b000000000000000000000000000000000000000000000000000000007bffffffffffffffffffffffffffffffffffffffffffffffffffffffff1916827bffffffffffffffffffffffffffffffffffffffffffffffffffffffff191614806107d757506107d68261249a565b5b9050919050565b60008060008060006005600088815260200190815260200160002080549050861061083e576040517f08c379a0000000000000000000000000000000000000000000000000000000008152600401610835906134be565b60405180910390fd5b6000600560008981526020019081526020016000208781548110610865576108646134de565b5b90600052602060002090600502016040518060a00160405290816000820160009054906101000a900473ffffffffffffffffffffffffffffffffffffffff1673ffffffffffffffffffffffffffffffffffffffff1673ffffffffffffffffffffffffffffffffffffffff168152602001600182015481526020016002820160009054906101000a900460ff1660ff1660ff168152602001600382015481526020016004820160009054906101000a900460ff16151515158152505090508060000151816020015182604001518360600151846080015195509550955095509550509295509295909350565b60086020528160005260406000206020528060005260406000206000915091509054906101000a900460ff1681565b7f0ce23c3e399818cfee81a7ab0880f714e53d7672b08df0fa62f2843416e1ea096109a981612504565b60056000848152602001908152602001600020805490508210610a01576040517f08c379a00000000000000000000000000000000000000000000000000000000081526004016109f8906134be565b60405180910390fd5b3373ffffffffffffffffffffffffffffffffffffffff16600560008581526020019081526020016000208381548110610a3d57610a3c6134de565b5b906000526020600020906005020160000160009054906101000a900473ffffffffffffffffffffffffffffffffffffffff1673ffffffffffffffffffffffffffffffffffffffff1614610ac5576040517f08c379a0000000000000000000000000000000000000000000000000000000008152600401610abc90613559565b60405180910390fd5b6000600560008581526020019081526020016000208381548110610aec57610aeb6134de565b5b906000526020600020906005020160040160006101000a81548160ff021916908315150217905550827f028f5ce3c594baa822c41c353b7e13129f0bbc6fb9fb5dc0f5a4e2f5e49a6eea83604051610b449190612f79565b60405180910390a2505050565b600a6020528060005260406000206000915090505481565b6000806000838152602001908152602001600020600101549050919050565b610b9182610b69565b610b9a81612504565b610ba48383612518565b50505050565b610bb2612609565b73ffffffffffffffffffffffffffffffffffffffff168173ffffffffffffffffffffffffffffffffffffffff1614610c16576040517f6697b23200000000000000000000000000000000000000000000000000000000815260040160405180910390fd5b610c208282612611565b505050565b610c2d612703565b7f0ce23c3e399818cfee81a7ab0880f714e53d7672b08df0fa62f2843416e1ea09610c5781612504565b6003600085815260200190815260200160002060040160009054906101000a900460ff16610cba576040517f08c379a0000000000000000000000000000000000000000000000000000000008152600401610cb1906135c5565b60405180910390fd5b6003600085815260200190815260200160002060040160019054906101000a900460ff1615610d1e576040517f08c379a0000000000000000000000000000000000000000000000000000000008152600401610d1590613631565b60405180910390fd5b60018360ff1610158015610d36575060048360ff1611155b610d75576040517f08c379a0000000000000000000000000000000000000000000000000000000008152600401610d6c9061369d565b60405180910390fd5b600560008581526020019081526020016000206040518060a001604052803373ffffffffffffffffffffffffffffffffffffffff1681526020014281526020018560ff16815260200184815260200160011515815250908060018154018082558091505060019003906000526020600020906005020160009091909190915060008201518160000160006101000a81548173ffffffffffffffffffffffffffffffffffffffff021916908373ffffffffffffffffffffffffffffffffffffffff1602179055506020820151816001015560408201518160020160006101000a81548160ff021916908360ff1602179055506060820151816003015560808201518160040160006101000a81548160ff021916908315150217905550505060036000858152602001908152602001600020600601548360ff161115610ed2578260ff1660036000868152602001908152602001600020600601819055505b600c6000815480929190610ee5906136ec565b91905055503373ffffffffffffffffffffffffffffffffffffffff16847fe849e3ea7cba7bd95c92b789cfb588a7acf2910811880a6f86082cb461adf43185604051610f319190613734565b60405180910390a350505050565b7fa49807205ce4d355092ef5a8a18f56e8913cf4a201fbe287825b095693c21775610f6981612504565b610f71612744565b50565b610f7e81336127a7565b610fbd576040517f08c379a0000000000000000000000000000000000000000000000000000000008152600401610fb49061379b565b60405180910390fd5b600073ffffffffffffffffffffffffffffffffffffffff166009600083815260200190815260200160002060009054906101000a900473ffffffffffffffffffffffffffffffffffffffff1673ffffffffffffffffffffffffffffffffffffffff160361105f576040517f08c379a000000000000000000000000000000000000000000000000000000000815260040161105690613807565b60405180910390fd5b6008600082815260200190815260200160002060003373ffffffffffffffffffffffffffffffffffffffff1673ffffffffffffffffffffffffffffffffffffffff16815260200190815260200160002060009054906101000a900460ff16156110fd576040517f08c379a00000000000000000000000000000000000000000000000000000000081526004016110f490613873565b60405180910390fd5b60016008600083815260200190815260200160002060003373ffffffffffffffffffffffffffffffffffffffff1673ffffffffffffffffffffffffffffffffffffffff16815260200190815260200160002060006101000a81548160ff021916908315150217905550600a6000828152602001908152602001600020600081548092919061118a906136ec565b919050555060006001600260076000858152602001908152602001600020805490506111b691906138c2565b6111c091906138f3565b905080600a600084815260200190815260200160002054106111e6576111e582612878565b5b5050565b60008173ffffffffffffffffffffffffffffffffffffffff166003600085815260200190815260200160002060010160009054906101000a900473ffffffffffffffffffffffffffffffffffffffff1673ffffffffffffffffffffffffffffffffffffffff1614801561127d57506003600084815260200190815260200160002060040160009054906101000a900460ff165b80156112aa57506003600084815260200190815260200160002060040160019054906101000a900460ff16155b905092915050565b600060056000838152602001908152602001600020805490509050919050565b6000600260009054906101000a900460ff16905090565b6112f382336127a7565b611332576040517f08c379a00000000000000000000000000000000000000000000000000000000081526004016113299061379b565b60405180910390fd5b600073ffffffffffffffffffffffffffffffffffffffff168173ffffffffffffffffffffffffffffffffffffffff16036113a1576040517f08c379a000000000000000000000000000000000000000000000000000000000815260040161139890613973565b60405180910390fd5b600073ffffffffffffffffffffffffffffffffffffffff166009600084815260200190815260200160002060009054906101000a900473ffffffffffffffffffffffffffffffffffffffff1673ffffffffffffffffffffffffffffffffffffffff1614611443576040517f08c379a000000000000000000000000000000000000000000000000000000000815260040161143a906139df565b60405180910390fd5b806009600084815260200190815260200160002060006101000a81548173ffffffffffffffffffffffffffffffffffffffff021916908373ffffffffffffffffffffffffffffffffffffffff16021790555060016008600084815260200190815260200160002060003373ffffffffffffffffffffffffffffffffffffffff1673ffffffffffffffffffffffffffffffffffffffff16815260200190815260200160002060006101000a81548160ff0219169083151502179055506001600a6000848152602001908152602001600020819055508073ffffffffffffffffffffffffffffffffffffffff16827f19e7e0655fb515d4f56fdc04dee16b5253c714efe38b468d4c5de010bed4fd7e60405160405180910390a35050565b7fa49807205ce4d355092ef5a8a18f56e8913cf4a201fbe287825b095693c2177581565b6007602052816000526040600020818154811061159f57600080fd5b906000526020600020016000915091509054906101000a900473ffffffffffffffffffffffffffffffffffffffff1681565b60036020528060005260406000206000915090508060000154908060010160009054906101000a900473ffffffffffffffffffffffffffffffffffffffff16908060020154908060030154908060040160009054906101000a900460ff16908060040160019054906101000a900460ff169080600501805461165290613a2e565b80601f016020809104026020016040519081016040528092919081815260200182805461167e90613a2e565b80156116cb5780601f106116a0576101008083540402835291602001916116cb565b820191906000526020600020905b8154815290600101906020018083116116ae57829003601f168201915b5050505050908060060154905088565b7f114e74f6ea3bd819998f78687bfcb11b140da08e9b7d222fa9c1f1ba1f2aa12281565b7fa49807205ce4d355092ef5a8a18f56e8913cf4a201fbe287825b095693c2177561172981612504565b611731612b54565b50565b3373ffffffffffffffffffffffffffffffffffffffff166003600084815260200190815260200160002060010160009054906101000a900473ffffffffffffffffffffffffffffffffffffffff1673ffffffffffffffffffffffffffffffffffffffff16146117d8576040517f08c379a00000000000000000000000000000000000000000000000000000000081526004016117cf90613aab565b60405180910390fd5b600073ffffffffffffffffffffffffffffffffffffffff168173ffffffffffffffffffffffffffffffffffffffff1603611847576040517f08c379a000000000000000000000000000000000000000000000000000000000815260040161183e90613b17565b60405180910390fd5b3373ffffffffffffffffffffffffffffffffffffffff168173ffffffffffffffffffffffffffffffffffffffff16036118b5576040517f08c379a00000000000000000000000000000000000000000000000000000000081526004016118ac90613b83565b60405180910390fd5b60076000838152602001908152602001600020819080600181540180825580915050600190039060005260206000200160009091909190916101000a81548173ffffffffffffffffffffffffffffffffffffffff021916908373ffffffffffffffffffffffffffffffffffffffff1602179055508073ffffffffffffffffffffffffffffffffffffffff16827fdfd29cf87a6fd17a11ddb0053bbd9909617308a4f52602e97030f428065ad22c60405160405180910390a35050565b60096020528060005260406000206000915054906101000a900473ffffffffffffffffffffffffffffffffffffffff1681565b600080600084815260200190815260200160002060000160008373ffffffffffffffffffffffffffffffffffffffff1673ffffffffffffffffffffffffffffffffffffffff16815260200190815260200160002060009054906101000a900460ff16905092915050565b6000611a18612703565b611a20612bb7565b6006600084815260200190815260200160002060009054906101000a900460ff1615611a81576040517f08c379a0000000000000000000000000000000000000000000000000000000008152600401611a7890613bef565b60405180910390fd5b6000801b600460003373ffffffffffffffffffffffffffffffffffffffff1673ffffffffffffffffffffffffffffffffffffffff1681526020019081526020016000205414611b05576040517f08c379a0000000000000000000000000000000000000000000000000000000008152600401611afc90613c5b565b60405180910390fd5b6000833342604051602001611b1c93929190613d05565b6040516020818303038152906040528051906020012090506040518061010001604052808581526020013373ffffffffffffffffffffffffffffffffffffffff1681526020014281526020014281526020016001151581526020016000151581526020018481526020016000815250600360008381526020019081526020016000206000820151816000015560208201518160010160006101000a81548173ffffffffffffffffffffffffffffffffffffffff021916908373ffffffffffffffffffffffffffffffffffffffff160217905550604082015181600201556060820151816003015560808201518160040160006101000a81548160ff02191690831515021790555060a08201518160040160016101000a81548160ff02191690831515021790555060c0820151816005019081611c589190613eee565b5060e0820151816006015590505060016006600086815260200190815260200160002060006101000a81548160ff02191690831515021790555080600460003373ffffffffffffffffffffffffffffffffffffffff1673ffffffffffffffffffffffffffffffffffffffff16815260200190815260200160002081905550600b6000815480929190611ce9906136ec565b91905055503373ffffffffffffffffffffffffffffffffffffffff16817fa562275cce70e9fe9fd5428cad175fb98c7dcd64810fdbecbda36959e67fc1f142604051611d359190612f79565b60405180910390a380915050611d49612bfd565b92915050565b6000801b81565b606060076000838152602001908152602001600020805480602002602001604051908101604052809291908181526020018280548015611deb57602002820191906000526020600020905b8160009054906101000a900473ffffffffffffffffffffffffffffffffffffffff1673ffffffffffffffffffffffffffffffffffffffff1681526020019060010190808311611da1575b50505050509050919050565b60008060008060006060600080600360008a815260200190815260200160002060405180610100016040529081600082015481526020016001820160009054906101000a900473ffffffffffffffffffffffffffffffffffffffff1673ffffffffffffffffffffffffffffffffffffffff1673ffffffffffffffffffffffffffffffffffffffff16815260200160028201548152602001600382015481526020016004820160009054906101000a900460ff161515151581526020016004820160019054906101000a900460ff16151515158152602001600582018054611edd90613a2e565b80601f0160208091040260200160405190810160405280929190818152602001828054611f0990613a2e565b8015611f565780601f10611f2b57610100808354040283529160200191611f56565b820191906000526020600020905b815481529060010190602001808311611f3957829003601f168201915b50505050508152602001600682015481525050905080602001518160400151826060015183608001518460a001518560c001518660e00151975097509750975097509750975050919395979092949650565b611fb0612703565b3373ffffffffffffffffffffffffffffffffffffffff166003600084815260200190815260200160002060010160009054906101000a900473ffffffffffffffffffffffffffffffffffffffff1673ffffffffffffffffffffffffffffffffffffffff1614612054576040517f08c379a000000000000000000000000000000000000000000000000000000000815260040161204b90613aab565b60405180910390fd5b6003600083815260200190815260200160002060040160009054906101000a900460ff166120b7576040517f08c379a00000000000000000000000000000000000000000000000000000000081526004016120ae906135c5565b60405180910390fd5b6003600083815260200190815260200160002060040160019054906101000a900460ff161561211b576040517f08c379a000000000000000000000000000000000000000000000000000000000815260040161211290613631565b60405180910390fd5b8060036000848152602001908152602001600020600501908161213e9190613eee565b50426003600084815260200190815260200160002060030181905550817fecbb5145bb041a4a7eb6ab8ae51d0233bb6c0413068de57b119161eb700d31ec4260405161218a9190612f79565b60405180910390a25050565b600c5481565b60066020528060005260406000206000915054906101000a900460ff1681565b600560205281600052604060002081815481106121d857600080fd5b9060005260206000209060050201600091509150508060000160009054906101000a900473ffffffffffffffffffffffffffffffffffffffff16908060010154908060020160009054906101000a900460ff16908060030154908060040160009054906101000a900460ff16905085565b61225282610b69565b61225b81612504565b6122658383612611565b50505050565b7f0ce23c3e399818cfee81a7ab0880f714e53d7672b08df0fa62f2843416e1ea0981565b60046020528060005260406000206000915090505481565b600b5481565b3373ffffffffffffffffffffffffffffffffffffffff166003600083815260200190815260200160002060010160009054906101000a900473ffffffffffffffffffffffffffffffffffffffff1673ffffffffffffffffffffffffffffffffffffffff16148061234357506123427fa49807205ce4d355092ef5a8a18f56e8913cf4a201fbe287825b095693c21775336119a4565b5b612382576040517f08c379a00000000000000000000000000000000000000000000000000000000081526004016123799061400c565b60405180910390fd5b6003600082815260200190815260200160002060040160019054906101000a900460ff16156123e6576040517f08c379a00000000000000000000000000000000000000000000000000000000081526004016123dd90614078565b60405180910390fd5b60016003600083815260200190815260200160002060040160016101000a81548160ff02191690831515021790555060006003600083815260200190815260200160002060040160006101000a81548160ff021916908315150217905550426003600083815260200190815260200160002060030181905550807fe8f853e0ccaea1d1ddccdb52df484724ab80bdee46310281f0d5df1e3ab967c34260405161248f9190612f79565b60405180910390a250565b60007f01ffc9a7000000000000000000000000000000000000000000000000000000007bffffffffffffffffffffffffffffffffffffffffffffffffffffffff1916827bffffffffffffffffffffffffffffffffffffffffffffffffffffffff1916149050919050565b61251581612510612609565b612c06565b50565b600061252483836119a4565b6125fe57600160008085815260200190815260200160002060000160008473ffffffffffffffffffffffffffffffffffffffff1673ffffffffffffffffffffffffffffffffffffffff16815260200190815260200160002060006101000a81548160ff02191690831515021790555061259b612609565b73ffffffffffffffffffffffffffffffffffffffff168273ffffffffffffffffffffffffffffffffffffffff16847f2f8788117e7eff1d82e926ec794901d17c78024a50270940304540a733656f0d60405160405180910390a460019050612603565b600090505b92915050565b600033905090565b600061261d83836119a4565b156126f857600080600085815260200190815260200160002060000160008473ffffffffffffffffffffffffffffffffffffffff1673ffffffffffffffffffffffffffffffffffffffff16815260200190815260200160002060006101000a81548160ff021916908315150217905550612695612609565b73ffffffffffffffffffffffffffffffffffffffff168273ffffffffffffffffffffffffffffffffffffffff16847ff6391f5c32d9c69d2a47ea670b442974b53935d1edc7fd64eb21e047a839171b60405160405180910390a4600190506126fd565b600090505b92915050565b61270b6112d2565b15612742576040517fd93c066500000000000000000000000000000000000000000000000000000000815260040160405180910390fd5b565b61274c612c57565b6000600260006101000a81548160ff0219169083151502179055507f5db9ee0a495bf2e6ff9c91a7834c1ba4fdd244a5e8aa4e537bd38aeae4b073aa612790612609565b60405161279d919061302e565b60405180910390a1565b600080600090505b600760008581526020019081526020016000208054905081101561286c578273ffffffffffffffffffffffffffffffffffffffff16600760008681526020019081526020016000208281548110612809576128086134de565b5b9060005260206000200160009054906101000a900473ffffffffffffffffffffffffffffffffffffffff1673ffffffffffffffffffffffffffffffffffffffff1603612859576001915050612872565b8080612864906136ec565b9150506127af565b50600090505b92915050565b60006003600083815260200190815260200160002060010160009054906101000a900473ffffffffffffffffffffffffffffffffffffffff16905060006009600084815260200190815260200160002060009054906101000a900473ffffffffffffffffffffffffffffffffffffffff169050806003600085815260200190815260200160002060010160006101000a81548173ffffffffffffffffffffffffffffffffffffffff021916908373ffffffffffffffffffffffffffffffffffffffff160217905550426003600085815260200190815260200160002060030181905550600460008373ffffffffffffffffffffffffffffffffffffffff1673ffffffffffffffffffffffffffffffffffffffff1681526020019081526020016000206000905582600460008373ffffffffffffffffffffffffffffffffffffffff1673ffffffffffffffffffffffffffffffffffffffff168152602001908152602001600020819055506009600084815260200190815260200160002060006101000a81549073ffffffffffffffffffffffffffffffffffffffff02191690556000600a60008581526020019081526020016000208190555060005b6007600085815260200190815260200160002080549050811015612b1457600860008581526020019081526020016000206000600760008781526020019081526020016000208381548110612a8c57612a8b6134de565b5b9060005260206000200160009054906101000a900473ffffffffffffffffffffffffffffffffffffffff1673ffffffffffffffffffffffffffffffffffffffff1673ffffffffffffffffffffffffffffffffffffffff16815260200190815260200160002060006101000a81549060ff02191690558080612b0c906136ec565b915050612a34565b50827f5681c2f349eef092ce8aa1414187c689b0ff39c2a4321f4d0f24c36d9b21162f8383604051612b47929190614098565b60405180910390a2505050565b612b5c612703565b6001600260006101000a81548160ff0219169083151502179055507f62e78cea01bee320cd4e420270b5ea74000d11b0c9f74754ebdbfc544b05a258612ba0612609565b604051612bad919061302e565b60405180910390a1565b600260015403612bf3576040517f3ee5aeb500000000000000000000000000000000000000000000000000000000815260040160405180910390fd5b6002600181905550565b60018081905550565b612c1082826119a4565b612c535780826040517fe2517d3f000000000000000000000000000000000000000000000000000000008152600401612c4a9291906140c1565b60405180910390fd5b5050565b612c5f6112d2565b612c95576040517f8dfc202b00000000000000000000000000000000000000000000000000000000815260040160405180910390fd5b565b6000604051905090565b600080fd5b600080fd5b60007fffffffff0000000000000000000000000000000000000000000000000000000082169050919050565b612ce081612cab565b8114612ceb57600080fd5b50565b600081359050612cfd81612cd7565b92915050565b600060208284031215612d1957612d18612ca1565b5b6000612d2784828501612cee565b91505092915050565b60008115159050919050565b612d4581612d30565b82525050565b6000602082019050612d606000830184612d3c565b92915050565b6000819050919050565b612d7981612d66565b8114612d8457600080fd5b50565b600081359050612d9681612d70565b92915050565b6000819050919050565b612daf81612d9c565b8114612dba57600080fd5b50565b600081359050612dcc81612da6565b92915050565b60008060408385031215612de957612de8612ca1565b5b6000612df785828601612d87565b9250506020612e0885828601612dbd565b9150509250929050565b600073ffffffffffffffffffffffffffffffffffffffff82169050919050565b6000612e3d82612e12565b9050919050565b612e4d81612e32565b82525050565b612e5c81612d9c565b82525050565b600060ff82169050919050565b612e7881612e62565b82525050565b612e8781612d66565b82525050565b600060a082019050612ea26000830188612e44565b612eaf6020830187612e53565b612ebc6040830186612e6f565b612ec96060830185612e7e565b612ed66080830184612d3c565b9695505050505050565b612ee981612e32565b8114612ef457600080fd5b50565b600081359050612f0681612ee0565b92915050565b60008060408385031215612f2357612f22612ca1565b5b6000612f3185828601612d87565b9250506020612f4285828601612ef7565b9150509250929050565b600060208284031215612f6257612f61612ca1565b5b6000612f7084828501612d87565b91505092915050565b6000602082019050612f8e6000830184612e53565b92915050565b6000602082019050612fa96000830184612e7e565b92915050565b612fb881612e62565b8114612fc357600080fd5b50565b600081359050612fd581612faf565b92915050565b600080600060608486031215612ff457612ff3612ca1565b5b600061300286828701612d87565b935050602061301386828701612fc6565b925050604061302486828701612d87565b9150509250925092565b60006020820190506130436000830184612e44565b92915050565b600081519050919050565b600082825260208201905092915050565b60005b83811015613083578082015181840152602081019050613068565b60008484015250505050565b6000601f19601f8301169050919050565b60006130ab82613049565b6130b58185613054565b93506130c5818560208601613065565b6130ce8161308f565b840191505092915050565b6000610100820190506130ef600083018b612e7e565b6130fc602083018a612e44565b6131096040830189612e53565b6131166060830188612e53565b6131236080830187612d3c565b61313060a0830186612d3c565b81810360c083015261314281856130a0565b905061315160e0830184612e53565b9998505050505050505050565b600080fd5b600080fd5b7f4e487b7100000000000000000000000000000000000000000000000000000000600052604160045260246000fd5b6131a08261308f565b810181811067ffffffffffffffff821117156131bf576131be613168565b5b80604052505050565b60006131d2612c97565b90506131de8282613197565b919050565b600067ffffffffffffffff8211156131fe576131fd613168565b5b6132078261308f565b9050602081019050919050565b82818337600083830152505050565b6000613236613231846131e3565b6131c8565b90508281526020810184848401111561325257613251613163565b5b61325d848285613214565b509392505050565b600082601f83011261327a5761327961315e565b5b813561328a848260208601613223565b91505092915050565b600080604083850312156132aa576132a9612ca1565b5b60006132b885828601612d87565b925050602083013567ffffffffffffffff8111156132d9576132d8612ca6565b5b6132e585828601613265565b9150509250929050565b600081519050919050565b600082825260208201905092915050565b6000819050602082019050919050565b61332481612e32565b82525050565b6000613336838361331b565b60208301905092915050565b6000602082019050919050565b600061335a826132ef565b61336481856132fa565b935061336f8361330b565b8060005b838110156133a0578151613387888261332a565b975061339283613342565b925050600181019050613373565b5085935050505092915050565b600060208201905081810360008301526133c7818461334f565b905092915050565b600060e0820190506133e4600083018a612e44565b6133f16020830189612e53565b6133fe6040830188612e53565b61340b6060830187612d3c565b6134186080830186612d3c565b81810360a083015261342a81856130a0565b905061343960c0830184612e53565b98975050505050505050565b60006020828403121561345b5761345a612ca1565b5b600061346984828501612ef7565b91505092915050565b7f496e76616c696420696e64657800000000000000000000000000000000000000600082015250565b60006134a8600d83613054565b91506134b382613472565b602082019050919050565b600060208201905081810360008301526134d78161349b565b9050919050565b7f4e487b7100000000000000000000000000000000000000000000000000000000600052603260045260246000fd5b7f4e6f7420766572696669636174696f6e206f776e657200000000000000000000600082015250565b6000613543601683613054565b915061354e8261350d565b602082019050919050565b6000602082019050818103600083015261357281613536565b9050919050565b7f4964656e74697479206e6f742061637469766500000000000000000000000000600082015250565b60006135af601383613054565b91506135ba82613579565b602082019050919050565b600060208201905081810360008301526135de816135a2565b9050919050565b7f4964656e74697479207265766f6b656400000000000000000000000000000000600082015250565b600061361b601083613054565b9150613626826135e5565b602082019050919050565b6000602082019050818103600083015261364a8161360e565b9050919050565b7f496e76616c696420766572696669636174696f6e207479706500000000000000600082015250565b6000613687601983613054565b915061369282613651565b602082019050919050565b600060208201905081810360008301526136b68161367a565b9050919050565b7f4e487b7100000000000000000000000000000000000000000000000000000000600052601160045260246000fd5b60006136f782612d9c565b91507fffffffffffffffffffffffffffffffffffffffffffffffffffffffffffffffff8203613729576137286136bd565b5b600182019050919050565b60006020820190506137496000830184612e6f565b92915050565b7f4e6f74206120677561726469616e000000000000000000000000000000000000600082015250565b6000613785600e83613054565b91506137908261374f565b602082019050919050565b600060208201905081810360008301526137b481613778565b9050919050565b7f4e6f2070656e64696e67207265636f7665727900000000000000000000000000600082015250565b60006137f1601383613054565b91506137fc826137bb565b602082019050919050565b60006020820190508181036000830152613820816137e4565b9050919050565b7f416c726561647920617070726f76656400000000000000000000000000000000600082015250565b600061385d601083613054565b915061386882613827565b602082019050919050565b6000602082019050818103600083015261388c81613850565b9050919050565b7f4e487b7100000000000000000000000000000000000000000000000000000000600052601260045260246000fd5b60006138cd82612d9c565b91506138d883612d9c565b9250826138e8576138e7613893565b5b828204905092915050565b60006138fe82612d9c565b915061390983612d9c565b9250828201905080821115613921576139206136bd565b5b92915050565b7f496e76616c6964206e6577206f776e6572000000000000000000000000000000600082015250565b600061395d601183613054565b915061396882613927565b602082019050919050565b6000602082019050818103600083015261398c81613950565b9050919050565b7f5265636f7665727920616c72656164792070656e64696e670000000000000000600082015250565b60006139c9601883613054565b91506139d482613993565b602082019050919050565b600060208201905081810360008301526139f8816139bc565b9050919050565b7f4e487b7100000000000000000000000000000000000000000000000000000000600052602260045260246000fd5b60006002820490506001821680613a4657607f821691505b602082108103613a5957613a586139ff565b5b50919050565b7f4e6f74206964656e74697479206f776e65720000000000000000000000000000600082015250565b6000613a95601283613054565b9150613aa082613a5f565b602082019050919050565b60006020820190508181036000830152613ac481613a88565b9050919050565b7f496e76616c696420677561726469616e20616464726573730000000000000000600082015250565b6000613b01601883613054565b9150613b0c82613acb565b602082019050919050565b60006020820190508181036000830152613b3081613af4565b9050919050565b7f43616e6e6f742062652073656c66000000000000000000000000000000000000600082015250565b6000613b6d600e83613054565b9150613b7882613b37565b602082019050919050565b60006020820190508181036000830152613b9c81613b60565b9050919050565b7f4964656e7469747920616c726561647920657869737473000000000000000000600082015250565b6000613bd9601783613054565b9150613be482613ba3565b602082019050919050565b60006020820190508181036000830152613c0881613bcc565b9050919050565b7f4164647265737320616c726561647920686173206964656e7469747900000000600082015250565b6000613c45601c83613054565b9150613c5082613c0f565b602082019050919050565b60006020820190508181036000830152613c7481613c38565b9050919050565b6000819050919050565b613c96613c9182612d66565b613c7b565b82525050565b60008160601b9050919050565b6000613cb482613c9c565b9050919050565b6000613cc682613ca9565b9050919050565b613cde613cd982612e32565b613cbb565b82525050565b6000819050919050565b613cff613cfa82612d9c565b613ce4565b82525050565b6000613d118286613c85565b602082019150613d218285613ccd565b601482019150613d318284613cee565b602082019150819050949350505050565b60008190508160005260206000209050919050565b60006020601f8301049050919050565b600082821b905092915050565b600060088302613da47fffffffffffffffffffffffffffffffffffffffffffffffffffffffffffffffff82613d67565b613dae8683613d67565b95508019841693508086168417925050509392505050565b6000819050919050565b6000613deb613de6613de184612d9c565b613dc6565b612d9c565b9050919050565b6000819050919050565b613e0583613dd0565b613e19613e1182613df2565b848454613d74565b825550505050565b600090565b613e2e613e21565b613e39818484613dfc565b505050565b5b81811015613e5d57613e52600082613e26565b600181019050613e3f565b5050565b601f821115613ea257613e7381613d42565b613e7c84613d57565b81016020851015613e8b578190505b613e9f613e9785613d57565b830182613e3e565b50505b505050565b600082821c905092915050565b6000613ec560001984600802613ea7565b1980831691505092915050565b6000613ede8383613eb4565b9150826002028217905092915050565b613ef782613049565b67ffffffffffffffff811115613f1057613f0f613168565b5b613f1a8254613a2e565b613f25828285613e61565b600060209050601f831160018114613f585760008415613f46578287015190505b613f508582613ed2565b865550613fb8565b601f198416613f6686613d42565b60005b82811015613f8e57848901518255600182019150602085019450602081019050613f69565b86831015613fab5784890151613fa7601f891682613eb4565b8355505b6001600288020188555050505b505050505050565b7f4e6f7420617574686f72697a6564000000000000000000000000000000000000600082015250565b6000613ff6600e83613054565b915061400182613fc0565b602082019050919050565b6000602082019050818103600083015261402581613fe9565b9050919050565b7f416c7265616479207265766f6b65640000000000000000000000000000000000600082015250565b6000614062600f83613054565b915061406d8261402c565b602082019050919050565b6000602082019050818103600083015261409181614055565b9050919050565b60006040820190506140ad6000830185612e44565b6140ba6020830184612e44565b9392505050565b60006040820190506140d66000830185612e44565b6140e36020830184612e7e565b939250505056fea264697066735822122091cd906a9c46bad7b9d3218e1b3509fea8ac4d4f612e5a91f40d65ff0eaa418264736f6c63430008140033","opcodes":"PUSH1 0x80 PUSH1 0x40 MSTORE CALLVALUE DUP1 ISZERO PUSH3 0x11 JUMPI PUSH1 0x0 DUP1 REVERT JUMPDEST POP PUSH1 0x1 DUP1 DUP2 SWAP1 SSTORE POP PUSH3 0x2E PUSH1 0x0 DUP1 SHL CALLER PUSH3 0x68 PUSH1 0x20 SHL PUSH1 0x20 SHR JUMP JUMPDEST POP PUSH3 0x61 PUSH32 0xA49807205CE4D355092EF5A8A18F56E8913CF4A201FBE287825B095693C21775 CALLER PUSH3 0x68 PUSH1 0x20 SHL PUSH1 0x20 SHR JUMP JUMPDEST POP PUSH3 0x1DD JUMP JUMPDEST PUSH1 0x0 PUSH3 0x7C DUP4 DUP4 PUSH3 0x16B PUSH1 0x20 SHL PUSH1 0x20 SHR JUMP JUMPDEST PUSH3 0x160 JUMPI PUSH1 0x1 PUSH1 0x0 DUP1 DUP6 DUP2 MSTORE PUSH1 0x20 ADD SWAP1 DUP2 MSTORE PUSH1 0x20 ADD PUSH1 0x0 KECCAK256 PUSH1 0x0 ADD PUSH1 0x0 DUP5 PUSH20 0xFFFFFFFFFFFFFFFFFFFFFFFFFFFFFFFFFFFFFFFF AND PUSH20 0xFFFFFFFFFFFFFFFFFFFFFFFFFFFFFFFFFFFFFFFF AND DUP2 MSTORE PUSH1 0x20 ADD SWAP1 DUP2 MSTORE PUSH1 0x20 ADD PUSH1 0x0 KECCAK256 PUSH1 0x0 PUSH2 0x100 EXP DUP2 SLOAD DUP2 PUSH1 0xFF MUL NOT AND SWAP1 DUP4 ISZERO ISZERO MUL OR SWAP1 SSTORE POP PUSH3 0xFC PUSH3 0x1D5 PUSH1 0x20 SHL PUSH1 0x20 SHR JUMP JUMPDEST PUSH20 0xFFFFFFFFFFFFFFFFFFFFFFFFFFFFFFFFFFFFFFFF AND DUP3 PUSH20 0xFFFFFFFFFFFFFFFFFFFFFFFFFFFFFFFFFFFFFFFF AND DUP5 PUSH32 0x2F8788117E7EFF1D82E926EC794901D17C78024A50270940304540A733656F0D PUSH1 0x40 MLOAD PUSH1 0x40 MLOAD DUP1 SWAP2 SUB SWAP1 LOG4 PUSH1 0x1 SWAP1 POP PUSH3 0x165 JUMP JUMPDEST PUSH1 0x0 SWAP1 POP JUMPDEST SWAP3 SWAP2 POP POP JUMP JUMPDEST PUSH1 0x0 DUP1 PUSH1 0x0 DUP5 DUP2 MSTORE PUSH1 0x20 ADD SWAP1 DUP2 MSTORE PUSH1 0x20 ADD PUSH1 0x0 KECCAK256 PUSH1 0x0 ADD PUSH1 0x0 DUP4 PUSH20 0xFFFFFFFFFFFFFFFFFFFFFFFFFFFFFFFFFFFFFFFF AND PUSH20 0xFFFFFFFFFFFFFFFFFFFFFFFFFFFFFFFFFFFFFFFF AND DUP2 MSTORE PUSH1 0x20 ADD SWAP1 DUP2 MSTORE PUSH1 0x20 ADD PUSH1 0x0 KECCAK256 PUSH1 0x0 SWAP1 SLOAD SWAP1 PUSH2 0x100 EXP SWAP1 DIV PUSH1 0xFF AND SWAP1 POP SWAP3 SWAP2 POP POP JUMP JUMPDEST PUSH1 0x0 CALLER SWAP1 POP SWAP1 JUMP JUMPDEST PUSH2 0x4120 DUP1 PUSH3 0x1ED PUSH1 0x0 CODECOPY PUSH1 0x0 RETURN INVALID PUSH1 0x80 PUSH1 0x40 MSTORE CALLVALUE DUP1 ISZERO PUSH2 0x10 JUMPI PUSH1 0x0 DUP1 REVERT JUMPDEST POP PUSH1 0x4 CALLDATASIZE LT PUSH2 0x21C JUMPI PUSH1 0x0 CALLDATALOAD PUSH1 0xE0 SHR DUP1 PUSH4 0x82AEFA24 GT PUSH2 0x125 JUMPI DUP1 PUSH4 0xAAA55271 GT PUSH2 0xAD JUMPI DUP1 PUSH4 0xD547741F GT PUSH2 0x7C JUMPI DUP1 PUSH4 0xD547741F EQ PUSH2 0x6C0 JUMPI DUP1 PUSH4 0xE7705DB6 EQ PUSH2 0x6DC JUMPI DUP1 PUSH4 0xEB4E9B09 EQ PUSH2 0x6FA JUMPI DUP1 PUSH4 0xF5C5987B EQ PUSH2 0x72A JUMPI DUP1 PUSH4 0xFED888BA EQ PUSH2 0x748 JUMPI PUSH2 0x21C JUMP JUMPDEST DUP1 PUSH4 0xAAA55271 EQ PUSH2 0x622 JUMPI DUP1 PUSH4 0xAC90C140 EQ PUSH2 0x63E JUMPI DUP1 PUSH4 0xC90A0C0D EQ PUSH2 0x65C JUMPI DUP1 PUSH4 0xD1E94E57 EQ PUSH2 0x68C JUMPI PUSH2 0x21C JUMP JUMPDEST DUP1 PUSH4 0x91D14854 GT PUSH2 0xF4 JUMPI DUP1 PUSH4 0x91D14854 EQ PUSH2 0x53E JUMPI DUP1 PUSH4 0x9551DD70 EQ PUSH2 0x56E JUMPI DUP1 PUSH4 0xA217FDDF EQ PUSH2 0x59E JUMPI DUP1 PUSH4 0xA4A3A4A3 EQ PUSH2 0x5BC JUMPI DUP1 PUSH4 0xA7867212 EQ PUSH2 0x5EC JUMPI PUSH2 0x21C JUMP JUMPDEST DUP1 PUSH4 0x82AEFA24 EQ PUSH2 0x4CA JUMPI DUP1 PUSH4 0x8456CB59 EQ PUSH2 0x4E8 JUMPI DUP1 PUSH4 0x85431596 EQ PUSH2 0x4F2 JUMPI DUP1 PUSH4 0x8E52FA7E EQ PUSH2 0x50E JUMPI PUSH2 0x21C JUMP JUMPDEST DUP1 PUSH4 0x3F4BA83A GT PUSH2 0x1A8 JUMPI DUP1 PUSH4 0x5C975ABB GT PUSH2 0x177 JUMPI DUP1 PUSH4 0x5C975ABB EQ PUSH2 0x40B JUMPI DUP1 PUSH4 0x68147E36 EQ PUSH2 0x429 JUMPI DUP1 PUSH4 0x75B238FC EQ PUSH2 0x445 JUMPI DUP1 PUSH4 0x790CA2DD EQ PUSH2 0x463 JUMPI DUP1 PUSH4 0x81638E9B EQ PUSH2 0x493 JUMPI PUSH2 0x21C JUMP JUMPDEST DUP1 PUSH4 0x3F4BA83A EQ PUSH2 0x385 JUMPI DUP1 PUSH4 0x484CC1D5 EQ PUSH2 0x38F JUMPI DUP1 PUSH4 0x4D41F49B EQ PUSH2 0x3AB JUMPI DUP1 PUSH4 0x5585863A EQ PUSH2 0x3DB JUMPI PUSH2 0x21C JUMP JUMPDEST DUP1 PUSH4 0x213A5C25 GT PUSH2 0x1EF JUMPI DUP1 PUSH4 0x213A5C25 EQ PUSH2 0x2D1 JUMPI DUP1 PUSH4 0x248A9CA3 EQ PUSH2 0x301 JUMPI DUP1 PUSH4 0x2F2FF15D EQ PUSH2 0x331 JUMPI DUP1 PUSH4 0x36568ABE EQ PUSH2 0x34D JUMPI DUP1 PUSH4 0x369EE8F4 EQ PUSH2 0x369 JUMPI PUSH2 0x21C JUMP JUMPDEST DUP1 PUSH4 0x1FFC9A7 EQ PUSH2 0x221 JUMPI DUP1 PUSH4 0xA03CA5B EQ PUSH2 0x251 JUMPI DUP1 PUSH4 0xA09185E EQ PUSH2 0x285 JUMPI DUP1 PUSH4 0xFA39676 EQ PUSH2 0x2B5 JUMPI JUMPDEST PUSH1 0x0 DUP1 REVERT JUMPDEST PUSH2 0x23B PUSH1 0x4 DUP1 CALLDATASIZE SUB DUP2 ADD SWAP1 PUSH2 0x236 SWAP2 SWAP1 PUSH2 0x2D03 JUMP JUMPDEST PUSH2 0x764 JUMP JUMPDEST PUSH1 0x40 MLOAD PUSH2 0x248 SWAP2 SWAP1 PUSH2 0x2D4B JUMP JUMPDEST PUSH1 0x40 MLOAD DUP1 SWAP2 SUB SWAP1 RETURN JUMPDEST PUSH2 0x26B PUSH1 0x4 DUP1 CALLDATASIZE SUB DUP2 ADD SWAP1 PUSH2 0x266 SWAP2 SWAP1 PUSH2 0x2DD2 JUMP JUMPDEST PUSH2 0x7DE JUMP JUMPDEST PUSH1 0x40 MLOAD PUSH2 0x27C SWAP6 SWAP5 SWAP4 SWAP3 SWAP2 SWAP1 PUSH2 0x2E8D JUMP JUMPDEST PUSH1 0x40 MLOAD DUP1 SWAP2 SUB SWAP1 RETURN JUMPDEST PUSH2 0x29F PUSH1 0x4 DUP1 CALLDATASIZE SUB DUP2 ADD SWAP1 PUSH2 0x29A SWAP2 SWAP1 PUSH2 0x2F0C JUMP JUMPDEST PUSH2 0x950 JUMP JUMPDEST PUSH1 0x40 MLOAD PUSH2 0x2AC SWAP2 SWAP1 PUSH2 0x2D4B JUMP JUMPDEST PUSH1 0x40 MLOAD DUP1 SWAP2 SUB SWAP1 RETURN JUMPDEST PUSH2 0x2CF PUSH1 0x4 DUP1 CALLDATASIZE SUB DUP2 ADD SWAP1 PUSH2 0x2CA SWAP2 SWAP1 PUSH2 0x2DD2 JUMP JUMPDEST PUSH2 0x97F JUMP JUMPDEST STOP JUMPDEST PUSH2 0x2EB PUSH1 0x4 DUP1 CALLDATASIZE SUB DUP2 ADD SWAP1 PUSH2 0x2E6 SWAP2 SWAP1 PUSH2 0x2F4C JUMP JUMPDEST PUSH2 0xB51 JUMP JUMPDEST PUSH1 0x40 MLOAD PUSH2 0x2F8 SWAP2 SWAP1 PUSH2 0x2F79 JUMP JUMPDEST PUSH1 0x40 MLOAD DUP1 SWAP2 SUB SWAP1 RETURN JUMPDEST PUSH2 0x31B PUSH1 0x4 DUP1 CALLDATASIZE SUB DUP2 ADD SWAP1 PUSH2 0x316 SWAP2 SWAP1 PUSH2 0x2F4C JUMP JUMPDEST PUSH2 0xB69 JUMP JUMPDEST PUSH1 0x40 MLOAD PUSH2 0x328 SWAP2 SWAP1 PUSH2 0x2F94 JUMP JUMPDEST PUSH1 0x40 MLOAD DUP1 SWAP2 SUB SWAP1 RETURN JUMPDEST PUSH2 0x34B PUSH1 0x4 DUP1 CALLDATASIZE SUB DUP2 ADD SWAP1 PUSH2 0x346 SWAP2 SWAP1 PUSH2 0x2F0C JUMP JUMPDEST PUSH2 0xB88 JUMP JUMPDEST STOP JUMPDEST PUSH2 0x367 PUSH1 0x4 DUP1 CALLDATASIZE SUB DUP2 ADD SWAP1 PUSH2 0x362 SWAP2 SWAP1 PUSH2 0x2F0C JUMP JUMPDEST PUSH2 0xBAA JUMP JUMPDEST STOP JUMPDEST PUSH2 0x383 PUSH1 0x4 DUP1 CALLDATASIZE SUB DUP2 ADD SWAP1 PUSH2 0x37E SWAP2 SWAP1 PUSH2 0x2FDB JUMP JUMPDEST PUSH2 0xC25 JUMP JUMPDEST STOP JUMPDEST PUSH2 0x38D PUSH2 0xF3F JUMP JUMPDEST STOP JUMPDEST PUSH2 0x3A9 PUSH1 0x4 DUP1 CALLDATASIZE SUB DUP2 ADD SWAP1 PUSH2 0x3A4 SWAP2 SWAP1 PUSH2 0x2F4C JUMP JUMPDEST PUSH2 0xF74 JUMP JUMPDEST STOP JUMPDEST PUSH2 0x3C5 PUSH1 0x4 DUP1 CALLDATASIZE SUB DUP2 ADD SWAP1 PUSH2 0x3C0 SWAP2 SWAP1 PUSH2 0x2F0C JUMP JUMPDEST PUSH2 0x11EA JUMP JUMPDEST PUSH1 0x40 MLOAD PUSH2 0x3D2 SWAP2 SWAP1 PUSH2 0x2D4B JUMP JUMPDEST PUSH1 0x40 MLOAD DUP1 SWAP2 SUB SWAP1 RETURN JUMPDEST PUSH2 0x3F5 PUSH1 0x4 DUP1 CALLDATASIZE SUB DUP2 ADD SWAP1 PUSH2 0x3F0 SWAP2 SWAP1 PUSH2 0x2F4C JUMP JUMPDEST PUSH2 0x12B2 JUMP JUMPDEST PUSH1 0x40 MLOAD PUSH2 0x402 SWAP2 SWAP1 PUSH2 0x2F79 JUMP JUMPDEST PUSH1 0x40 MLOAD DUP1 SWAP2 SUB SWAP1 RETURN JUMPDEST PUSH2 0x413 PUSH2 0x12D2 JUMP JUMPDEST PUSH1 0x40 MLOAD PUSH2 0x420 SWAP2 SWAP1 PUSH2 0x2D4B JUMP JUMPDEST PUSH1 0x40 MLOAD DUP1 SWAP2 SUB SWAP1 RETURN JUMPDEST PUSH2 0x443 PUSH1 0x4 DUP1 CALLDATASIZE SUB DUP2 ADD SWAP1 PUSH2 0x43E SWAP2 SWAP1 PUSH2 0x2F0C JUMP JUMPDEST PUSH2 0x12E9 JUMP JUMPDEST STOP JUMPDEST PUSH2 0x44D PUSH2 0x155F JUMP JUMPDEST PUSH1 0x40 MLOAD PUSH2 0x45A SWAP2 SWAP1 PUSH2 0x2F94 JUMP JUMPDEST PUSH1 0x40 MLOAD DUP1 SWAP2 SUB SWAP1 RETURN JUMPDEST PUSH2 0x47D PUSH1 0x4 DUP1 CALLDATASIZE SUB DUP2 ADD SWAP1 PUSH2 0x478 SWAP2 SWAP1 PUSH2 0x2DD2 JUMP JUMPDEST PUSH2 0x1583 JUMP JUMPDEST PUSH1 0x40 MLOAD PUSH2 0x48A SWAP2 SWAP1 PUSH2 0x302E JUMP JUMPDEST PUSH1 0x40 MLOAD DUP1 SWAP2 SUB SWAP1 RETURN JUMPDEST PUSH2 0x4AD PUSH1 0x4 DUP1 CALLDATASIZE SUB DUP2 ADD SWAP1 PUSH2 0x4A8 SWAP2 SWAP1 PUSH2 0x2F4C JUMP JUMPDEST PUSH2 0x15D1 JUMP JUMPDEST PUSH1 0x40 MLOAD PUSH2 0x4C1 SWAP9 SWAP8 SWAP7 SWAP6 SWAP5 SWAP4 SWAP3 SWAP2 SWAP1 PUSH2 0x30D9 JUMP JUMPDEST PUSH1 0x40 MLOAD DUP1 SWAP2 SUB SWAP1 RETURN JUMPDEST PUSH2 0x4D2 PUSH2 0x16DB JUMP JUMPDEST PUSH1 0x40 MLOAD PUSH2 0x4DF SWAP2 SWAP1 PUSH2 0x2F94 JUMP JUMPDEST PUSH1 0x40 MLOAD DUP1 SWAP2 SUB SWAP1 RETURN JUMPDEST PUSH2 0x4F0 PUSH2 0x16FF JUMP JUMPDEST STOP JUMPDEST PUSH2 0x50C PUSH1 0x4 DUP1 CALLDATASIZE SUB DUP2 ADD SWAP1 PUSH2 0x507 SWAP2 SWAP1 PUSH2 0x2F0C JUMP JUMPDEST PUSH2 0x1734 JUMP JUMPDEST STOP JUMPDEST PUSH2 0x528 PUSH1 0x4 DUP1 CALLDATASIZE SUB DUP2 ADD SWAP1 PUSH2 0x523 SWAP2 SWAP1 PUSH2 0x2F4C JUMP JUMPDEST PUSH2 0x1971 JUMP JUMPDEST PUSH1 0x40 MLOAD PUSH2 0x535 SWAP2 SWAP1 PUSH2 0x302E JUMP JUMPDEST PUSH1 0x40 MLOAD DUP1 SWAP2 SUB SWAP1 RETURN JUMPDEST PUSH2 0x558 PUSH1 0x4 DUP1 CALLDATASIZE SUB DUP2 ADD SWAP1 PUSH2 0x553 SWAP2 SWAP1 PUSH2 0x2F0C JUMP JUMPDEST PUSH2 0x19A4 JUMP JUMPDEST PUSH1 0x40 MLOAD PUSH2 0x565 SWAP2 SWAP1 PUSH2 0x2D4B JUMP JUMPDEST PUSH1 0x40 MLOAD DUP1 SWAP2 SUB SWAP1 RETURN JUMPDEST PUSH2 0x588 PUSH1 0x4 DUP1 CALLDATASIZE SUB DUP2 ADD SWAP1 PUSH2 0x583 SWAP2 SWAP1 PUSH2 0x3293 JUMP JUMPDEST PUSH2 0x1A0E JUMP JUMPDEST PUSH1 0x40 MLOAD PUSH2 0x595 SWAP2 SWAP1 PUSH2 0x2F94 JUMP JUMPDEST PUSH1 0x40 MLOAD DUP1 SWAP2 SUB SWAP1 RETURN JUMPDEST PUSH2 0x5A6 PUSH2 0x1D4F JUMP JUMPDEST PUSH1 0x40 MLOAD PUSH2 0x5B3 SWAP2 SWAP1 PUSH2 0x2F94 JUMP JUMPDEST PUSH1 0x40 MLOAD DUP1 SWAP2 SUB SWAP1 RETURN JUMPDEST PUSH2 0x5D6 PUSH1 0x4 DUP1 CALLDATASIZE SUB DUP2 ADD SWAP1 PUSH2 0x5D1 SWAP2 SWAP1 PUSH2 0x2F4C JUMP JUMPDEST PUSH2 0x1D56 JUMP JUMPDEST PUSH1 0x40 MLOAD PUSH2 0x5E3 SWAP2 SWAP1 PUSH2 0x33AD JUMP JUMPDEST PUSH1 0x40 MLOAD DUP1 SWAP2 SUB SWAP1 RETURN JUMPDEST PUSH2 0x606 PUSH1 0x4 DUP1 CALLDATASIZE SUB DUP2 ADD SWAP1 PUSH2 0x601 SWAP2 SWAP1 PUSH2 0x2F4C JUMP JUMPDEST PUSH2 0x1DF7 JUMP JUMPDEST PUSH1 0x40 MLOAD PUSH2 0x619 SWAP8 SWAP7 SWAP6 SWAP5 SWAP4 SWAP3 SWAP2 SWAP1 PUSH2 0x33CF JUMP JUMPDEST PUSH1 0x40 MLOAD DUP1 SWAP2 SUB SWAP1 RETURN JUMPDEST PUSH2 0x63C PUSH1 0x4 DUP1 CALLDATASIZE SUB DUP2 ADD SWAP1 PUSH2 0x637 SWAP2 SWAP1 PUSH2 0x3293 JUMP JUMPDEST PUSH2 0x1FA8 JUMP JUMPDEST STOP JUMPDEST PUSH2 0x646 PUSH2 0x2196 JUMP JUMPDEST PUSH1 0x40 MLOAD PUSH2 0x653 SWAP2 SWAP1 PUSH2 0x2F79 JUMP JUMPDEST PUSH1 0x40 MLOAD DUP1 SWAP2 SUB SWAP1 RETURN JUMPDEST PUSH2 0x676 PUSH1 0x4 DUP1 CALLDATASIZE SUB DUP2 ADD SWAP1 PUSH2 0x671 SWAP2 SWAP1 PUSH2 0x2F4C JUMP JUMPDEST PUSH2 0x219C JUMP JUMPDEST PUSH1 0x40 MLOAD PUSH2 0x683 SWAP2 SWAP1 PUSH2 0x2D4B JUMP JUMPDEST PUSH1 0x40 MLOAD DUP1 SWAP2 SUB SWAP1 RETURN JUMPDEST PUSH2 0x6A6 PUSH1 0x4 DUP1 CALLDATASIZE SUB DUP2 ADD SWAP1 PUSH2 0x6A1 SWAP2 SWAP1 PUSH2 0x2DD2 JUMP JUMPDEST PUSH2 0x21BC JUMP JUMPDEST PUSH1 0x40 MLOAD PUSH2 0x6B7 SWAP6 SWAP5 SWAP4 SWAP3 SWAP2 SWAP1 PUSH2 0x2E8D JUMP JUMPDEST PUSH1 0x40 MLOAD DUP1 SWAP2 SUB SWAP1 RETURN JUMPDEST PUSH2 0x6DA PUSH1 0x4 DUP1 CALLDATASIZE SUB DUP2 ADD SWAP1 PUSH2 0x6D5 SWAP2 SWAP1 PUSH2 0x2F0C JUMP JUMPDEST PUSH2 0x2249 JUMP JUMPDEST STOP JUMPDEST PUSH2 0x6E4 PUSH2 0x226B JUMP JUMPDEST PUSH1 0x40 MLOAD PUSH2 0x6F1 SWAP2 SWAP1 PUSH2 0x2F94 JUMP JUMPDEST PUSH1 0x40 MLOAD DUP1 SWAP2 SUB SWAP1 RETURN JUMPDEST PUSH2 0x714 PUSH1 0x4 DUP1 CALLDATASIZE SUB DUP2 ADD SWAP1 PUSH2 0x70F SWAP2 SWAP1 PUSH2 0x3445 JUMP JUMPDEST PUSH2 0x228F JUMP JUMPDEST PUSH1 0x40 MLOAD PUSH2 0x721 SWAP2 SWAP1 PUSH2 0x2F94 JUMP JUMPDEST PUSH1 0x40 MLOAD DUP1 SWAP2 SUB SWAP1 RETURN JUMPDEST PUSH2 0x732 PUSH2 0x22A7 JUMP JUMPDEST PUSH1 0x40 MLOAD PUSH2 0x73F SWAP2 SWAP1 PUSH2 0x2F79 JUMP JUMPDEST PUSH1 0x40 MLOAD DUP1 SWAP2 SUB SWAP1 RETURN JUMPDEST PUSH2 0x762 PUSH1 0x4 DUP1 CALLDATASIZE SUB DUP2 ADD SWAP1 PUSH2 0x75D SWAP2 SWAP1 PUSH2 0x2F4C JUMP JUMPDEST PUSH2 0x22AD JUMP JUMPDEST STOP JUMPDEST PUSH1 0x0 PUSH32 0x7965DB0B00000000000000000000000000000000000000000000000000000000 PUSH28 0xFFFFFFFFFFFFFFFFFFFFFFFFFFFFFFFFFFFFFFFFFFFFFFFFFFFFFFFF NOT AND DUP3 PUSH28 0xFFFFFFFFFFFFFFFFFFFFFFFFFFFFFFFFFFFFFFFFFFFFFFFFFFFFFFFF NOT AND EQ DUP1 PUSH2 0x7D7 JUMPI POP PUSH2 0x7D6 DUP3 PUSH2 0x249A JUMP JUMPDEST JUMPDEST SWAP1 POP SWAP2 SWAP1 POP JUMP JUMPDEST PUSH1 0x0 DUP1 PUSH1 0x0 DUP1 PUSH1 0x0 PUSH1 0x5 PUSH1 0x0 DUP9 DUP2 MSTORE PUSH1 0x20 ADD SWAP1 DUP2 MSTORE PUSH1 0x20 ADD PUSH1 0x0 KECCAK256 DUP1 SLOAD SWAP1 POP DUP7 LT PUSH2 0x83E JUMPI PUSH1 0x40 MLOAD PUSH32 0x8C379A000000000000000000000000000000000000000000000000000000000 DUP2 MSTORE PUSH1 0x4 ADD PUSH2 0x835 SWAP1 PUSH2 0x34BE JUMP JUMPDEST PUSH1 0x40 MLOAD DUP1 SWAP2 SUB SWAP1 REVERT JUMPDEST PUSH1 0x0 PUSH1 0x5 PUSH1 0x0 DUP10 DUP2 MSTORE PUSH1 0x20 ADD SWAP1 DUP2 MSTORE PUSH1 0x20 ADD PUSH1 0x0 KECCAK256 DUP8 DUP2 SLOAD DUP2 LT PUSH2 0x865 JUMPI PUSH2 0x864 PUSH2 0x34DE JUMP JUMPDEST JUMPDEST SWAP1 PUSH1 0x0 MSTORE PUSH1 0x20 PUSH1 0x0 KECCAK256 SWAP1 PUSH1 0x5 MUL ADD PUSH1 0x40 MLOAD DUP1 PUSH1 0xA0 ADD PUSH1 0x40 MSTORE SWAP1 DUP2 PUSH1 0x0 DUP3 ADD PUSH1 0x0 SWAP1 SLOAD SWAP1 PUSH2 0x100 EXP SWAP1 DIV PUSH20 0xFFFFFFFFFFFFFFFFFFFFFFFFFFFFFFFFFFFFFFFF AND PUSH20 0xFFFFFFFFFFFFFFFFFFFFFFFFFFFFFFFFFFFFFFFF AND PUSH20 0xFFFFFFFFFFFFFFFFFFFFFFFFFFFFFFFFFFFFFFFF AND DUP2 MSTORE PUSH1 0x20 ADD PUSH1 0x1 DUP3 ADD SLOAD DUP2 MSTORE PUSH1 0x20 ADD PUSH1 0x2 DUP3 ADD PUSH1 0x0 SWAP1 SLOAD SWAP1 PUSH2 0x100 EXP SWAP1 DIV PUSH1 0xFF AND PUSH1 0xFF AND PUSH1 0xFF AND DUP2 MSTORE PUSH1 0x20 ADD PUSH1 0x3 DUP3 ADD SLOAD DUP2 MSTORE PUSH1 0x20 ADD PUSH1 0x4 DUP3 ADD PUSH1 0x0 SWAP1 SLOAD SWAP1 PUSH2 0x100 EXP SWAP1 DIV PUSH1 0xFF AND ISZERO ISZERO ISZERO ISZERO DUP2 MSTORE POP POP SWAP1 POP DUP1 PUSH1 0x0 ADD MLOAD DUP2 PUSH1 0x20 ADD MLOAD DUP3 PUSH1 0x40 ADD MLOAD DUP4 PUSH1 0x60 ADD MLOAD DUP5 PUSH1 0x80 ADD MLOAD SWAP6 POP SWAP6 POP SWAP6 POP SWAP6 POP SWAP6 POP POP SWAP3 SWAP6 POP SWAP3 SWAP6 SWAP1 SWAP4 POP JUMP JUMPDEST PUSH1 0x8 PUSH1 0x20 MSTORE DUP2 PUSH1 0x0 MSTORE PUSH1 0x40 PUSH1 0x0 KECCAK256 PUSH1 0x20 MSTORE DUP1 PUSH1 0x0 MSTORE PUSH1 0x40 PUSH1 0x0 KECCAK256 PUSH1 0x0 SWAP2 POP SWAP2 POP SWAP1 SLOAD SWAP1 PUSH2 0x100 EXP SWAP1 DIV PUSH1 0xFF AND DUP2 JUMP JUMPDEST PUSH32 0xCE23C3E399818CFEE81A7AB0880F714E53D7672B08DF0FA62F2843416E1EA09 PUSH2 0x9A9 DUP2 PUSH2 0x2504 JUMP JUMPDEST PUSH1 0x5 PUSH1 0x0 DUP5 DUP2 MSTORE PUSH1 0x20 ADD SWAP1 DUP2 MSTORE PUSH1 0x20 ADD PUSH1 0x0 KECCAK256 DUP1 SLOAD SWAP1 POP DUP3 LT PUSH2 0xA01 JUMPI PUSH1 0x40 MLOAD PUSH32 0x8C379A000000000000000000000000000000000000000000000000000000000 DUP2 MSTORE PUSH1 0x4 ADD PUSH2 0x9F8 SWAP1 PUSH2 0x34BE JUMP JUMPDEST PUSH1 0x40 MLOAD DUP1 SWAP2 SUB SWAP1 REVERT JUMPDEST CALLER PUSH20 0xFFFFFFFFFFFFFFFFFFFFFFFFFFFFFFFFFFFFFFFF AND PUSH1 0x5 PUSH1 0x0 DUP6 DUP2 MSTORE PUSH1 0x20 ADD SWAP1 DUP2 MSTORE PUSH1 0x20 ADD PUSH1 0x0 KECCAK256 DUP4 DUP2 SLOAD DUP2 LT PUSH2 0xA3D JUMPI PUSH2 0xA3C PUSH2 0x34DE JUMP JUMPDEST JUMPDEST SWAP1 PUSH1 0x0 MSTORE PUSH1 0x20 PUSH1 0x0 KECCAK256 SWAP1 PUSH1 0x5 MUL ADD PUSH1 0x0 ADD PUSH1 0x0 SWAP1 SLOAD SWAP1 PUSH2 0x100 EXP SWAP1 DIV PUSH20 0xFFFFFFFFFFFFFFFFFFFFFFFFFFFFFFFFFFFFFFFF AND PUSH20 0xFFFFFFFFFFFFFFFFFFFFFFFFFFFFFFFFFFFFFFFF AND EQ PUSH2 0xAC5 JUMPI PUSH1 0x40 MLOAD PUSH32 0x8C379A000000000000000000000000000000000000000000000000000000000 DUP2 MSTORE PUSH1 0x4 ADD PUSH2 0xABC SWAP1 PUSH2 0x3559 JUMP JUMPDEST PUSH1 0x40 MLOAD DUP1 SWAP2 SUB SWAP1 REVERT JUMPDEST PUSH1 0x0 PUSH1 0x5 PUSH1 0x0 DUP6 DUP2 MSTORE PUSH1 0x20 ADD SWAP1 DUP2 MSTORE PUSH1 0x20 ADD PUSH1 0x0 KECCAK256 DUP4 DUP2 SLOAD DUP2 LT PUSH2 0xAEC JUMPI PUSH2 0xAEB PUSH2 0x34DE JUMP JUMPDEST JUMPDEST SWAP1 PUSH1 0x0 MSTORE PUSH1 0x20 PUSH1 0x0 KECCAK256 SWAP1 PUSH1 0x5 MUL ADD PUSH1 0x4 ADD PUSH1 0x0 PUSH2 0x100 EXP DUP2 SLOAD DUP2 PUSH1 0xFF MUL NOT AND SWAP1 DUP4 ISZERO ISZERO MUL OR SWAP1 SSTORE POP DUP3 PUSH32 0x28F5CE3C594BAA822C41C353B7E13129F0BBC6FB9FB5DC0F5A4E2F5E49A6EEA DUP4 PUSH1 0x40 MLOAD PUSH2 0xB44 SWAP2 SWAP1 PUSH2 0x2F79 JUMP JUMPDEST PUSH1 0x40 MLOAD DUP1 SWAP2 SUB SWAP1 LOG2 POP POP POP JUMP JUMPDEST PUSH1 0xA PUSH1 0x20 MSTORE DUP1 PUSH1 0x0 MSTORE PUSH1 0x40 PUSH1 0x0 KECCAK256 PUSH1 0x0 SWAP2 POP SWAP1 POP SLOAD DUP2 JUMP JUMPDEST PUSH1 0x0 DUP1 PUSH1 0x0 DUP4 DUP2 MSTORE PUSH1 0x20 ADD SWAP1 DUP2 MSTORE PUSH1 0x20 ADD PUSH1 0x0 KECCAK256 PUSH1 0x1 ADD SLOAD SWAP1 POP SWAP2 SWAP1 POP JUMP JUMPDEST PUSH2 0xB91 DUP3 PUSH2 0xB69 JUMP JUMPDEST PUSH2 0xB9A DUP2 PUSH2 0x2504 JUMP JUMPDEST PUSH2 0xBA4 DUP4 DUP4 PUSH2 0x2518 JUMP JUMPDEST POP POP POP POP JUMP JUMPDEST PUSH2 0xBB2 PUSH2 0x2609 JUMP JUMPDEST PUSH20 0xFFFFFFFFFFFFFFFFFFFFFFFFFFFFFFFFFFFFFFFF AND DUP2 PUSH20 0xFFFFFFFFFFFFFFFFFFFFFFFFFFFFFFFFFFFFFFFF AND EQ PUSH2 0xC16 JUMPI PUSH1 0x40 MLOAD PUSH32 0x6697B23200000000000000000000000000000000000000000000000000000000 DUP2 MSTORE PUSH1 0x4 ADD PUSH1 0x40 MLOAD DUP1 SWAP2 SUB SWAP1 REVERT JUMPDEST PUSH2 0xC20 DUP3 DUP3 PUSH2 0x2611 JUMP JUMPDEST POP POP POP JUMP JUMPDEST PUSH2 0xC2D PUSH2 0x2703 JUMP JUMPDEST PUSH32 0xCE23C3E399818CFEE81A7AB0880F714E53D7672B08DF0FA62F2843416E1EA09 PUSH2 0xC57 DUP2 PUSH2 0x2504 JUMP JUMPDEST PUSH1 0x3 PUSH1 0x0 DUP6 DUP2 MSTORE PUSH1 0x20 ADD SWAP1 DUP2 MSTORE PUSH1 0x20 ADD PUSH1 0x0 KECCAK256 PUSH1 0x4 ADD PUSH1 0x0 SWAP1 SLOAD SWAP1 PUSH2 0x100 EXP SWAP1 DIV PUSH1 0xFF AND PUSH2 0xCBA JUMPI PUSH1 0x40 MLOAD PUSH32 0x8C379A000000000000000000000000000000000000000000000000000000000 DUP2 MSTORE PUSH1 0x4 ADD PUSH2 0xCB1 SWAP1 PUSH2 0x35C5 JUMP JUMPDEST PUSH1 0x40 MLOAD DUP1 SWAP2 SUB SWAP1 REVERT JUMPDEST PUSH1 0x3 PUSH1 0x0 DUP6 DUP2 MSTORE PUSH1 0x20 ADD SWAP1 DUP2 MSTORE PUSH1 0x20 ADD PUSH1 0x0 KECCAK256 PUSH1 0x4 ADD PUSH1 0x1 SWAP1 SLOAD SWAP1 PUSH2 0x100 EXP SWAP1 DIV PUSH1 0xFF AND ISZERO PUSH2 0xD1E JUMPI PUSH1 0x40 MLOAD PUSH32 0x8C379A000000000000000000000000000000000000000000000000000000000 DUP2 MSTORE PUSH1 0x4 ADD PUSH2 0xD15 SWAP1 PUSH2 0x3631 JUMP JUMPDEST PUSH1 0x40 MLOAD DUP1 SWAP2 SUB SWAP1 REVERT JUMPDEST PUSH1 0x1 DUP4 PUSH1 0xFF AND LT ISZERO DUP1 ISZERO PUSH2 0xD36 JUMPI POP PUSH1 0x4 DUP4 PUSH1 0xFF AND GT ISZERO JUMPDEST PUSH2 0xD75 JUMPI PUSH1 0x40 MLOAD PUSH32 0x8C379A000000000000000000000000000000000000000000000000000000000 DUP2 MSTORE PUSH1 0x4 ADD PUSH2 0xD6C SWAP1 PUSH2 0x369D JUMP JUMPDEST PUSH1 0x40 MLOAD DUP1 SWAP2 SUB SWAP1 REVERT JUMPDEST PUSH1 0x5 PUSH1 0x0 DUP6 DUP2 MSTORE PUSH1 0x20 ADD SWAP1 DUP2 MSTORE PUSH1 0x20 ADD PUSH1 0x0 KECCAK256 PUSH1 0x40 MLOAD DUP1 PUSH1 0xA0 ADD PUSH1 0x40 MSTORE DUP1 CALLER PUSH20 0xFFFFFFFFFFFFFFFFFFFFFFFFFFFFFFFFFFFFFFFF AND DUP2 MSTORE PUSH1 0x20 ADD TIMESTAMP DUP2 MSTORE PUSH1 0x20 ADD DUP6 PUSH1 0xFF AND DUP2 MSTORE PUSH1 0x20 ADD DUP5 DUP2 MSTORE PUSH1 0x20 ADD PUSH1 0x1 ISZERO ISZERO DUP2 MSTORE POP SWAP1 DUP1 PUSH1 0x1 DUP2 SLOAD ADD DUP1 DUP3 SSTORE DUP1 SWAP2 POP POP PUSH1 0x1 SWAP1 SUB SWAP1 PUSH1 0x0 MSTORE PUSH1 0x20 PUSH1 0x0 KECCAK256 SWAP1 PUSH1 0x5 MUL ADD PUSH1 0x0 SWAP1 SWAP2 SWAP1 SWAP2 SWAP1 SWAP2 POP PUSH1 0x0 DUP3 ADD MLOAD DUP2 PUSH1 0x0 ADD PUSH1 0x0 PUSH2 0x100 EXP DUP2 SLOAD DUP2 PUSH20 0xFFFFFFFFFFFFFFFFFFFFFFFFFFFFFFFFFFFFFFFF MUL NOT AND SWAP1 DUP4 PUSH20 0xFFFFFFFFFFFFFFFFFFFFFFFFFFFFFFFFFFFFFFFF AND MUL OR SWAP1 SSTORE POP PUSH1 0x20 DUP3 ADD MLOAD DUP2 PUSH1 0x1 ADD SSTORE PUSH1 0x40 DUP3 ADD MLOAD DUP2 PUSH1 0x2 ADD PUSH1 0x0 PUSH2 0x100 EXP DUP2 SLOAD DUP2 PUSH1 0xFF MUL NOT AND SWAP1 DUP4 PUSH1 0xFF AND MUL OR SWAP1 SSTORE POP PUSH1 0x60 DUP3 ADD MLOAD DUP2 PUSH1 0x3 ADD SSTORE PUSH1 0x80 DUP3 ADD MLOAD DUP2 PUSH1 0x4 ADD PUSH1 0x0 PUSH2 0x100 EXP DUP2 SLOAD DUP2 PUSH1 0xFF MUL NOT AND SWAP1 DUP4 ISZERO ISZERO MUL OR SWAP1 SSTORE POP POP POP PUSH1 0x3 PUSH1 0x0 DUP6 DUP2 MSTORE PUSH1 0x20 ADD SWAP1 DUP2 MSTORE PUSH1 0x20 ADD PUSH1 0x0 KECCAK256 PUSH1 0x6 ADD SLOAD DUP4 PUSH1 0xFF AND GT ISZERO PUSH2 0xED2 JUMPI DUP3 PUSH1 0xFF AND PUSH1 0x3 PUSH1 0x0 DUP7 DUP2 MSTORE PUSH1 0x20 ADD SWAP1 DUP2 MSTORE PUSH1 0x20 ADD PUSH1 0x0 KECCAK256 PUSH1 0x6 ADD DUP2 SWAP1 SSTORE POP JUMPDEST PUSH1 0xC PUSH1 0x0 DUP2 SLOAD DUP1 SWAP3 SWAP2 SWAP1 PUSH2 0xEE5 SWAP1 PUSH2 0x36EC JUMP JUMPDEST SWAP2 SWAP1 POP SSTORE POP CALLER PUSH20 0xFFFFFFFFFFFFFFFFFFFFFFFFFFFFFFFFFFFFFFFF AND DUP5 PUSH32 0xE849E3EA7CBA7BD95C92B789CFB588A7ACF2910811880A6F86082CB461ADF431 DUP6 PUSH1 0x40 MLOAD PUSH2 0xF31 SWAP2 SWAP1 PUSH2 0x3734 JUMP JUMPDEST PUSH1 0x40 MLOAD DUP1 SWAP2 SUB SWAP1 LOG3 POP POP POP POP JUMP JUMPDEST PUSH32 0xA49807205CE4D355092EF5A8A18F56E8913CF4A201FBE287825B095693C21775 PUSH2 0xF69 DUP2 PUSH2 0x2504 JUMP JUMPDEST PUSH2 0xF71 PUSH2 0x2744 JUMP JUMPDEST POP JUMP JUMPDEST PUSH2 0xF7E DUP2 CALLER PUSH2 0x27A7 JUMP JUMPDEST PUSH2 0xFBD JUMPI PUSH1 0x40 MLOAD PUSH32 0x8C379A000000000000000000000000000000000000000000000000000000000 DUP2 MSTORE PUSH1 0x4 ADD PUSH2 0xFB4 SWAP1 PUSH2 0x379B JUMP JUMPDEST PUSH1 0x40 MLOAD DUP1 SWAP2 SUB SWAP1 REVERT JUMPDEST PUSH1 0x0 PUSH20 0xFFFFFFFFFFFFFFFFFFFFFFFFFFFFFFFFFFFFFFFF AND PUSH1 0x9 PUSH1 0x0 DUP4 DUP2 MSTORE PUSH1 0x20 ADD SWAP1 DUP2 MSTORE PUSH1 0x20 ADD PUSH1 0x0 KECCAK256 PUSH1 0x0 SWAP1 SLOAD SWAP1 PUSH2 0x100 EXP SWAP1 DIV PUSH20 0xFFFFFFFFFFFFFFFFFFFFFFFFFFFFFFFFFFFFFFFF AND PUSH20 0xFFFFFFFFFFFFFFFFFFFFFFFFFFFFFFFFFFFFFFFF AND SUB PUSH2 0x105F JUMPI PUSH1 0x40 MLOAD PUSH32 0x8C379A000000000000000000000000000000000000000000000000000000000 DUP2 MSTORE PUSH1 0x4 ADD PUSH2 0x1056 SWAP1 PUSH2 0x3807 JUMP JUMPDEST PUSH1 0x40 MLOAD DUP1 SWAP2 SUB SWAP1 REVERT JUMPDEST PUSH1 0x8 PUSH1 0x0 DUP3 DUP2 MSTORE PUSH1 0x20 ADD SWAP1 DUP2 MSTORE PUSH1 0x20 ADD PUSH1 0x0 KECCAK256 PUSH1 0x0 CALLER PUSH20 0xFFFFFFFFFFFFFFFFFFFFFFFFFFFFFFFFFFFFFFFF AND PUSH20 0xFFFFFFFFFFFFFFFFFFFFFFFFFFFFFFFFFFFFFFFF AND DUP2 MSTORE PUSH1 0x20 ADD SWAP1 DUP2 MSTORE PUSH1 0x20 ADD PUSH1 0x0 KECCAK256 PUSH1 0x0 SWAP1 SLOAD SWAP1 PUSH2 0x100 EXP SWAP1 DIV PUSH1 0xFF AND ISZERO PUSH2 0x10FD JUMPI PUSH1 0x40 MLOAD PUSH32 0x8C379A000000000000000000000000000000000000000000000000000000000 DUP2 MSTORE PUSH1 0x4 ADD PUSH2 0x10F4 SWAP1 PUSH2 0x3873 JUMP JUMPDEST PUSH1 0x40 MLOAD DUP1 SWAP2 SUB SWAP1 REVERT JUMPDEST PUSH1 0x1 PUSH1 0x8 PUSH1 0x0 DUP4 DUP2 MSTORE PUSH1 0x20 ADD SWAP1 DUP2 MSTORE PUSH1 0x20 ADD PUSH1 0x0 KECCAK256 PUSH1 0x0 CALLER PUSH20 0xFFFFFFFFFFFFFFFFFFFFFFFFFFFFFFFFFFFFFFFF AND PUSH20 0xFFFFFFFFFFFFFFFFFFFFFFFFFFFFFFFFFFFFFFFF AND DUP2 MSTORE PUSH1 0x20 ADD SWAP1 DUP2 MSTORE PUSH1 0x20 ADD PUSH1 0x0 KECCAK256 PUSH1 0x0 PUSH2 0x100 EXP DUP2 SLOAD DUP2 PUSH1 0xFF MUL NOT AND SWAP1 DUP4 ISZERO ISZERO MUL OR SWAP1 SSTORE POP PUSH1 0xA PUSH1 0x0 DUP3 DUP2 MSTORE PUSH1 0x20 ADD SWAP1 DUP2 MSTORE PUSH1 0x20 ADD PUSH1 0x0 KECCAK256 PUSH1 0x0 DUP2 SLOAD DUP1 SWAP3 SWAP2 SWAP1 PUSH2 0x118A SWAP1 PUSH2 0x36EC JUMP JUMPDEST SWAP2 SWAP1 POP SSTORE POP PUSH1 0x0 PUSH1 0x1 PUSH1 0x2 PUSH1 0x7 PUSH1 0x0 DUP6 DUP2 MSTORE PUSH1 0x20 ADD SWAP1 DUP2 MSTORE PUSH1 0x20 ADD PUSH1 0x0 KECCAK256 DUP1 SLOAD SWAP1 POP PUSH2 0x11B6 SWAP2 SWAP1 PUSH2 0x38C2 JUMP JUMPDEST PUSH2 0x11C0 SWAP2 SWAP1 PUSH2 0x38F3 JUMP JUMPDEST SWAP1 POP DUP1 PUSH1 0xA PUSH1 0x0 DUP5 DUP2 MSTORE PUSH1 0x20 ADD SWAP1 DUP2 MSTORE PUSH1 0x20 ADD PUSH1 0x0 KECCAK256 SLOAD LT PUSH2 0x11E6 JUMPI PUSH2 0x11E5 DUP3 PUSH2 0x2878 JUMP JUMPDEST JUMPDEST POP POP JUMP JUMPDEST PUSH1 0x0 DUP2 PUSH20 0xFFFFFFFFFFFFFFFFFFFFFFFFFFFFFFFFFFFFFFFF AND PUSH1 0x3 PUSH1 0x0 DUP6 DUP2 MSTORE PUSH1 0x20 ADD SWAP1 DUP2 MSTORE PUSH1 0x20 ADD PUSH1 0x0 KECCAK256 PUSH1 0x1 ADD PUSH1 0x0 SWAP1 SLOAD SWAP1 PUSH2 0x100 EXP SWAP1 DIV PUSH20 0xFFFFFFFFFFFFFFFFFFFFFFFFFFFFFFFFFFFFFFFF AND PUSH20 0xFFFFFFFFFFFFFFFFFFFFFFFFFFFFFFFFFFFFFFFF AND EQ DUP1 ISZERO PUSH2 0x127D JUMPI POP PUSH1 0x3 PUSH1 0x0 DUP5 DUP2 MSTORE PUSH1 0x20 ADD SWAP1 DUP2 MSTORE PUSH1 0x20 ADD PUSH1 0x0 KECCAK256 PUSH1 0x4 ADD PUSH1 0x0 SWAP1 SLOAD SWAP1 PUSH2 0x100 EXP SWAP1 DIV PUSH1 0xFF AND JUMPDEST DUP1 ISZERO PUSH2 0x12AA JUMPI POP PUSH1 0x3 PUSH1 0x0 DUP5 DUP2 MSTORE PUSH1 0x20 ADD SWAP1 DUP2 MSTORE PUSH1 0x20 ADD PUSH1 0x0 KECCAK256 PUSH1 0x4 ADD PUSH1 0x1 SWAP1 SLOAD SWAP1 PUSH2 0x100 EXP SWAP1 DIV PUSH1 0xFF AND ISZERO JUMPDEST SWAP1 POP SWAP3 SWAP2 POP POP JUMP JUMPDEST PUSH1 0x0 PUSH1 0x5 PUSH1 0x0 DUP4 DUP2 MSTORE PUSH1 0x20 ADD SWAP1 DUP2 MSTORE PUSH1 0x20 ADD PUSH1 0x0 KECCAK256 DUP1 SLOAD SWAP1 POP SWAP1 POP SWAP2 SWAP1 POP JUMP JUMPDEST PUSH1 0x0 PUSH1 0x2 PUSH1 0x0 SWAP1 SLOAD SWAP1 PUSH2 0x100 EXP SWAP1 DIV PUSH1 0xFF AND SWAP1 POP SWAP1 JUMP JUMPDEST PUSH2 0x12F3 DUP3 CALLER PUSH2 0x27A7 JUMP JUMPDEST PUSH2 0x1332 JUMPI PUSH1 0x40 MLOAD PUSH32 0x8C379A000000000000000000000000000000000000000000000000000000000 DUP2 MSTORE PUSH1 0x4 ADD PUSH2 0x1329 SWAP1 PUSH2 0x379B JUMP JUMPDEST PUSH1 0x40 MLOAD DUP1 SWAP2 SUB SWAP1 REVERT JUMPDEST PUSH1 0x0 PUSH20 0xFFFFFFFFFFFFFFFFFFFFFFFFFFFFFFFFFFFFFFFF AND DUP2 PUSH20 0xFFFFFFFFFFFFFFFFFFFFFFFFFFFFFFFFFFFFFFFF AND SUB PUSH2 0x13A1 JUMPI PUSH1 0x40 MLOAD PUSH32 0x8C379A000000000000000000000000000000000000000000000000000000000 DUP2 MSTORE PUSH1 0x4 ADD PUSH2 0x1398 SWAP1 PUSH2 0x3973 JUMP JUMPDEST PUSH1 0x40 MLOAD DUP1 SWAP2 SUB SWAP1 REVERT JUMPDEST PUSH1 0x0 PUSH20 0xFFFFFFFFFFFFFFFFFFFFFFFFFFFFFFFFFFFFFFFF AND PUSH1 0x9 PUSH1 0x0 DUP5 DUP2 MSTORE PUSH1 0x20 ADD SWAP1 DUP2 MSTORE PUSH1 0x20 ADD PUSH1 0x0 KECCAK256 PUSH1 0x0 SWAP1 SLOAD SWAP1 PUSH2 0x100 EXP SWAP1 DIV PUSH20 0xFFFFFFFFFFFFFFFFFFFFFFFFFFFFFFFFFFFFFFFF AND PUSH20 0xFFFFFFFFFFFFFFFFFFFFFFFFFFFFFFFFFFFFFFFF AND EQ PUSH2 0x1443 JUMPI PUSH1 0x40 MLOAD PUSH32 0x8C379A000000000000000000000000000000000000000000000000000000000 DUP2 MSTORE PUSH1 0x4 ADD PUSH2 0x143A SWAP1 PUSH2 0x39DF JUMP JUMPDEST PUSH1 0x40 MLOAD DUP1 SWAP2 SUB SWAP1 REVERT JUMPDEST DUP1 PUSH1 0x9 PUSH1 0x0 DUP5 DUP2 MSTORE PUSH1 0x20 ADD SWAP1 DUP2 MSTORE PUSH1 0x20 ADD PUSH1 0x0 KECCAK256 PUSH1 0x0 PUSH2 0x100 EXP DUP2 SLOAD DUP2 PUSH20 0xFFFFFFFFFFFFFFFFFFFFFFFFFFFFFFFFFFFFFFFF MUL NOT AND SWAP1 DUP4 PUSH20 0xFFFFFFFFFFFFFFFFFFFFFFFFFFFFFFFFFFFFFFFF AND MUL OR SWAP1 SSTORE POP PUSH1 0x1 PUSH1 0x8 PUSH1 0x0 DUP5 DUP2 MSTORE PUSH1 0x20 ADD SWAP1 DUP2 MSTORE PUSH1 0x20 ADD PUSH1 0x0 KECCAK256 PUSH1 0x0 CALLER PUSH20 0xFFFFFFFFFFFFFFFFFFFFFFFFFFFFFFFFFFFFFFFF AND PUSH20 0xFFFFFFFFFFFFFFFFFFFFFFFFFFFFFFFFFFFFFFFF AND DUP2 MSTORE PUSH1 0x20 ADD SWAP1 DUP2 MSTORE PUSH1 0x20 ADD PUSH1 0x0 KECCAK256 PUSH1 0x0 PUSH2 0x100 EXP DUP2 SLOAD DUP2 PUSH1 0xFF MUL NOT AND SWAP1 DUP4 ISZERO ISZERO MUL OR SWAP1 SSTORE POP PUSH1 0x1 PUSH1 0xA PUSH1 0x0 DUP5 DUP2 MSTORE PUSH1 0x20 ADD SWAP1 DUP2 MSTORE PUSH1 0x20 ADD PUSH1 0x0 KECCAK256 DUP2 SWAP1 SSTORE POP DUP1 PUSH20 0xFFFFFFFFFFFFFFFFFFFFFFFFFFFFFFFFFFFFFFFF AND DUP3 PUSH32 0x19E7E0655FB515D4F56FDC04DEE16B5253C714EFE38B468D4C5DE010BED4FD7E PUSH1 0x40 MLOAD PUSH1 0x40 MLOAD DUP1 SWAP2 SUB SWAP1 LOG3 POP POP JUMP JUMPDEST PUSH32 0xA49807205CE4D355092EF5A8A18F56E8913CF4A201FBE287825B095693C21775 DUP2 JUMP JUMPDEST PUSH1 0x7 PUSH1 0x20 MSTORE DUP2 PUSH1 0x0 MSTORE PUSH1 0x40 PUSH1 0x0 KECCAK256 DUP2 DUP2 SLOAD DUP2 LT PUSH2 0x159F JUMPI PUSH1 0x0 DUP1 REVERT JUMPDEST SWAP1 PUSH1 0x0 MSTORE PUSH1 0x20 PUSH1 0x0 KECCAK256 ADD PUSH1 0x0 SWAP2 POP SWAP2 POP SWAP1 SLOAD SWAP1 PUSH2 0x100 EXP SWAP1 DIV PUSH20 0xFFFFFFFFFFFFFFFFFFFFFFFFFFFFFFFFFFFFFFFF AND DUP2 JUMP JUMPDEST PUSH1 0x3 PUSH1 0x20 MSTORE DUP1 PUSH1 0x0 MSTORE PUSH1 0x40 PUSH1 0x0 KECCAK256 PUSH1 0x0 SWAP2 POP SWAP1 POP DUP1 PUSH1 0x0 ADD SLOAD SWAP1 DUP1 PUSH1 0x1 ADD PUSH1 0x0 SWAP1 SLOAD SWAP1 PUSH2 0x100 EXP SWAP1 DIV PUSH20 0xFFFFFFFFFFFFFFFFFFFFFFFFFFFFFFFFFFFFFFFF AND SWAP1 DUP1 PUSH1 0x2 ADD SLOAD SWAP1 DUP1 PUSH1 0x3 ADD SLOAD SWAP1 DUP1 PUSH1 0x4 ADD PUSH1 0x0 SWAP1 SLOAD SWAP1 PUSH2 0x100 EXP SWAP1 DIV PUSH1 0xFF AND SWAP1 DUP1 PUSH1 0x4 ADD PUSH1 0x1 SWAP1 SLOAD SWAP1 PUSH2 0x100 EXP SWAP1 DIV PUSH1 0xFF AND SWAP1 DUP1 PUSH1 0x5 ADD DUP1 SLOAD PUSH2 0x1652 SWAP1 PUSH2 0x3A2E JUMP JUMPDEST DUP1 PUSH1 0x1F ADD PUSH1 0x20 DUP1 SWAP2 DIV MUL PUSH1 0x20 ADD PUSH1 0x40 MLOAD SWAP1 DUP2 ADD PUSH1 0x40 MSTORE DUP1 SWAP3 SWAP2 SWAP1 DUP2 DUP2 MSTORE PUSH1 0x20 ADD DUP3 DUP1 SLOAD PUSH2 0x167E SWAP1 PUSH2 0x3A2E JUMP JUMPDEST DUP1 ISZERO PUSH2 0x16CB JUMPI DUP1 PUSH1 0x1F LT PUSH2 0x16A0 JUMPI PUSH2 0x100 DUP1 DUP4 SLOAD DIV MUL DUP4 MSTORE SWAP2 PUSH1 0x20 ADD SWAP2 PUSH2 0x16CB JUMP JUMPDEST DUP3 ADD SWAP2 SWAP1 PUSH1 0x0 MSTORE PUSH1 0x20 PUSH1 0x0 KECCAK256 SWAP1 JUMPDEST DUP2 SLOAD DUP2 MSTORE SWAP1 PUSH1 0x1 ADD SWAP1 PUSH1 0x20 ADD DUP1 DUP4 GT PUSH2 0x16AE JUMPI DUP3 SWAP1 SUB PUSH1 0x1F AND DUP3 ADD SWAP2 JUMPDEST POP POP POP POP POP SWAP1 DUP1 PUSH1 0x6 ADD SLOAD SWAP1 POP DUP9 JUMP JUMPDEST PUSH32 0x114E74F6EA3BD819998F78687BFCB11B140DA08E9B7D222FA9C1F1BA1F2AA122 DUP2 JUMP JUMPDEST PUSH32 0xA49807205CE4D355092EF5A8A18F56E8913CF4A201FBE287825B095693C21775 PUSH2 0x1729 DUP2 PUSH2 0x2504 JUMP JUMPDEST PUSH2 0x1731 PUSH2 0x2B54 JUMP JUMPDEST POP JUMP JUMPDEST CALLER PUSH20 0xFFFFFFFFFFFFFFFFFFFFFFFFFFFFFFFFFFFFFFFF AND PUSH1 0x3 PUSH1 0x0 DUP5 DUP2 MSTORE PUSH1 0x20 ADD SWAP1 DUP2 MSTORE PUSH1 0x20 ADD PUSH1 0x0 KECCAK256 PUSH1 0x1 ADD PUSH1 0x0 SWAP1 SLOAD SWAP1 PUSH2 0x100 EXP SWAP1 DIV PUSH20 0xFFFFFFFFFFFFFFFFFFFFFFFFFFFFFFFFFFFFFFFF AND PUSH20 0xFFFFFFFFFFFFFFFFFFFFFFFFFFFFFFFFFFFFFFFF AND EQ PUSH2 0x17D8 JUMPI PUSH1 0x40 MLOAD PUSH32 0x8C379A000000000000000000000000000000000000000000000000000000000 DUP2 MSTORE PUSH1 0x4 ADD PUSH2 0x17CF SWAP1 PUSH2 0x3AAB JUMP JUMPDEST PUSH1 0x40 MLOAD DUP1 SWAP2 SUB SWAP1 REVERT JUMPDEST PUSH1 0x0 PUSH20 0xFFFFFFFFFFFFFFFFFFFFFFFFFFFFFFFFFFFFFFFF AND DUP2 PUSH20 0xFFFFFFFFFFFFFFFFFFFFFFFFFFFFFFFFFFFFFFFF AND SUB PUSH2 0x1847 JUMPI PUSH1 0x40 MLOAD PUSH32 0x8C379A000000000000000000000000000000000000000000000000000000000 DUP2 MSTORE PUSH1 0x4 ADD PUSH2 0x183E SWAP1 PUSH2 0x3B17 JUMP JUMPDEST PUSH1 0x40 MLOAD DUP1 SWAP2 SUB SWAP1 REVERT JUMPDEST CALLER PUSH20 0xFFFFFFFFFFFFFFFFFFFFFFFFFFFFFFFFFFFFFFFF AND DUP2 PUSH20 0xFFFFFFFFFFFFFFFFFFFFFFFFFFFFFFFFFFFFFFFF AND SUB PUSH2 0x18B5 JUMPI PUSH1 0x40 MLOAD PUSH32 0x8C379A000000000000000000000000000000000000000000000000000000000 DUP2 MSTORE PUSH1 0x4 ADD PUSH2 0x18AC SWAP1 PUSH2 0x3B83 JUMP JUMPDEST PUSH1 0x40 MLOAD DUP1 SWAP2 SUB SWAP1 REVERT JUMPDEST PUSH1 0x7 PUSH1 0x0 DUP4 DUP2 MSTORE PUSH1 0x20 ADD SWAP1 DUP2 MSTORE PUSH1 0x20 ADD PUSH1 0x0 KECCAK256 DUP2 SWAP1 DUP1 PUSH1 0x1 DUP2 SLOAD ADD DUP1 DUP3 SSTORE DUP1 SWAP2 POP POP PUSH1 0x1 SWAP1 SUB SWAP1 PUSH1 0x0 MSTORE PUSH1 0x20 PUSH1 0x0 KECCAK256 ADD PUSH1 0x0 SWAP1 SWAP2 SWAP1 SWAP2 SWAP1 SWAP2 PUSH2 0x100 EXP DUP2 SLOAD DUP2 PUSH20 0xFFFFFFFFFFFFFFFFFFFFFFFFFFFFFFFFFFFFFFFF MUL NOT AND SWAP1 DUP4 PUSH20 0xFFFFFFFFFFFFFFFFFFFFFFFFFFFFFFFFFFFFFFFF AND MUL OR SWAP1 SSTORE POP DUP1 PUSH20 0xFFFFFFFFFFFFFFFFFFFFFFFFFFFFFFFFFFFFFFFF AND DUP3 PUSH32 0xDFD29CF87A6FD17A11DDB0053BBD9909617308A4F52602E97030F428065AD22C PUSH1 0x40 MLOAD PUSH1 0x40 MLOAD DUP1 SWAP2 SUB SWAP1 LOG3 POP POP JUMP JUMPDEST PUSH1 0x9 PUSH1 0x20 MSTORE DUP1 PUSH1 0x0 MSTORE PUSH1 0x40 PUSH1 0x0 KECCAK256 PUSH1 0x0 SWAP2 POP SLOAD SWAP1 PUSH2 0x100 EXP SWAP1 DIV PUSH20 0xFFFFFFFFFFFFFFFFFFFFFFFFFFFFFFFFFFFFFFFF AND DUP2 JUMP JUMPDEST PUSH1 0x0 DUP1 PUSH1 0x0 DUP5 DUP2 MSTORE PUSH1 0x20 ADD SWAP1 DUP2 MSTORE PUSH1 0x20 ADD PUSH1 0x0 KECCAK256 PUSH1 0x0 ADD PUSH1 0x0 DUP4 PUSH20 0xFFFFFFFFFFFFFFFFFFFFFFFFFFFFFFFFFFFFFFFF AND PUSH20 0xFFFFFFFFFFFFFFFFFFFFFFFFFFFFFFFFFFFFFFFF AND DUP2 MSTORE PUSH1 0x20 ADD SWAP1 DUP2 MSTORE PUSH1 0x20 ADD PUSH1 0x0 KECCAK256 PUSH1 0x0 SWAP1 SLOAD SWAP1 PUSH2 0x100 EXP SWAP1 DIV PUSH1 0xFF AND SWAP1 POP SWAP3 SWAP2 POP POP JUMP JUMPDEST PUSH1 0x0 PUSH2 0x1A18 PUSH2 0x2703 JUMP JUMPDEST PUSH2 0x1A20 PUSH2 0x2BB7 JUMP JUMPDEST PUSH1 0x6 PUSH1 0x0 DUP5 DUP2 MSTORE PUSH1 0x20 ADD SWAP1 DUP2 MSTORE PUSH1 0x20 ADD PUSH1 0x0 KECCAK256 PUSH1 0x0 SWAP1 SLOAD SWAP1 PUSH2 0x100 EXP SWAP1 DIV PUSH1 0xFF AND ISZERO PUSH2 0x1A81 JUMPI PUSH1 0x40 MLOAD PUSH32 0x8C379A000000000000000000000000000000000000000000000000000000000 DUP2 MSTORE PUSH1 0x4 ADD PUSH2 0x1A78 SWAP1 PUSH2 0x3BEF JUMP JUMPDEST PUSH1 0x40 MLOAD DUP1 SWAP2 SUB SWAP1 REVERT JUMPDEST PUSH1 0x0 DUP1 SHL PUSH1 0x4 PUSH1 0x0 CALLER PUSH20 0xFFFFFFFFFFFFFFFFFFFFFFFFFFFFFFFFFFFFFFFF AND PUSH20 0xFFFFFFFFFFFFFFFFFFFFFFFFFFFFFFFFFFFFFFFF AND DUP2 MSTORE PUSH1 0x20 ADD SWAP1 DUP2 MSTORE PUSH1 0x20 ADD PUSH1 0x0 KECCAK256 SLOAD EQ PUSH2 0x1B05 JUMPI PUSH1 0x40 MLOAD PUSH32 0x8C379A000000000000000000000000000000000000000000000000000000000 DUP2 MSTORE PUSH1 0x4 ADD PUSH2 0x1AFC SWAP1 PUSH2 0x3C5B JUMP JUMPDEST PUSH1 0x40 MLOAD DUP1 SWAP2 SUB SWAP1 REVERT JUMPDEST PUSH1 0x0 DUP4 CALLER TIMESTAMP PUSH1 0x40 MLOAD PUSH1 0x20 ADD PUSH2 0x1B1C SWAP4 SWAP3 SWAP2 SWAP1 PUSH2 0x3D05 JUMP JUMPDEST PUSH1 0x40 MLOAD PUSH1 0x20 DUP2 DUP4 SUB SUB DUP2 MSTORE SWAP1 PUSH1 0x40 MSTORE DUP1 MLOAD SWAP1 PUSH1 0x20 ADD KECCAK256 SWAP1 POP PUSH1 0x40 MLOAD DUP1 PUSH2 0x100 ADD PUSH1 0x40 MSTORE DUP1 DUP6 DUP2 MSTORE PUSH1 0x20 ADD CALLER PUSH20 0xFFFFFFFFFFFFFFFFFFFFFFFFFFFFFFFFFFFFFFFF AND DUP2 MSTORE PUSH1 0x20 ADD TIMESTAMP DUP2 MSTORE PUSH1 0x20 ADD TIMESTAMP DUP2 MSTORE PUSH1 0x20 ADD PUSH1 0x1 ISZERO ISZERO DUP2 MSTORE PUSH1 0x20 ADD PUSH1 0x0 ISZERO ISZERO DUP2 MSTORE PUSH1 0x20 ADD DUP5 DUP2 MSTORE PUSH1 0x20 ADD PUSH1 0x0 DUP2 MSTORE POP PUSH1 0x3 PUSH1 0x0 DUP4 DUP2 MSTORE PUSH1 0x20 ADD SWAP1 DUP2 MSTORE PUSH1 0x20 ADD PUSH1 0x0 KECCAK256 PUSH1 0x0 DUP3 ADD MLOAD DUP2 PUSH1 0x0 ADD SSTORE PUSH1 0x20 DUP3 ADD MLOAD DUP2 PUSH1 0x1 ADD PUSH1 0x0 PUSH2 0x100 EXP DUP2 SLOAD DUP2 PUSH20 0xFFFFFFFFFFFFFFFFFFFFFFFFFFFFFFFFFFFFFFFF MUL NOT AND SWAP1 DUP4 PUSH20 0xFFFFFFFFFFFFFFFFFFFFFFFFFFFFFFFFFFFFFFFF AND MUL OR SWAP1 SSTORE POP PUSH1 0x40 DUP3 ADD MLOAD DUP2 PUSH1 0x2 ADD SSTORE PUSH1 0x60 DUP3 ADD MLOAD DUP2 PUSH1 0x3 ADD SSTORE PUSH1 0x80 DUP3 ADD MLOAD DUP2 PUSH1 0x4 ADD PUSH1 0x0 PUSH2 0x100 EXP DUP2 SLOAD DUP2 PUSH1 0xFF MUL NOT AND SWAP1 DUP4 ISZERO ISZERO MUL OR SWAP1 SSTORE POP PUSH1 0xA0 DUP3 ADD MLOAD DUP2 PUSH1 0x4 ADD PUSH1 0x1 PUSH2 0x100 EXP DUP2 SLOAD DUP2 PUSH1 0xFF MUL NOT AND SWAP1 DUP4 ISZERO ISZERO MUL OR SWAP1 SSTORE POP PUSH1 0xC0 DUP3 ADD MLOAD DUP2 PUSH1 0x5 ADD SWAP1 DUP2 PUSH2 0x1C58 SWAP2 SWAP1 PUSH2 0x3EEE JUMP JUMPDEST POP PUSH1 0xE0 DUP3 ADD MLOAD DUP2 PUSH1 0x6 ADD SSTORE SWAP1 POP POP PUSH1 0x1 PUSH1 0x6 PUSH1 0x0 DUP7 DUP2 MSTORE PUSH1 0x20 ADD SWAP1 DUP2 MSTORE PUSH1 0x20 ADD PUSH1 0x0 KECCAK256 PUSH1 0x0 PUSH2 0x100 EXP DUP2 SLOAD DUP2 PUSH1 0xFF MUL NOT AND SWAP1 DUP4 ISZERO ISZERO MUL OR SWAP1 SSTORE POP DUP1 PUSH1 0x4 PUSH1 0x0 CALLER PUSH20 0xFFFFFFFFFFFFFFFFFFFFFFFFFFFFFFFFFFFFFFFF AND PUSH20 0xFFFFFFFFFFFFFFFFFFFFFFFFFFFFFFFFFFFFFFFF AND DUP2 MSTORE PUSH1 0x20 ADD SWAP1 DUP2 MSTORE PUSH1 0x20 ADD PUSH1 0x0 KECCAK256 DUP2 SWAP1 SSTORE POP PUSH1 0xB PUSH1 0x0 DUP2 SLOAD DUP1 SWAP3 SWAP2 SWAP1 PUSH2 0x1CE9 SWAP1 PUSH2 0x36EC JUMP JUMPDEST SWAP2 SWAP1 POP SSTORE POP CALLER PUSH20 0xFFFFFFFFFFFFFFFFFFFFFFFFFFFFFFFFFFFFFFFF AND DUP2 PUSH32 0xA562275CCE70E9FE9FD5428CAD175FB98C7DCD64810FDBECBDA36959E67FC1F1 TIMESTAMP PUSH1 0x40 MLOAD PUSH2 0x1D35 SWAP2 SWAP1 PUSH2 0x2F79 JUMP JUMPDEST PUSH1 0x40 MLOAD DUP1 SWAP2 SUB SWAP1 LOG3 DUP1 SWAP2 POP POP PUSH2 0x1D49 PUSH2 0x2BFD JUMP JUMPDEST SWAP3 SWAP2 POP POP JUMP JUMPDEST PUSH1 0x0 DUP1 SHL DUP2 JUMP JUMPDEST PUSH1 0x60 PUSH1 0x7 PUSH1 0x0 DUP4 DUP2 MSTORE PUSH1 0x20 ADD SWAP1 DUP2 MSTORE PUSH1 0x20 ADD PUSH1 0x0 KECCAK256 DUP1 SLOAD DUP1 PUSH1 0x20 MUL PUSH1 0x20 ADD PUSH1 0x40 MLOAD SWAP1 DUP2 ADD PUSH1 0x40 MSTORE DUP1 SWAP3 SWAP2 SWAP1 DUP2 DUP2 MSTORE PUSH1 0x20 ADD DUP3 DUP1 SLOAD DUP1 ISZERO PUSH2 0x1DEB JUMPI PUSH1 0x20 MUL DUP3 ADD SWAP2 SWAP1 PUSH1 0x0 MSTORE PUSH1 0x20 PUSH1 0x0 KECCAK256 SWAP1 JUMPDEST DUP2 PUSH1 0x0 SWAP1 SLOAD SWAP1 PUSH2 0x100 EXP SWAP1 DIV PUSH20 0xFFFFFFFFFFFFFFFFFFFFFFFFFFFFFFFFFFFFFFFF AND PUSH20 0xFFFFFFFFFFFFFFFFFFFFFFFFFFFFFFFFFFFFFFFF AND DUP2 MSTORE PUSH1 0x20 ADD SWAP1 PUSH1 0x1 ADD SWAP1 DUP1 DUP4 GT PUSH2 0x1DA1 JUMPI JUMPDEST POP POP POP POP POP SWAP1 POP SWAP2 SWAP1 POP JUMP JUMPDEST PUSH1 0x0 DUP1 PUSH1 0x0 DUP1 PUSH1 0x0 PUSH1 0x60 PUSH1 0x0 DUP1 PUSH1 0x3 PUSH1 0x0 DUP11 DUP2 MSTORE PUSH1 0x20 ADD SWAP1 DUP2 MSTORE PUSH1 0x20 ADD PUSH1 0x0 KECCAK256 PUSH1 0x40 MLOAD DUP1 PUSH2 0x100 ADD PUSH1 0x40 MSTORE SWAP1 DUP2 PUSH1 0x0 DUP3 ADD SLOAD DUP2 MSTORE PUSH1 0x20 ADD PUSH1 0x1 DUP3 ADD PUSH1 0x0 SWAP1 SLOAD SWAP1 PUSH2 0x100 EXP SWAP1 DIV PUSH20 0xFFFFFFFFFFFFFFFFFFFFFFFFFFFFFFFFFFFFFFFF AND PUSH20 0xFFFFFFFFFFFFFFFFFFFFFFFFFFFFFFFFFFFFFFFF AND PUSH20 0xFFFFFFFFFFFFFFFFFFFFFFFFFFFFFFFFFFFFFFFF AND DUP2 MSTORE PUSH1 0x20 ADD PUSH1 0x2 DUP3 ADD SLOAD DUP2 MSTORE PUSH1 0x20 ADD PUSH1 0x3 DUP3 ADD SLOAD DUP2 MSTORE PUSH1 0x20 ADD PUSH1 0x4 DUP3 ADD PUSH1 0x0 SWAP1 SLOAD SWAP1 PUSH2 0x100 EXP SWAP1 DIV PUSH1 0xFF AND ISZERO ISZERO ISZERO ISZERO DUP2 MSTORE PUSH1 0x20 ADD PUSH1 0x4 DUP3 ADD PUSH1 0x1 SWAP1 SLOAD SWAP1 PUSH2 0x100 EXP SWAP1 DIV PUSH1 0xFF AND ISZERO ISZERO ISZERO ISZERO DUP2 MSTORE PUSH1 0x20 ADD PUSH1 0x5 DUP3 ADD DUP1 SLOAD PUSH2 0x1EDD SWAP1 PUSH2 0x3A2E JUMP JUMPDEST DUP1 PUSH1 0x1F ADD PUSH1 0x20 DUP1 SWAP2 DIV MUL PUSH1 0x20 ADD PUSH1 0x40 MLOAD SWAP1 DUP2 ADD PUSH1 0x40 MSTORE DUP1 SWAP3 SWAP2 SWAP1 DUP2 DUP2 MSTORE PUSH1 0x20 ADD DUP3 DUP1 SLOAD PUSH2 0x1F09 SWAP1 PUSH2 0x3A2E JUMP JUMPDEST DUP1 ISZERO PUSH2 0x1F56 JUMPI DUP1 PUSH1 0x1F LT PUSH2 0x1F2B JUMPI PUSH2 0x100 DUP1 DUP4 SLOAD DIV MUL DUP4 MSTORE SWAP2 PUSH1 0x20 ADD SWAP2 PUSH2 0x1F56 JUMP JUMPDEST DUP3 ADD SWAP2 SWAP1 PUSH1 0x0 MSTORE PUSH1 0x20 PUSH1 0x0 KECCAK256 SWAP1 JUMPDEST DUP2 SLOAD DUP2 MSTORE SWAP1 PUSH1 0x1 ADD SWAP1 PUSH1 0x20 ADD DUP1 DUP4 GT PUSH2 0x1F39 JUMPI DUP3 SWAP1 SUB PUSH1 0x1F AND DUP3 ADD SWAP2 JUMPDEST POP POP POP POP POP DUP2 MSTORE PUSH1 0x20 ADD PUSH1 0x6 DUP3 ADD SLOAD DUP2 MSTORE POP POP SWAP1 POP DUP1 PUSH1 0x20 ADD MLOAD DUP2 PUSH1 0x40 ADD MLOAD DUP3 PUSH1 0x60 ADD MLOAD DUP4 PUSH1 0x80 ADD MLOAD DUP5 PUSH1 0xA0 ADD MLOAD DUP6 PUSH1 0xC0 ADD MLOAD DUP7 PUSH1 0xE0 ADD MLOAD SWAP8 POP SWAP8 POP SWAP8 POP SWAP8 POP SWAP8 POP SWAP8 POP SWAP8 POP POP SWAP2 SWAP4 SWAP6 SWAP8 SWAP1 SWAP3 SWAP5 SWAP7 POP JUMP JUMPDEST PUSH2 0x1FB0 PUSH2 0x2703 JUMP JUMPDEST CALLER PUSH20 0xFFFFFFFFFFFFFFFFFFFFFFFFFFFFFFFFFFFFFFFF AND PUSH1 0x3 PUSH1 0x0 DUP5 DUP2 MSTORE PUSH1 0x20 ADD SWAP1 DUP2 MSTORE PUSH1 0x20 ADD PUSH1 0x0 KECCAK256 PUSH1 0x1 ADD PUSH1 0x0 SWAP1 SLOAD SWAP1 PUSH2 0x100 EXP SWAP1 DIV PUSH20 0xFFFFFFFFFFFFFFFFFFFFFFFFFFFFFFFFFFFFFFFF AND PUSH20 0xFFFFFFFFFFFFFFFFFFFFFFFFFFFFFFFFFFFFFFFF AND EQ PUSH2 0x2054 JUMPI PUSH1 0x40 MLOAD PUSH32 0x8C379A000000000000000000000000000000000000000000000000000000000 DUP2 MSTORE PUSH1 0x4 ADD PUSH2 0x204B SWAP1 PUSH2 0x3AAB JUMP JUMPDEST PUSH1 0x40 MLOAD DUP1 SWAP2 SUB SWAP1 REVERT JUMPDEST PUSH1 0x3 PUSH1 0x0 DUP4 DUP2 MSTORE PUSH1 0x20 ADD SWAP1 DUP2 MSTORE PUSH1 0x20 ADD PUSH1 0x0 KECCAK256 PUSH1 0x4 ADD PUSH1 0x0 SWAP1 SLOAD SWAP1 PUSH2 0x100 EXP SWAP1 DIV PUSH1 0xFF AND PUSH2 0x20B7 JUMPI PUSH1 0x40 MLOAD PUSH32 0x8C379A000000000000000000000000000000000000000000000000000000000 DUP2 MSTORE PUSH1 0x4 ADD PUSH2 0x20AE SWAP1 PUSH2 0x35C5 JUMP JUMPDEST PUSH1 0x40 MLOAD DUP1 SWAP2 SUB SWAP1 REVERT JUMPDEST PUSH1 0x3 PUSH1 0x0 DUP4 DUP2 MSTORE PUSH1 0x20 ADD SWAP1 DUP2 MSTORE PUSH1 0x20 ADD PUSH1 0x0 KECCAK256 PUSH1 0x4 ADD PUSH1 0x1 SWAP1 SLOAD SWAP1 PUSH2 0x100 EXP SWAP1 DIV PUSH1 0xFF AND ISZERO PUSH2 0x211B JUMPI PUSH1 0x40 MLOAD PUSH32 0x8C379A000000000000000000000000000000000000000000000000000000000 DUP2 MSTORE PUSH1 0x4 ADD PUSH2 0x2112 SWAP1 PUSH2 0x3631 JUMP JUMPDEST PUSH1 0x40 MLOAD DUP1 SWAP2 SUB SWAP1 REVERT JUMPDEST DUP1 PUSH1 0x3 PUSH1 0x0 DUP5 DUP2 MSTORE PUSH1 0x20 ADD SWAP1 DUP2 MSTORE PUSH1 0x20 ADD PUSH1 0x0 KECCAK256 PUSH1 0x5 ADD SWAP1 DUP2 PUSH2 0x213E SWAP2 SWAP1 PUSH2 0x3EEE JUMP JUMPDEST POP TIMESTAMP PUSH1 0x3 PUSH1 0x0 DUP5 DUP2 MSTORE PUSH1 0x20 ADD SWAP1 DUP2 MSTORE PUSH1 0x20 ADD PUSH1 0x0 KECCAK256 PUSH1 0x3 ADD DUP2 SWAP1 SSTORE POP DUP2 PUSH32 0xECBB5145BB041A4A7EB6AB8AE51D0233BB6C0413068DE57B119161EB700D31EC TIMESTAMP PUSH1 0x40 MLOAD PUSH2 0x218A SWAP2 SWAP1 PUSH2 0x2F79 JUMP JUMPDEST PUSH1 0x40 MLOAD DUP1 SWAP2 SUB SWAP1 LOG2 POP POP JUMP JUMPDEST PUSH1 0xC SLOAD DUP2 JUMP JUMPDEST PUSH1 0x6 PUSH1 0x20 MSTORE DUP1 PUSH1 0x0 MSTORE PUSH1 0x40 PUSH1 0x0 KECCAK256 PUSH1 0x0 SWAP2 POP SLOAD SWAP1 PUSH2 0x100 EXP SWAP1 DIV PUSH1 0xFF AND DUP2 JUMP JUMPDEST PUSH1 0x5 PUSH1 0x20 MSTORE DUP2 PUSH1 0x0 MSTORE PUSH1 0x40 PUSH1 0x0 KECCAK256 DUP2 DUP2 SLOAD DUP2 LT PUSH2 0x21D8 JUMPI PUSH1 0x0 DUP1 REVERT JUMPDEST SWAP1 PUSH1 0x0 MSTORE PUSH1 0x20 PUSH1 0x0 KECCAK256 SWAP1 PUSH1 0x5 MUL ADD PUSH1 0x0 SWAP2 POP SWAP2 POP POP DUP1 PUSH1 0x0 ADD PUSH1 0x0 SWAP1 SLOAD SWAP1 PUSH2 0x100 EXP SWAP1 DIV PUSH20 0xFFFFFFFFFFFFFFFFFFFFFFFFFFFFFFFFFFFFFFFF AND SWAP1 DUP1 PUSH1 0x1 ADD SLOAD SWAP1 DUP1 PUSH1 0x2 ADD PUSH1 0x0 SWAP1 SLOAD SWAP1 PUSH2 0x100 EXP SWAP1 DIV PUSH1 0xFF AND SWAP1 DUP1 PUSH1 0x3 ADD SLOAD SWAP1 DUP1 PUSH1 0x4 ADD PUSH1 0x0 SWAP1 SLOAD SWAP1 PUSH2 0x100 EXP SWAP1 DIV PUSH1 0xFF AND SWAP1 POP DUP6 JUMP JUMPDEST PUSH2 0x2252 DUP3 PUSH2 0xB69 JUMP JUMPDEST PUSH2 0x225B DUP2 PUSH2 0x2504 JUMP JUMPDEST PUSH2 0x2265 DUP4 DUP4 PUSH2 0x2611 JUMP JUMPDEST POP POP POP POP JUMP JUMPDEST PUSH32 0xCE23C3E399818CFEE81A7AB0880F714E53D7672B08DF0FA62F2843416E1EA09 DUP2 JUMP JUMPDEST PUSH1 0x4 PUSH1 0x20 MSTORE DUP1 PUSH1 0x0 MSTORE PUSH1 0x40 PUSH1 0x0 KECCAK256 PUSH1 0x0 SWAP2 POP SWAP1 POP SLOAD DUP2 JUMP JUMPDEST PUSH1 0xB SLOAD DUP2 JUMP JUMPDEST CALLER PUSH20 0xFFFFFFFFFFFFFFFFFFFFFFFFFFFFFFFFFFFFFFFF AND PUSH1 0x3 PUSH1 0x0 DUP4 DUP2 MSTORE PUSH1 0x20 ADD SWAP1 DUP2 MSTORE PUSH1 0x20 ADD PUSH1 0x0 KECCAK256 PUSH1 0x1 ADD PUSH1 0x0 SWAP1 SLOAD SWAP1 PUSH2 0x100 EXP SWAP1 DIV PUSH20 0xFFFFFFFFFFFFFFFFFFFFFFFFFFFFFFFFFFFFFFFF AND PUSH20 0xFFFFFFFFFFFFFFFFFFFFFFFFFFFFFFFFFFFFFFFF AND EQ DUP1 PUSH2 0x2343 JUMPI POP PUSH2 0x2342 PUSH32 0xA49807205CE4D355092EF5A8A18F56E8913CF4A201FBE287825B095693C21775 CALLER PUSH2 0x19A4 JUMP JUMPDEST JUMPDEST PUSH2 0x2382 JUMPI PUSH1 0x40 MLOAD PUSH32 0x8C379A000000000000000000000000000000000000000000000000000000000 DUP2 MSTORE PUSH1 0x4 ADD PUSH2 0x2379 SWAP1 PUSH2 0x400C JUMP JUMPDEST PUSH1 0x40 MLOAD DUP1 SWAP2 SUB SWAP1 REVERT JUMPDEST PUSH1 0x3 PUSH1 0x0 DUP3 DUP2 MSTORE PUSH1 0x20 ADD SWAP1 DUP2 MSTORE PUSH1 0x20 ADD PUSH1 0x0 KECCAK256 PUSH1 0x4 ADD PUSH1 0x1 SWAP1 SLOAD SWAP1 PUSH2 0x100 EXP SWAP1 DIV PUSH1 0xFF AND ISZERO PUSH2 0x23E6 JUMPI PUSH1 0x40 MLOAD PUSH32 0x8C379A000000000000000000000000000000000000000000000000000000000 DUP2 MSTORE PUSH1 0x4 ADD PUSH2 0x23DD SWAP1 PUSH2 0x4078 JUMP JUMPDEST PUSH1 0x40 MLOAD DUP1 SWAP2 SUB SWAP1 REVERT JUMPDEST PUSH1 0x1 PUSH1 0x3 PUSH1 0x0 DUP4 DUP2 MSTORE PUSH1 0x20 ADD SWAP1 DUP2 MSTORE PUSH1 0x20 ADD PUSH1 0x0 KECCAK256 PUSH1 0x4 ADD PUSH1 0x1 PUSH2 0x100 EXP DUP2 SLOAD DUP2 PUSH1 0xFF MUL NOT AND SWAP1 DUP4 ISZERO ISZERO MUL OR SWAP1 SSTORE POP PUSH1 0x0 PUSH1 0x3 PUSH1 0x0 DUP4 DUP2 MSTORE PUSH1 0x20 ADD SWAP1 DUP2 MSTORE PUSH1 0x20 ADD PUSH1 0x0 KECCAK256 PUSH1 0x4 ADD PUSH1 0x0 PUSH2 0x100 EXP DUP2 SLOAD DUP2 PUSH1 0xFF MUL NOT AND SWAP1 DUP4 ISZERO ISZERO MUL OR SWAP1 SSTORE POP TIMESTAMP PUSH1 0x3 PUSH1 0x0 DUP4 DUP2 MSTORE PUSH1 0x20 ADD SWAP1 DUP2 MSTORE PUSH1 0x20 ADD PUSH1 0x0 KECCAK256 PUSH1 0x3 ADD DUP2 SWAP1 SSTORE POP DUP1 PUSH32 0xE8F853E0CCAEA1D1DDCCDB52DF484724AB80BDEE46310281F0D5DF1E3AB967C3 TIMESTAMP PUSH1 0x40 MLOAD PUSH2 0x248F SWAP2 SWAP1 PUSH2 0x2F79 JUMP JUMPDEST PUSH1 0x40 MLOAD DUP1 SWAP2 SUB SWAP1 LOG2 POP JUMP JUMPDEST PUSH1 0x0 PUSH32 0x1FFC9A700000000000000000000000000000000000000000000000000000000 PUSH28 0xFFFFFFFFFFFFFFFFFFFFFFFFFFFFFFFFFFFFFFFFFFFFFFFFFFFFFFFF NOT AND DUP3 PUSH28 0xFFFFFFFFFFFFFFFFFFFFFFFFFFFFFFFFFFFFFFFFFFFFFFFFFFFFFFFF NOT AND EQ SWAP1 POP SWAP2 SWAP1 POP JUMP JUMPDEST PUSH2 0x2515 DUP2 PUSH2 0x2510 PUSH2 0x2609 JUMP JUMPDEST PUSH2 0x2C06 JUMP JUMPDEST POP JUMP JUMPDEST PUSH1 0x0 PUSH2 0x2524 DUP4 DUP4 PUSH2 0x19A4 JUMP JUMPDEST PUSH2 0x25FE JUMPI PUSH1 0x1 PUSH1 0x0 DUP1 DUP6 DUP2 MSTORE PUSH1 0x20 ADD SWAP1 DUP2 MSTORE PUSH1 0x20 ADD PUSH1 0x0 KECCAK256 PUSH1 0x0 ADD PUSH1 0x0 DUP5 PUSH20 0xFFFFFFFFFFFFFFFFFFFFFFFFFFFFFFFFFFFFFFFF AND PUSH20 0xFFFFFFFFFFFFFFFFFFFFFFFFFFFFFFFFFFFFFFFF AND DUP2 MSTORE PUSH1 0x20 ADD SWAP1 DUP2 MSTORE PUSH1 0x20 ADD PUSH1 0x0 KECCAK256 PUSH1 0x0 PUSH2 0x100 EXP DUP2 SLOAD DUP2 PUSH1 0xFF MUL NOT AND SWAP1 DUP4 ISZERO ISZERO MUL OR SWAP1 SSTORE POP PUSH2 0x259B PUSH2 0x2609 JUMP JUMPDEST PUSH20 0xFFFFFFFFFFFFFFFFFFFFFFFFFFFFFFFFFFFFFFFF AND DUP3 PUSH20 0xFFFFFFFFFFFFFFFFFFFFFFFFFFFFFFFFFFFFFFFF AND DUP5 PUSH32 0x2F8788117E7EFF1D82E926EC794901D17C78024A50270940304540A733656F0D PUSH1 0x40 MLOAD PUSH1 0x40 MLOAD DUP1 SWAP2 SUB SWAP1 LOG4 PUSH1 0x1 SWAP1 POP PUSH2 0x2603 JUMP JUMPDEST PUSH1 0x0 SWAP1 POP JUMPDEST SWAP3 SWAP2 POP POP JUMP JUMPDEST PUSH1 0x0 CALLER SWAP1 POP SWAP1 JUMP JUMPDEST PUSH1 0x0 PUSH2 0x261D DUP4 DUP4 PUSH2 0x19A4 JUMP JUMPDEST ISZERO PUSH2 0x26F8 JUMPI PUSH1 0x0 DUP1 PUSH1 0x0 DUP6 DUP2 MSTORE PUSH1 0x20 ADD SWAP1 DUP2 MSTORE PUSH1 0x20 ADD PUSH1 0x0 KECCAK256 PUSH1 0x0 ADD PUSH1 0x0 DUP5 PUSH20 0xFFFFFFFFFFFFFFFFFFFFFFFFFFFFFFFFFFFFFFFF AND PUSH20 0xFFFFFFFFFFFFFFFFFFFFFFFFFFFFFFFFFFFFFFFF AND DUP2 MSTORE PUSH1 0x20 ADD SWAP1 DUP2 MSTORE PUSH1 0x20 ADD PUSH1 0x0 KECCAK256 PUSH1 0x0 PUSH2 0x100 EXP DUP2 SLOAD DUP2 PUSH1 0xFF MUL NOT AND SWAP1 DUP4 ISZERO ISZERO MUL OR SWAP1 SSTORE POP PUSH2 0x2695 PUSH2 0x2609 JUMP JUMPDEST PUSH20 0xFFFFFFFFFFFFFFFFFFFFFFFFFFFFFFFFFFFFFFFF AND DUP3 PUSH20 0xFFFFFFFFFFFFFFFFFFFFFFFFFFFFFFFFFFFFFFFF AND DUP5 PUSH32 0xF6391F5C32D9C69D2A47EA670B442974B53935D1EDC7FD64EB21E047A839171B PUSH1 0x40 MLOAD PUSH1 0x40 MLOAD DUP1 SWAP2 SUB SWAP1 LOG4 PUSH1 0x1 SWAP1 POP PUSH2 0x26FD JUMP JUMPDEST PUSH1 0x0 SWAP1 POP JUMPDEST SWAP3 SWAP2 POP POP JUMP JUMPDEST PUSH2 0x270B PUSH2 0x12D2 JUMP JUMPDEST ISZERO PUSH2 0x2742 JUMPI PUSH1 0x40 MLOAD PUSH32 0xD93C066500000000000000000000000000000000000000000000000000000000 DUP2 MSTORE PUSH1 0x4 ADD PUSH1 0x40 MLOAD DUP1 SWAP2 SUB SWAP1 REVERT JUMPDEST JUMP JUMPDEST PUSH2 0x274C PUSH2 0x2C57 JUMP JUMPDEST PUSH1 0x0 PUSH1 0x2 PUSH1 0x0 PUSH2 0x100 EXP DUP2 SLOAD DUP2 PUSH1 0xFF MUL NOT AND SWAP1 DUP4 ISZERO ISZERO MUL OR SWAP1 SSTORE POP PUSH32 0x5DB9EE0A495BF2E6FF9C91A7834C1BA4FDD244A5E8AA4E537BD38AEAE4B073AA PUSH2 0x2790 PUSH2 0x2609 JUMP JUMPDEST PUSH1 0x40 MLOAD PUSH2 0x279D SWAP2 SWAP1 PUSH2 0x302E JUMP JUMPDEST PUSH1 0x40 MLOAD DUP1 SWAP2 SUB SWAP1 LOG1 JUMP JUMPDEST PUSH1 0x0 DUP1 PUSH1 0x0 SWAP1 POP JUMPDEST PUSH1 0x7 PUSH1 0x0 DUP6 DUP2 MSTORE PUSH1 0x20 ADD SWAP1 DUP2 MSTORE PUSH1 0x20 ADD PUSH1 0x0 KECCAK256 DUP1 SLOAD SWAP1 POP DUP2 LT ISZERO PUSH2 0x286C JUMPI DUP3 PUSH20 0xFFFFFFFFFFFFFFFFFFFFFFFFFFFFFFFFFFFFFFFF AND PUSH1 0x7 PUSH1 0x0 DUP7 DUP2 MSTORE PUSH1 0x20 ADD SWAP1 DUP2 MSTORE PUSH1 0x20 ADD PUSH1 0x0 KECCAK256 DUP3 DUP2 SLOAD DUP2 LT PUSH2 0x2809 JUMPI PUSH2 0x2808 PUSH2 0x34DE JUMP JUMPDEST JUMPDEST SWAP1 PUSH1 0x0 MSTORE PUSH1 0x20 PUSH1 0x0 KECCAK256 ADD PUSH1 0x0 SWAP1 SLOAD SWAP1 PUSH2 0x100 EXP SWAP1 DIV PUSH20 0xFFFFFFFFFFFFFFFFFFFFFFFFFFFFFFFFFFFFFFFF AND PUSH20 0xFFFFFFFFFFFFFFFFFFFFFFFFFFFFFFFFFFFFFFFF AND SUB PUSH2 0x2859 JUMPI PUSH1 0x1 SWAP2 POP POP PUSH2 0x2872 JUMP JUMPDEST DUP1 DUP1 PUSH2 0x2864 SWAP1 PUSH2 0x36EC JUMP JUMPDEST SWAP2 POP POP PUSH2 0x27AF JUMP JUMPDEST POP PUSH1 0x0 SWAP1 POP JUMPDEST SWAP3 SWAP2 POP POP JUMP JUMPDEST PUSH1 0x0 PUSH1 0x3 PUSH1 0x0 DUP4 DUP2 MSTORE PUSH1 0x20 ADD SWAP1 DUP2 MSTORE PUSH1 0x20 ADD PUSH1 0x0 KECCAK256 PUSH1 0x1 ADD PUSH1 0x0 SWAP1 SLOAD SWAP1 PUSH2 0x100 EXP SWAP1 DIV PUSH20 0xFFFFFFFFFFFFFFFFFFFFFFFFFFFFFFFFFFFFFFFF AND SWAP1 POP PUSH1 0x0 PUSH1 0x9 PUSH1 0x0 DUP5 DUP2 MSTORE PUSH1 0x20 ADD SWAP1 DUP2 MSTORE PUSH1 0x20 ADD PUSH1 0x0 KECCAK256 PUSH1 0x0 SWAP1 SLOAD SWAP1 PUSH2 0x100 EXP SWAP1 DIV PUSH20 0xFFFFFFFFFFFFFFFFFFFFFFFFFFFFFFFFFFFFFFFF AND SWAP1 POP DUP1 PUSH1 0x3 PUSH1 0x0 DUP6 DUP2 MSTORE PUSH1 0x20 ADD SWAP1 DUP2 MSTORE PUSH1 0x20 ADD PUSH1 0x0 KECCAK256 PUSH1 0x1 ADD PUSH1 0x0 PUSH2 0x100 EXP DUP2 SLOAD DUP2 PUSH20 0xFFFFFFFFFFFFFFFFFFFFFFFFFFFFFFFFFFFFFFFF MUL NOT AND SWAP1 DUP4 PUSH20 0xFFFFFFFFFFFFFFFFFFFFFFFFFFFFFFFFFFFFFFFF AND MUL OR SWAP1 SSTORE POP TIMESTAMP PUSH1 0x3 PUSH1 0x0 DUP6 DUP2 MSTORE PUSH1 0x20 ADD SWAP1 DUP2 MSTORE PUSH1 0x20 ADD PUSH1 0x0 KECCAK256 PUSH1 0x3 ADD DUP2 SWAP1 SSTORE POP PUSH1 0x4 PUSH1 0x0 DUP4 PUSH20 0xFFFFFFFFFFFFFFFFFFFFFFFFFFFFFFFFFFFFFFFF AND PUSH20 0xFFFFFFFFFFFFFFFFFFFFFFFFFFFFFFFFFFFFFFFF AND DUP2 MSTORE PUSH1 0x20 ADD SWAP1 DUP2 MSTORE PUSH1 0x20 ADD PUSH1 0x0 KECCAK256 PUSH1 0x0 SWAP1 SSTORE DUP3 PUSH1 0x4 PUSH1 0x0 DUP4 PUSH20 0xFFFFFFFFFFFFFFFFFFFFFFFFFFFFFFFFFFFFFFFF AND PUSH20 0xFFFFFFFFFFFFFFFFFFFFFFFFFFFFFFFFFFFFFFFF AND DUP2 MSTORE PUSH1 0x20 ADD SWAP1 DUP2 MSTORE PUSH1 0x20 ADD PUSH1 0x0 KECCAK256 DUP2 SWAP1 SSTORE POP PUSH1 0x9 PUSH1 0x0 DUP5 DUP2 MSTORE PUSH1 0x20 ADD SWAP1 DUP2 MSTORE PUSH1 0x20 ADD PUSH1 0x0 KECCAK256 PUSH1 0x0 PUSH2 0x100 EXP DUP2 SLOAD SWAP1 PUSH20 0xFFFFFFFFFFFFFFFFFFFFFFFFFFFFFFFFFFFFFFFF MUL NOT AND SWAP1 SSTORE PUSH1 0x0 PUSH1 0xA PUSH1 0x0 DUP6 DUP2 MSTORE PUSH1 0x20 ADD SWAP1 DUP2 MSTORE PUSH1 0x20 ADD PUSH1 0x0 KECCAK256 DUP2 SWAP1 SSTORE POP PUSH1 0x0 JUMPDEST PUSH1 0x7 PUSH1 0x0 DUP6 DUP2 MSTORE PUSH1 0x20 ADD SWAP1 DUP2 MSTORE PUSH1 0x20 ADD PUSH1 0x0 KECCAK256 DUP1 SLOAD SWAP1 POP DUP2 LT ISZERO PUSH2 0x2B14 JUMPI PUSH1 0x8 PUSH1 0x0 DUP6 DUP2 MSTORE PUSH1 0x20 ADD SWAP1 DUP2 MSTORE PUSH1 0x20 ADD PUSH1 0x0 KECCAK256 PUSH1 0x0 PUSH1 0x7 PUSH1 0x0 DUP8 DUP2 MSTORE PUSH1 0x20 ADD SWAP1 DUP2 MSTORE PUSH1 0x20 ADD PUSH1 0x0 KECCAK256 DUP4 DUP2 SLOAD DUP2 LT PUSH2 0x2A8C JUMPI PUSH2 0x2A8B PUSH2 0x34DE JUMP JUMPDEST JUMPDEST SWAP1 PUSH1 0x0 MSTORE PUSH1 0x20 PUSH1 0x0 KECCAK256 ADD PUSH1 0x0 SWAP1 SLOAD SWAP1 PUSH2 0x100 EXP SWAP1 DIV PUSH20 0xFFFFFFFFFFFFFFFFFFFFFFFFFFFFFFFFFFFFFFFF AND PUSH20 0xFFFFFFFFFFFFFFFFFFFFFFFFFFFFFFFFFFFFFFFF AND PUSH20 0xFFFFFFFFFFFFFFFFFFFFFFFFFFFFFFFFFFFFFFFF AND DUP2 MSTORE PUSH1 0x20 ADD SWAP1 DUP2 MSTORE PUSH1 0x20 ADD PUSH1 0x0 KECCAK256 PUSH1 0x0 PUSH2 0x100 EXP DUP2 SLOAD SWAP1 PUSH1 0xFF MUL NOT AND SWAP1 SSTORE DUP1 DUP1 PUSH2 0x2B0C SWAP1 PUSH2 0x36EC JUMP JUMPDEST SWAP2 POP POP PUSH2 0x2A34 JUMP JUMPDEST POP DUP3 PUSH32 0x5681C2F349EEF092CE8AA1414187C689B0FF39C2A4321F4D0F24C36D9B21162F DUP4 DUP4 PUSH1 0x40 MLOAD PUSH2 0x2B47 SWAP3 SWAP2 SWAP1 PUSH2 0x4098 JUMP JUMPDEST PUSH1 0x40 MLOAD DUP1 SWAP2 SUB SWAP1 LOG2 POP POP POP JUMP JUMPDEST PUSH2 0x2B5C PUSH2 0x2703 JUMP JUMPDEST PUSH1 0x1 PUSH1 0x2 PUSH1 0x0 PUSH2 0x100 EXP DUP2 SLOAD DUP2 PUSH1 0xFF MUL NOT AND SWAP1 DUP4 ISZERO ISZERO MUL OR SWAP1 SSTORE POP PUSH32 0x62E78CEA01BEE320CD4E420270B5EA74000D11B0C9F74754EBDBFC544B05A258 PUSH2 0x2BA0 PUSH2 0x2609 JUMP JUMPDEST PUSH1 0x40 MLOAD PUSH2 0x2BAD SWAP2 SWAP1 PUSH2 0x302E JUMP JUMPDEST PUSH1 0x40 MLOAD DUP1 SWAP2 SUB SWAP1 LOG1 JUMP JUMPDEST PUSH1 0x2 PUSH1 0x1 SLOAD SUB PUSH2 0x2BF3 JUMPI PUSH1 0x40 MLOAD PUSH32 0x3EE5AEB500000000000000000000000000000000000000000000000000000000 DUP2 MSTORE PUSH1 0x4 ADD PUSH1 0x40 MLOAD DUP1 SWAP2 SUB SWAP1 REVERT JUMPDEST PUSH1 0x2 PUSH1 0x1 DUP2 SWAP1 SSTORE POP JUMP JUMPDEST PUSH1 0x1 DUP1 DUP2 SWAP1 SSTORE POP JUMP JUMPDEST PUSH2 0x2C10 DUP3 DUP3 PUSH2 0x19A4 JUMP JUMPDEST PUSH2 0x2C53 JUMPI DUP1 DUP3 PUSH1 0x40 MLOAD PUSH32 0xE2517D3F00000000000000000000000000000000000000000000000000000000 DUP2 MSTORE PUSH1 0x4 ADD PUSH2 0x2C4A SWAP3 SWAP2 SWAP1 PUSH2 0x40C1 JUMP JUMPDEST PUSH1 0x40 MLOAD DUP1 SWAP2 SUB SWAP1 REVERT JUMPDEST POP POP JUMP JUMPDEST PUSH2 0x2C5F PUSH2 0x12D2 JUMP JUMPDEST PUSH2 0x2C95 JUMPI PUSH1 0x40 MLOAD PUSH32 0x8DFC202B00000000000000000000000000000000000000000000000000000000 DUP2 MSTORE PUSH1 0x4 ADD PUSH1 0x40 MLOAD DUP1 SWAP2 SUB SWAP1 REVERT JUMPDEST JUMP JUMPDEST PUSH1 0x0 PUSH1 0x40 MLOAD SWAP1 POP SWAP1 JUMP JUMPDEST PUSH1 0x0 DUP1 REVERT JUMPDEST PUSH1 0x0 DUP1 REVERT JUMPDEST PUSH1 0x0 PUSH32 0xFFFFFFFF00000000000000000000000000000000000000000000000000000000 DUP3 AND SWAP1 POP SWAP2 SWAP1 POP JUMP JUMPDEST PUSH2 0x2CE0 DUP2 PUSH2 0x2CAB JUMP JUMPDEST DUP2 EQ PUSH2 0x2CEB JUMPI PUSH1 0x0 DUP1 REVERT JUMPDEST POP JUMP JUMPDEST PUSH1 0x0 DUP2 CALLDATALOAD SWAP1 POP PUSH2 0x2CFD DUP2 PUSH2 0x2CD7 JUMP JUMPDEST SWAP3 SWAP2 POP POP JUMP JUMPDEST PUSH1 0x0 PUSH1 0x20 DUP3 DUP5 SUB SLT ISZERO PUSH2 0x2D19 JUMPI PUSH2 0x2D18 PUSH2 0x2CA1 JUMP JUMPDEST JUMPDEST PUSH1 0x0 PUSH2 0x2D27 DUP5 DUP3 DUP6 ADD PUSH2 0x2CEE JUMP JUMPDEST SWAP2 POP POP SWAP3 SWAP2 POP POP JUMP JUMPDEST PUSH1 0x0 DUP2 ISZERO ISZERO SWAP1 POP SWAP2 SWAP1 POP JUMP JUMPDEST PUSH2 0x2D45 DUP2 PUSH2 0x2D30 JUMP JUMPDEST DUP3 MSTORE POP POP JUMP JUMPDEST PUSH1 0x0 PUSH1 0x20 DUP3 ADD SWAP1 POP PUSH2 0x2D60 PUSH1 0x0 DUP4 ADD DUP5 PUSH2 0x2D3C JUMP JUMPDEST SWAP3 SWAP2 POP POP JUMP JUMPDEST PUSH1 0x0 DUP2 SWAP1 POP SWAP2 SWAP1 POP JUMP JUMPDEST PUSH2 0x2D79 DUP2 PUSH2 0x2D66 JUMP JUMPDEST DUP2 EQ PUSH2 0x2D84 JUMPI PUSH1 0x0 DUP1 REVERT JUMPDEST POP JUMP JUMPDEST PUSH1 0x0 DUP2 CALLDATALOAD SWAP1 POP PUSH2 0x2D96 DUP2 PUSH2 0x2D70 JUMP JUMPDEST SWAP3 SWAP2 POP POP JUMP JUMPDEST PUSH1 0x0 DUP2 SWAP1 POP SWAP2 SWAP1 POP JUMP JUMPDEST PUSH2 0x2DAF DUP2 PUSH2 0x2D9C JUMP JUMPDEST DUP2 EQ PUSH2 0x2DBA JUMPI PUSH1 0x0 DUP1 REVERT JUMPDEST POP JUMP JUMPDEST PUSH1 0x0 DUP2 CALLDATALOAD SWAP1 POP PUSH2 0x2DCC DUP2 PUSH2 0x2DA6 JUMP JUMPDEST SWAP3 SWAP2 POP POP JUMP JUMPDEST PUSH1 0x0 DUP1 PUSH1 0x40 DUP4 DUP6 SUB SLT ISZERO PUSH2 0x2DE9 JUMPI PUSH2 0x2DE8 PUSH2 0x2CA1 JUMP JUMPDEST JUMPDEST PUSH1 0x0 PUSH2 0x2DF7 DUP6 DUP3 DUP7 ADD PUSH2 0x2D87 JUMP JUMPDEST SWAP3 POP POP PUSH1 0x20 PUSH2 0x2E08 DUP6 DUP3 DUP7 ADD PUSH2 0x2DBD JUMP JUMPDEST SWAP2 POP POP SWAP3 POP SWAP3 SWAP1 POP JUMP JUMPDEST PUSH1 0x0 PUSH20 0xFFFFFFFFFFFFFFFFFFFFFFFFFFFFFFFFFFFFFFFF DUP3 AND SWAP1 POP SWAP2 SWAP1 POP JUMP JUMPDEST PUSH1 0x0 PUSH2 0x2E3D DUP3 PUSH2 0x2E12 JUMP JUMPDEST SWAP1 POP SWAP2 SWAP1 POP JUMP JUMPDEST PUSH2 0x2E4D DUP2 PUSH2 0x2E32 JUMP JUMPDEST DUP3 MSTORE POP POP JUMP JUMPDEST PUSH2 0x2E5C DUP2 PUSH2 0x2D9C JUMP JUMPDEST DUP3 MSTORE POP POP JUMP JUMPDEST PUSH1 0x0 PUSH1 0xFF DUP3 AND SWAP1 POP SWAP2 SWAP1 POP JUMP JUMPDEST PUSH2 0x2E78 DUP2 PUSH2 0x2E62 JUMP JUMPDEST DUP3 MSTORE POP POP JUMP JUMPDEST PUSH2 0x2E87 DUP2 PUSH2 0x2D66 JUMP JUMPDEST DUP3 MSTORE POP POP JUMP JUMPDEST PUSH1 0x0 PUSH1 0xA0 DUP3 ADD SWAP1 POP PUSH2 0x2EA2 PUSH1 0x0 DUP4 ADD DUP9 PUSH2 0x2E44 JUMP JUMPDEST PUSH2 0x2EAF PUSH1 0x20 DUP4 ADD DUP8 PUSH2 0x2E53 JUMP JUMPDEST PUSH2 0x2EBC PUSH1 0x40 DUP4 ADD DUP7 PUSH2 0x2E6F JUMP JUMPDEST PUSH2 0x2EC9 PUSH1 0x60 DUP4 ADD DUP6 PUSH2 0x2E7E JUMP JUMPDEST PUSH2 0x2ED6 PUSH1 0x80 DUP4 ADD DUP5 PUSH2 0x2D3C JUMP JUMPDEST SWAP7 SWAP6 POP POP POP POP POP POP JUMP JUMPDEST PUSH2 0x2EE9 DUP2 PUSH2 0x2E32 JUMP JUMPDEST DUP2 EQ PUSH2 0x2EF4 JUMPI PUSH1 0x0 DUP1 REVERT JUMPDEST POP JUMP JUMPDEST PUSH1 0x0 DUP2 CALLDATALOAD SWAP1 POP PUSH2 0x2F06 DUP2 PUSH2 0x2EE0 JUMP JUMPDEST SWAP3 SWAP2 POP POP JUMP JUMPDEST PUSH1 0x0 DUP1 PUSH1 0x40 DUP4 DUP6 SUB SLT ISZERO PUSH2 0x2F23 JUMPI PUSH2 0x2F22 PUSH2 0x2CA1 JUMP JUMPDEST JUMPDEST PUSH1 0x0 PUSH2 0x2F31 DUP6 DUP3 DUP7 ADD PUSH2 0x2D87 JUMP JUMPDEST SWAP3 POP POP PUSH1 0x20 PUSH2 0x2F42 DUP6 DUP3 DUP7 ADD PUSH2 0x2EF7 JUMP JUMPDEST SWAP2 POP POP SWAP3 POP SWAP3 SWAP1 POP JUMP JUMPDEST PUSH1 0x0 PUSH1 0x20 DUP3 DUP5 SUB SLT ISZERO PUSH2 0x2F62 JUMPI PUSH2 0x2F61 PUSH2 0x2CA1 JUMP JUMPDEST JUMPDEST PUSH1 0x0 PUSH2 0x2F70 DUP5 DUP3 DUP6 ADD PUSH2 0x2D87 JUMP JUMPDEST SWAP2 POP POP SWAP3 SWAP2 POP POP JUMP JUMPDEST PUSH1 0x0 PUSH1 0x20 DUP3 ADD SWAP1 POP PUSH2 0x2F8E PUSH1 0x0 DUP4 ADD DUP5 PUSH2 0x2E53 JUMP JUMPDEST SWAP3 SWAP2 POP POP JUMP JUMPDEST PUSH1 0x0 PUSH1 0x20 DUP3 ADD SWAP1 POP PUSH2 0x2FA9 PUSH1 0x0 DUP4 ADD DUP5 PUSH2 0x2E7E JUMP JUMPDEST SWAP3 SWAP2 POP POP JUMP JUMPDEST PUSH2 0x2FB8 DUP2 PUSH2 0x2E62 JUMP JUMPDEST DUP2 EQ PUSH2 0x2FC3 JUMPI PUSH1 0x0 DUP1 REVERT JUMPDEST POP JUMP JUMPDEST PUSH1 0x0 DUP2 CALLDATALOAD SWAP1 POP PUSH2 0x2FD5 DUP2 PUSH2 0x2FAF JUMP JUMPDEST SWAP3 SWAP2 POP POP JUMP JUMPDEST PUSH1 0x0 DUP1 PUSH1 0x0 PUSH1 0x60 DUP5 DUP7 SUB SLT ISZERO PUSH2 0x2FF4 JUMPI PUSH2 0x2FF3 PUSH2 0x2CA1 JUMP JUMPDEST JUMPDEST PUSH1 0x0 PUSH2 0x3002 DUP7 DUP3 DUP8 ADD PUSH2 0x2D87 JUMP JUMPDEST SWAP4 POP POP PUSH1 0x20 PUSH2 0x3013 DUP7 DUP3 DUP8 ADD PUSH2 0x2FC6 JUMP JUMPDEST SWAP3 POP POP PUSH1 0x40 PUSH2 0x3024 DUP7 DUP3 DUP8 ADD PUSH2 0x2D87 JUMP JUMPDEST SWAP2 POP POP SWAP3 POP SWAP3 POP SWAP3 JUMP JUMPDEST PUSH1 0x0 PUSH1 0x20 DUP3 ADD SWAP1 POP PUSH2 0x3043 PUSH1 0x0 DUP4 ADD DUP5 PUSH2 0x2E44 JUMP JUMPDEST SWAP3 SWAP2 POP POP JUMP JUMPDEST PUSH1 0x0 DUP2 MLOAD SWAP1 POP SWAP2 SWAP1 POP JUMP JUMPDEST PUSH1 0x0 DUP3 DUP3 MSTORE PUSH1 0x20 DUP3 ADD SWAP1 POP SWAP3 SWAP2 POP POP JUMP JUMPDEST PUSH1 0x0 JUMPDEST DUP4 DUP2 LT ISZERO PUSH2 0x3083 JUMPI DUP1 DUP3 ADD MLOAD DUP2 DUP5 ADD MSTORE PUSH1 0x20 DUP2 ADD SWAP1 POP PUSH2 0x3068 JUMP JUMPDEST PUSH1 0x0 DUP5 DUP5 ADD MSTORE POP POP POP POP JUMP JUMPDEST PUSH1 0x0 PUSH1 0x1F NOT PUSH1 0x1F DUP4 ADD AND SWAP1 POP SWAP2 SWAP1 POP JUMP JUMPDEST PUSH1 0x0 PUSH2 0x30AB DUP3 PUSH2 0x3049 JUMP JUMPDEST PUSH2 0x30B5 DUP2 DUP6 PUSH2 0x3054 JUMP JUMPDEST SWAP4 POP PUSH2 0x30C5 DUP2 DUP6 PUSH1 0x20 DUP7 ADD PUSH2 0x3065 JUMP JUMPDEST PUSH2 0x30CE DUP2 PUSH2 0x308F JUMP JUMPDEST DUP5 ADD SWAP2 POP POP SWAP3 SWAP2 POP POP JUMP JUMPDEST PUSH1 0x0 PUSH2 0x100 DUP3 ADD SWAP1 POP PUSH2 0x30EF PUSH1 0x0 DUP4 ADD DUP12 PUSH2 0x2E7E JUMP JUMPDEST PUSH2 0x30FC PUSH1 0x20 DUP4 ADD DUP11 PUSH2 0x2E44 JUMP JUMPDEST PUSH2 0x3109 PUSH1 0x40 DUP4 ADD DUP10 PUSH2 0x2E53 JUMP JUMPDEST PUSH2 0x3116 PUSH1 0x60 DUP4 ADD DUP9 PUSH2 0x2E53 JUMP JUMPDEST PUSH2 0x3123 PUSH1 0x80 DUP4 ADD DUP8 PUSH2 0x2D3C JUMP JUMPDEST PUSH2 0x3130 PUSH1 0xA0 DUP4 ADD DUP7 PUSH2 0x2D3C JUMP JUMPDEST DUP2 DUP2 SUB PUSH1 0xC0 DUP4 ADD MSTORE PUSH2 0x3142 DUP2 DUP6 PUSH2 0x30A0 JUMP JUMPDEST SWAP1 POP PUSH2 0x3151 PUSH1 0xE0 DUP4 ADD DUP5 PUSH2 0x2E53 JUMP JUMPDEST SWAP10 SWAP9 POP POP POP POP POP POP POP POP POP JUMP JUMPDEST PUSH1 0x0 DUP1 REVERT JUMPDEST PUSH1 0x0 DUP1 REVERT JUMPDEST PUSH32 0x4E487B7100000000000000000000000000000000000000000000000000000000 PUSH1 0x0 MSTORE PUSH1 0x41 PUSH1 0x4 MSTORE PUSH1 0x24 PUSH1 0x0 REVERT JUMPDEST PUSH2 0x31A0 DUP3 PUSH2 0x308F JUMP JUMPDEST DUP2 ADD DUP2 DUP2 LT PUSH8 0xFFFFFFFFFFFFFFFF DUP3 GT OR ISZERO PUSH2 0x31BF JUMPI PUSH2 0x31BE PUSH2 0x3168 JUMP JUMPDEST JUMPDEST DUP1 PUSH1 0x40 MSTORE POP POP POP JUMP JUMPDEST PUSH1 0x0 PUSH2 0x31D2 PUSH2 0x2C97 JUMP JUMPDEST SWAP1 POP PUSH2 0x31DE DUP3 DUP3 PUSH2 0x3197 JUMP JUMPDEST SWAP2 SWAP1 POP JUMP JUMPDEST PUSH1 0x0 PUSH8 0xFFFFFFFFFFFFFFFF DUP3 GT ISZERO PUSH2 0x31FE JUMPI PUSH2 0x31FD PUSH2 0x3168 JUMP JUMPDEST JUMPDEST PUSH2 0x3207 DUP3 PUSH2 0x308F JUMP JUMPDEST SWAP1 POP PUSH1 0x20 DUP2 ADD SWAP1 POP SWAP2 SWAP1 POP JUMP JUMPDEST DUP3 DUP2 DUP4 CALLDATACOPY PUSH1 0x0 DUP4 DUP4 ADD MSTORE POP POP POP JUMP JUMPDEST PUSH1 0x0 PUSH2 0x3236 PUSH2 0x3231 DUP5 PUSH2 0x31E3 JUMP JUMPDEST PUSH2 0x31C8 JUMP JUMPDEST SWAP1 POP DUP3 DUP2 MSTORE PUSH1 0x20 DUP2 ADD DUP5 DUP5 DUP5 ADD GT ISZERO PUSH2 0x3252 JUMPI PUSH2 0x3251 PUSH2 0x3163 JUMP JUMPDEST JUMPDEST PUSH2 0x325D DUP5 DUP3 DUP6 PUSH2 0x3214 JUMP JUMPDEST POP SWAP4 SWAP3 POP POP POP JUMP JUMPDEST PUSH1 0x0 DUP3 PUSH1 0x1F DUP4 ADD SLT PUSH2 0x327A JUMPI PUSH2 0x3279 PUSH2 0x315E JUMP JUMPDEST JUMPDEST DUP2 CALLDATALOAD PUSH2 0x328A DUP5 DUP3 PUSH1 0x20 DUP7 ADD PUSH2 0x3223 JUMP JUMPDEST SWAP2 POP POP SWAP3 SWAP2 POP POP JUMP JUMPDEST PUSH1 0x0 DUP1 PUSH1 0x40 DUP4 DUP6 SUB SLT ISZERO PUSH2 0x32AA JUMPI PUSH2 0x32A9 PUSH2 0x2CA1 JUMP JUMPDEST JUMPDEST PUSH1 0x0 PUSH2 0x32B8 DUP6 DUP3 DUP7 ADD PUSH2 0x2D87 JUMP JUMPDEST SWAP3 POP POP PUSH1 0x20 DUP4 ADD CALLDATALOAD PUSH8 0xFFFFFFFFFFFFFFFF DUP2 GT ISZERO PUSH2 0x32D9 JUMPI PUSH2 0x32D8 PUSH2 0x2CA6 JUMP JUMPDEST JUMPDEST PUSH2 0x32E5 DUP6 DUP3 DUP7 ADD PUSH2 0x3265 JUMP JUMPDEST SWAP2 POP POP SWAP3 POP SWAP3 SWAP1 POP JUMP JUMPDEST PUSH1 0x0 DUP2 MLOAD SWAP1 POP SWAP2 SWAP1 POP JUMP JUMPDEST PUSH1 0x0 DUP3 DUP3 MSTORE PUSH1 0x20 DUP3 ADD SWAP1 POP SWAP3 SWAP2 POP POP JUMP JUMPDEST PUSH1 0x0 DUP2 SWAP1 POP PUSH1 0x20 DUP3 ADD SWAP1 POP SWAP2 SWAP1 POP JUMP JUMPDEST PUSH2 0x3324 DUP2 PUSH2 0x2E32 JUMP JUMPDEST DUP3 MSTORE POP POP JUMP JUMPDEST PUSH1 0x0 PUSH2 0x3336 DUP4 DUP4 PUSH2 0x331B JUMP JUMPDEST PUSH1 0x20 DUP4 ADD SWAP1 POP SWAP3 SWAP2 POP POP JUMP JUMPDEST PUSH1 0x0 PUSH1 0x20 DUP3 ADD SWAP1 POP SWAP2 SWAP1 POP JUMP JUMPDEST PUSH1 0x0 PUSH2 0x335A DUP3 PUSH2 0x32EF JUMP JUMPDEST PUSH2 0x3364 DUP2 DUP6 PUSH2 0x32FA JUMP JUMPDEST SWAP4 POP PUSH2 0x336F DUP4 PUSH2 0x330B JUMP JUMPDEST DUP1 PUSH1 0x0 JUMPDEST DUP4 DUP2 LT ISZERO PUSH2 0x33A0 JUMPI DUP2 MLOAD PUSH2 0x3387 DUP9 DUP3 PUSH2 0x332A JUMP JUMPDEST SWAP8 POP PUSH2 0x3392 DUP4 PUSH2 0x3342 JUMP JUMPDEST SWAP3 POP POP PUSH1 0x1 DUP2 ADD SWAP1 POP PUSH2 0x3373 JUMP JUMPDEST POP DUP6 SWAP4 POP POP POP POP SWAP3 SWAP2 POP POP JUMP JUMPDEST PUSH1 0x0 PUSH1 0x20 DUP3 ADD SWAP1 POP DUP2 DUP2 SUB PUSH1 0x0 DUP4 ADD MSTORE PUSH2 0x33C7 DUP2 DUP5 PUSH2 0x334F JUMP JUMPDEST SWAP1 POP SWAP3 SWAP2 POP POP JUMP JUMPDEST PUSH1 0x0 PUSH1 0xE0 DUP3 ADD SWAP1 POP PUSH2 0x33E4 PUSH1 0x0 DUP4 ADD DUP11 PUSH2 0x2E44 JUMP JUMPDEST PUSH2 0x33F1 PUSH1 0x20 DUP4 ADD DUP10 PUSH2 0x2E53 JUMP JUMPDEST PUSH2 0x33FE PUSH1 0x40 DUP4 ADD DUP9 PUSH2 0x2E53 JUMP JUMPDEST PUSH2 0x340B PUSH1 0x60 DUP4 ADD DUP8 PUSH2 0x2D3C JUMP JUMPDEST PUSH2 0x3418 PUSH1 0x80 DUP4 ADD DUP7 PUSH2 0x2D3C JUMP JUMPDEST DUP2 DUP2 SUB PUSH1 0xA0 DUP4 ADD MSTORE PUSH2 0x342A DUP2 DUP6 PUSH2 0x30A0 JUMP JUMPDEST SWAP1 POP PUSH2 0x3439 PUSH1 0xC0 DUP4 ADD DUP5 PUSH2 0x2E53 JUMP JUMPDEST SWAP9 SWAP8 POP POP POP POP POP POP POP POP JUMP JUMPDEST PUSH1 0x0 PUSH1 0x20 DUP3 DUP5 SUB SLT ISZERO PUSH2 0x345B JUMPI PUSH2 0x345A PUSH2 0x2CA1 JUMP JUMPDEST JUMPDEST PUSH1 0x0 PUSH2 0x3469 DUP5 DUP3 DUP6 ADD PUSH2 0x2EF7 JUMP JUMPDEST SWAP2 POP POP SWAP3 SWAP2 POP POP JUMP JUMPDEST PUSH32 0x496E76616C696420696E64657800000000000000000000000000000000000000 PUSH1 0x0 DUP3 ADD MSTORE POP JUMP JUMPDEST PUSH1 0x0 PUSH2 0x34A8 PUSH1 0xD DUP4 PUSH2 0x3054 JUMP JUMPDEST SWAP2 POP PUSH2 0x34B3 DUP3 PUSH2 0x3472 JUMP JUMPDEST PUSH1 0x20 DUP3 ADD SWAP1 POP SWAP2 SWAP1 POP JUMP JUMPDEST PUSH1 0x0 PUSH1 0x20 DUP3 ADD SWAP1 POP DUP2 DUP2 SUB PUSH1 0x0 DUP4 ADD MSTORE PUSH2 0x34D7 DUP2 PUSH2 0x349B JUMP JUMPDEST SWAP1 POP SWAP2 SWAP1 POP JUMP JUMPDEST PUSH32 0x4E487B7100000000000000000000000000000000000000000000000000000000 PUSH1 0x0 MSTORE PUSH1 0x32 PUSH1 0x4 MSTORE PUSH1 0x24 PUSH1 0x0 REVERT JUMPDEST PUSH32 0x4E6F7420766572696669636174696F6E206F776E657200000000000000000000 PUSH1 0x0 DUP3 ADD MSTORE POP JUMP JUMPDEST PUSH1 0x0 PUSH2 0x3543 PUSH1 0x16 DUP4 PUSH2 0x3054 JUMP JUMPDEST SWAP2 POP PUSH2 0x354E DUP3 PUSH2 0x350D JUMP JUMPDEST PUSH1 0x20 DUP3 ADD SWAP1 POP SWAP2 SWAP1 POP JUMP JUMPDEST PUSH1 0x0 PUSH1 0x20 DUP3 ADD SWAP1 POP DUP2 DUP2 SUB PUSH1 0x0 DUP4 ADD MSTORE PUSH2 0x3572 DUP2 PUSH2 0x3536 JUMP JUMPDEST SWAP1 POP SWAP2 SWAP1 POP JUMP JUMPDEST PUSH32 0x4964656E74697479206E6F742061637469766500000000000000000000000000 PUSH1 0x0 DUP3 ADD MSTORE POP JUMP JUMPDEST PUSH1 0x0 PUSH2 0x35AF PUSH1 0x13 DUP4 PUSH2 0x3054 JUMP JUMPDEST SWAP2 POP PUSH2 0x35BA DUP3 PUSH2 0x3579 JUMP JUMPDEST PUSH1 0x20 DUP3 ADD SWAP1 POP SWAP2 SWAP1 POP JUMP JUMPDEST PUSH1 0x0 PUSH1 0x20 DUP3 ADD SWAP1 POP DUP2 DUP2 SUB PUSH1 0x0 DUP4 ADD MSTORE PUSH2 0x35DE DUP2 PUSH2 0x35A2 JUMP JUMPDEST SWAP1 POP SWAP2 SWAP1 POP JUMP JUMPDEST PUSH32 0x4964656E74697479207265766F6B656400000000000000000000000000000000 PUSH1 0x0 DUP3 ADD MSTORE POP JUMP JUMPDEST PUSH1 0x0 PUSH2 0x361B PUSH1 0x10 DUP4 PUSH2 0x3054 JUMP JUMPDEST SWAP2 POP PUSH2 0x3626 DUP3 PUSH2 0x35E5 JUMP JUMPDEST PUSH1 0x20 DUP3 ADD SWAP1 POP SWAP2 SWAP1 POP JUMP JUMPDEST PUSH1 0x0 PUSH1 0x20 DUP3 ADD SWAP1 POP DUP2 DUP2 SUB PUSH1 0x0 DUP4 ADD MSTORE PUSH2 0x364A DUP2 PUSH2 0x360E JUMP JUMPDEST SWAP1 POP SWAP2 SWAP1 POP JUMP JUMPDEST PUSH32 0x496E76616C696420766572696669636174696F6E207479706500000000000000 PUSH1 0x0 DUP3 ADD MSTORE POP JUMP JUMPDEST PUSH1 0x0 PUSH2 0x3687 PUSH1 0x19 DUP4 PUSH2 0x3054 JUMP JUMPDEST SWAP2 POP PUSH2 0x3692 DUP3 PUSH2 0x3651 JUMP JUMPDEST PUSH1 0x20 DUP3 ADD SWAP1 POP SWAP2 SWAP1 POP JUMP JUMPDEST PUSH1 0x0 PUSH1 0x20 DUP3 ADD SWAP1 POP DUP2 DUP2 SUB PUSH1 0x0 DUP4 ADD MSTORE PUSH2 0x36B6 DUP2 PUSH2 0x367A JUMP JUMPDEST SWAP1 POP SWAP2 SWAP1 POP JUMP JUMPDEST PUSH32 0x4E487B7100000000000000000000000000000000000000000000000000000000 PUSH1 0x0 MSTORE PUSH1 0x11 PUSH1 0x4 MSTORE PUSH1 0x24 PUSH1 0x0 REVERT JUMPDEST PUSH1 0x0 PUSH2 0x36F7 DUP3 PUSH2 0x2D9C JUMP JUMPDEST SWAP2 POP PUSH32 0xFFFFFFFFFFFFFFFFFFFFFFFFFFFFFFFFFFFFFFFFFFFFFFFFFFFFFFFFFFFFFFFF DUP3 SUB PUSH2 0x3729 JUMPI PUSH2 0x3728 PUSH2 0x36BD JUMP JUMPDEST JUMPDEST PUSH1 0x1 DUP3 ADD SWAP1 POP SWAP2 SWAP1 POP JUMP JUMPDEST PUSH1 0x0 PUSH1 0x20 DUP3 ADD SWAP1 POP PUSH2 0x3749 PUSH1 0x0 DUP4 ADD DUP5 PUSH2 0x2E6F JUMP JUMPDEST SWAP3 SWAP2 POP POP JUMP JUMPDEST PUSH32 0x4E6F74206120677561726469616E000000000000000000000000000000000000 PUSH1 0x0 DUP3 ADD MSTORE POP JUMP JUMPDEST PUSH1 0x0 PUSH2 0x3785 PUSH1 0xE DUP4 PUSH2 0x3054 JUMP JUMPDEST SWAP2 POP PUSH2 0x3790 DUP3 PUSH2 0x374F JUMP JUMPDEST PUSH1 0x20 DUP3 ADD SWAP1 POP SWAP2 SWAP1 POP JUMP JUMPDEST PUSH1 0x0 PUSH1 0x20 DUP3 ADD SWAP1 POP DUP2 DUP2 SUB PUSH1 0x0 DUP4 ADD MSTORE PUSH2 0x37B4 DUP2 PUSH2 0x3778 JUMP JUMPDEST SWAP1 POP SWAP2 SWAP1 POP JUMP JUMPDEST PUSH32 0x4E6F2070656E64696E67207265636F7665727900000000000000000000000000 PUSH1 0x0 DUP3 ADD MSTORE POP JUMP JUMPDEST PUSH1 0x0 PUSH2 0x37F1 PUSH1 0x13 DUP4 PUSH2 0x3054 JUMP JUMPDEST SWAP2 POP PUSH2 0x37FC DUP3 PUSH2 0x37BB JUMP JUMPDEST PUSH1 0x20 DUP3 ADD SWAP1 POP SWAP2 SWAP1 POP JUMP JUMPDEST PUSH1 0x0 PUSH1 0x20 DUP3 ADD SWAP1 POP DUP2 DUP2 SUB PUSH1 0x0 DUP4 ADD MSTORE PUSH2 0x3820 DUP2 PUSH2 0x37E4 JUMP JUMPDEST SWAP1 POP SWAP2 SWAP1 POP JUMP JUMPDEST PUSH32 0x416C726561647920617070726F76656400000000000000000000000000000000 PUSH1 0x0 DUP3 ADD MSTORE POP JUMP JUMPDEST PUSH1 0x0 PUSH2 0x385D PUSH1 0x10 DUP4 PUSH2 0x3054 JUMP JUMPDEST SWAP2 POP PUSH2 0x3868 DUP3 PUSH2 0x3827 JUMP JUMPDEST PUSH1 0x20 DUP3 ADD SWAP1 POP SWAP2 SWAP1 POP JUMP JUMPDEST PUSH1 0x0 PUSH1 0x20 DUP3 ADD SWAP1 POP DUP2 DUP2 SUB PUSH1 0x0 DUP4 ADD MSTORE PUSH2 0x388C DUP2 PUSH2 0x3850 JUMP JUMPDEST SWAP1 POP SWAP2 SWAP1 POP JUMP JUMPDEST PUSH32 0x4E487B7100000000000000000000000000000000000000000000000000000000 PUSH1 0x0 MSTORE PUSH1 0x12 PUSH1 0x4 MSTORE PUSH1 0x24 PUSH1 0x0 REVERT JUMPDEST PUSH1 0x0 PUSH2 0x38CD DUP3 PUSH2 0x2D9C JUMP JUMPDEST SWAP2 POP PUSH2 0x38D8 DUP4 PUSH2 0x2D9C JUMP JUMPDEST SWAP3 POP DUP3 PUSH2 0x38E8 JUMPI PUSH2 0x38E7 PUSH2 0x3893 JUMP JUMPDEST JUMPDEST DUP3 DUP3 DIV SWAP1 POP SWAP3 SWAP2 POP POP JUMP JUMPDEST PUSH1 0x0 PUSH2 0x38FE DUP3 PUSH2 0x2D9C JUMP JUMPDEST SWAP2 POP PUSH2 0x3909 DUP4 PUSH2 0x2D9C JUMP JUMPDEST SWAP3 POP DUP3 DUP3 ADD SWAP1 POP DUP1 DUP3 GT ISZERO PUSH2 0x3921 JUMPI PUSH2 0x3920 PUSH2 0x36BD JUMP JUMPDEST JUMPDEST SWAP3 SWAP2 POP POP JUMP JUMPDEST PUSH32 0x496E76616C6964206E6577206F776E6572000000000000000000000000000000 PUSH1 0x0 DUP3 ADD MSTORE POP JUMP JUMPDEST PUSH1 0x0 PUSH2 0x395D PUSH1 0x11 DUP4 PUSH2 0x3054 JUMP JUMPDEST SWAP2 POP PUSH2 0x3968 DUP3 PUSH2 0x3927 JUMP JUMPDEST PUSH1 0x20 DUP3 ADD SWAP1 POP SWAP2 SWAP1 POP JUMP JUMPDEST PUSH1 0x0 PUSH1 0x20 DUP3 ADD SWAP1 POP DUP2 DUP2 SUB PUSH1 0x0 DUP4 ADD MSTORE PUSH2 0x398C DUP2 PUSH2 0x3950 JUMP JUMPDEST SWAP1 POP SWAP2 SWAP1 POP JUMP JUMPDEST PUSH32 0x5265636F7665727920616C72656164792070656E64696E670000000000000000 PUSH1 0x0 DUP3 ADD MSTORE POP JUMP JUMPDEST PUSH1 0x0 PUSH2 0x39C9 PUSH1 0x18 DUP4 PUSH2 0x3054 JUMP JUMPDEST SWAP2 POP PUSH2 0x39D4 DUP3 PUSH2 0x3993 JUMP JUMPDEST PUSH1 0x20 DUP3 ADD SWAP1 POP SWAP2 SWAP1 POP JUMP JUMPDEST PUSH1 0x0 PUSH1 0x20 DUP3 ADD SWAP1 POP DUP2 DUP2 SUB PUSH1 0x0 DUP4 ADD MSTORE PUSH2 0x39F8 DUP2 PUSH2 0x39BC JUMP JUMPDEST SWAP1 POP SWAP2 SWAP1 POP JUMP JUMPDEST PUSH32 0x4E487B7100000000000000000000000000000000000000000000000000000000 PUSH1 0x0 MSTORE PUSH1 0x22 PUSH1 0x4 MSTORE PUSH1 0x24 PUSH1 0x0 REVERT JUMPDEST PUSH1 0x0 PUSH1 0x2 DUP3 DIV SWAP1 POP PUSH1 0x1 DUP3 AND DUP1 PUSH2 0x3A46 JUMPI PUSH1 0x7F DUP3 AND SWAP2 POP JUMPDEST PUSH1 0x20 DUP3 LT DUP2 SUB PUSH2 0x3A59 JUMPI PUSH2 0x3A58 PUSH2 0x39FF JUMP JUMPDEST JUMPDEST POP SWAP2 SWAP1 POP JUMP JUMPDEST PUSH32 0x4E6F74206964656E74697479206F776E65720000000000000000000000000000 PUSH1 0x0 DUP3 ADD MSTORE POP JUMP JUMPDEST PUSH1 0x0 PUSH2 0x3A95 PUSH1 0x12 DUP4 PUSH2 0x3054 JUMP JUMPDEST SWAP2 POP PUSH2 0x3AA0 DUP3 PUSH2 0x3A5F JUMP JUMPDEST PUSH1 0x20 DUP3 ADD SWAP1 POP SWAP2 SWAP1 POP JUMP JUMPDEST PUSH1 0x0 PUSH1 0x20 DUP3 ADD SWAP1 POP DUP2 DUP2 SUB PUSH1 0x0 DUP4 ADD MSTORE PUSH2 0x3AC4 DUP2 PUSH2 0x3A88 JUMP JUMPDEST SWAP1 POP SWAP2 SWAP1 POP JUMP JUMPDEST PUSH32 0x496E76616C696420677561726469616E20616464726573730000000000000000 PUSH1 0x0 DUP3 ADD MSTORE POP JUMP JUMPDEST PUSH1 0x0 PUSH2 0x3B01 PUSH1 0x18 DUP4 PUSH2 0x3054 JUMP JUMPDEST SWAP2 POP PUSH2 0x3B0C DUP3 PUSH2 0x3ACB JUMP JUMPDEST PUSH1 0x20 DUP3 ADD SWAP1 POP SWAP2 SWAP1 POP JUMP JUMPDEST PUSH1 0x0 PUSH1 0x20 DUP3 ADD SWAP1 POP DUP2 DUP2 SUB PUSH1 0x0 DUP4 ADD MSTORE PUSH2 0x3B30 DUP2 PUSH2 0x3AF4 JUMP JUMPDEST SWAP1 POP SWAP2 SWAP1 POP JUMP JUMPDEST PUSH32 0x43616E6E6F742062652073656C66000000000000000000000000000000000000 PUSH1 0x0 DUP3 ADD MSTORE POP JUMP JUMPDEST PUSH1 0x0 PUSH2 0x3B6D PUSH1 0xE DUP4 PUSH2 0x3054 JUMP JUMPDEST SWAP2 POP PUSH2 0x3B78 DUP3 PUSH2 0x3B37 JUMP JUMPDEST PUSH1 0x20 DUP3 ADD SWAP1 POP SWAP2 SWAP1 POP JUMP JUMPDEST PUSH1 0x0 PUSH1 0x20 DUP3 ADD SWAP1 POP DUP2 DUP2 SUB PUSH1 0x0 DUP4 ADD MSTORE PUSH2 0x3B9C DUP2 PUSH2 0x3B60 JUMP JUMPDEST SWAP1 POP SWAP2 SWAP1 POP JUMP JUMPDEST PUSH32 0x4964656E7469747920616C726561647920657869737473000000000000000000 PUSH1 0x0 DUP3 ADD MSTORE POP JUMP JUMPDEST PUSH1 0x0 PUSH2 0x3BD9 PUSH1 0x17 DUP4 PUSH2 0x3054 JUMP JUMPDEST SWAP2 POP PUSH2 0x3BE4 DUP3 PUSH2 0x3BA3 JUMP JUMPDEST PUSH1 0x20 DUP3 ADD SWAP1 POP SWAP2 SWAP1 POP JUMP JUMPDEST PUSH1 0x0 PUSH1 0x20 DUP3 ADD SWAP1 POP DUP2 DUP2 SUB PUSH1 0x0 DUP4 ADD MSTORE PUSH2 0x3C08 DUP2 PUSH2 0x3BCC JUMP JUMPDEST SWAP1 POP SWAP2 SWAP1 POP JUMP JUMPDEST PUSH32 0x4164647265737320616C726561647920686173206964656E7469747900000000 PUSH1 0x0 DUP3 ADD MSTORE POP JUMP JUMPDEST PUSH1 0x0 PUSH2 0x3C45 PUSH1 0x1C DUP4 PUSH2 0x3054 JUMP JUMPDEST SWAP2 POP PUSH2 0x3C50 DUP3 PUSH2 0x3C0F JUMP JUMPDEST PUSH1 0x20 DUP3 ADD SWAP1 POP SWAP2 SWAP1 POP JUMP JUMPDEST PUSH1 0x0 PUSH1 0x20 DUP3 ADD SWAP1 POP DUP2 DUP2 SUB PUSH1 0x0 DUP4 ADD MSTORE PUSH2 0x3C74 DUP2 PUSH2 0x3C38 JUMP JUMPDEST SWAP1 POP SWAP2 SWAP1 POP JUMP JUMPDEST PUSH1 0x0 DUP2 SWAP1 POP SWAP2 SWAP1 POP JUMP JUMPDEST PUSH2 0x3C96 PUSH2 0x3C91 DUP3 PUSH2 0x2D66 JUMP JUMPDEST PUSH2 0x3C7B JUMP JUMPDEST DUP3 MSTORE POP POP JUMP JUMPDEST PUSH1 0x0 DUP2 PUSH1 0x60 SHL SWAP1 POP SWAP2 SWAP1 POP JUMP JUMPDEST PUSH1 0x0 PUSH2 0x3CB4 DUP3 PUSH2 0x3C9C JUMP JUMPDEST SWAP1 POP SWAP2 SWAP1 POP JUMP JUMPDEST PUSH1 0x0 PUSH2 0x3CC6 DUP3 PUSH2 0x3CA9 JUMP JUMPDEST SWAP1 POP SWAP2 SWAP1 POP JUMP JUMPDEST PUSH2 0x3CDE PUSH2 0x3CD9 DUP3 PUSH2 0x2E32 JUMP JUMPDEST PUSH2 0x3CBB JUMP JUMPDEST DUP3 MSTORE POP POP JUMP JUMPDEST PUSH1 0x0 DUP2 SWAP1 POP SWAP2 SWAP1 POP JUMP JUMPDEST PUSH2 0x3CFF PUSH2 0x3CFA DUP3 PUSH2 0x2D9C JUMP JUMPDEST PUSH2 0x3CE4 JUMP JUMPDEST DUP3 MSTORE POP POP JUMP JUMPDEST PUSH1 0x0 PUSH2 0x3D11 DUP3 DUP7 PUSH2 0x3C85 JUMP JUMPDEST PUSH1 0x20 DUP3 ADD SWAP2 POP PUSH2 0x3D21 DUP3 DUP6 PUSH2 0x3CCD JUMP JUMPDEST PUSH1 0x14 DUP3 ADD SWAP2 POP PUSH2 0x3D31 DUP3 DUP5 PUSH2 0x3CEE JUMP JUMPDEST PUSH1 0x20 DUP3 ADD SWAP2 POP DUP2 SWAP1 POP SWAP5 SWAP4 POP POP POP POP JUMP JUMPDEST PUSH1 0x0 DUP2 SWAP1 POP DUP2 PUSH1 0x0 MSTORE PUSH1 0x20 PUSH1 0x0 KECCAK256 SWAP1 POP SWAP2 SWAP1 POP JUMP JUMPDEST PUSH1 0x0 PUSH1 0x20 PUSH1 0x1F DUP4 ADD DIV SWAP1 POP SWAP2 SWAP1 POP JUMP JUMPDEST PUSH1 0x0 DUP3 DUP3 SHL SWAP1 POP SWAP3 SWAP2 POP POP JUMP JUMPDEST PUSH1 0x0 PUSH1 0x8 DUP4 MUL PUSH2 0x3DA4 PUSH32 0xFFFFFFFFFFFFFFFFFFFFFFFFFFFFFFFFFFFFFFFFFFFFFFFFFFFFFFFFFFFFFFFF DUP3 PUSH2 0x3D67 JUMP JUMPDEST PUSH2 0x3DAE DUP7 DUP4 PUSH2 0x3D67 JUMP JUMPDEST SWAP6 POP DUP1 NOT DUP5 AND SWAP4 POP DUP1 DUP7 AND DUP5 OR SWAP3 POP POP POP SWAP4 SWAP3 POP POP POP JUMP JUMPDEST PUSH1 0x0 DUP2 SWAP1 POP SWAP2 SWAP1 POP JUMP JUMPDEST PUSH1 0x0 PUSH2 0x3DEB PUSH2 0x3DE6 PUSH2 0x3DE1 DUP5 PUSH2 0x2D9C JUMP JUMPDEST PUSH2 0x3DC6 JUMP JUMPDEST PUSH2 0x2D9C JUMP JUMPDEST SWAP1 POP SWAP2 SWAP1 POP JUMP JUMPDEST PUSH1 0x0 DUP2 SWAP1 POP SWAP2 SWAP1 POP JUMP JUMPDEST PUSH2 0x3E05 DUP4 PUSH2 0x3DD0 JUMP JUMPDEST PUSH2 0x3E19 PUSH2 0x3E11 DUP3 PUSH2 0x3DF2 JUMP JUMPDEST DUP5 DUP5 SLOAD PUSH2 0x3D74 JUMP JUMPDEST DUP3 SSTORE POP POP POP POP JUMP JUMPDEST PUSH1 0x0 SWAP1 JUMP JUMPDEST PUSH2 0x3E2E PUSH2 0x3E21 JUMP JUMPDEST PUSH2 0x3E39 DUP2 DUP5 DUP5 PUSH2 0x3DFC JUMP JUMPDEST POP POP POP JUMP JUMPDEST JUMPDEST DUP2 DUP2 LT ISZERO PUSH2 0x3E5D JUMPI PUSH2 0x3E52 PUSH1 0x0 DUP3 PUSH2 0x3E26 JUMP JUMPDEST PUSH1 0x1 DUP2 ADD SWAP1 POP PUSH2 0x3E3F JUMP JUMPDEST POP POP JUMP JUMPDEST PUSH1 0x1F DUP3 GT ISZERO PUSH2 0x3EA2 JUMPI PUSH2 0x3E73 DUP2 PUSH2 0x3D42 JUMP JUMPDEST PUSH2 0x3E7C DUP5 PUSH2 0x3D57 JUMP JUMPDEST DUP2 ADD PUSH1 0x20 DUP6 LT ISZERO PUSH2 0x3E8B JUMPI DUP2 SWAP1 POP JUMPDEST PUSH2 0x3E9F PUSH2 0x3E97 DUP6 PUSH2 0x3D57 JUMP JUMPDEST DUP4 ADD DUP3 PUSH2 0x3E3E JUMP JUMPDEST POP POP JUMPDEST POP POP POP JUMP JUMPDEST PUSH1 0x0 DUP3 DUP3 SHR SWAP1 POP SWAP3 SWAP2 POP POP JUMP JUMPDEST PUSH1 0x0 PUSH2 0x3EC5 PUSH1 0x0 NOT DUP5 PUSH1 0x8 MUL PUSH2 0x3EA7 JUMP JUMPDEST NOT DUP1 DUP4 AND SWAP2 POP POP SWAP3 SWAP2 POP POP JUMP JUMPDEST PUSH1 0x0 PUSH2 0x3EDE DUP4 DUP4 PUSH2 0x3EB4 JUMP JUMPDEST SWAP2 POP DUP3 PUSH1 0x2 MUL DUP3 OR SWAP1 POP SWAP3 SWAP2 POP POP JUMP JUMPDEST PUSH2 0x3EF7 DUP3 PUSH2 0x3049 JUMP JUMPDEST PUSH8 0xFFFFFFFFFFFFFFFF DUP2 GT ISZERO PUSH2 0x3F10 JUMPI PUSH2 0x3F0F PUSH2 0x3168 JUMP JUMPDEST JUMPDEST PUSH2 0x3F1A DUP3 SLOAD PUSH2 0x3A2E JUMP JUMPDEST PUSH2 0x3F25 DUP3 DUP3 DUP6 PUSH2 0x3E61 JUMP JUMPDEST PUSH1 0x0 PUSH1 0x20 SWAP1 POP PUSH1 0x1F DUP4 GT PUSH1 0x1 DUP2 EQ PUSH2 0x3F58 JUMPI PUSH1 0x0 DUP5 ISZERO PUSH2 0x3F46 JUMPI DUP3 DUP8 ADD MLOAD SWAP1 POP JUMPDEST PUSH2 0x3F50 DUP6 DUP3 PUSH2 0x3ED2 JUMP JUMPDEST DUP7 SSTORE POP PUSH2 0x3FB8 JUMP JUMPDEST PUSH1 0x1F NOT DUP5 AND PUSH2 0x3F66 DUP7 PUSH2 0x3D42 JUMP JUMPDEST PUSH1 0x0 JUMPDEST DUP3 DUP2 LT ISZERO PUSH2 0x3F8E JUMPI DUP5 DUP10 ADD MLOAD DUP3 SSTORE PUSH1 0x1 DUP3 ADD SWAP2 POP PUSH1 0x20 DUP6 ADD SWAP5 POP PUSH1 0x20 DUP2 ADD SWAP1 POP PUSH2 0x3F69 JUMP JUMPDEST DUP7 DUP4 LT ISZERO PUSH2 0x3FAB JUMPI DUP5 DUP10 ADD MLOAD PUSH2 0x3FA7 PUSH1 0x1F DUP10 AND DUP3 PUSH2 0x3EB4 JUMP JUMPDEST DUP4 SSTORE POP JUMPDEST PUSH1 0x1 PUSH1 0x2 DUP9 MUL ADD DUP9 SSTORE POP POP POP JUMPDEST POP POP POP POP POP POP JUMP JUMPDEST PUSH32 0x4E6F7420617574686F72697A6564000000000000000000000000000000000000 PUSH1 0x0 DUP3 ADD MSTORE POP JUMP JUMPDEST PUSH1 0x0 PUSH2 0x3FF6 PUSH1 0xE DUP4 PUSH2 0x3054 JUMP JUMPDEST SWAP2 POP PUSH2 0x4001 DUP3 PUSH2 0x3FC0 JUMP JUMPDEST PUSH1 0x20 DUP3 ADD SWAP1 POP SWAP2 SWAP1 POP JUMP JUMPDEST PUSH1 0x0 PUSH1 0x20 DUP3 ADD SWAP1 POP DUP2 DUP2 SUB PUSH1 0x0 DUP4 ADD MSTORE PUSH2 0x4025 DUP2 PUSH2 0x3FE9 JUMP JUMPDEST SWAP1 POP SWAP2 SWAP1 POP JUMP JUMPDEST PUSH32 0x416C7265616479207265766F6B65640000000000000000000000000000000000 PUSH1 0x0 DUP3 ADD MSTORE POP JUMP JUMPDEST PUSH1 0x0 PUSH2 0x4062 PUSH1 0xF DUP4 PUSH2 0x3054 JUMP JUMPDEST SWAP2 POP PUSH2 0x406D DUP3 PUSH2 0x402C JUMP JUMPDEST PUSH1 0x20 DUP3 ADD SWAP1 POP SWAP2 SWAP1 POP JUMP JUMPDEST PUSH1 0x0 PUSH1 0x20 DUP3 ADD SWAP1 POP DUP2 DUP2 SUB PUSH1 0x0 DUP4 ADD MSTORE PUSH2 0x4091 DUP2 PUSH2 0x4055 JUMP JUMPDEST SWAP1 POP SWAP2 SWAP1 POP JUMP JUMPDEST PUSH1 0x0 PUSH1 0x40 DUP3 ADD SWAP1 POP PUSH2 0x40AD PUSH1 0x0 DUP4 ADD DUP6 PUSH2 0x2E44 JUMP JUMPDEST PUSH2 0x40BA PUSH1 0x20 DUP4 ADD DUP5 PUSH2 0x2E44 JUMP JUMPDEST SWAP4 SWAP3 POP POP POP JUMP JUMPDEST PUSH1 0x0 PUSH1 0x40 DUP3 ADD SWAP1 POP PUSH2 0x40D6 PUSH1 0x0 DUP4 ADD DUP6 PUSH2 0x2E44 JUMP JUMPDEST PUSH2 0x40E3 PUSH1 0x20 DUP4 ADD DUP5 PUSH2 0x2E7E JUMP JUMPDEST SWAP4 SWAP3 POP POP POP JUMP INVALID LOG2 PUSH5 0x6970667358 0x22 SLT KECCAK256 SWAP2 0xCD SWAP1 PUSH11 0x9C46BAD7B9D3218E1B3509 INVALID 0xA8 0xAC 0x4D 0x4F PUSH2 0x2E5A SWAP2 DELEGATECALL 0xD PUSH6 0xFF0EAA418264 PUSH20 0x6F6C634300081400330000000000000000000000 "},"methodIdentifiers":{"ADMIN_ROLE()":"75b238fc","DEFAULT_ADMIN_ROLE()":"a217fddf","ISSUER_ROLE()":"82aefa24","VERIFIER_ROLE()":"e7705db6","addGuardian(bytes32,address)":"85431596","addVerification(bytes32,uint8,bytes32)":"369ee8f4","addressToIdentity(address)":"eb4e9b09","approveRecovery(bytes32)":"484cc1d5","createIdentity(bytes32,string)":"9551dd70","getGuardians(bytes32)":"a4a3a4a3","getIdentity(bytes32)":"a7867212","getRoleAdmin(bytes32)":"248a9ca3","getVerification(bytes32,uint256)":"0a03ca5b","getVerificationCount(bytes32)":"5585863a","grantRole(bytes32,address)":"2f2ff15d","guardians(bytes32,uint256)":"790ca2dd","hasRole(bytes32,address)":"91d14854","identities(bytes32)":"81638e9b","identityHashExists(bytes32)":"c90a0c0d","initiateRecovery(bytes32,address)":"68147e36","pause()":"8456cb59","paused()":"5c975abb","pendingRecoveryAddress(bytes32)":"8e52fa7e","recoveryApprovalCount(bytes32)":"213a5c25","recoveryApprovals(bytes32,address)":"0a09185e","renounceRole(bytes32,address)":"36568abe","revokeIdentity(bytes32)":"fed888ba","revokeRole(bytes32,address)":"d547741f","revokeVerification(bytes32,uint256)":"0fa39676","supportsInterface(bytes4)":"01ffc9a7","totalIdentities()":"f5c5987b","totalVerifications()":"ac90c140","unpause()":"3f4ba83a","updateIdentity(bytes32,string)":"aaa55271","verifications(bytes32,uint256)":"d1e94e57","verifyOwnership(bytes32,address)":"4d41f49b"}}}}}