{
  "_format": "hh-sol-artifact-1",
  "contractName": "GlobalIdentityRegistry",
  "sourceName": "contracts/GlobalIdentityRegistry.sol",
  "abi": [
    {
      "inputs": [],
      "stateMutability": "nonpayable",
      "type": "constructor"
    },
    {
      "inputs": [],
      "name": "AccessControlBadConfirmation",
      "type": "error"
    },
    {
      "inputs": [
        {
          "internalType": "address",
          "name": "account",
          "type": "address"
        },
        {
          "internalType": "bytes32",
          "name": "neededRole",
          "type": "bytes32"
        }
      ],
      "name": "AccessControlUnauthorizedAccount",
      "type": "error"
    },
    {
      "inputs": [],
      "name": "EnforcedPause",
      "type": "error"
    },
    {
      "inputs": [],
      "name": "ExpectedPause",
      "type": "error"
    },
    {
      "inputs": [],
      "name": "ReentrancyGuardReentrantCall",
      "type": "error"
    },
    {
      "anonymous": false,
      "inputs": [
        {
          "indexed": true,
          "internalType": "bytes32",
          "name": "did",
          "type": "bytes32"
        },
        {
          "indexed": true,
          "internalType": "address",
          "name": "guardian",
          "type": "address"
        }
      ],
      "name": "GuardianAdded",
      "type": "event"
    },
    {
      "anonymous": false,
      "inputs": [
        {
          "indexed": true,
          "internalType": "bytes32",
          "name": "did",
          "type": "bytes32"
        },
        {
          "indexed": true,
          "internalType": "address",
          "name": "guardian",
          "type": "address"
        }
      ],
      "name": "GuardianRemoved",
      "type": "event"
    },
    {
      "anonymous": false,
      "inputs": [
        {
          "indexed": true,
          "internalType": "bytes32",
          "name": "did",
          "type": "bytes32"
        },
        {
          "indexed": true,
          "internalType": "address",
          "name": "owner",
          "type": "address"
        },
        {
          "indexed": false,
          "internalType": "uint256",
          "name": "timestamp",
          "type": "uint256"
        }
      ],
      "name": "IdentityCreated",
      "type": "event"
    },
    {
      "anonymous": false,
      "inputs": [
        {
          "indexed": true,
          "internalType": "bytes32",
          "name": "did",
          "type": "bytes32"
        },
        {
          "indexed": false,
          "internalType": "address",
          "name": "oldOwner",
          "type": "address"
        },
        {
          "indexed": false,
          "internalType": "address",
          "name": "newOwner",
          "type": "address"
        }
      ],
      "name": "IdentityRecovered",
      "type": "event"
    },
    {
      "anonymous": false,
      "inputs": [
        {
          "indexed": true,
          "internalType": "bytes32",
          "name": "did",
          "type": "bytes32"
        },
        {
          "indexed": false,
          "internalType": "uint256",
          "name": "timestamp",
          "type": "uint256"
        }
      ],
      "name": "IdentityRevoked",
      "type": "event"
    },
    {
      "anonymous": false,
      "inputs": [
        {
          "indexed": true,
          "internalType": "bytes32",
          "name": "did",
          "type": "bytes32"
        },
        {
          "indexed": false,
          "internalType": "uint256",
          "name": "timestamp",
          "type": "uint256"
        }
      ],
      "name": "IdentityUpdated",
      "type": "event"
    },
    {
      "anonymous": false,
      "inputs": [
        {
          "indexed": false,
          "internalType": "address",
          "name": "account",
          "type": "address"
        }
      ],
      "name": "Paused",
      "type": "event"
    },
    {
      "anonymous": false,
      "inputs": [
        {
          "indexed": true,
          "internalType": "bytes32",
          "name": "did",
          "type": "bytes32"
        },
        {
          "indexed": true,
          "internalType": "address",
          "name": "newOwner",
          "type": "address"
        }
      ],
      "name": "RecoveryInitiated",
      "type": "event"
    },
    {
      "anonymous": false,
      "inputs": [
        {
          "indexed": true,
          "internalType": "bytes32",
          "name": "role",
          "type": "bytes32"
        },
        {
          "indexed": true,
          "internalType": "bytes32",
          "name": "previousAdminRole",
          "type": "bytes32"
        },
        {
          "indexed": true,
          "internalType": "bytes32",
          "name": "newAdminRole",
          "type": "bytes32"
        }
      ],
      "name": "RoleAdminChanged",
      "type": "event"
    },
    {
      "anonymous": false,
      "inputs": [
        {
          "indexed": true,
          "internalType": "bytes32",
          "name": "role",
          "type": "bytes32"
        },
        {
          "indexed": true,
          "internalType": "address",
          "name": "account",
          "type": "address"
        },
        {
          "indexed": true,
          "internalType": "address",
          "name": "sender",
          "type": "address"
        }
      ],
      "name": "RoleGranted",
      "type": "event"
    },
    {
      "anonymous": false,
      "inputs": [
        {
          "indexed": true,
          "internalType": "bytes32",
          "name": "role",
          "type": "bytes32"
        },
        {
          "indexed": true,
          "internalType": "address",
          "name": "account",
          "type": "address"
        },
        {
          "indexed": true,
          "internalType": "address",
          "name": "sender",
          "type": "address"
        }
      ],
      "name": "RoleRevoked",
      "type": "event"
    },
    {
      "anonymous": false,
      "inputs": [
        {
          "indexed": false,
          "internalType": "address",
          "name": "account",
          "type": "address"
        }
      ],
      "name": "Unpaused",
      "type": "event"
    },
    {
      "anonymous": false,
      "inputs": [
        {
          "indexed": true,
          "internalType": "bytes32",
          "name": "did",
          "type": "bytes32"
        },
        {
          "indexed": true,
          "internalType": "address",
          "name": "verifier",
          "type": "address"
        },
        {
          "indexed": false,
          "internalType": "uint8",
          "name": "verificationType",
          "type": "uint8"
        }
      ],
      "name": "VerificationAdded",
      "type": "event"
    },
    {
      "anonymous": false,
      "inputs": [
        {
          "indexed": true,
          "internalType": "bytes32",
          "name": "did",
          "type": "bytes32"
        },
        {
          "indexed": false,
          "internalType": "uint256",
          "name": "verificationIndex",
          "type": "uint256"
        }
      ],
      "name": "VerificationRevoked",
      "type": "event"
    },
    {
      "inputs": [],
      "name": "ADMIN_ROLE",
      "outputs": [
        {
          "internalType": "bytes32",
          "name": "",
          "type": "bytes32"
        }
      ],
      "stateMutability": "view",
      "type": "function"
    },
    {
      "inputs": [],
      "name": "DEFAULT_ADMIN_ROLE",
      "outputs": [
        {
          "internalType": "bytes32",
          "name": "",
          "type": "bytes32"
        }
      ],
      "stateMutability": "view",
      "type": "function"
    },
    {
      "inputs": [],
      "name": "ISSUER_ROLE",
      "outputs": [
        {
          "internalType": "bytes32",
          "name": "",
          "type": "bytes32"
        }
      ],
      "stateMutability": "view",
      "type": "function"
    },
    {
      "inputs": [],
      "name": "VERIFIER_ROLE",
      "outputs": [
        {
          "internalType": "bytes32",
          "name": "",
          "type": "bytes32"
        }
      ],
      "stateMutability": "view",
      "type": "function"
    },
    {
      "inputs": [
        {
          "internalType": "bytes32",
          "name": "_did",
          "type": "bytes32"
        },
        {
          "internalType": "address",
          "name": "_guardian",
          "type": "address"
        }
      ],
      "name": "addGuardian",
      "outputs": [],
      "stateMutability": "nonpayable",
      "type": "function"
    },
    {
      "inputs": [
        {
          "internalType": "bytes32",
          "name": "_did",
          "type": "bytes32"
        },
        {
          "internalType": "uint8",
          "name": "_verificationType",
          "type": "uint8"
        },
        {
          "internalType": "bytes32",
          "name": "_proofHash",
          "type": "bytes32"
        }
      ],
      "name": "addVerification",
      "outputs": [],
      "stateMutability": "nonpayable",
      "type": "function"
    },
    {
      "inputs": [
        {
          "internalType": "address",
          "name": "",
          "type": "address"
        }
      ],
      "name": "addressToIdentity",
      "outputs": [
        {
          "internalType": "bytes32",
          "name": "",
          "type": "bytes32"
        }
      ],
      "stateMutability": "view",
      "type": "function"
    },
    {
      "inputs": [
        {
          "internalType": "bytes32",
          "name": "_did",
          "type": "bytes32"
        }
      ],
      "name": "approveRecovery",
      "outputs": [],
      "stateMutability": "nonpayable",
      "type": "function"
    },
    {
      "inputs": [
        {
          "internalType": "bytes32",
          "name": "_identityHash",
          "type": "bytes32"
        },
        {
          "internalType": "string",
          "name": "_ipfsHash",
          "type": "string"
        }
      ],
      "name": "createIdentity",
      "outputs": [
        {
          "internalType": "bytes32",
          "name": "",
          "type": "bytes32"
        }
      ],
      "stateMutability": "nonpayable",
      "type": "function"
    },
    {
      "inputs": [
        {
          "internalType": "bytes32",
          "name": "_did",
          "type": "bytes32"
        }
      ],
      "name": "getGuardians",
      "outputs": [
        {
          "internalType": "address[]",
          "name": "",
          "type": "address[]"
        }
      ],
      "stateMutability": "view",
      "type": "function"
    },
    {
      "inputs": [
        {
          "internalType": "bytes32",
          "name": "_did",
          "type": "bytes32"
        }
      ],
      "name": "getIdentity",
      "outputs": [
        {
          "internalType": "address",
          "name": "owner",
          "type": "address"
        },
        {
          "internalType": "uint256",
          "name": "createdAt",
          "type": "uint256"
        },
        {
          "internalType": "uint256",
          "name": "lastUpdated",
          "type": "uint256"
        },
        {
          "internalType": "bool",
          "name": "isActive",
          "type": "bool"
        },
        {
          "internalType": "bool",
          "name": "isRevoked",
          "type": "bool"
        },
        {
          "internalType": "string",
          "name": "ipfsHash",
          "type": "string"
        },
        {
          "internalType": "uint256",
          "name": "verificationLevel",
          "type": "uint256"
        }
      ],
      "stateMutability": "view",
      "type": "function"
    },
    {
      "inputs": [
        {
          "internalType": "bytes32",
          "name": "role",
          "type": "bytes32"
        }
      ],
      "name": "getRoleAdmin",
      "outputs": [
        {
          "internalType": "bytes32",
          "name": "",
          "type": "bytes32"
        }
      ],
      "stateMutability": "view",
      "type": "function"
    },
    {
      "inputs": [
        {
          "internalType": "bytes32",
          "name": "_did",
          "type": "bytes32"
        },
        {
          "internalType": "uint256",
          "name": "_index",
          "type": "uint256"
        }
      ],
      "name": "getVerification",
      "outputs": [
        {
          "internalType": "address",
          "name": "verifier",
          "type": "address"
        },
        {
          "internalType": "uint256",
          "name": "timestamp",
          "type": "uint256"
        },
        {
          "internalType": "uint8",
          "name": "verificationType",
          "type": "uint8"
        },
        {
          "internalType": "bytes32",
          "name": "proofHash",
          "type": "bytes32"
        },
        {
          "internalType": "bool",
          "name": "isValid",
          "type": "bool"
        }
      ],
      "stateMutability": "view",
      "type": "function"
    },
    {
      "inputs": [
        {
          "internalType": "bytes32",
          "name": "_did",
          "type": "bytes32"
        }
      ],
      "name": "getVerificationCount",
      "outputs": [
        {
          "internalType": "uint256",
          "name": "",
          "type": "uint256"
        }
      ],
      "stateMutability": "view",
      "type": "function"
    },
    {
      "inputs": [
        {
          "internalType": "bytes32",
          "name": "role",
          "type": "bytes32"
        },
        {
          "internalType": "address",
          "name": "account",
          "type": "address"
        }
      ],
      "name": "grantRole",
      "outputs": [],
      "stateMutability": "nonpayable",
      "type": "function"
    },
    {
      "inputs": [
        {
          "internalType": "bytes32",
          "name": "",
          "type": "bytes32"
        },
        {
          "internalType": "uint256",
          "name": "",
          "type": "uint256"
        }
      ],
      "name": "guardians",
      "outputs": [
        {
          "internalType": "address",
          "name": "",
          "type": "address"
        }
      ],
      "stateMutability": "view",
      "type": "function"
    },
    {
      "inputs": [
        {
          "internalType": "bytes32",
          "name": "role",
          "type": "bytes32"
        },
        {
          "internalType": "address",
          "name": "account",
          "type": "address"
        }
      ],
      "name": "hasRole",
      "outputs": [
        {
          "internalType": "bool",
          "name": "",
          "type": "bool"
        }
      ],
      "stateMutability": "view",
      "type": "function"
    },
    {
      "inputs": [
        {
          "internalType": "bytes32",
          "name": "",
          "type": "bytes32"
        }
      ],
      "name": "identities",
      "outputs": [
        {
          "internalType": "bytes32",
          "name": "identityHash",
          "type": "bytes32"
        },
        {
          "internalType": "address",
          "name": "owner",
          "type": "address"
        },
        {
          "internalType": "uint256",
          "name": "createdAt",
          "type": "uint256"
        },
        {
          "internalType": "uint256",
          "name": "lastUpdated",
          "type": "uint256"
        },
        {
          "internalType": "bool",
          "name": "isActive",
          "type": "bool"
        },
        {
          "internalType": "bool",
          "name": "isRevoked",
          "type": "bool"
        },
        {
          "internalType": "string",
          "name": "ipfsHash",
          "type": "string"
        },
        {
          "internalType": "uint256",
          "name": "verificationLevel",
          "type": "uint256"
        }
      ],
      "stateMutability": "view",
      "type": "function"
    },
    {
      "inputs": [
        {
          "internalType": "bytes32",
          "name": "",
          "type": "bytes32"
        }
      ],
      "name": "identityHashExists",
      "outputs": [
        {
          "internalType": "bool",
          "name": "",
          "type": "bool"
        }
      ],
      "stateMutability": "view",
      "type": "function"
    },
    {
      "inputs": [
        {
          "internalType": "bytes32",
          "name": "_did",
          "type": "bytes32"
        },
        {
          "internalType": "address",
          "name": "_newOwner",
          "type": "address"
        }
      ],
      "name": "initiateRecovery",
      "outputs": [],
      "stateMutability": "nonpayable",
      "type": "function"
    },
    {
      "inputs": [],
      "name": "pause",
      "outputs": [],
      "stateMutability": "nonpayable",
      "type": "function"
    },
    {
      "inputs": [],
      "name": "paused",
      "outputs": [
        {
          "internalType": "bool",
          "name": "",
          "type": "bool"
        }
      ],
      "stateMutability": "view",
      "type": "function"
    },
    {
      "inputs": [
        {
          "internalType": "bytes32",
          "name": "",
          "type": "bytes32"
        }
      ],
      "name": "pendingRecoveryAddress",
      "outputs": [
        {
          "internalType": "address",
          "name": "",
          "type": "address"
        }
      ],
      "stateMutability": "view",
      "type": "function"
    },
    {
      "inputs": [
        {
          "internalType": "bytes32",
          "name": "",
          "type": "bytes32"
        }
      ],
      "name": "recoveryApprovalCount",
      "outputs": [
        {
          "internalType": "uint256",
          "name": "",
          "type": "uint256"
        }
      ],
      "stateMutability": "view",
      "type": "function"
    },
    {
      "inputs": [
        {
          "internalType": "bytes32",
          "name": "",
          "type": "bytes32"
        },
        {
          "internalType": "address",
          "name": "",
          "type": "address"
        }
      ],
      "name": "recoveryApprovals",
      "outputs": [
        {
          "internalType": "bool",
          "name": "",
          "type": "bool"
        }
      ],
      "stateMutability": "view",
      "type": "function"
    },
    {
      "inputs": [
        {
          "internalType": "bytes32",
          "name": "role",
          "type": "bytes32"
        },
        {
          "internalType": "address",
          "name": "callerConfirmation",
          "type": "address"
        }
      ],
      "name": "renounceRole",
      "outputs": [],
      "stateMutability": "nonpayable",
      "type": "function"
    },
    {
      "inputs": [
        {
          "internalType": "bytes32",
          "name": "_did",
          "type": "bytes32"
        }
      ],
      "name": "revokeIdentity",
      "outputs": [],
      "stateMutability": "nonpayable",
      "type": "function"
    },
    {
      "inputs": [
        {
          "internalType": "bytes32",
          "name": "role",
          "type": "bytes32"
        },
        {
          "internalType": "address",
          "name": "account",
          "type": "address"
        }
      ],
      "name": "revokeRole",
      "outputs": [],
      "stateMutability": "nonpayable",
      "type": "function"
    },
    {
      "inputs": [
        {
          "internalType": "bytes32",
          "name": "_did",
          "type": "bytes32"
        },
        {
          "internalType": "uint256",
          "name": "_verificationIndex",
          "type": "uint256"
        }
      ],
      "name": "revokeVerification",
      "outputs": [],
      "stateMutability": "nonpayable",
      "type": "function"
    },
    {
      "inputs": [
        {
          "internalType": "bytes4",
          "name": "interfaceId",
          "type": "bytes4"
        }
      ],
      "name": "supportsInterface",
      "outputs": [
        {
          "internalType": "bool",
          "name": "",
          "type": "bool"
        }
      ],
      "stateMutability": "view",
      "type": "function"
    },
    {
      "inputs": [],
      "name": "totalIdentities",
      "outputs": [
        {
          "internalType": "uint256",
          "name": "",
          "type": "uint256"
        }
      ],
      "stateMutability": "view",
      "type": "function"
    },
    {
      "inputs": [],
      "name": "totalVerifications",
      "outputs": [
        {
          "internalType": "uint256",
          "name": "",
          "type": "uint256"
        }
      ],
      "stateMutability": "view",
      "type": "function"
    },
    {
      "inputs": [],
      "name": "unpause",
      "outputs": [],
      "stateMutability": "nonpayable",
      "type": "function"
    },
    {
      "inputs": [
        {
          "internalType": "bytes32",
          "name": "_did",
          "type": "bytes32"
        },
        {
          "internalType": "string",
          "name": "_newIpfsHash",
          "type": "string"
        }
      ],
      "name": "updateIdentity",
      "outputs": [],
      "stateMutability": "nonpayable",
      "type": "function"
    },
    {
      "inputs": [
        {
          "internalType": "bytes32",
          "name": "",
          "type": "bytes32"
        },
        {
          "internalType": "uint256",
          "name": "",
          "type": "uint256"
        }
      ],
      "name": "verifications",
      "outputs": [
        {
          "internalType": "address",
          "name": "verifier",
          "type": "address"
        },
        {
          "internalType": "uint256",
          "name": "timestamp",
          "type": "uint256"
        },
        {
          "internalType": "uint8",
          "name": "verificationType",
          "type": "uint8"
        },
        {
          "internalType": "bytes32",
          "name": "proofHash",
          "type": "bytes32"
        },
        {
          "internalType": "bool",
          "name": "isValid",
          "type": "bool"
        }
      ],
      "stateMutability": "view",
      "type": "function"
    },
    {
      "inputs": [
        {
          "internalType": "bytes32",
          "name": "_did",
          "type": "bytes32"
        },
        {
          "internalType": "address",
          "name": "_owner",
          "type": "address"
        }
      ],
      "name": "verifyOwnership",
      "outputs": [
        {
          "internalType": "bool",
          "name": "",
          "type": "bool"
        }
      ],
      "stateMutability": "view",
      "type": "function"
    }
  ],
  "bytecode": "0x60806040523480156200001157600080fd5b50600180819055506200002e6000801b336200006860201b60201c565b50620000617fa49807205ce4d355092ef5a8a18f56e8913cf4a201fbe287825b095693c21775336200006860201b60201c565b50620001dd565b60006200007c83836200016b60201b60201c565b6200016057600160008085815260200190815260200160002060000160008473ffffffffffffffffffffffffffffffffffffffff1673ffffffffffffffffffffffffffffffffffffffff16815260200190815260200160002060006101000a81548160ff021916908315150217905550620000fc620001d560201b60201c565b73ffffffffffffffffffffffffffffffffffffffff168273ffffffffffffffffffffffffffffffffffffffff16847f2f8788117e7eff1d82e926ec794901d17c78024a50270940304540a733656f0d60405160405180910390a46001905062000165565b600090505b92915050565b600080600084815260200190815260200160002060000160008373ffffffffffffffffffffffffffffffffffffffff1673ffffffffffffffffffffffffffffffffffffffff16815260200190815260200160002060009054906101000a900460ff16905092915050565b600033905090565b61412080620001ed6000396000f3fe608060405234801561001057600080fd5b506004361061021c5760003560e01c806382aefa2411610125578063aaa55271116100ad578063d547741f1161007c578063d547741f146106c0578063e7705db6146106dc578063eb4e9b09146106fa578063f5c5987b1461072a578063fed888ba146107485761021c565b8063aaa5527114610622578063ac90c1401461063e578063c90a0c0d1461065c578063d1e94e571461068c5761021c565b806391d14854116100f457806391d148541461053e5780639551dd701461056e578063a217fddf1461059e578063a4a3a4a3146105bc578063a7867212146105ec5761021c565b806382aefa24146104ca5780638456cb59146104e857806385431596146104f25780638e52fa7e1461050e5761021c565b80633f4ba83a116101a85780635c975abb116101775780635c975abb1461040b57806368147e361461042957806375b238fc14610445578063790ca2dd1461046357806381638e9b146104935761021c565b80633f4ba83a14610385578063484cc1d51461038f5780634d41f49b146103ab5780635585863a146103db5761021c565b8063213a5c25116101ef578063213a5c25146102d1578063248a9ca3146103015780632f2ff15d1461033157806336568abe1461034d578063369ee8f4146103695761021c565b806301ffc9a7146102215780630a03ca5b146102515780630a09185e146102855780630fa39676146102b5575b600080fd5b61023b60048036038101906102369190612d03565b610764565b6040516102489190612d4b565b60405180910390f35b61026b60048036038101906102669190612dd2565b6107de565b60405161027c959493929190612e8d565b60405180910390f35b61029f600480360381019061029a9190612f0c565b610950565b6040516102ac9190612d4b565b60405180910390f35b6102cf60048036038101906102ca9190612dd2565b61097f565b005b6102eb60048036038101906102e69190612f4c565b610b51565b6040516102f89190612f79565b60405180910390f35b61031b60048036038101906103169190612f4c565b610b69565b6040516103289190612f94565b60405180910390f35b61034b60048036038101906103469190612f0c565b610b88565b005b61036760048036038101906103629190612f0c565b610baa565b005b610383600480360381019061037e9190612fdb565b610c25565b005b61038d610f3f565b005b6103a960048036038101906103a49190612f4c565b610f74565b005b6103c560048036038101906103c09190612f0c565b6111ea565b6040516103d29190612d4b565b60405180910390f35b6103f560048036038101906103f09190612f4c565b6112b2565b6040516104029190612f79565b60405180910390f35b6104136112d2565b6040516104209190612d4b565b60405180910390f35b610443600480360381019061043e9190612f0c565b6112e9565b005b61044d61155f565b60405161045a9190612f94565b60405180910390f35b61047d60048036038101906104789190612dd2565b611583565b60405161048a919061302e565b60405180910390f35b6104ad60048036038101906104a89190612f4c565b6115d1565b6040516104c19897969594939291906130d9565b60405180910390f35b6104d26116db565b6040516104df9190612f94565b60405180910390f35b6104f06116ff565b005b61050c60048036038101906105079190612f0c565b611734565b005b61052860048036038101906105239190612f4c565b611971565b604051610535919061302e565b60405180910390f35b61055860048036038101906105539190612f0c565b6119a4565b6040516105659190612d4b565b60405180910390f35b61058860048036038101906105839190613293565b611a0e565b6040516105959190612f94565b60405180910390f35b6105a6611d4f565b6040516105b39190612f94565b60405180910390f35b6105d660048036038101906105d19190612f4c565b611d56565b6040516105e391906133ad565b60405180910390f35b61060660048036038101906106019190612f4c565b611df7565b60405161061997969594939291906133cf565b60405180910390f35b61063c60048036038101906106379190613293565b611fa8565b005b610646612196565b6040516106539190612f79565b60405180910390f35b61067660048036038101906106719190612f4c565b61219c565b6040516106839190612d4b565b60405180910390f35b6106a660048036038101906106a19190612dd2565b6121bc565b6040516106b7959493929190612e8d565b60405180910390f35b6106da60048036038101906106d59190612f0c565b612249565b005b6106e461226b565b6040516106f19190612f94565b60405180910390f35b610714600480360381019061070f9190613445565b61228f565b6040516107219190612f94565b60405180910390f35b6107326122a7565b60405161073f9190612f79565b60405180910390f35b610762600480360381019061075d9190612f4c565b6122ad565b005b60007f7965db0b000000000000000000000000000000000000000000000000000000007bffffffffffffffffffffffffffffffffffffffffffffffffffffffff1916827bffffffffffffffffffffffffffffffffffffffffffffffffffffffff191614806107d757506107d68261249a565b5b9050919050565b60008060008060006005600088815260200190815260200160002080549050861061083e576040517f08c379a0000000000000000000000000000000000000000000000000000000008152600401610835906134be565b60405180910390fd5b6000600560008981526020019081526020016000208781548110610865576108646134de565b5b90600052602060002090600502016040518060a00160405290816000820160009054906101000a900473ffffffffffffffffffffffffffffffffffffffff1673ffffffffffffffffffffffffffffffffffffffff1673ffffffffffffffffffffffffffffffffffffffff168152602001600182015481526020016002820160009054906101000a900460ff1660ff1660ff168152602001600382015481526020016004820160009054906101000a900460ff16151515158152505090508060000151816020015182604001518360600151846080015195509550955095509550509295509295909350565b60086020528160005260406000206020528060005260406000206000915091509054906101000a900460ff1681565b7f0ce23c3e399818cfee81a7ab0880f714e53d7672b08df0fa62f2843416e1ea096109a981612504565b60056000848152602001908152602001600020805490508210610a01576040517f08c379a00000000000000000000000000000000000000000000000000000000081526004016109f8906134be565b60405180910390fd5b3373ffffffffffffffffffffffffffffffffffffffff16600560008581526020019081526020016000208381548110610a3d57610a3c6134de565b5b906000526020600020906005020160000160009054906101000a900473ffffffffffffffffffffffffffffffffffffffff1673ffffffffffffffffffffffffffffffffffffffff1614610ac5576040517f08c379a0000000000000000000000000000000000000000000000000000000008152600401610abc90613559565b60405180910390fd5b6000600560008581526020019081526020016000208381548110610aec57610aeb6134de565b5b906000526020600020906005020160040160006101000a81548160ff021916908315150217905550827f028f5ce3c594baa822c41c353b7e13129f0bbc6fb9fb5dc0f5a4e2f5e49a6eea83604051610b449190612f79565b60405180910390a2505050565b600a6020528060005260406000206000915090505481565b6000806000838152602001908152602001600020600101549050919050565b610b9182610b69565b610b9a81612504565b610ba48383612518565b50505050565b610bb2612609565b73ffffffffffffffffffffffffffffffffffffffff168173ffffffffffffffffffffffffffffffffffffffff1614610c16576040517f6697b23200000000000000000000000000000000000000000000000000000000815260040160405180910390fd5b610c208282612611565b505050565b610c2d612703565b7f0ce23c3e399818cfee81a7ab0880f714e53d7672b08df0fa62f2843416e1ea09610c5781612504565b6003600085815260200190815260200160002060040160009054906101000a900460ff16610cba576040517f08c379a0000000000000000000000000000000000000000000000000000000008152600401610cb1906135c5565b60405180910390fd5b6003600085815260200190815260200160002060040160019054906101000a900460ff1615610d1e576040517f08c379a0000000000000000000000000000000000000000000000000000000008152600401610d1590613631565b60405180910390fd5b60018360ff1610158015610d36575060048360ff1611155b610d75576040517f08c379a0000000000000000000000000000000000000000000000000000000008152600401610d6c9061369d565b60405180910390fd5b600560008581526020019081526020016000206040518060a001604052803373ffffffffffffffffffffffffffffffffffffffff1681526020014281526020018560ff16815260200184815260200160011515815250908060018154018082558091505060019003906000526020600020906005020160009091909190915060008201518160000160006101000a81548173ffffffffffffffffffffffffffffffffffffffff021916908373ffffffffffffffffffffffffffffffffffffffff1602179055506020820151816001015560408201518160020160006101000a81548160ff021916908360ff1602179055506060820151816003015560808201518160040160006101000a81548160ff021916908315150217905550505060036000858152602001908152602001600020600601548360ff161115610ed2578260ff1660036000868152602001908152602001600020600601819055505b600c6000815480929190610ee5906136ec565b91905055503373ffffffffffffffffffffffffffffffffffffffff16847fe849e3ea7cba7bd95c92b789cfb588a7acf2910811880a6f86082cb461adf43185604051610f319190613734565b60405180910390a350505050565b7fa49807205ce4d355092ef5a8a18f56e8913cf4a201fbe287825b095693c21775610f6981612504565b610f71612744565b50565b610f7e81336127a7565b610fbd576040517f08c379a0000000000000000000000000000000000000000000000000000000008152600401610fb49061379b565b60405180910390fd5b600073ffffffffffffffffffffffffffffffffffffffff166009600083815260200190815260200160002060009054906101000a900473ffffffffffffffffffffffffffffffffffffffff1673ffffffffffffffffffffffffffffffffffffffff160361105f576040517f08c379a000000000000000000000000000000000000000000000000000000000815260040161105690613807565b60405180910390fd5b6008600082815260200190815260200160002060003373ffffffffffffffffffffffffffffffffffffffff1673ffffffffffffffffffffffffffffffffffffffff16815260200190815260200160002060009054906101000a900460ff16156110fd576040517f08c379a00000000000000000000000000000000000000000000000000000000081526004016110f490613873565b60405180910390fd5b60016008600083815260200190815260200160002060003373ffffffffffffffffffffffffffffffffffffffff1673ffffffffffffffffffffffffffffffffffffffff16815260200190815260200160002060006101000a81548160ff021916908315150217905550600a6000828152602001908152602001600020600081548092919061118a906136ec565b919050555060006001600260076000858152602001908152602001600020805490506111b691906138c2565b6111c091906138f3565b905080600a600084815260200190815260200160002054106111e6576111e582612878565b5b5050565b60008173ffffffffffffffffffffffffffffffffffffffff166003600085815260200190815260200160002060010160009054906101000a900473ffffffffffffffffffffffffffffffffffffffff1673ffffffffffffffffffffffffffffffffffffffff1614801561127d57506003600084815260200190815260200160002060040160009054906101000a900460ff165b80156112aa57506003600084815260200190815260200160002060040160019054906101000a900460ff16155b905092915050565b600060056000838152602001908152602001600020805490509050919050565b6000600260009054906101000a900460ff16905090565b6112f382336127a7565b611332576040517f08c379a00000000000000000000000000000000000000000000000000000000081526004016113299061379b565b60405180910390fd5b600073ffffffffffffffffffffffffffffffffffffffff168173ffffffffffffffffffffffffffffffffffffffff16036113a1576040517f08c379a000000000000000000000000000000000000000000000000000000000815260040161139890613973565b60405180910390fd5b600073ffffffffffffffffffffffffffffffffffffffff166009600084815260200190815260200160002060009054906101000a900473ffffffffffffffffffffffffffffffffffffffff1673ffffffffffffffffffffffffffffffffffffffff1614611443576040517f08c379a000000000000000000000000000000000000000000000000000000000815260040161143a906139df565b60405180910390fd5b806009600084815260200190815260200160002060006101000a81548173ffffffffffffffffffffffffffffffffffffffff021916908373ffffffffffffffffffffffffffffffffffffffff16021790555060016008600084815260200190815260200160002060003373ffffffffffffffffffffffffffffffffffffffff1673ffffffffffffffffffffffffffffffffffffffff16815260200190815260200160002060006101000a81548160ff0219169083151502179055506001600a6000848152602001908152602001600020819055508073ffffffffffffffffffffffffffffffffffffffff16827f19e7e0655fb515d4f56fdc04dee16b5253c714efe38b468d4c5de010bed4fd7e60405160405180910390a35050565b7fa49807205ce4d355092ef5a8a18f56e8913cf4a201fbe287825b095693c2177581565b6007602052816000526040600020818154811061159f57600080fd5b906000526020600020016000915091509054906101000a900473ffffffffffffffffffffffffffffffffffffffff1681565b60036020528060005260406000206000915090508060000154908060010160009054906101000a900473ffffffffffffffffffffffffffffffffffffffff16908060020154908060030154908060040160009054906101000a900460ff16908060040160019054906101000a900460ff169080600501805461165290613a2e565b80601f016020809104026020016040519081016040528092919081815260200182805461167e90613a2e565b80156116cb5780601f106116a0576101008083540402835291602001916116cb565b820191906000526020600020905b8154815290600101906020018083116116ae57829003601f168201915b5050505050908060060154905088565b7f114e74f6ea3bd819998f78687bfcb11b140da08e9b7d222fa9c1f1ba1f2aa12281565b7fa49807205ce4d355092ef5a8a18f56e8913cf4a201fbe287825b095693c2177561172981612504565b611731612b54565b50565b3373ffffffffffffffffffffffffffffffffffffffff166003600084815260200190815260200160002060010160009054906101000a900473ffffffffffffffffffffffffffffffffffffffff1673ffffffffffffffffffffffffffffffffffffffff16146117d8576040517f08c379a00000000000000000000000000000000000000000000000000000000081526004016117cf90613aab565b60405180910390fd5b600073ffffffffffffffffffffffffffffffffffffffff168173ffffffffffffffffffffffffffffffffffffffff1603611847576040517f08c379a000000000000000000000000000000000000000000000000000000000815260040161183e90613b17565b60405180910390fd5b3373ffffffffffffffffffffffffffffffffffffffff168173ffffffffffffffffffffffffffffffffffffffff16036118b5576040517f08c379a00000000000000000000000000000000000000000000000000000000081526004016118ac90613b83565b60405180910390fd5b60076000838152602001908152602001600020819080600181540180825580915050600190039060005260206000200160009091909190916101000a81548173ffffffffffffffffffffffffffffffffffffffff021916908373ffffffffffffffffffffffffffffffffffffffff1602179055508073ffffffffffffffffffffffffffffffffffffffff16827fdfd29cf87a6fd17a11ddb0053bbd9909617308a4f52602e97030f428065ad22c60405160405180910390a35050565b60096020528060005260406000206000915054906101000a900473ffffffffffffffffffffffffffffffffffffffff1681565b600080600084815260200190815260200160002060000160008373ffffffffffffffffffffffffffffffffffffffff1673ffffffffffffffffffffffffffffffffffffffff16815260200190815260200160002060009054906101000a900460ff16905092915050565b6000611a18612703565b611a20612bb7565b6006600084815260200190815260200160002060009054906101000a900460ff1615611a81576040517f08c379a0000000000000000000000000000000000000000000000000000000008152600401611a7890613bef565b60405180910390fd5b6000801b600460003373ffffffffffffffffffffffffffffffffffffffff1673ffffffffffffffffffffffffffffffffffffffff1681526020019081526020016000205414611b05576040517f08c379a0000000000000000000000000000000000000000000000000000000008152600401611afc90613c5b565b60405180910390fd5b6000833342604051602001611b1c93929190613d05565b6040516020818303038152906040528051906020012090506040518061010001604052808581526020013373ffffffffffffffffffffffffffffffffffffffff1681526020014281526020014281526020016001151581526020016000151581526020018481526020016000815250600360008381526020019081526020016000206000820151816000015560208201518160010160006101000a81548173ffffffffffffffffffffffffffffffffffffffff021916908373ffffffffffffffffffffffffffffffffffffffff160217905550604082015181600201556060820151816003015560808201518160040160006101000a81548160ff02191690831515021790555060a08201518160040160016101000a81548160ff02191690831515021790555060c0820151816005019081611c589190613eee565b5060e0820151816006015590505060016006600086815260200190815260200160002060006101000a81548160ff02191690831515021790555080600460003373ffffffffffffffffffffffffffffffffffffffff1673ffffffffffffffffffffffffffffffffffffffff16815260200190815260200160002081905550600b6000815480929190611ce9906136ec565b91905055503373ffffffffffffffffffffffffffffffffffffffff16817fa562275cce70e9fe9fd5428cad175fb98c7dcd64810fdbecbda36959e67fc1f142604051611d359190612f79565b60405180910390a380915050611d49612bfd565b92915050565b6000801b81565b606060076000838152602001908152602001600020805480602002602001604051908101604052809291908181526020018280548015611deb57602002820191906000526020600020905b8160009054906101000a900473ffffffffffffffffffffffffffffffffffffffff1673ffffffffffffffffffffffffffffffffffffffff1681526020019060010190808311611da1575b50505050509050919050565b60008060008060006060600080600360008a815260200190815260200160002060405180610100016040529081600082015481526020016001820160009054906101000a900473ffffffffffffffffffffffffffffffffffffffff1673ffffffffffffffffffffffffffffffffffffffff1673ffffffffffffffffffffffffffffffffffffffff16815260200160028201548152602001600382015481526020016004820160009054906101000a900460ff161515151581526020016004820160019054906101000a900460ff16151515158152602001600582018054611edd90613a2e565b80601f0160208091040260200160405190810160405280929190818152602001828054611f0990613a2e565b8015611f565780601f10611f2b57610100808354040283529160200191611f56565b820191906000526020600020905b815481529060010190602001808311611f3957829003601f168201915b50505050508152602001600682015481525050905080602001518160400151826060015183608001518460a001518560c001518660e00151975097509750975097509750975050919395979092949650565b611fb0612703565b3373ffffffffffffffffffffffffffffffffffffffff166003600084815260200190815260200160002060010160009054906101000a900473ffffffffffffffffffffffffffffffffffffffff1673ffffffffffffffffffffffffffffffffffffffff1614612054576040517f08c379a000000000000000000000000000000000000000000000000000000000815260040161204b90613aab565b60405180910390fd5b6003600083815260200190815260200160002060040160009054906101000a900460ff166120b7576040517f08c379a00000000000000000000000000000000000000000000000000000000081526004016120ae906135c5565b60405180910390fd5b6003600083815260200190815260200160002060040160019054906101000a900460ff161561211b576040517f08c379a000000000000000000000000000000000000000000000000000000000815260040161211290613631565b60405180910390fd5b8060036000848152602001908152602001600020600501908161213e9190613eee565b50426003600084815260200190815260200160002060030181905550817fecbb5145bb041a4a7eb6ab8ae51d0233bb6c0413068de57b119161eb700d31ec4260405161218a9190612f79565b60405180910390a25050565b600c5481565b60066020528060005260406000206000915054906101000a900460ff1681565b600560205281600052604060002081815481106121d857600080fd5b9060005260206000209060050201600091509150508060000160009054906101000a900473ffffffffffffffffffffffffffffffffffffffff16908060010154908060020160009054906101000a900460ff16908060030154908060040160009054906101000a900460ff16905085565b61225282610b69565b61225b81612504565b6122658383612611565b50505050565b7f0ce23c3e399818cfee81a7ab0880f714e53d7672b08df0fa62f2843416e1ea0981565b60046020528060005260406000206000915090505481565b600b5481565b3373ffffffffffffffffffffffffffffffffffffffff166003600083815260200190815260200160002060010160009054906101000a900473ffffffffffffffffffffffffffffffffffffffff1673ffffffffffffffffffffffffffffffffffffffff16148061234357506123427fa49807205ce4d355092ef5a8a18f56e8913cf4a201fbe287825b095693c21775336119a4565b5b612382576040517f08c379a00000000000000000000000000000000000000000000000000000000081526004016123799061400c565b60405180910390fd5b6003600082815260200190815260200160002060040160019054906101000a900460ff16156123e6576040517f08c379a00000000000000000000000000000000000000000000000000000000081526004016123dd90614078565b60405180910390fd5b60016003600083815260200190815260200160002060040160016101000a81548160ff02191690831515021790555060006003600083815260200190815260200160002060040160006101000a81548160ff021916908315150217905550426003600083815260200190815260200160002060030181905550807fe8f853e0ccaea1d1ddccdb52df484724ab80bdee46310281f0d5df1e3ab967c34260405161248f9190612f79565b60405180910390a250565b60007f01ffc9a7000000000000000000000000000000000000000000000000000000007bffffffffffffffffffffffffffffffffffffffffffffffffffffffff1916827bffffffffffffffffffffffffffffffffffffffffffffffffffffffff1916149050919050565b61251581612510612609565b612c06565b50565b600061252483836119a4565b6125fe57600160008085815260200190815260200160002060000160008473ffffffffffffffffffffffffffffffffffffffff1673ffffffffffffffffffffffffffffffffffffffff16815260200190815260200160002060006101000a81548160ff02191690831515021790555061259b612609565b73ffffffffffffffffffffffffffffffffffffffff168273ffffffffffffffffffffffffffffffffffffffff16847f2f8788117e7eff1d82e926ec794901d17c78024a50270940304540a733656f0d60405160405180910390a460019050612603565b600090505b92915050565b600033905090565b600061261d83836119a4565b156126f857600080600085815260200190815260200160002060000160008473ffffffffffffffffffffffffffffffffffffffff1673ffffffffffffffffffffffffffffffffffffffff16815260200190815260200160002060006101000a81548160ff021916908315150217905550612695612609565b73ffffffffffffffffffffffffffffffffffffffff168273ffffffffffffffffffffffffffffffffffffffff16847ff6391f5c32d9c69d2a47ea670b442974b53935d1edc7fd64eb21e047a839171b60405160405180910390a4600190506126fd565b600090505b92915050565b61270b6112d2565b15612742576040517fd93c066500000000000000000000000000000000000000000000000000000000815260040160405180910390fd5b565b61274c612c57565b6000600260006101000a81548160ff0219169083151502179055507f5db9ee0a495bf2e6ff9c91a7834c1ba4fdd244a5e8aa4e537bd38aeae4b073aa612790612609565b60405161279d919061302e565b60405180910390a1565b600080600090505b600760008581526020019081526020016000208054905081101561286c578273ffffffffffffffffffffffffffffffffffffffff16600760008681526020019081526020016000208281548110612809576128086134de565b5b9060005260206000200160009054906101000a900473ffffffffffffffffffffffffffffffffffffffff1673ffffffffffffffffffffffffffffffffffffffff1603612859576001915050612872565b8080612864906136ec565b9150506127af565b50600090505b92915050565b60006003600083815260200190815260200160002060010160009054906101000a900473ffffffffffffffffffffffffffffffffffffffff16905060006009600084815260200190815260200160002060009054906101000a900473ffffffffffffffffffffffffffffffffffffffff169050806003600085815260200190815260200160002060010160006101000a81548173ffffffffffffffffffffffffffffffffffffffff021916908373ffffffffffffffffffffffffffffffffffffffff160217905550426003600085815260200190815260200160002060030181905550600460008373ffffffffffffffffffffffffffffffffffffffff1673ffffffffffffffffffffffffffffffffffffffff1681526020019081526020016000206000905582600460008373ffffffffffffffffffffffffffffffffffffffff1673ffffffffffffffffffffffffffffffffffffffff168152602001908152602001600020819055506009600084815260200190815260200160002060006101000a81549073ffffffffffffffffffffffffffffffffffffffff02191690556000600a60008581526020019081526020016000208190555060005b6007600085815260200190815260200160002080549050811015612b1457600860008581526020019081526020016000206000600760008781526020019081526020016000208381548110612a8c57612a8b6134de565b5b9060005260206000200160009054906101000a900473ffffffffffffffffffffffffffffffffffffffff1673ffffffffffffffffffffffffffffffffffffffff1673ffffffffffffffffffffffffffffffffffffffff16815260200190815260200160002060006101000a81549060ff02191690558080612b0c906136ec565b915050612a34565b50827f5681c2f349eef092ce8aa1414187c689b0ff39c2a4321f4d0f24c36d9b21162f8383604051612b47929190614098565b60405180910390a2505050565b612b5c612703565b6001600260006101000a81548160ff0219169083151502179055507f62e78cea01bee320cd4e420270b5ea74000d11b0c9f74754ebdbfc544b05a258612ba0612609565b604051612bad919061302e565b60405180910390a1565b600260015403612bf3576040517f3ee5aeb500000000000000000000000000000000000000000000000000000000815260040160405180910390fd5b6002600181905550565b60018081905550565b612c1082826119a4565b612c535780826040517fe2517d3f000000000000000000000000000000000000000000000000000000008152600401612c4a9291906140c1565b60405180910390fd5b5050565b612c5f6112d2565b612c95576040517f8dfc202b00000000000000000000000000000000000000000000000000000000815260040160405180910390fd5b565b6000604051905090565b600080fd5b600080fd5b60007fffffffff0000000000000000000000000000000000000000000000000000000082169050919050565b612ce081612cab565b8114612ceb57600080fd5b50565b600081359050612cfd81612cd7565b92915050565b600060208284031215612d1957612d18612ca1565b5b6000612d2784828501612cee565b91505092915050565b60008115159050919050565b612d4581612d30565b82525050565b6000602082019050612d606000830184612d3c565b92915050565b6000819050919050565b612d7981612d66565b8114612d8457600080fd5b50565b600081359050612d9681612d70565b92915050565b6000819050919050565b612daf81612d9c565b8114612dba57600080fd5b50565b600081359050612dcc81612da6565b92915050565b60008060408385031215612de957612de8612ca1565b5b6000612df785828601612d87565b9250506020612e0885828601612dbd565b9150509250929050565b600073ffffffffffffffffffffffffffffffffffffffff82169050919050565b6000612e3d82612e12565b9050919050565b612e4d81612e32565b82525050565b612e5c81612d9c565b82525050565b600060ff82169050919050565b612e7881612e62565b82525050565b612e8781612d66565b82525050565b600060a082019050612ea26000830188612e44565b612eaf6020830187612e53565b612ebc6040830186612e6f565b612ec96060830185612e7e565b612ed66080830184612d3c565b9695505050505050565b612ee981612e32565b8114612ef457600080fd5b50565b600081359050612f0681612ee0565b92915050565b60008060408385031215612f2357612f22612ca1565b5b6000612f3185828601612d87565b9250506020612f4285828601612ef7565b9150509250929050565b600060208284031215612f6257612f61612ca1565b5b6000612f7084828501612d87565b91505092915050565b6000602082019050612f8e6000830184612e53565b92915050565b6000602082019050612fa96000830184612e7e565b92915050565b612fb881612e62565b8114612fc357600080fd5b50565b600081359050612fd581612faf565b92915050565b600080600060608486031215612ff457612ff3612ca1565b5b600061300286828701612d87565b935050602061301386828701612fc6565b925050604061302486828701612d87565b9150509250925092565b60006020820190506130436000830184612e44565b92915050565b600081519050919050565b600082825260208201905092915050565b60005b83811015613083578082015181840152602081019050613068565b60008484015250505050565b6000601f19601f8301169050919050565b60006130ab82613049565b6130b58185613054565b93506130c5818560208601613065565b6130ce8161308f565b840191505092915050565b6000610100820190506130ef600083018b612e7e565b6130fc602083018a612e44565b6131096040830189612e53565b6131166060830188612e53565b6131236080830187612d3c565b61313060a0830186612d3c565b81810360c083015261314281856130a0565b905061315160e0830184612e53565b9998505050505050505050565b600080fd5b600080fd5b7f4e487b7100000000000000000000000000000000000000000000000000000000600052604160045260246000fd5b6131a08261308f565b810181811067ffffffffffffffff821117156131bf576131be613168565b5b80604052505050565b60006131d2612c97565b90506131de8282613197565b919050565b600067ffffffffffffffff8211156131fe576131fd613168565b5b6132078261308f565b9050602081019050919050565b82818337600083830152505050565b6000613236613231846131e3565b6131c8565b90508281526020810184848401111561325257613251613163565b5b61325d848285613214565b509392505050565b600082601f83011261327a5761327961315e565b5b813561328a848260208601613223565b91505092915050565b600080604083850312156132aa576132a9612ca1565b5b60006132b885828601612d87565b925050602083013567ffffffffffffffff8111156132d9576132d8612ca6565b5b6132e585828601613265565b9150509250929050565b600081519050919050565b600082825260208201905092915050565b6000819050602082019050919050565b61332481612e32565b82525050565b6000613336838361331b565b60208301905092915050565b6000602082019050919050565b600061335a826132ef565b61336481856132fa565b935061336f8361330b565b8060005b838110156133a0578151613387888261332a565b975061339283613342565b925050600181019050613373565b5085935050505092915050565b600060208201905081810360008301526133c7818461334f565b905092915050565b600060e0820190506133e4600083018a612e44565b6133f16020830189612e53565b6133fe6040830188612e53565b61340b6060830187612d3c565b6134186080830186612d3c565b81810360a083015261342a81856130a0565b905061343960c0830184612e53565b98975050505050505050565b60006020828403121561345b5761345a612ca1565b5b600061346984828501612ef7565b91505092915050565b7f496e76616c696420696e64657800000000000000000000000000000000000000600082015250565b60006134a8600d83613054565b91506134b382613472565b602082019050919050565b600060208201905081810360008301526134d78161349b565b9050919050565b7f4e487b7100000000000000000000000000000000000000000000000000000000600052603260045260246000fd5b7f4e6f7420766572696669636174696f6e206f776e657200000000000000000000600082015250565b6000613543601683613054565b915061354e8261350d565b602082019050919050565b6000602082019050818103600083015261357281613536565b9050919050565b7f4964656e74697479206e6f742061637469766500000000000000000000000000600082015250565b60006135af601383613054565b91506135ba82613579565b602082019050919050565b600060208201905081810360008301526135de816135a2565b9050919050565b7f4964656e74697479207265766f6b656400000000000000000000000000000000600082015250565b600061361b601083613054565b9150613626826135e5565b602082019050919050565b6000602082019050818103600083015261364a8161360e565b9050919050565b7f496e76616c696420766572696669636174696f6e207479706500000000000000600082015250565b6000613687601983613054565b915061369282613651565b602082019050919050565b600060208201905081810360008301526136b68161367a565b9050919050565b7f4e487b7100000000000000000000000000000000000000000000000000000000600052601160045260246000fd5b60006136f782612d9c565b91507fffffffffffffffffffffffffffffffffffffffffffffffffffffffffffffffff8203613729576137286136bd565b5b600182019050919050565b60006020820190506137496000830184612e6f565b92915050565b7f4e6f74206120677561726469616e000000000000000000000000000000000000600082015250565b6000613785600e83613054565b91506137908261374f565b602082019050919050565b600060208201905081810360008301526137b481613778565b9050919050565b7f4e6f2070656e64696e67207265636f7665727900000000000000000000000000600082015250565b60006137f1601383613054565b91506137fc826137bb565b602082019050919050565b60006020820190508181036000830152613820816137e4565b9050919050565b7f416c726561647920617070726f76656400000000000000000000000000000000600082015250565b600061385d601083613054565b915061386882613827565b602082019050919050565b6000602082019050818103600083015261388c81613850565b9050919050565b7f4e487b7100000000000000000000000000000000000000000000000000000000600052601260045260246000fd5b60006138cd82612d9c565b91506138d883612d9c565b9250826138e8576138e7613893565b5b828204905092915050565b60006138fe82612d9c565b915061390983612d9c565b9250828201905080821115613921576139206136bd565b5b92915050565b7f496e76616c6964206e6577206f776e6572000000000000000000000000000000600082015250565b600061395d601183613054565b915061396882613927565b602082019050919050565b6000602082019050818103600083015261398c81613950565b9050919050565b7f5265636f7665727920616c72656164792070656e64696e670000000000000000600082015250565b60006139c9601883613054565b91506139d482613993565b602082019050919050565b600060208201905081810360008301526139f8816139bc565b9050919050565b7f4e487b7100000000000000000000000000000000000000000000000000000000600052602260045260246000fd5b60006002820490506001821680613a4657607f821691505b602082108103613a5957613a586139ff565b5b50919050565b7f4e6f74206964656e74697479206f776e65720000000000000000000000000000600082015250565b6000613a95601283613054565b9150613aa082613a5f565b602082019050919050565b60006020820190508181036000830152613ac481613a88565b9050919050565b7f496e76616c696420677561726469616e20616464726573730000000000000000600082015250565b6000613b01601883613054565b9150613b0c82613acb565b602082019050919050565b60006020820190508181036000830152613b3081613af4565b9050919050565b7f43616e6e6f742062652073656c66000000000000000000000000000000000000600082015250565b6000613b6d600e83613054565b9150613b7882613b37565b602082019050919050565b60006020820190508181036000830152613b9c81613b60565b9050919050565b7f4964656e7469747920616c726561647920657869737473000000000000000000600082015250565b6000613bd9601783613054565b9150613be482613ba3565b602082019050919050565b60006020820190508181036000830152613c0881613bcc565b9050919050565b7f4164647265737320616c726561647920686173206964656e7469747900000000600082015250565b6000613c45601c83613054565b9150613c5082613c0f565b602082019050919050565b60006020820190508181036000830152613c7481613c38565b9050919050565b6000819050919050565b613c96613c9182612d66565b613c7b565b82525050565b60008160601b9050919050565b6000613cb482613c9c565b9050919050565b6000613cc682613ca9565b9050919050565b613cde613cd982612e32565b613cbb565b82525050565b6000819050919050565b613cff613cfa82612d9c565b613ce4565b82525050565b6000613d118286613c85565b602082019150613d218285613ccd565b601482019150613d318284613cee565b602082019150819050949350505050565b60008190508160005260206000209050919050565b60006020601f8301049050919050565b600082821b905092915050565b600060088302613da47fffffffffffffffffffffffffffffffffffffffffffffffffffffffffffffffff82613d67565b613dae8683613d67565b95508019841693508086168417925050509392505050565b6000819050919050565b6000613deb613de6613de184612d9c565b613dc6565b612d9c565b9050919050565b6000819050919050565b613e0583613dd0565b613e19613e1182613df2565b848454613d74565b825550505050565b600090565b613e2e613e21565b613e39818484613dfc565b505050565b5b81811015613e5d57613e52600082613e26565b600181019050613e3f565b5050565b601f821115613ea257613e7381613d42565b613e7c84613d57565b81016020851015613e8b578190505b613e9f613e9785613d57565b830182613e3e565b50505b505050565b600082821c905092915050565b6000613ec560001984600802613ea7565b1980831691505092915050565b6000613ede8383613eb4565b9150826002028217905092915050565b613ef782613049565b67ffffffffffffffff811115613f1057613f0f613168565b5b613f1a8254613a2e565b613f25828285613e61565b600060209050601f831160018114613f585760008415613f46578287015190505b613f508582613ed2565b865550613fb8565b601f198416613f6686613d42565b60005b82811015613f8e57848901518255600182019150602085019450602081019050613f69565b86831015613fab5784890151613fa7601f891682613eb4565b8355505b6001600288020188555050505b505050505050565b7f4e6f7420617574686f72697a6564000000000000000000000000000000000000600082015250565b6000613ff6600e83613054565b915061400182613fc0565b602082019050919050565b6000602082019050818103600083015261402581613fe9565b9050919050565b7f416c7265616479207265766f6b65640000000000000000000000000000000000600082015250565b6000614062600f83613054565b915061406d8261402c565b602082019050919050565b6000602082019050818103600083015261409181614055565b9050919050565b60006040820190506140ad6000830185612e44565b6140ba6020830184612e44565b9392505050565b60006040820190506140d66000830185612e44565b6140e36020830184612e7e565b939250505056fea264697066735822122091cd906a9c46bad7b9d3218e1b3509fea8ac4d4f612e5a91f40d65ff0eaa418264736f6c63430008140033",
  "linkReferences": {},
  "deployedLinkReferences": {}
}